:020000040800F2
:1000000080380020C9010008D10100086F5C000899
:10001000D5010008D7010008D90100080000000040
:10002000000000000000000000000000DB010008EC
:10003000DD01000800000000F75B0008C3020008B3
:10004000E3010008E3010008E3010008E301000800
:10005000E3010008E3010008E3010008E3010008F0
:10006000E3010008E3010008E3010008E3010008E0
:10007000E3010008E3010008E3010008E3010008D0
:10008000E3010008E3010008E3010008E3010008C0
:10009000E3010008E3010008E3010008E3010008B0
:1000A000E3010008E3010008E3010008E3010008A0
:1000B000E3010008E3010008B12A0008E301000899
:1000C000E3010008E3010008E3010008E301000880
:1000D000E3010008EF280008F72800081D290008A0
:1000E000E3010008E3010008E301000800F002F862
:1000F00000F05AF80AA090E8000C82448344AAF168
:100100000107DA4501D100F04FF8AFF2090EBAE865
:100110000F0013F0010F18BFFB1A43F0010318473B
:10012000707F0000907F00000A444FF0000C10F830
:10013000013B13F0070408BF10F8014B1D1108BF65
:1001400010F8015B641E05D010F8016B641E01F805
:10015000016BF9D113F0080F1EBF10F8014BAD1C55
:100160000C1B09D16D1E58BF01F801CBFAD505E073
:1001700014F8016B01F8016B6D1EF9D59142D6D3CD
:10018000704700000023002400250026103A28BFF5
:1001900078C1FBD8520728BF30C148BF0B607047F9
:1001A0001FB51FBD10B510BD07F0BBF81146FFF716
:1001B000F7FF04F0BBF907F0D9F803B4FFF7F2FF3B
:1001C00003BC07F0E1F800000948804709480047F0
:1001D000FEE7FEE7FEE7FEE7FEE7FEE7FEE7FEE7F7
:1001E000FEE7FEE704480549054A064B7047000054
:1001F000DD050008ED000008803200208038002076
:10020000803400208034002010B500F0B8F80020C1
:1002100010BD30B585B0684600F061FB4FF47A72CE
:100220000198B0FBF2F1B1F1807F00D31DE021F025
:100230007F40401E4FF0E022506150170F220028EF
:1002400007DA13071D0E0A4B00F00F04241F1D557B
:1002500003E013071C0E074B1C5400BF00204FF097
:10026000E02290610720106100BF05B030BD0000A2
:1002700018ED00E000E400E00146481EB0F1807F88
:1002800001D301207047481E4FF0E0225061FF204B
:10029000104A107000204FF0E0229061072010619A
:1002A0000020EFE710B500F0C0F90B4800684FF4EC
:1002B0007A71B0FBF1F42046FFF7DEFF04F0F0F8AE
:1002C00010BD10B504F0B0F904F0AFF804F0B9F9BE
:1002D00010BD000023ED00E01800002008B501214A
:1002E000042000F069FB4FF48070ADF8000010208E
:1002F0008DF8030003208DF802006946444801F0A0
:1003000031FD4FF48071424801F0DBFD08BD24E06F
:1003100006F0ADFF0A2005F030F93E4800680128DC
:1003200006D04FF480713A4801F0AFFD012805D1A5
:1003300039480078401C3849087002E000203649EE
:100340000870354800780A2807DB4FF48071304880
:1003500001F0B7FD00202F490860D9E704E002F062
:10036000B5F8052005F009F9F9E710B50446FFF7DF
:10037000B5FF06F0DAFEC82005F0FFF810BD1FB586
:10038000FFF747FF4FF47A7002F096FC05F096FCF9
:1003900005F03DFD06F05AFF142003214FF4806262
:1003A0001E4BCDE90032CDE9021000231C4A1DA1ED
:1003B0001E4804F0F3FF142004210A021C4BCDE96F
:1003C0000032CDE9021000231A4A1BA11C4804F098
:1003D000E5FF142005214FF480621A4BCDE900326D
:1003E000CDE902100023184A18A11A4804F0D6FFDC
:1003F000184805F00EF8322005F0BFF8104805F057
:1004000008F80A4805F005F8012004B010BD000006
:10041000000801401000002016000020FC01002010
:100420006B0300087461736B3100000084010020CD
:10043000740600205D0300087461736B32000000D5
:10044000FC050020EC0A00200F0300087461736BA8
:1004500033000000740A002031490143314A116021
:10046000704770B5002100230F22C47804B32D4CCF
:10047000246804F4E064C4F5E064210AC1F10403D3
:10048000CA40447804FA03F18478144021430901F6
:10049000254C0678A155047804F01F050124AC40D2
:1004A00005786D11AD0005F1E025C5F8004109E0C2
:1004B000047804F01F050124AC401C4D0678761129
:1004C00045F8264070BD1A4A0A400243154B1B1FCF
:1004D0001A60704739B1134A121D12680243114B5A
:1004E0001B1D1A6006E00F4A121D126882430D4B55
:1004F0001B1D1A607047042808D14FF0E0210969DC
:1005000041F004014FF0E022116107E04FF0E021DB
:10051000096921F004014FF0E022116170470000E9
:100520000000FA050CED00E000E400E080E100E0EE
:1005300080FFFF1F0CB50020019000905E4800680E
:1005400040F480305C49086000BF5B48006800F4FC
:10055000003000900198401C0190009818B9019853
:10056000B0F5A06FF1D15448006800F4003010B12C
:100570000120009001E0002000900098012828D17F
:100580004E48006840F010004C490860084600687A
:1005900020F003000860084600680860464840688C
:1005A00045494860084640684860084640684860D9
:1005B0000846406820F0030048600846406840F064
:1005C0000100486000BF3C48406800F00C0004286F
:1005D000F9D10CBD10B5FFF7ADFF10BD10B5364811
:1005E000006840F00100344908600846406834491A
:1005F00008403149486008460068324908402E49A1
:1006000008600846006820F48020086008464068BA
:1006100020F4FE0048604FF41F008860FFF7DAFF07
:100620004FF000602849086010BD10B5002100207F
:100630000022214B5B6803F00C0121B1042906D094
:10064000082928D107E0214B214C236027E01F4BCC
:100650001F4C236023E0184B5B6803F47010164BAB
:100660005B6803F48032022303EB904022B9194BFC
:100670004343174C23600DE00F4B5B6803F40033DA
:1006800023B1144B4343124C236003E00F4B43430D
:100690000F4C236003E00D4B0D4C236000BF00BFE7
:1006A000054B5B68C3F303130B4CE15C084B1B6801
:1006B000CB40074C236010BD0010024000200240D8
:1006C0000000FFF8FFFFF6FE08ED00E000127A00E0
:1006D0001800002000093D001C000020DF480068D1
:1006E00040F00100DD49086008464068DC490840E8
:1006F000DA49486008460068DA490840D749086086
:100700000846006820F4802008600846406820F40D
:10071000FE0048604FF41F0088607047CF490968A9
:1007200021F48031CD4A11601146096821F48021FD
:100730001160B0F5803F03D0B0F5802F0ED106E0F8
:10074000C649096841F48031C44A116007E0C349D1
:10075000096841F4A021C14A116000E000BF00BF58
:10076000704710B501460022002300204A11012ADB
:1007700002D1BA4C236806E0022A02D1B74C236AA0
:1007800001E0B64C636A01F01F02012494401C4052
:100790000CB1012000E0002010BD38B50020009011
:1007A0000024002500BF3120FFF7DBFF054600983D
:1007B000401C00900098B0F5A06F01D0002DF2D041
:1007C0003120FFF7CEFF08B1012400E000242046CD
:1007D00038BD01460020A14A106820F0F80040EA28
:1007E000C10010607047A0490860704702460020B1
:1007F0009A4B586820F47C1042EA01031843974B47
:100800005860704798490866704701460020934A2F
:10081000506820F003000843506070478F484068DC
:1008200000F00C007047014600208C4A506820F010
:10083000F00008435060704701460020874A506826
:1008400020F4E06008435060704701460020834A6E
:10085000506820F4605040EAC1005060704729B1F0
:100860007E4A527A02437D4B5A7204E07B4A527AA6
:1008700082437A4B5A7270477B49D831086070477F
:1008800001460020754A506820F4404008435060FB
:1008900070470021714A20321170704A82F820108E
:1008A000012802D004280AD104E001216B4A203239
:1008B000117005E00521694A2032117000E000BF87
:1008C00000BF70476949086070476449096A01437D
:1008D000624A11627047654944390860704730B513
:1008E00000210022002400235C4D6D6805F00C01FE
:1008F00021B1042905D0082923D105E05C4D05600C
:1009000022E05B4D05601FE0544D6D6805F47012E8
:10091000524D6D6805F48034022505EB92421CB9F6
:10092000544D554305600BE04C4D6D6805F40035A2
:100930001DB1504D5543056002E04D4D55430560D6
:1009400002E04B4D056000BF00BF444D6D6805F0EF
:10095000F0010909484D6B5C0568DD4045603F4D7D
:100960006D6805F4E061090A434D6B5C4568DD4044
:1009700085603A4D6D6805F46051C90A3E4D6B5C67
:100980004568DD40C560354D6D6805F44041890B13
:100990003A4D6B5CC568B5FBF3F5056130BD29B117
:1009A0002E4A526902432D4B5A6104E02B4A526988
:1009B00082432A4B5A61704729B1284A92690243FF
:1009C000264B9A6104E0254A92698243234B9A613F
:1009D000704729B1214AD2690243204BDA6104E011
:1009E0001E4AD26982431D4BDA61704729B11B4A06
:1009F000D2680243194BDA6004E0184AD268824395
:100A0000164BDA60704729B1144A12690243134B3E
:100A10001A6104E0114A12698243104B1A6170474F
:100A200012494039086070470F49C86470470B4944
:100A3000C87170470948406A40F0807007494862B1
:100A4000704701460020054A92680A400AB1012019
:100A500000E0002070470149887270470010024092
:100A60000000FFF8FFFFF6FE000042428004424211
:100A700000127A0000093D002C0000203C000020FC
:100A800010B50446FB48844209D101218803FFF7D1
:100A9000ADFF00214FF48040FFF7A8FF32E0F64899
:100AA000844209D101214804FFF7ADFF00214FF432
:100AB0000030FFF7A8FF25E0F048844209D101216A
:100AC0008804FFF7A0FF00214FF48020FFF79BFF71
:100AD00018E0EB48844209D10121C804FFF793FFD5
:100AE00000214FF40020FFF78EFF0BE0E548844221
:100AF00008D101210805FFF786FF00214FF480107F
:100B0000FFF781FF10BD2DE9F04786B005460E4680
:100B10000024A24600BFA1460027B08900B100BF53
:100B20002F462C8A4CF6FF700440F08804432C8238
:100B3000AC894EF6F3100440B088318908437189BE
:100B400008430443AC81AC8A4FF6FF400440B089AF
:100B50000443AC8201A8FFF7C2FEC648874202D117
:100B6000DDF810A001E0DDF80CA0A88900F4004039
:100B700040B10AEBCA0000EB0A1031684900B0FB33
:100B8000F1F807E00AEBCA0000EB0A1031688900AF
:100B9000B0FBF1F86420B8FBF0F0040120096421F7
:100BA00001FB1089A88900F4004040B1322000EB1D
:100BB000C900B0FBF1F000F00700044308E0322068
:100BC00000EB09106421B0FBF1F000F00F000443CA
:100BD0002C8106B0BDE8F0874FF41651016000216A
:100BE0008180C18001810C21418100218181704778
:100BF00010B502460020108A4FF2FF0318400B8800
:100C00004C8823438C882343CC8823431843108289
:100C100010BD0021018041808180C180704721B1D9
:100C2000828942F40052828104E082894DF6FF738A
:100C30001A4082817047F0B5034600240026002543
:100C4000002040F66A17B94200D100BF1846C1F330
:100C5000421401F01F06012707FA06F5012C01D105
:100C60000C3004E0022C01D1103000E014301AB135
:100C700007682F43076002E00768AF430760F0BDD5
:100C80001AB1838A0B43838202E0838A8B43838277
:100C90007047028A4FF6F0731A400282028A0A43B2
:100CA0000282704782894FF2FF731A4082818289E3
:100CB0000A438281704721B1828942F00202828117
:100CC00004E082894FF6FD731A4082817047028AE0
:100CD0004FF6DF731A400282028A0A43028270478B
:100CE00021B1028A42F48042028204E0028A4BF679
:100CF000FF731A4002827047C1F308028280704776
:100D000001468888C0F308007047818941F00101DD
:100D100081817047028BD2B20283028B42EA0122A8
:100D200002837047028B02F47F420283028B0A43E4
:100D30000283704721B1828A42F02002828204E05D
:100D4000828A4FF6DF731A408282704721B1828A0D
:100D500042F01002828204E0828A4FF6EF731A405A
:100D60008282704721B1828A42F00802828204E0C6
:100D7000828A4FF6F7731A408282704721B18289C6
:100D800042F40042828103E08289C2F30E02828132
:100D9000704721B1828A42F40062828204E0828A32
:100DA0004FF2FF731A4082827047828A4FF6FB73BC
:100DB0001A408282828A0A438282704721B1828AE3
:100DC00042F00202828204E0828A4FF6FD731A40EA
:100DD0008282704702460020B1F5007F00D100BF3B
:100DE00013880B400BB1012000E00020704701F494
:100DF0000072B2F5007F00D100BFCA430280704785
:100E000070B50246002400230025002040F66A1633
:100E1000B14200D100BFC1F3421501F01F0301260A
:100E200006FA03F3012D02D19689334006E0022D24
:100E300002D1168A334001E0968A33400C12012613
:100E400006FA04F41688344013B10CB1012000E016
:100E5000002070BD10B50022002340F66A14A142A4
:100E600000D100BF0A1201249440A3B2DC430480E5
:100E700010BD000000380140004400400048004020
:100E8000004C00400050004010B50446FE4884422B
:100E900008D10121C014FFF7A9FD0021E014FFF7DC
:100EA000A5FDC4E0B4F1804F08D101210846FFF749
:100EB000AAFD00210120FFF7A6FDB8E0F348844217
:100EC00008D101210220FFF79EFD00210220FFF73B
:100ED0009AFDACE0EE48844208D101210420FFF7DE
:100EE00092FD00210420FFF78EFDA0E0E948844236
:100EF00008D101210820FFF786FD00210820FFF717
:100F000082FD94E0E448844208D101211020FFF7DB
:100F10007AFD00211020FFF776FD88E0DF4884424B
:100F200008D101212020FFF76EFD00212020FFF7CE
:100F30006AFD7CE0DA48844208D101214014FFF7C1
:100F400055FD00216014FFF751FD70E0D548844243
:100F500009D10121C804FFF749FD00214FF4002009
:100F6000FFF744FD63E0D048844209D10121080520
:100F7000FFF73CFD00214FF48010FFF737FD56E0EE
:100F8000CA48844209D101214805FFF72FFD0021FD
:100F90004FF40010FFF72AFD49E0C548844208D10C
:100FA00001214020FFF72FFD00214020FFF72BFDFE
:100FB0003DE0C048844208D101218020FFF723FD95
:100FC00000218020FFF71FFD31E0BB48844208D19B
:100FD00001218015FFF717FD0021A015FFF713FD74
:100FE00025E0B648844209D101210804FFF7FEFC40
:100FF00000214FF48030FFF7F9FC18E0B04884423C
:1010000009D101214804FFF7F1FC00214FF4003021
:10101000FFF7ECFC0BE0AB48844208D101218804C7
:10102000FFF7E4FC00214FF48020FFF7DFFC10BD48
:1010300000220288944B98420ED0994B98420BD0D4
:10104000B0F1804F08D0914B984205D0904B984218
:1010500002D0904B984204D14FF68F731A404B88C0
:101060001A438D4B984207D08C4B984204D04FF6D0
:10107000FF431A40CB881A4302808B8883850B88F4
:101080000385814B98420BD0854B984208D08B4BFF
:10109000984205D08A4B984202D08A4B984201D19F
:1010A0000B7A038601238382704770B500240022E7
:1010B0000023058C4FF6FE7635400584028C83882C
:1010C000048B4FF68F752C40B51E2C400D882C4399
:1010D000751E2A400D892A434D882A436A4DA8422D
:1010E0000BD06F4DA84208D0744DA84205D0744D66
:1010F000A84202D0734DA84213D14FF6F7752A408B
:101100004D892A434FF6FB752A408D882A434FF6B6
:10111000FF652B404FF6FF552B408D892B43CD8922
:101120002B4383800483CD888586028470BD70B58F
:10113000002400220023058C4FF6EF76354005840D
:10114000028C8388048B48F6FF752C404FF6FF45D0
:101150002C400D884FF6FF7606EA05252C434FF606
:10116000DF752A400D8906EA05152A434D8806EAEF
:1011700005152A43444DA84202D0494DA8421DD12D
:101180004FF67F752A404D894FF6FF7606EA051522
:101190002A434FF6BF752A408D8806EA05152A4373
:1011A0004FF6FF352B404FF2FF752B408D8906EA35
:1011B00085052B43CD8906EA85052B43838004836F
:1011C000CD880587028470BD70B5002400220023FD
:1011D000058C4FF6FF6635400584028C8388848B2E
:1011E0004FF68F752C404FF6FC752C400D882C4324
:1011F0004FF6FF552A400D894FF6FF7606EA052582
:101200002A434D8806EA05252A431F4DA84202D0ED
:10121000234DA8421DD14FF2FF752A404D894FF64C
:10122000FF7606EA05252A434FF6FF352A408D88CA
:1012300006EA05252A434EF6FF752B404DF6FF754D
:101240002B408D8906EA05152B43CD8906EA051545
:101250002B4383808483CD888587028470BD70B5DD
:10126000002200230024058C4EF6FF7635400584CD
:10127000038C8488828B48F6FF752A404FF6FF4521
:101280002A400D8820E00000002C014000040040AE
:1012900000080040000C0040001000400014004016
:1012A00000340140004C0140005001400054014016
:1012B00000180040001C0040002000400040014099
:1012C00000440140004801404FF6FF7606EA05253C
:1012D0002A434DF6FF752B400D8906EA05352B4351
:1012E0004D8806EA05352B43FA4DA84202D0FA4D47
:1012F000A84208D14BF6FF752C408D894FF6FF763A
:1013000006EA85152C4384808283CD88A0F840505E
:10131000038470BD828B4FF2FF331A408283828B2D
:101320004FF6FF7303EA01231A4382837047F0B537
:101330000C461546002200210026078C4EF6FF7C45
:1013400007EA0C070784828B018C4FF6FF7707EAC8
:10135000043640F6FF473A404FF6FF7707EA052785
:101360003A434FF6FF7707EA03373A43D94FB8427B
:101370000ED0D94FB8420BD0B0F1804F08D0D74F24
:10138000B84205D0D64FB84202D0D64FB84206D1A7
:101390004DF6FF77394046F48057394305E047F66C
:1013A000FF57394044F48057394382830184F0BDAC
:1013B000828B4FF6F3731A408283828B0A438283B7
:1013C0007047F0B50C461546002200210026078C18
:1013D0004FF6FF6C07EA0C070784828B018C4FF6EF
:1013E000FF7707EA04264FF60C773A404FF6FF776F
:1013F00007EA03172F433A43B64FB8420ED0B64F11
:10140000B8420BD0B0F1804F08D0B44FB84205D0ED
:10141000B34FB84202D0B34FB84206D14FF6FF5790
:10142000394046F48077394305E04FF2FF573940A1
:1014300044F48077394382830184F0BD028B4FF2FC
:10144000FF331A400283028B4FF6FF7303EA012336
:101450001A4302837047F0B50C461546002200215E
:101460000026078C4FF6EF7C07EA0C070784028BF7
:10147000018C4FF6FF7707EA041640F6FF473A4023
:101480004FF6FF7707EA03373A434FF6FF7707EA4D
:1014900005273A438F4FB8420ED08F4FB8420BD03A
:1014A000B0F1804F08D08D4FB84205D08C4FB84274
:1014B00002D08C4FB84206D14FF6DF77394046F064
:1014C0001007394305E04FF65F77394044F01007C5
:1014D000394302830184F0BD028B4FF6F3731A4047
:1014E0000283028B0A4302837047F0B50C4615460F
:1014F00000220021068C4FF6FE773E400684028BC8
:10150000018C4FF60C7632407E1C06EA03162E4301
:101510003243704EB0420ED06F4EB0420BD0B0F19D
:10152000804F08D06D4EB04205D06D4EB04202D013
:101530006C4EB04206D14FF6FD76314044F00106C4
:10154000314305E04FF6F576314044F00106314372
:1015500002830184F0BD70B505460C465D488542A6
:101560000ED05D4885420BD0B5F1804F08D05B4866
:10157000854205D05A48854202D05A48854200D15A
:1015800000E000BF208850B92389A28861882846DE
:10159000FFF7ABFFE1882846FFF79EFF25E0208894
:1015A00004280AD12389A28861882846FFF753FFBF
:1015B000E1882846FFF742FF17E0208808280AD173
:1015C0002389A28861882846FFF7FBFEE188284628
:1015D000FFF7EEFE09E02389A28861882846FFF71D
:1015E000A6FEE1882846FFF795FE70BD2DE9F04183
:1015F00005460C4600260127608808B9022600E04F
:101600000026A088012801D1022700E001272088B8
:10161000A0B92389A28861882846FFF766FFE18880
:101620002846FFF759FF23893A4631462846FFF7F7
:1016300012FFE1882846FFF701FF13E02389A28803
:1016400061882846FFF707FFE1882846FFF7F6FE86
:1016500023893A4631462846FFF747FFE188284666
:10166000FFF73AFFBDE8F0810A884B881A438B8860
:101670001A43CB881A430B891A434B891A438B8927
:101680001A43A0F8442070474FF6FF718180002173
:101690000180C1804180017270470021018041803A
:1016A0008180C180018141818181C1817047002198
:1016B00001804180012181800021C180018170472A
:1016C0000021018041808180C1800181418181812F
:1016D00070470000002C014000340140000400402D
:1016E00000080040000C004021B1028842F00102D5
:1016F000028004E002884FF6FE731A4002807047B1
:1017000031B1B0F8442042F40042A0F8442005E092
:10171000B0F84420C2F30E02A0F8442070471AB17A
:1017200083890B43838102E083898B4383817047E4
:101730008182704741EA0203A0F8483070471AB12D
:1017400083890B43838102E083898B4383817047C4
:1017500001894FF6F8721140018170470A46002155
:1017600001894FF68F73194011430181704730B5DD
:1017700004460D4629462046FFF7F0FF208940F039
:101780000700208130BD2DE9F04104460D46164684
:101790001F46602D06D13B46012231462046FFF709
:1017A0005AFE05E03B46012231462046FFF79DFEEA
:1017B00029462046FFF7D2FF208940F0070020810C
:1017C000BDE8F08130B50C4600210189C9B24FF661
:1017D000FF7505EA0325154325432943018130BDE3
:1017E0002DE9F04105460E4617469846002443462B
:1017F0003A4631462846FFF7E5FF2C894FF6F87048
:10180000044044F007044FF68F70044044F0700425
:101810002C81BDE8F081F0B504460D4616461F4602
:101820003B46324629462046FFF7CCFF208940F44C
:1018300080402081F0BD0185828270470A460021E8
:1018400001884FF68F731940114301807047F0B53E
:101850000C4615461E460021002200230189028BFA
:10186000038C4FF6F877394021434FF6FC473A4056
:1018700040F201173A434FF6DD773B404FF6FF77D2
:1018800007EA06172F433B43018102830384F0BD1F
:101890000A460021018B4FF68F73194011430183D3
:1018A00070470A460021018B48F6FF7319404FF636
:1018B000FF7303EA02231943018370470A4600219C
:1018C000818B4FF68F7319401143818370470A460D
:1018D0000021818B48F6FF7319404FF6FF7303EA2E
:1018E000022319438183704721B1028842F08002AC
:1018F000028004E002884FF67F731A40028070472E
:1019000021B1828842F00402828004E082884FF68E
:10191000FB731A408280704721B1828842F008022E
:10192000828004E082884FF6F7731A408280704705
:1019300021B1828842F00102828004E082884FF661
:10194000FE731A40828070470A460021018B4FF6D1
:10195000F77319401143018370470A460021018B38
:101960004FF2FF7319404FF6FF7303EA0223194346
:10197000018370470A460021818B4FF6F7731940A7
:101980001143818370470A460021818B4FF2FF7318
:1019900019404FF6FF7303EA02231943818370470E
:1019A0000A460021018B4FF6FB7319401143018356
:1019B00070470A460021018B4FF6FF3319404FF65E
:1019C000FF7303EA02231943018370470A4600218B
:1019D000818B4FF6FB7319401143818370470A4690
:1019E0000021818B4FF6FF3319404FF6FF7303EA56
:1019F00002231943818370470A460021018B4FF669
:101A00007F7319401143018370470A460021018BFF
:101A1000C1F30E014FF6FF7303EA0223194301835A
:101A200070470A460021818B4FF67F73194011439E
:101A3000818370470A460021818BC1F30E014FF666
:101A4000FF7303EA02231943818370470A4600218A
:101A5000018C4FF6FD7319401143018470470A460B
:101A60000021018C4FF6F773194011430184704730
:101A70000A460021018C4FF6DF7319404FF6FF73C1
:101A800003EA02131943018470470A460021018CBE
:101A90004FF67F7319404FF6FF7303EA02131943A1
:101AA000018470470A460021018C4FF6FF5319400C
:101AB0004FF6FF7303EA02231943018470470A4675
:101AC0000021018C4FF2FF7319404FF6FF7303EAB8
:101AD00002231943018470470A460021018C4DF608
:101AE000FF7319404FF6FF7303EA02331943018471
:101AF000704730B5002301248C40A3B2048C9C4372
:101B00000484048C02FA01F5ADB22C43048430BD88
:101B100030B5002304248C40A3B2048C9C4304847D
:101B2000048C02FA01F5ADB22C43048430BD70B5CB
:101B30000346002000241846183001258D40ACB221
:101B40001D8CA5431D8409B1082909D100EB610052
:101B5000056825F0700505600568154305600EE011
:101B60000D1FC5F34E052844056825F4E0450560C2
:101B700005684FF6FF7606EA02263543056070BD1C
:101B800021B1028842F00202028004E002884FF68E
:101B9000FD731A400280704721B1028842F00402AE
:101BA000028004E002884FF6FB731A4002807047FF
:101BB00021B1828842F08002828004E082884FF660
:101BC0007F731A408280704702884FF6F7731A407D
:101BD000028002880A430280704782884FF68F7322
:101BE0001A40828082880A438280704702894FF6B9
:101BF000F8731A40028102890A4302817047028900
:101C00004FF67F731A40028102890A4302817047AE
:101C1000818470478185704781867047018770474E
:101C200081877047A0F84010704702884FF6FF4345
:101C30001A40028002880A43028070470146888E5B
:101C400070470146088F70470146888F70470146EC
:101C5000B1F8400070470146888C70470146088DF6
:101C6000704702460020138A0B400BB1012000E0B0
:101C700000207047CA430282704730B502460020F8
:101C800000230024158A05EA0103958905EA010469
:101C900013B10CB1012000E0002030BDCA43028224
:101CA0007047000010B50446CC48844208D1012199
:101CB0000420FEF79BFE00210420FEF797FE46E07D
:101CC000C748844208D101210820FEF78FFE002179
:101CD0000820FEF78BFE3AE0C248844208D1012179
:101CE0001020FEF783FE00211020FEF77FFE2EE07D
:101CF000BD48844208D101212020FEF777FE002153
:101D00002020FEF773FE22E0B848844208D101216A
:101D10004020FEF76BFE00214020FEF767FE16E034
:101D2000B348844208D101218020FEF75FFE0021E4
:101D30008020FEF75BFE0AE0AE48844207D1012115
:101D40008015FEF753FE0021A015FEF74FFE10BDD3
:101D500010B501210846FEF749FE00210120FEF7DB
:101D600045FE10BD2DE9F041024600250026002069
:101D700000230024002791F803C00CF00F0591F810
:101D800003C00CF0100CBCF1000F03D091F802C09E
:101D90004CEA050591F800C0BCF1000F31D0146881
:101DA00000202BE04FF0010C0CFA00F3B1F800C05A
:101DB0000CEA03069E4220D183004FF00F0C0CFA70
:101DC00003F7BC4305FA03FC4CEA040491F803C092
:101DD000BCF1280F06D14FF0010C0CFA00FCC2F840
:101DE00014C00AE091F803C0BCF1480F05D14FF0D0
:101DF000010C0CFA00FCC2F810C0401C0828D1D31A
:101E00001460B1F800C0BCF1FF0F34DD546800204D
:101E10002EE000F1080C4FF0010808FA0CF3B1F8BD
:101E200000C00CEA03069E4221D183004FF00F0C44
:101E30000CFA03F7BC4305FA03FC4CEA040491F8DE
:101E400003C0BCF1280F05D100F1080C08FA0CF80A
:101E5000C2F8148091F803C0BCF1480F07D100F11B
:101E6000080C4FF0010808FA0CF8C2F81080401C6A
:101E70000828CED35460BDE8F0814FF6FF71018091
:101E8000022181700421C1707047024600209368CE
:101E90000B400BB1012000E000207047014688682C
:101EA00080B2704702460020D3680B400BB101207E
:101EB00000E0002070470146C86880B270470161A9
:101EC0007047416170470AB1016100E041617047AC
:101ED000C16070474FF480320A4382618161826140
:101EE00082698269704702460020434B18684FF6AA
:101EF0008073184040EA021008433F4B1860704757
:101F00003E49C8617047F0B50A460023002400210D
:101F1000002500F00046B6F1004F02D1364EF169BF
:101F200001E0354E7168C0F3034583B200F44016FA
:101F3000B6F5401F08D121F070612F4E766826F06B
:101F400070662D4F7E6012E000F48016B6F5801F9B
:101F500006D1032606FA05F4A14341F0706106E0BC
:101F6000460D360103FA06F6B14341F0706122B125
:101F7000460D360103FA06F6314300F00046B6F18D
:101F8000004F02D11C4EF16101E01B4E7160F0BDAB
:101F900030B500228B071C0F0F2303FA04F2164BF7
:101FA00008338C1053F824309343134C08348D10AD
:101FB00044F8253023468C1053F824308C07240F26
:101FC00000FA04F423430C4C08348D1044F82530F7
:101FD00030BD0A49DC31086070470000000801404C
:101FE000000C0140001001400014014000180140A5
:101FF000001C014000200140000001400000204280
:1020000010B50446FA48844208D101214015FEF774
:10201000EDFC00216015FEF7E9FC17E0F54884426D
:1020200008D101210015FEF7E1FC00212015FEF783
:10203000DDFC0BE0F048844208D10121C803FEF723
:10204000D5FC00214FF40040FEF7D0FC10BD30B5A8
:102050000246002000235068E84C20400D790C68AF
:1020600044EA0524204350609068E54C2040D1E9C3
:1020700002542C434D7944EA450420439060D06AD1
:1020800020F470000C7C641EE4B2234340EA035049
:10209000D06230BD00210160017141718160C16079
:1020A00001210174704721B1826842F0010282600F
:1020B00003E0826822F001028260704721B18268E9
:1020C00042F48072826003E0826822F4807282604F
:1020D000704710B50023CBB21AB144681C4344606A
:1020E00002E044689C43446010BD816841F00801EF
:1020F00081607047014600208A6802F008020AB138
:10210000012000E000207047816841F004018160F7
:102110007047014600208A6802F004020AB10120DB
:1021200000E00020704721B1826842F4A002826082
:1021300003E0826822F4A00282607047014600201A
:102140008A6802F480020AB1012000E00020704792
:1021500010B50A4600210023416821F46041531E56
:1021600041EA4331416010BD21B1426842F400624E
:10217000426003E0426822F4006242607047F0B5BA
:1021800004460D4600200021092D11DDE068A5F16F
:102190000A0606EB4607072606FA07F18843A5F16B
:1021A0000A0606EB460603FA06F10843E0600CE077
:1021B000206905EB4507072606FA07F1884305EB7A
:1021C000450603FA06F108432061072A0FDA606B1F
:1021D000561E06EB86071F2606FA07F18843561E91
:1021E00006EB860605FA06F10843606322E00D2A35
:1021F0000FDA206BD61F06EB86071F2606FA07F1BB
:102200008843D61F06EB860605FA06F108432063CD
:1022100010E0E06AA2F10D0606EB86071F2606FA1B
:1022200007F18843A2F10D0606EB860605FA06F1D2
:102230000843E062F0BD21B1826842F480128260FE
:1022400003E0826822F48012826070470146C86C05
:1022500080B2704766484C300068704721B14268D0
:1022600042F48062426003E0426822F4806242608D
:10227000704721B1426842F48052426003E04268F4
:1022800022F48052426070470A460021816821F49E
:10229000E04111438160704721B1826842F40042FD
:1022A000826003E0826822F400428260704721B1BC
:1022B000826842F40212826003E0826822F4021211
:1022C00082607047014600208A6802F400120AB159
:1022D000012000E000207047F0B5044615460020BC
:1022E00000220026092911DDE068A1F10A0707EBA9
:1022F000470C072707FA0CF29043A1F10A0707EBF6
:10230000470703FA07F21043E0600CE0206901EB95
:10231000410C072707FA0CF2904301EB410703FA3F
:1023200007F210432061A06BC0F30156EF1C06F1C9
:10233000010CA7EB0C0707EB870C1F2707FA0CF221
:102340009043EF1C06F1010CA7EB0C0707EB870786
:1023500001FA07F21043A063F0BD10B50A46002150
:102360000023816B21F44011531E41EA0351816324
:1023700010BD08B5002300930090009B0B44009310
:10238000009B1A6008BD08B502460020009000922C
:1023900001F12800009B184400900098006880B26A
:1023A00008BD0A4600214168164B1940114341609F
:1023B00070474162826270470A460021416821F0FD
:1023C0001F0111434160704740B109490831096854
:1023D00041F40001064A0832116007E0044908315F
:1023E000096821F40001024A0832116070470000B8
:1023F0000024014000280140003C0140FFFEF0FFA6
:10240000FDF7F1FFFFFD3FFF0246002013680B4080
:102410000BB1012000E000207047CA430260704702
:1024200070B502460020002300240B125568CEB27E
:1024300005EA060415681D4015B10CB1012000E045
:10244000002070BD00220A12D343036070470000D1
:102450000E49086070470D49486070470B49886015
:1024600070474AF6AA200949086070474CF6CC40EC
:1024700006490860704701460020044AD2680A40B5
:102480000AB1012000E00020704700000030004049
:102490007047704710B5FFF7FCFFFFF7F9FF10BD5D
:1024A0007047704710B5FFF7FCFFFFF7F9FF10BD4D
:1024B00058B1017D19B1012900D105E000BF01210A
:1024C00002780E4B995400BF00BF704770B50024CE
:1024D00010E00A48005D58B100200849085540F254
:1024E00013106043064901EB8005284600F0EAFC22
:1024F000601CC4B2032CECDB70BD00004000002067
:102500003C16002010B50446607A012804D0022849
:1025100009D0032815D10DE0002240F22551F848DA
:10252000FEF789FB0EE0002240F22551F548FEF748
:1025300082FB07E0002240F22551F348FEF77BFBC7
:1025400000E000BF00BF10BD10B50446607A01284E
:1025500004D0022809D0032815D10DE0002240F252
:102560002661E748FEF767FB0EE0002240F2266195
:10257000E448FEF760FB07E0002240F22661E248F3
:10258000FEF759FB00E000BF00BF10BD70B5DF4D86
:10259000002409E02846FFF7D7FF2846FFF7B2FFDF
:1025A00005F24C45601CC4B2032CF3DB70BD2DE971
:1025B000F04788B004460E4617469846DDE9109A63
:1025C000002C72D06672E76084F8109084F8118055
:1025D00084F812A001A8FEF7FFFA0197B8F1080FDE
:1025E00003D0B8F1090F09D103E00020ADF80800CD
:1025F00005E04FF48050ADF8080000E000BF00BFD8
:10260000B9F1000F10D0B9F1010F03D0B9F1020FE9
:102610000ED104E04FF4C060ADF80C0009E04FF4B7
:102620008060ADF80C0004E00020ADF80C0000E084
:1026300000BF00BFBAF1010F03D0BAF1020F09D1F8
:1026400003E00020ADF80A0005E04FF40050ADF8BB
:102650000A0000E000BF00BF012E04D0022E25D0EA
:10266000032E69D146E0AA48806940F00400A849D9
:102670008861A848006820F47F60A6490860084681
:10268000006840F496600860A148806940F480408A
:102690009F4988619A4D25208DF81C0000208DF8F7
:1026A0001D0003208DF81E0047E078E098488069FF
:1026B00040F00400964988619648001F006820F4A5
:1026C0007F409449091F08600846006840F496401E
:1026D00008608F48C06940F480208D49C861894DE9
:1026E00026208DF81C0001208DF81D0003208DF898
:1026F0001E0022E08648806940F008008449886115
:102700008548006820F47F408349086008460068D7
:1027100040F4964008607E48C06940F480207C49BF
:10272000C861794D27208DF81C0002208DF81D000E
:1027300003208DF81E0000E000BF00BF05A8FEF7D3
:1027400068FA0020ADF81400ADF816004FF40070E0
:10275000ADF818000020ADF81A0005A92846FEF7CC
:1027600047FA01A92846FEF7CEF9012240F2255189
:102770002846FEF760FA012240F226612846FEF75D
:102780005AFA01212846FEF74AFA4FF4A060FDF7F5
:1027900063FE01208DF81F0007A8FDF762FE08B058
:1027A000BDE8F08770B5594C00262EE0607A01280C
:1027B00027D120215248FEF70DFB01280ED15048A9
:1027C000FEF79EFAC5B220214D48FEF710FBE06AE5
:1027D000401CE0622946204600F05FFB402148484B
:1027E000FEF7F8FA01280BD1D4F83801401CC4F8E0
:1027F0003801204600F06FFB40214148FEF7F7FA10
:1028000005E004F24C44701CC6B2032ECEDB00BFC0
:1028100070BD70B53D4C00262EE0607A022827D1AD
:1028200020213848FEF7D6FA01280ED13548FEF7A8
:1028300067FAC5B220213348FEF7D9FAE06A401C96
:10284000E0622946204600F028FB40212D48FEF793
:10285000C1FA01280BD1D4F83801401CC4F8380162
:10286000204600F038FB40212648FEF7C0FA05E07C
:1028700004F24C44701CC6B2032ECEDB00BF70BD08
:1028800070B5224C00262EE0607A032827D1202143
:102890001D48FEF79FFA01280ED11B48FEF730FABB
:1028A000C5B220211848FEF7A2FAE06A401CE06297
:1028B0002946204600F0F1FA40211348FEF78AFA33
:1028C00001280BD1D4F83801401CC4F83801204647
:1028D00000F001FB40210C48FEF789FA05E004F204
:1028E0004C44701CC6B2032ECEDB00BF70BD10B5C9
:1028F000FFF758FF10BD10B5FFF78BFF10BD0000AC
:102900000038014000440040004800403C160020D0
:102910000010024004080140040C014010B5FFF70C
:10292000AFFF10BD70B504460D466848006828B179
:102930004FF480716648FFF7A8FA20B94FF4807110
:102940006348FFF7BCFA607A012804D0022807D058
:1029500003280FD109E029465E48FEF7CDF90AE0C9
:1029600029465D48FEF7C8F905E029465B48FEF7B1
:10297000C3F900E000BF00BF70BD10B50446607A27
:10298000012804D0022809D0032815D10DE0012226
:1029900040F226614F48FEF74EF90EE0012240F268
:1029A00026614D48FEF747F907E0012240F2266113
:1029B0004A48FEF740F900E000BF00BF10BD10B567
:1029C0000446607A012804D0022809D0032815D1D2
:1029D0000DE0012240F225513E48FEF72CF90EE0B1
:1029E000012240F225513C48FEF725F907E001227B
:1029F00040F225513948FEF71EF900E000BF00BF44
:102A000010BD1FB501210420FDF7E3FF3448008805
:102A1000ADF808004820ADF804000020ADF80A0029
:102A2000ADF8060001A92F48FEF702FB01212D4851
:102A3000FEF75AFF4FF4A060FDF70EFD1E208DF843
:102A4000000003208DF801008DF8020001208DF8B0
:102A500003006846FDF705FD01212248FFF71EF936
:102A6000012211461F48FEF75AFE01211D48FEF7BC
:102A70003BFE00F057FB1FBD10B500211948FEF7C3
:102A800033FE00211748FFF7C3F800220121154843
:102A9000FEF745FE01211348FFF700F910BD10B500
:102AA00011480068401C1049086000F04BFB10BD45
:102AB00010B501210B48FFF7E0F828B101210948C2
:102AC000FFF7ECF8FFF7EBFF10BD0000100000204F
:102AD0000008014000380140004400400048004028
:102AE00054000020000800405800002002464FF427
:102AF0007A600880002070474FF47A631380704733
:102B000002464FF47A600880002070470246D2B235
:102B100040F261239A4206DC00230B80644B1B6861
:102B200033F8120003E04FF47A630B800020704703
:102B300002464FF47A600880002070470246D2B205
:102B400040F261239A4206DC00230B80594B1B683C
:102B500033F8120003E04FF47A630B8000207047D3
:102B600002464FF47A60088000207047F8B50446AA
:102B70000D461646E4B240F26220844271DA00202B
:102B800030804C48006820F81450EFB228128DF8BD
:102B900000008DF80170A4F1300018286ED2DFE833
:102BA00000F00C12181E1F252B2C2D6D6D6D6D2E37
:102BB0006D343B42484E545A61673A460121A02089
:102BC00003F0FBFD5EE03A460221A02003F0F5FD94
:102BD00058E03A460421A02003F0EFFD52E051E016
:102BE0003A460521A02003F0E8FD4BE03A460621D5
:102BF000A02003F0E2FD45E044E043E042E03A4635
:102C00006421A02003F0D9FD3CE06B460222502154
:102C1000A02003F04AFE35E06B4602225421A0209A
:102C200003F043FE2EE03A465621A02003F0C5FDF6
:102C300028E03A465221A02003F0BFFD22E03A46A8
:102C40005821A02003F0B9FD1CE03A465A21A020EB
:102C500003F0B3FD16E03A465C21A02003F0ADFD81
:102C600010E010E03A465E21A02003F0A6FD09E046
:102C70003A466021A02003F0A0FD03E04FF47A6003
:102C8000308000BF02E04FF47A603080F8BD4FF42E
:102C90007A631380704730B50546039C002020807E
:102CA00030BD70B5DDE904540026268070BD0000FB
:102CB000480000204400002070B50646FD490E8003
:102CC000FD4C002518E025700120207200202075A1
:102CD0000120E0740020208604F1380060630120A8
:102CE00060700020606001202077204600F0A1FE87
:102CF00004F24C44681CC5B2032DE4DB0020EF490C
:102D00000870FFF7C7FBFFF77CFE70BD10B5FFF73B
:102D1000B3FEFFF7C7FB10BD00B14172704700B1B1
:102D200041707047B8B129B1012902D1012303755F
:102D300003E000BF0023037500BF00BF22B1012ADA
:102D400005D10123C37405E00023C37402E000230E
:102D5000C37400BF00BF704700B10172704700B17B
:102D6000816270472DE9FC5F06468A461746984601
:102D7000DDE90CB9D1480078032842DACF48007861
:102D800040F213114843CC4901EB800439462046F8
:102D9000FFF7E5FF31462046FFF7DEFF424651468A
:102DA0002046FFF7BFFF20461199FFF7B8FF5946AD
:102DB0002046FFF7B1FFDDE90F01CDE900014A46EA
:102DC000594620460E9BFFF7F2FB207D012801D1DA
:102DD00000202077B748008800EB800000EB8000DF
:102DE0004000B0FBF9F085B2012D00DC02252583FF
:102DF0006583B2480078401CB04908702046BDE8A1
:102E0000FC9F0020FBE7018B4183704700B5024621
:102E10000B461046FFF7F7FF107D012800D1107711
:102E2000108EFF2809DAD06A401CD062516B481C12
:102E300050630B70108E401C108600BD2DE9F041D0
:102E400004460D46E06A401CE0623A2D04D104F1CC
:102E50003800606300202086208EFF2806DA616B30
:102E6000481C60630D70208E401C20860A2D12D1F4
:102E700004F13907384600F0A7F90646207AB04237
:102E800000D01EB92046FFF713FB04E004F1380020
:102E9000606300202086BDE8F08170B504460D46D1
:102EA000E07C38B101280AD105F07F012046FFF708
:102EB000C5FF05E029462046FFF7A8FF00E000BF58
:102EC00000BF70BD10B5044624B1207D10B9204666
:102ED00001F08CFA10BD70B50446B4F83C0100282E
:102EE00018DD04F59C74A088401EA0802068401C5A
:102EF0002060A168481CA060A4F59C740D78294648
:102F00002046FFF70FFD207D01280DD100202077FE
:102F1000208609E004F5A270C4F840012046FFF7BE
:102F200013FB2046FFF74BFD70BD10B5044604F5BA
:102F3000A270C4F840012046FFF7CDFF2046FFF7FE
:102F4000E1FA2046FFF719FD10BD2DE9F0410446D6
:102F500004F13806258E04F2432705F0010078B30A
:102F60000B2D2EDD30783A282BD1A81E305C0D2891
:102F700027D1681E305C0A2823D1E81E85B2761C52
:102F80000020A4F842030CE0304600F01DF907F8D9
:102F9000010BB61CA81E85B2B4F84203401CA4F86D
:102FA0004203022DF0DCB4F84203801EA4F8420371
:102FB000304600F009F9A4F844030120BDE8F0818F
:102FC000FFE70020FAE72DE9F047054605F55276C0
:102FD00005F5A2743A2004F8010B16F8010B2146FE
:102FE00000F0D6F8044616F8010B214600F0D0F8A0
:102FF0000446052795F848940BE016F8010B214686
:1030000000F0C6F80446B81C87B2A9F101001FFA07
:1030100080F9B9F1000FF0DC3946284600F019F9C3
:1030200080462146404600F0B3F804460D2004F8DF
:10303000010B0A2004F8010B381D87B2A5F84A8459
:10304000A5F83C712846FFF770FFBDE8F08730B562
:10305000024602F13801148E042C33DBFF2C2FDCE6
:1030600002F2432311F8010B03F8010B601E84B236
:1030700011F8010B03F8010B601E84B20020A2F8C6
:1030800042030AE011F8010B03F8010BB2F8420306
:10309000401CA2F84203601E84B2022CF2DC11F83C
:1030A000015B087805EB002085B2A2F844530120AB
:1030B00030BD0000540000203C1600205C000020C1
:1030C0000020F5E70020F3E72DE9F047044600274C
:1030D00004F5A27504F5527894F84804801C00F0B9
:1030E000FF0909E018F8010B05F8010B781C87B2FD
:1030F000A9F1010000F0FF09B9F1000FF2DC204650
:1031000000F0E9F8064605F8016B30122870B81C8B
:1031100087B2A4F84A64A4F83C712046FFF705FF83
:10312000BDE8F08700B5194A002308E0D07C10B94B
:103130001046FFF768FE02F24C42581CC3B2032B44
:10314000F4DB00BD70B5114C00251BE0E07CA8B994
:10315000207F012810D1608B00280FDD608B401E7E
:103160006083608B50B9207D012801D10020207739
:103170002046FFF79DF901E0208B608304F24C4468
:10318000681CC5B2032DE1DB70BD00003C160020B9
:1031900003461A09092A04DC02F1300001F8010B88
:1031A00003E002F1370001F8010B03F00F02092AD6
:1031B00004DC02F1300001F8010B03E002F13700FA
:1031C00001F8010B0846704710B5034619785B1CDF
:1031D0001A78392903DCA1F13004E0B208E046296D
:1031E00003DCA1F13704E0B202E0A1F15704E0B240
:1031F0000407200E392A04DCA2F130040444E0B2B2
:103200000AE0462A04DCA2F137040444E0B203E0F9
:10321000A2F157040444E0B210BDF0B50446218E7B
:10322000481F00EBD071C1F34F0704F139060025A8
:1032300005E03046FFF7C8FF2844C5B2B61C381E6B
:10324000A7F101018FB2F4DCE843401CC5B2284667
:10325000F0BD2DE9F04105460E46701E00EBD07121
:10326000C1F34F0805F24517002405E03846FFF783
:10327000ABFF2044C4B2BF1CB8F10000A8F10101AB
:103280001FFA81F8F2DCE043401CC4B22046BDE8DE
:10329000F081F0B5014601F24325B1F84263B61C56
:1032A000B4B24FF6FF7011E0661EB4B215F8016BB0
:1032B0007040082200BF00F00103401013B14AF231
:1032C00001067040561EF2B2002AF4DC002CEBDC42
:1032D000A1F84603F0BDF0B5014601F55275B1F80D
:1032E0004864B61CB4B24FF6FF7011E0661EB4B26B
:1032F00015F8016B7040082200BF00F00103401078
:1033000013B14AF201067040561EF2B2002AF4DCF4
:10331000002CEBDCF0BD0000428C521C428490F883
:10332000432280F848234FF41172125C42F080036C
:1033300040F249321354521C11540122A0F848247F
:1033400070472DE9FC5F04464FF00009B4F84203D2
:10335000042802D00020BDE8FC9F40F24620015D19
:10336000401E005D01EB002087B24FF41270015D3A
:10337000401E005D01EB002086B24CF250308742C7
:103380000FDA0EB17D2E08DD40F29310E0820321AA
:103390002046FFF7C1FF0120DDE770064FEA106805
:1033A0000EE00EB1FF2E08DC4FF4CA70E08203215C
:1033B0002046FFF7B1FF0120CDE7B0064FEA1068C5
:1033C00008F10100A4F8480404F5527594F843028A
:1033D00005F8010B4FF41170005D05F8010B05F8BD
:1033E000018B64E04CF25030874218DAF8B2E328DF
:1033F00015D1FE4800784044A4F848042D1D4FF034
:10340000010908E0F94810F8090005F8010B09F175
:10341000010000F0FF09B9F1090FF3DB43E04CF2C2
:103420005030874218DAF8B2E02815D1F048007819
:103430004044A4F848042D1D4FF0010908E0EC4871
:1034400010F8090005F8010B09F1010000F0FF096F
:10345000B9F1060FF3DB26E001A93846FFF768FB58
:103460000090BDF8040018B1B0F57A6F10D110E0EB
:10347000EB464FF0000A07E01BF8010B05F8010BC3
:103480000AF1010000F0FF0ABAF1040FF4D309E0D9
:1034900000BF4FF4C970E08202212046FFF73CFFD5
:1034A000012058E700BF781C87B2701E86B2002E3C
:1034B00098DC0020E08201204DE72DE9F04F87B035
:1034C000044640F24520005D06900698072802DB7E
:1034D0000698F5280ADD40F63500E08203212046F3
:1034E000FFF71AFF012007B0BDE8F08F40F2462039
:1034F000005D05904FF41270015D401E005D01EB10
:1035000000201FFA80FA40F24A20015D401E005D53
:1035100001EB00201FFA80FB4FF41370015D401E89
:10352000005D01EB002085B204F24D2605980628C7
:103530004AD1002745E016F8011B4FF47F4000EA0E
:103540000120029016F8010B02990843029004A989
:103550000298EBB23A46CDE9000159465046FFF7D2
:10356000A0FBBDF8100038B1A0F6A17040B1012851
:103570000FD0022816D116E06068401C60601BE086
:1035800040F63600E08202212046FFF7C5FE01200A
:10359000A9E740F63700E08202212046FFF7BCFE93
:1035A0000120A0E700BF40F63800E082022120465B
:1035B000FFF7B2FE012096E700BF781C87B2681EB5
:1035C00085B2002DB7DC06E040F63900E08202212A
:1035D0002046FFF7A1FE4FF41370015D401E005D11
:1035E00001EB002085B204F2432804F5527909204A
:1035F00000EB4500C0B20390002705E018F8010B6E
:1036000009F8010B781C87B203988742F6DB00208B
:10361000E082012067E72DE9FE4F044640F2452095
:1036200010F804A0BAF1070F02DBBAF1F50F09DDBB
:1036300040F2D170E08203212046FFF76DFE0120A9
:10364000BDE8FE8F94F846B24FF41270015D401E43
:10365000005D01EB00201FFA80F940F24A20015D75
:10366000401E005D01EB002080B202904FF4137009
:10367000015D401E005D01EB002086B204F552752D
:1036800094F8430205F8010B4FF41170005D05F842
:10369000010BBBF1060F54D1032000EB4600A4F848
:1036A000480494F84804401E05F8010B94F84804B7
:1036B000801E05F8010B062005F8010B4FF00008ED
:1036C0003CE001A8F3B24246009048460299FFF759
:1036D000E2FA0746BDF8040038B1A0F6A17050B177
:1036E000012811D0022818D118E0381205F8010B72
:1036F00005F8017B1BE040F2D270E08202212046F7
:10370000FFF70AFE01209BE740F2D370E08202211E
:103710002046FFF701FE012092E700BF40F2D4707F
:10372000E08202212046FFF7F7FD012088E700BF75
:1037300008F101001FFA80F8701E86B2002EC0DC6E
:1037400008E040F2D570E08202212046FFF7E4FD58
:10375000012075E70020E082012071E72DE9FE4F8E
:10376000044640F24620015D401E005D01EB002052
:1037700087B24FF41270015D401E005D01EB002026
:1037800086B24CF2503087420FDA0EB17D2E09DD41
:1037900040F24460E08203212046FFF7BDFD012096
:1037A000BDE8FE8F4FF002090DE00EB13E2E08DDA0
:1037B00040F24560E08203212046FFF7ADFD012085
:1037C000EEE74FF0040904F2492515F8018BB4F82F
:1037D0004203401F40450DD040F24160E08203218A
:1037E0002046FFF799FD0120DAE70000D57E0008AA
:1037F000B27E000898FBF6F0484508D040F24260DF
:10380000E08204212046FFF787FD0120C8E741E060
:103810004CF2503087420FDA15F8011B0802019074
:1038200015F8011B0198084480B2019002AA38469D
:103830000199FFF79BF913E0EB464FF0000A07E010
:1038400015F8010B0BF8010B0AF1010000F0FF0A5B
:10385000BAF1040FF4D302AA38460099FFF717FA19
:10386000BDF8080018B1B0F57A6F08D108E06068BB
:10387000401C6060781C87B2701E86B209E000BFF1
:1038800040F24360E08202212046FFF745FD01201F
:1038900086E700BF002EBBDC0420A4F8480494F89F
:1038A000430284F848034FF41170015D40F249303F
:1038B000015540F24520015D40F24A30015540F289
:1038C0004620015D40F24B30015540F24720015D3A
:1038D0004FF4537001554FF41270015D40F24D30BA
:1038E000015501205CE72DE9F84F04466078012876
:1038F0007DD1B4F84203062802DA0020BDE8F88F33
:1039000040F24620015D401E005D01EB00201FFAE1
:1039100080F84FF41270015D401E005D01EB002045
:1039200086B240F24920075D701EC11700EB51714D
:10393000C910491CB94240D1B4F84223791D8A42CA
:103940003BD100254FF0070934E0E91705EB517131
:10395000C910A5EBC10139B94846411C01F0FF0966
:1039600004F2432111F800A00AF0010010B14FF059
:10397000010B01E04FF0000B08EB050188B26A462D
:103980005946FFF7B9F8BDF8000018B1B0F57A6FE5
:1039900001D101E009E000BF40F2DD50E0820221E8
:1039A0002046FFF7B9FC0120A8E700BF4FEA6A0AEA
:1039B000681C85B2B542C8DB08E040F2DE50E08208
:1039C00004212046FFF7A8FC012097E70420A4F873
:1039D000480494F8430284F848034FF41170015DE1
:1039E00040F24930015540F24520015D00E017E00A
:1039F00040F24A30015540F24620015D40F24B3022
:103A0000015540F24720015D4FF4537001554FF4CA
:103A10001270015D40F24D3001550020E08206E059
:103A200040F2DF50E08204212046FFF775FC0120C0
:103A300064E70021C183018441848184C18470478B
:103A400070B50446B4F84203042801D0002070BDCC
:103A500040F24620015D401E005D01EB002085B272
:103A600094F8430284F848034FF41170015D40F26A
:103A70004930015540F24520015D40F24A30015580
:103A800040F24620015D40F24B3001550C2D2DD007
:103A900005DC5DB10A2D18D00B2D57D11BE00D2D83
:103AA00030D00E2D3AD00F2D50D143E040F24720B8
:103AB000015D4FF4537001554FF41270015D40F2F7
:103AC0004D3001550020E08248E02046FFF7B1FF6D
:103AD0000020E08242E0E08B010A4FF45370015570
:103AE000A17F401C01550020E08237E0208C010AB4
:103AF0004FF45370015594F82010401C01550020DC
:103B0000E0822BE0608C010A4FF45370015594F869
:103B10002210401C01550020E0821FE0A08C010A09
:103B20004FF45370015594F82410401C01550020A7
:103B3000E08213E0E08C010A4FF45370015594F8D1
:103B40002610401C01550020E08207E040F22130A1
:103B5000E08204212046FFF7DFFB00BF00BF012009
:103B600075E72DE9FC5F0446B4F84203042802D04F
:103B70000020BDE8FC9FB4F84203A4F8480440F2DA
:103B80004620015D401E005D01EB002087B24CF233
:103B9000503087420EDA4FF41270015D401E005D16
:103BA00001EB00201FFA80FB01AA59463846FEF7B8
:103BB000DDFF11E004F24725EA46002605E015F88E
:103BC000010B0AF8010B701CC6B2042EF7D301AA30
:103BD00038460099FFF75BF8BDF8040018B1B0F55E
:103BE0007A6F04D104E06068401C606008E000BFA8
:103BF00040F25920E08202212046FFF78DFB00BFF2
:103C000000BF0420A4F8480494F8430284F8480351
:103C10004FF41170015D40F24930015504F2452521
:103C200004F24A384CF25030874202DA4FF004096D
:103C300001E04FF00609002605E015F8010B08F831
:103C4000010B701CC6B24E45F7DB0020E08201205C
:103C50008FE72DE9F84F0446B4F84203042802DD4B
:103C60000020BDE8F88F40F24620015D401E005D57
:103C700001EB002085B24FF41270015D401E005D23
:103C800001EB00201FFA80FA6078012825D1BAF1F3
:103C9000000F02D14FF0000901E04FF001096A4620
:103CA00049462846FEF728FF082D0DD2DFE805F02B
:103CB0000405060708090A0B0EE00DE00CE00BE016
:103CC0000AE009E008E007E040F2F510E082022196
:103CD0002046FFF721FB00BF06E04FF4FB70E082B7
:103CE00004212046FFF718FB0420A4F8480494F8A8
:103CF000430284F848034FF41170015D40F24930EB
:103D0000015504F2452604F24A374FF0000807E057
:103D100016F8010B07F8010B08F1010000F0FF088D
:103D2000B8F1040FF4DB0020E082012099E72DE9CF
:103D3000FC5F0546B5F84203042802D00020BDE828
:103D4000FC9F40F24620415D401E405D01EB00209B
:103D50001FFA80F84FF41270415D401E405D01EB88
:103D6000002086B24CF2503080450FDA0EB17D2E25
:103D700008DD40F29310E88203212846FFF7CCFAD1
:103D80000120DCE770064FEA10690EE00EB13E2E0E
:103D900008DD4FF4CA70E88203212846FFF7BCFA19
:103DA0000120CCE7B0064FEA106909F10100A5F83F
:103DB000480405F5527495F8430204F8010B4FF4DA
:103DC0001170405D04F8010B04F8019B55E04CF2C2
:103DD0005030804524DA01A94046FEF797FE074699
:103DE000BDF8040028B10A2809D0B0F57A6F0CD1CB
:103DF0000CE0380A04F8010B04F8017B0FE0380AE4
:103E000004F8010B04F8017B09E000BF40F29110B7
:103E1000E88202212846FFF77FFA01208FE726E09B
:103E200001A94046FEF784FE0090BDF8040018B1D9
:103E3000B0F57A6F10D110E0EB464FF0000A07E0C2
:103E40001BF8010B04F8010B0AF1010000F0FF0A56
:103E5000BAF1040FF4D309E000BF4FF4C970E8824F
:103E600002212846FFF758FA012068E700BF08F151
:103E700001001FFA80F8701E86B2002EA7DC002019
:103E8000E88201205BE72DE9FC5F0446B4F84203B9
:103E9000042802D00020BDE8FC9F40F24620015DCE
:103EA000401E005D01EB002087B24FF41270015DEF
:103EB000401E005D01EB002086B24CF2503087427C
:103EC0000FDA0EB17D2E08DD40F22F10E0820321C3
:103ED0002046FFF721FA0120DDE770064FEA10685F
:103EE0000EE00EB13E2E08DD4FF49870E082032103
:103EF0002046FFF711FA0120CDE7B0064FEA10681F
:103F000008F10100A4F8480404F5527594F843023E
:103F100005F8010B4FF41170005D05F8010B05F871
:103F2000018B4CE04CF2503087421DDA01A9384633
:103F3000FEF704FE8146BDF8040018B1B0F57A6FB3
:103F400007D107E04FEA192005F8010B05F8019B9E
:103F500009E000BF40F22D10E08202212046FFF769
:103F6000DBF9012097E726E001A93846FEF7F8FDC6
:103F70000090BDF8040018B1B0F57A6F10D110E0D0
:103F8000EB464FF0000A07E01BF8010B05F8010BA8
:103F90000AF1010000F0FF0ABAF1040FF4D309E0BE
:103FA00000BF4FF49770E08202212046FFF7B4F97A
:103FB000012070E700BF781C87B2701E86B2002E09
:103FC000B0DC0020E082012065E72DE9F84F0446CF
:103FD000B4F84203042802D00020BDE8F88F40F274
:103FE0004620015D401E005D01EB00201FFA80F9B4
:103FF0004FF41270015D401E005D01EB002087B29E
:1040000017B1B7F5FA6F07DDC920E082032120461A
:10401000FFF782F90120E0E7781EC11700EB51712C
:10402000C910491C1FFA81F808F10100A4F84804DE
:1040300004F55275002604E0002005F8010B701C01
:1040400086B208F103008642F6DB4FF0010B002632
:1040500004F5527594F8430205F8010B4FF4117002
:10406000005D05F8010B05F8018B32E06946484612
:10407000FEF746FD8246BDF8000018B1B0F57A6F34
:104080001DD11DE0BAF1010F03D1287840EA0B00E1
:10409000287009F101001FFA80F9701C86B2F1172F
:1040A00006EB5171C910A6EBC10119B94FF0010B14
:1040B0006D1C03E04FEA4B604FEA106B08E000BF55
:1040C000CA20E08202212046FFF726F9012084E77A
:1040D00000BFBE42CADB0020E08201207DE72DE95F
:1040E000F84F0446B4F84203042802D00020BDE88B
:1040F000F88F40F24620015D401E005D01EB00207C
:104100001FFA80F94FF41270015D401E005D01EB53
:10411000002087B217B1B7F5FA6F07DD6520E0829E
:1041200003212046FFF7F8F80120E0E7781EC117C9
:1041300000EB5171C910491C1FFA81F808F1010008
:10414000A4F8480404F55275002604E0002005F8A0
:10415000010B701C86B208F103008642F6DB4FF0BB
:10416000010B002604F5527594F8430205F8010B83
:104170004FF41170005D05F8010B05F8018B32E07A
:1041800069464846FEF7B2FC8246BDF8000018B109
:10419000B0F57A6F1DD11DE0BAF1010F03D1287877
:1041A00040EA0B00287009F101001FFA80F9701C29
:1041B00086B2F11706EB5171C910A6EBC10119B90E
:1041C0004FF0010B6D1C03E04FEA4B604FEA106BA0
:1041D00008E000BF6620E08202212046FFF79CF83D
:1041E000012084E700BFBE42CADB0020E08201203C
:1041F0007DE770B5054695F84302297A884203D0D9
:1042000095F84302002875D1A88C401CA8844FF46F
:104210001170405D08283DD007DC07286ED2DFE82A
:1042200000F06D11161B20252F0014284BD004DC44
:104230000F2834D0102861D13BE0152848D02B2816
:104240005CD14FE02846FFF74AFF04465EE028466F
:10425000FFF7BBFE044659E02846FFF714FE04466C
:1042600054E02846FFF763FD04464FE068780128D4
:1042700004D12846FFF7EDFC044600E0002445E0A9
:104280006878012804D12846FFF76BFC044600E05B
:1042900000243BE02846FFF7D3FB044636E068786D
:1042A000012804D12846FFF71EFB044600E0002445
:1042B0002CE06878012804D12846FFF74FFA04461D
:1042C00000E0002422E02846FFF7A5F904461DE09F
:1042D0006878012804D12846FFF7EFF8044600E08B
:1042E000002413E06878012806D12846FFF729F852
:1042F000044602E00BE001E0002407E00120E88230
:1043000001212846FFF708F8012400BF00BF95F8F7
:10431000430208B9002070BD2046FCE72DE9F041BA
:104320000446E08B401CE083208E042821DB2046DD
:10433000FEF78DFE0746012F1BD12046FEF7A9FF91
:104340000546B4F84403A84206D0208C401C2084C3
:10435000E08C401CE0840CE02046FFF74AFF064654
:10436000012E03D12046FEF7AFFE02E0E08C401C98
:10437000E0840020208604F138006063BDE8F0810D
:104380002DE9F0410446E08B401CE083208E0B2891
:1043900025DB2046FEF7D9FD0746012F1CD120461C
:1043A000FEF73BFF0546B4F84403A84206D0208C34
:1043B000401C2084E08C401CE08410E02046FFF785
:1043C00018FF0646012E03D12046FEF7FCFD06E04D
:1043D000E08C401CE08402E0E08C401CE084002083
:1043E000208604F138006063BDE8F08110B5044612
:1043F00054B1E07C012802D12046FFF7C1FFE07CE8
:1044000010B92046FFF78AFF10BD000070471F4813
:104410000068704770B5044601F0D6FB05461B489E
:104420000460284601F0D4FB70BD10B51748006841
:10443000401C1649086000F0CBFF0446206C401E6B
:104440002064206C18B9E06B206401F021F801F0C1
:1044500022FA10BD0146002902DA4FF0FF3014E0C5
:104460004FF47A7291FBF2F24FF47A7302FB03F08D
:104470001A4691FBF2F302FB13124FF47A735A437C
:1044800002F2E73292FBF3F2104470476000002022
:1044900000207047002070470020704700207047C0
:1044A00010B5254C02E020688047241D2348844233
:1044B000F9D310BD10B5214C02E020688047241DBF
:1044C0001F488442F9D310BD10B50446FFF7F2FF30
:1044D000FBF79AFE10BD7FB51A4C14200221CA01C9
:1044E000194BCDE90032CDE902100023AFF22702CB
:1044F00016A1204600F052FF0546204600F089FF35
:104500007FBD10B501F060FBFBF7CCFE00F086FC30
:1045100001F001FA00F0D0FDFFF7DDFF01F007FA2E
:1045200000F059F800F0E2FD002010BD10B5FFF7D3
:10453000E8FF002010BD000084800008888000088B
:104540008C80000820240020202300206D61696EEB
:104550000000000070B534E001F036FB054600F0C5
:104560004FF830B32A480068A0F1140404F1140095
:10457000D0E900215160D0E9001211604060006074
:1045800000BF00F044FE206F10B12046216F884725
:10459000204600F056FD012808D1204600F03BFDE2
:1045A00000F043FE284601F013FB70BD00F03DFE15
:1045B00003E0284601F00CFBF7E7284601F008FB72
:1045C00000BF00F01DF80028C6D100BFEDE701E0F4
:1045D000FFF7C0FFFCE71FB52020072180220D4B0D
:1045E000CDE90032CDE9021000230B4A0BA10D48A2
:1045F00000F0D4FE0B4800F00CFF1FBD09487047C7
:1046000003490868884201D0012070470020FCE778
:10461000BC00002010250020CF4500087469646CA0
:10462000650000009824002010B501F0CDFA044682
:104630000C480078401C0B490870204601F0C8FA6D
:1046400010BD10B501F0C0FA044606480078401EBF
:1046500004490870204601F0BBFA10BD01480078FB
:10466000704700006400002010B5FFF7F7FF10B19D
:10467000F748006810BD00F0ABFE044614B9F448DA
:104680000068F7E7206BF5E770B50446FFF7E6FF33
:1046900010B1EF48046070BD00F09AFE054615B9F0
:1046A000EB480460F7E72C6300BFF4E710B5FFF7B1
:1046B000D5FF08B1E64810BD00F08AFE044614B1EB
:1046C00004F13000F7E7E248F5E7F0B50C4605469F
:1046D000E6B2042A15D300F0030797B9014646EA6B
:1046E000062343EA034304E008C108C108C108C126
:1046F000103A102AF8D201E008C1121F042AFBD296
:104700000D4601E005F8016B171EA2F10102F9D177
:10471000F0BD2DE9F0410F46164604463D463346AE
:10472000102B28D305F0030C04F003084CEA080C06
:10473000BCF1000F1FD121462A4610E052F804CBED
:1047400041F804CB52F804CB41F804CB52F804CB27
:1047500041F804CB52F804CB41F804CB103B102BAA
:10476000ECD204E052F804CB41F804CB1B1F042B1D
:10477000F8D20C46154603E015F801CB04F801CB3E
:10478000B3F1000CA3F10103F6D1BDE8F08170B5DF
:104790000C46014623468B4210D29D188D420DD9FE
:1047A0001144134405E05D1E2B462E784D1E29460C
:1047B0002E70151EA2F10102F5D108E003E013F8F6
:1047C000015B01F8015B151EA2F10102F7D170BD7A
:1047D000F0B5034600201C460D4608E026782F78E9
:1047E000F61B301E00D004E0641C6D1C521E002A13
:1047F000F4D800BFF0BD01460A4600E0521C107814
:104800000028FBD1501A7047F0B506460F463846CF
:10481000FFF7F1FF05460DB93046F0BD3046FFF712
:10482000EAFF044609E0641E2A4639463046FFF78F
:10483000CFFF08B93046F0E7761CAC42F3DA00202F
:10484000EBE730B503460C4600BF13F8011B14F824
:10485000012B412902DB5A2900DC2031412A02DBED
:104860005A2A00DC2032914201D10029EDD1881A68
:1048700030BD70B50346A2B118460C4600BF14F80F
:10488000016B00F8016B3EB902E0002500F8015B06
:10489000551E2A1EF9D102E0551E2A1EEFD100BF77
:1048A00000BF184670BD30B5034600200BE011F87C
:1048B000015B1C78641B64B2201E02D113F8015BFB
:1048C00005B902E0521E002AF1D100BF30BD0246F8
:1048D00001E0521C491C107818B110780B789842EE
:1048E000F7D010780B78C01A704702460B46114675
:1048F00000E0491C087810B1881A9842F9D3881A48
:10490000704770472DE9F04F86B00D469C46DDE9B3
:10491000106401960F9B04F04008B8F1000F02D01C
:10492000DFF8308101E0DFF83081CDF8008004F05D
:104930001008B8F1000F01D024F0010404F00108C0
:10494000B8F1000F02D04FF0300801E04FF020081E
:10495000C246002704F00208B8F1000F11D0002A67
:1049600002DA2D2752420CE004F00408B8F1000FDF
:1049700001D02B2705E004F00808B8F1000F00D0A3
:104980002027002142B94FF0300B8846491C0DF119
:10499000080909F808B01DE01AE0E146B9F10A0F6C
:1049A00008D14FF00A0BB2FBFBFE0BFB1E28B2FB3B
:1049B000FBF202E002F00F08120900BFDDF80090E0
:1049C00019F808B08846491C0DF1080909F808B023
:1049D000002AE2D1B14200DD0E469B1B04F0110813
:1049E000B8F1000F10D117B1002B00DD5B1E06E0FF
:1049F000A84203D24FF0200880F80080401CB3F199
:104A00000008A3F10103F3DC27B1A84200D207702C
:104A10005B1E401C04F01008B8F1000F0AD104E03E
:104A2000A84201D280F800A0401CB3F10008A3F115
:104A30000103F5DC06E0A84203D24FF0300880F80D
:104A40000080401CB046761E8845F4DC0FE0000074
:104A50006800002000800008EF7F0008A84205D20F
:104A60000DF1080818F8018080F80080401CB1F1B1
:104A70000008A1F1010104DDDDF80480B8F1000FA8
:104A8000ECD106E0A84203D24FF0200880F8008065
:104A9000401CB3F10008A3F10103F3DC06B0BDE84C
:104AA000F08F0146002009E00B685A1C0A601A7852
:104AB00000EB800302EB4302A2F130000A68127897
:104AC000303A0A2AF0D370472DE9FF4F89B080466B
:104AD00044460A9808EB0006464504D24FF0FF36DC
:104AE000A6EB08000A906FE10B980078252806D005
:104AF000B44202D20B9800782070641C61E100255A
:104B000026E00B98401C0B900B9800782D2802D1C2
:104B100045F010051CE00B9800782B2802D145F0D9
:104B2000040515E00B980078202802D145F008050F
:104B30000EE00B980078232802D145F0200507E00D
:104B40000B980078302802D145F0010500E000E024
:104B5000D7E700BF4FF0FF370B98007830380A28AE
:104B600004D20BA8FFF79DFF07460EE00B980078D4
:104B70002A280AD10B98401C0B900C9880C80C90E6
:104B8000002F02DA7F4245F010054FF0FF390B98F5
:104B900000782E281CD10B98401C0B900B980078A5
:104BA00030380A2804D20BA8FFF77BFF81460AE0C1
:104BB0000B9800782A2806D10B98401C0B900C9873
:104BC00050F8049B0C90B9F1000F01DA4FF0000986
:104BD000002004900B980078682803D00B98007888
:104BE0006C2805D10B98007804900B98401C0B9012
:104BF0000A2005900B9800786F2875D00CDC63288C
:104C000013D004DC252870D058286FD18DE064289B
:104C10006DD06928F9D18FE070286AD0732825D02B
:104C2000752878D07828F0D182E005F0100040B9DE
:104C300004E0B44201D220202070641C781E071EBC
:104C4000F7DC0C9810F8041B0C90C8B20790B44223
:104C500001D207982070641C04E0B44201D22020E5
:104C60002070641C781E071EF7DCAAE00C98006810
:104C700006900C98001D0C90069808B99EA006900E
:104C80000698FFF7B8FD8346B9F1000F02DDCB456A
:104C900000DDCB4605F0100048B904E0B44201D273
:104CA00020202070641C38467F1E5845F6DC00200A
:104CB00008900BE0B44202D2069800782070641C81
:104CC0000698401C06900898401C08900898584583
:104CD000F0DB04E0B44201D220202070641C38468E
:104CE0007F1E5845F6DC6CE01CE015E028E022E071
:104CF000FFE7781C10B9082745F00105CDE90079D8
:104D000002950C9804C8102331460C902046FFF7FA
:104D1000F9FD044655E012E0B44201D2252020708E
:104D2000641C4EE0082005901DE045F0400500BFE2
:104D30001020059017E000BF45F0020500BF12E00B
:104D4000B44201D225202070641C0B98007830B149
:104D5000B44202D20B9800782070641C02E00B98D9
:104D6000401E0B902DE000BF04986C2807D10C98D2
:104D700050F804AB0C9005F00200B8B116E00498AE
:104D800068280BD10C9830F8041B1FFA81FA0C909C
:104D900005F0020050B10FFA8AFA07E00C9850F8BB
:104DA00004AB0C9005F0020000B100BFCDE9007922
:104DB0000295524631462046059BFFF7A3FD044667
:104DC00000BF0B98401C0B900B98007800287FF4D4
:104DD0008BAE0A9838B1B44202D20020207002E0B3
:104DE000002006F8010CA4EB08000DB0BDE8F08F20
:104DF0000FB438B505A800907F214148009B049A64
:104E0000FFF762FE04467F2C00D97F243C48FFF761
:104E100078FD0020009038BC5DF814FB08B539A07F
:104E2000FFF7E6FF3AA0FFF7E3FF42A003230122CA
:104E30001946009042A0FFF7DBFF49A0FFF7D8FF1B
:104E400008BD0FB4F8B504460D4609A800902946E0
:104E50002046009B089AFFF737FE06460020009088
:104E60003046F8BC5DF814FB37B505460C462246C3
:104E70004FF0FF312846029BFFF726FE3EBD0FB4E0
:104E800038B5044606A800902046009A0599FFF719
:104E9000EBFF054600200090284638BC5DF814FB67
:104EA00010B5044604B910BD2046FFF72AFD00BF27
:104EB000F9E7014609B900207047C8B220B1C8B26D
:104EC000324A105C401CF7E701F47F4028B12F48BC
:104ED000C1F30722805C0930EEE701F47F0028B1BE
:104EE0002A48C1F30742805C1130E5E7274800EB10
:104EF000116000781930DFE7284E554C4C2900002E
:104F0000902500200A205C207C202F0A0000000051
:104F10002D205254202D20202020205468726561BD
:104F200064204F7065726174696E67205379737481
:104F3000656D0A004465632020372032303230002E
:104F4000202F207C205C202020202025642E25641A
:104F50002E2564206275696C642025730A000000A8
:104F60002032303036202D203230313920436F70DE
:104F70007972696768742062792072742D7468721E
:104F8000656164207465616D0A000000EF7E0008B1
:104F90007047024600210AE0464800EB0110007805
:104FA000904203D1434800EB01107047491C04298B
:104FB000F2DB0020F9E72DE9F04704460D46904664
:104FC00000262846FFF7E5FF074600F020F97E6837
:104FD00002E0A6F10C003668381D8642F9D100F0D7
:104FE00024F945F080002072082241462046FFF750
:104FF00040FC00F0E9FD8146381D04F10C01026817
:10500000516002680A600160486000BF484600F0D5
:10501000DFFDBDE8F08770B504460020207200F087
:10502000D3FD054604F10C00D0E900215160D0E920
:10503000001211604060006000BF284600F0C8FD0B
:1050400070BD0146087A00F0800008B10120704769
:105050000020FCE70146087A20F0800070472DE927
:10506000F04104460D464FF00008002600270CB121
:105070000C2D02DD0020BDE8F08100F0C8F81FB95A
:105080002846FFF786FF07467E680CE0A6F10C086D
:10509000082221464046FFF706FC18B900F0C5F883
:1050A0004046E8E73668381D8642EFD100F0BDF88B
:1050B0000020E0E76C00002010B500206D4908805A
:1050C000002405E06C4901EBC40000F0D0F8641C3A
:1050D000082CF7DB07206949087000206849086040
:1050E00068490860684800F0C2F810BD70B56548AE
:1050F0000068FFF7DEFE451E5F4850F83500A0F15E
:1051000014045F48046004F11C0000F092FD70BDBF
:105110002DE9F04100F058FD07465648008838BB9D
:1051200058480068FFF7C5FE461E534850F8360041
:10513000A0F1140452480068844218D04F490E7000
:105140004F48056804605148007850B904F11C01CB
:1051500005F11C0000F03FFD384600F039FDBDE8C8
:10516000F08104F11C0105F11C0000F034FD00BFCA
:10517000384600F02DFD00BFF1E770B5044600F0A1
:1051800023FD054614F8340F20F00F0040F0010015
:1051900020706278343C384B03EBC20004F11401F8
:1051A0004268116042684A604160086000BF35494A
:1051B000A06B0968084333490860284600F008FDE1
:1051C00070BD70B5044600F0FFFC054604F1140004
:1051D000D0E900215160D0E9001211604060006008
:1051E00000BF94F83510244A02EBC10001688142E7
:1051F00001D1012100E0002129B12248A16B006802
:10520000884320490860284600F0E2FC70BD10B5D4
:1052100000F0DAFC044617480088401C00B215492B
:105220000880204600F0D4FC10BD10B500F0CCFC86
:10523000044610480088401E00B20E490880084607
:10524000B0F9000000280ADC00200880204600F0A9
:10525000BFFC0B48006828B1FFF75AFF02E0204668
:1052600000F0B6FC10BD0348008880B27047406073
:1052700000607047AC00002010260020B400002021
:10528000B0000020B8000020BC0000206400002016
:105290000268516002680A60016048607047D0E9A6
:1052A00000215160D0E90012116040600060704739
:1052B00070B5E648046800F087FC05462046FFF715
:1052C00080FF042084F8340004F1440000F028FA40
:1052D0002046FFF7B6FE012805D1206F18B92046F9
:1052E000FFF799FE04E004F11401D948FFF7D0FF5D
:1052F000284600F06DFCFFF70BFF70BD70B504464B
:1053000025466FF00100286305F11400FFF7C7FF81
:105310002846FFF732FFFFF7FBFE70BD2DE9FC5F6B
:1053200004468B4615461E46DDE90C9ADDE90E78EB
:1053300004F114004060006000BF1C346560A6608A
:10534000C4F80C90C4F810A02321D4E90302FFF79D
:10535000BCF9D4E9033C63441A1FAFF2AB03D4E9B0
:10536000010100F0F5FA2060A77667760020E06181
:10537000C4F82080C4F82480606120766065A06550
:105380001C3C00902346AFF28B022146019004F1B1
:10539000440000F0AEF90020BDE8FC9F2DE9FF5F5E
:1053A00005460C4616461F46DDE910ABDDE90E89C1
:1053B000224601212846FFF7FEFD3B4632462146A4
:1053C00028468DE8000FFFF7A9FF04B0BDE8F09F65
:1053D0009E480068704770B5044694F8340000F0A9
:1053E0000F00022802D04FF0FF3070BD00F0ECFB40
:1053F000054604F11400FFF752FF04F1440000F0E9
:1054000016FA284600F0E4FB2046FFF7B6FE00201F
:10541000EBE710B504463434A07860706178012061
:1054200088406060022004F834092046FFF7D3FF6B
:10543000FFF7CEFF08B1FFF76BFE002010BD70B57F
:10544000044694F8340000F00F0010B12046FFF736
:10545000B8FE04F1440000F063F9042084F834003D
:105460002046FFF7EEFD012805D1206F18B9204630
:10547000FFF7D1FD0AE000F0A7FB054604F1140197
:105480007348FFF705FF284600F0A2FB002070BD1F
:1054900070B500F099FB05466C48046894F8340038
:1054A00000F00F0001281CD1D4E90510814218D06A
:1054B00004F11400FFF7F3FE94F83520654B03EB7D
:1054C000C20004F114014268116042684A60416000
:1054D000086000BF284600F07BFBFFF719FE0020A4
:1054E00070BD284600F074FB0020F9E770B5044653
:1054F00094F8340000F00F00012802D04FF0FF3084
:1055000070BD00F061FB054694F8340020F00F00F8
:1055100040F0020084F834002046FFF752FE04F108
:10552000440000F084F9284600F052FB0020E7E731
:1055300031B500F049FB0546444804682046FFF7B2
:10554000D5FF6A46002104F1440000F088F904F117
:10555000440000F0F5F8284600F03AFBFFF7D8FDCC
:10556000206B801C08B900202063002038BD10B5D6
:1055700004462046FFF7DCFF10BD70B50446204608
:10558000FEF768FF05462846FFF7D2FF70BD2DE9FC
:10559000F04104460E4615462EB3022E28D100F0E7
:1055A00013FB074694F8340000F00F0001280ED1D9
:1055B0002046FFF706FE287884F8350094F8351069
:1055C00001208840A0632046FFF7D7FD07E0287838
:1055D00084F8350094F8351001208840A0633846DF
:1055E00000F0F6FA05E02046FFF713FFBDE8F08172
:1055F00000BF00BF0020F9E72DE9F0410646FFF7A4
:10560000E7FE08B1FFF703FE0120FFF7C2FC0446E6
:10561000656810E0A5F10C07082231463846FFF70F
:1056200042F938B9FFF7D4FE08B1FFF7FEFD38465E
:10563000BDE8F0812D68201D8542EBD1FFF7C8FE43
:1056400008B1FFF7F2FD0020F2E70000B0000020F3
:10565000BC000020102600200268516002680A6029
:105660000160486070472DE9F04704460E46174632
:105670009846DDF8209084F80990607A20F00100C7
:105680006072E66127620020A062C4F824800025D1
:1056900006E004F1140101EBC50000F049F96D1CAE
:1056A000012DF6DBBDE8F08770B50446204600F01A
:1056B00042F910B14FF0FF3070BD2068A0F1140521
:1056C000A86AF9E710B50246002001460EE002F193
:1056D000140303EBC100D0E900436360D0E9003458
:1056E00023604060006000BF481C01460129EEDBDA
:1056F00010BD2DE9F84307460C4615461E46DDE968
:10570000088922460A213846FFF755FC43463246AF
:1057100029463846CDF80090FFF7A5FFBDE8F8838D
:1057200070B5044600F050FA05462046FFF7CAFF60
:10573000284600F04DFA2046FFF76DFC002070BDB2
:105740002DE9F843054600F03FFA80462846FFF76A
:10575000B9FF687A20F001006872404600F038FA1C
:10576000FEF755FE696A0844A86200F02DFA8046EB
:10577000754F009700242AE019E05DF82420116895
:10578000142202EBC402881A826AAB6AD21A00D1D0
:1057900008E0826AAB6AD21A6FF000439A4200D2E4
:1057A0000CE000BF5DF8240000684DF824005DF8AF
:1057B000240007EBC40149688842DED100BF2CB148
:1057C0005DF824000830611C4DF82100641C002C99
:1057D000D2D05E480068401C5C49086008460668F4
:1057E00005F114010098FFF737FF022412E006F0DC
:1057F000030060B9C4F1010305F1140202EBC30117
:10580000C4F101025DF82200FFF726FF00E003E08B
:10581000B608641C012CEAD900BF687A40F0010088
:105820006872404600F0D4F90020BDE8F88370B5F6
:105830000446607A00F0010010B94FF0FF3070BDEF
:1058400000F0C2F905462046FFF73CFF284600F06D
:10585000BFF9607A20F0010060720020EFE7034694
:1058600049B1012904D0022908D0032910D10AE046
:10587000586A10600CE01068586209E0587A20F00D
:105880000200587204E0587A40F00200587200BFDB
:1058900000BF0020704770B5FEF7B9FD054600F067
:1058A00093F9064628E028480068A0F11404A06A8D
:1058B000281A6FF0004188421DD22046FFF702FFF0
:1058C000D4E907108847FEF7A2FD0546607A00F08C
:1058D000020058B1607A00F0010038B1607A20F01F
:1058E000010060722046FFF72BFF05E0607A20F090
:1058F0000100607200E004E0134800F01CF800288A
:10590000D1D000BF304600F063F970BD10B50E482D
:10591000FFF7CAFE10BD10B5002405E00A4901EBEF
:10592000C40000F005F8641C002CF7D010BD7047CF
:1059300040600060704701460868884201D101203C
:1059400070470020FCE70000C4000020CC000020CD
:10595000F0B504460D461646301D20F007004038CD
:105960000146002203E0414F41F82270521C102AE8
:10597000F9D30D624FF0000CC1F824C0C1F828C063
:10598000C1F82CC0C1F830C04B638C634FF0807CF1
:10599000C1F83CC0F0BD36490860704770B5054697
:1059A0002C1D3348006838B12846314909688847BA
:1059B000064606B970BD00BF2EA0E16BFFF718FACE
:1059C00030A0216AFFF714FA32A0616AFFF710FADB
:1059D00034A0A16AFFF70CFA36A0E16AFFF708FAD3
:1059E00038A02168FFF704FA3AA06168FFF700FACF
:1059F0003CA0A168FFF7FCF93EA0E168FFF7F8F9C9
:105A000040A02169FFF7F4F942A06169FFF7F0F9BE
:105A100044A0A169FFF7ECF946A0E169FFF7E8F9B6
:105A200048A0216BFFF7E4F94AA0616BFFF7E0F9AA
:105A30004CA0A16BFFF7DCF9287800F0040038B126
:105A4000FFF7C6FC064631464AA0FFF7D1F902E04F
:105A500050A0FFF7CDF900BFFEE710B554A0FFF747
:105A6000C7F910BD5648574908607047EFBEADDE14
:105A7000DC0000207073723A203078253038780AC4
:105A8000000000007230303A203078253038780A33
:105A9000000000007230313A203078253038780A22
:105AA000000000007230323A203078253038780A11
:105AB000000000007230333A203078253038780A00
:105AC000000000007230343A203078253038780AEF
:105AD000000000007230353A203078253038780ADE
