:020000040800F2
:1030000030080020D9300008A56700081D660008B8
:1030100000000000000000000000000000000000B0
:103020000000000000000000000000008F6C00089D
:103030000000000000000000CD6A0008D76C000806
:10304000EB300008EB300008EB300008EB300008F4
:10305000EB300008EB300008EB300008EB300008E4
:10306000EB300008EB3000083D460008EB3000086C
:10307000EB300008EB300008EB300008EB300008C4
:10308000EB300008EB300008EB300008EB300008B4
:10309000EB300008EB300008EB300008EB300008A4
:1030A000EB300008EB300008EB300008BD7600087C
:1030B000EB300008EB300008EB300008EB30000884
:1030C0000448854600F09AFB00480047497900080B
:1030D000C046C046300800200448804704480047E6
:1030E000FEE7FEE7FEE7FEE7FEE7FEE74F6D0008BE
:1030F000C130000830B50B460146002020220124D3
:1031000009E00D46D5409D4205D31D469540491B1B
:103110002546954040191546521E002DF1DC30BD64
:10312000F0B51FB40646002082B005464024019148
:1031300000901BE0019922460F46304600F020F82F
:10314000049A059B801A994110D3104619462246CD
:1031500000F0A4FA361A8F4101972246012000217F
:10316000009F00F09BFA38184D4100902046641EE5
:103170000028DFDC019B00982946324607B0F0BDED
:1031800010B5202A04DB0846203AD040002110BDAB
:103190000B46D340D0402024A21A91400843194640
:1031A00010BD03460B439B0703D009E008C9121F5B
:1031B00008C0042AFAD203E00B780370401C491CB3
:1031C000521EF9D27047D2B201E00270401C491E73
:1031D000FBD270470022F6E710B513460A460446B4
:1031E0001946FFF7F0FF204610BDF8B502464A40E9
:1031F000D40F42004B0052085B089A4202D20246AA
:10320000084611464A0023D0C30D4A00DDB2120E13
:10321000AD1A202D35DA49020126490AF6058A1928
:10322000002C00D0524220214F1B1146B9402A41A8
:103230001018C20D9A4221D0002C17D0012D08DCA5
:10324000DA05801AD20F8019D207DBB200F03EFAFD
:10325000F8BDDA05801A012340001B06C01880184B
:103260005A428018CA0F1043490007E04908C207B4
:103270001143DA05801A80194008801800F01EFA00
:10328000F8BD61000122511A001BF7E70122D207A5
:103290005140AAE70122D2075040A6E7024670B586
:1032A0004A40D30FDB0740002DD04A002AD0010E40
:1032B000140E000212020919400A520A8418E5018C
:1032C00004465443000A120A2E045043A41942191A
:1032D000200CC543AA18120C0125AD03521C52192B
:1032E00012047F39240400D0521C104301D4400042
:1032F000491EC2B20C06C0092018401C4008802A92
:1033000002D003E0002070BD40084000002900DA30
:103310000020184370BD70B502464A40D50F4000EA
:103320004A00ED0740085208002814D0002A12D0A5
:10333000C40DD30D41020120C0055202490A520AB0
:10334000E41A091812187D34914201D3641C00E07C
:103350004900002C01DA002070BD0023914201D306
:10336000891A0343400849000028F7D100290AD0F0
:10337000914202D10121C90705E0914201D2012108
:1033800001E00121C943E005C018401900F096F999
:1033900070BD0000F0B51FB488B00B9909980024E7
:1033A00048400999C00F490049080991C0070B9985
:1033B0000090490049080B9109990898A6460843CE
:1033C0001CD00B990A98084318D009980124400092
:1033D000420D4800410D099824050003000B2043CD
:1033E00009900B980003000B20430B9050181C49C8
:1033F0004018002201901446104605E000200146C6
:103400000DB0F0BD032801DA034600E003239C461B
:10341000C11A0AAE0AE05F0008ADED5B4F00F75B32
:103420007D430027AA187C41491C5B1E6145F2DDE3
:10343000410004AB5A522104120C0A43240C401CD4
:103440000828DFDB019802900099704601910090F6
:10345000059B049A0799069800F07EF9D0E70000D2
:103460000DFCFFFFF0B50C465C4085B0E40FE407AF
:1034700003944C000026640859009446490802460B
:103480000296224321D062460A431ED06200570DA5
:103490004A000E032303550D012402462C4924053E
:1034A000781B1B0B360B40182343264361460090C4
:1034B0001C46501AB44103D30098401C009002E00F
:1034C000921800985B41002803DA0020014605B0FD
:1034D000F0BD0020012109050746864611E064463B
:1034E0001D46141BB54106D36546521BB3417446B5
:1034F00007430C43A646CD074008490828439218C5
:103500005B4105460D43EAD11046184313D060468F
:10351000194650407140084306D06046101AB34126
:1035200006D20122002306E000220123DB0702E08D
:103530000122D2435310009874460105381C6141A2
:10354000029C039D0019694100F0F9F8BFE70000F3
:10355000FD0300000122D207002800DB101A002919
:1035600000DB511A814201D80120704700207047CA
:103570000122D207002800DB101A002900DB511AB3
:10358000814201D201207047002070470122D207FA
:10359000002800DB101A002900DB511A814201D9F2
:1035A00001207047002070470122D207002800DB6D
:1035B000101A002900DB511A814201D10120704705
:1035C00000207047C217C10F504010B54018CA07FD
:1035D0009623002100F07AF810BD10B50022962342
:1035E000114600F073F810BD0EB505490291002197
:1035F00000910A460B46019100F0AEF803B000BD01
:1036000033040000C20F410040020123400ADB05E1
:10361000D207090EC0187F2901DA002070479629C9
:1036200003DC9623591AC84001E096398840002AE5
:10363000F4D040427047410040020122400AD205C6
:10364000090E80187F2901DA00207047962903DCD3
:103650009622511AC840704796398840704700003A
:103660004A0009030123090B1B051943094B10B537
:10367000520D9A4201DA002010BD064B34339A42B3
:1036800003DC9A1AFFF77CFD10BD034951188840EE
:1036900010BD0000FF030000CDFBFFFF10B5202A86
:1036A00004DB0146203A9140002010BD91402023C8
:1036B0009C1A0346E3401943904010BD002904DAE8
:1036C000401C490001D140084000704770B40024FC
:1036D000050C05D11024000402D1002921D01124A9
:1036E000050E01D100020834050F01D10001241D8F
:1036F000850F01D18000A41C002801DB4000641C60
:10370000002908D020252E1B0D46F540A14000D0F1
:1037100001212943084301061B1B000ADB1D02D5BA
:10372000002070BC7047DB05181880180029F8DAF3
:10373000401C4900F5D170BC40084000704710B5EE
:10374000002B08DA0024401C614192185B411A43A7
:1037500001D14008400010BDF0B51FB482B005464D
:103760000C0003D0084603F0C5FF02E003F0C2FFDF
:1037700020300246009021462846FFF78FFF049B29
:10378000059A04460F4618431143084314D01846BF
:1037900010431BD0009840210A1A18460599FFF7DC
:1037A000EFFC05460E46009A05990498FFF776FF50
:1037B000084305D0012004E02046394607B0F0BD9B
:1037C0000020C11705430E432C43374300990E9840
:1037D0006305401A7905E40A00220C43FD0A0A3009
:1037E00002D500200146E9E70105101969410C9C4A
:1037F0000D9D00196941FFF7A2FFDFE7064C012587
:10380000064E05E0E36807CC2B430C3C9847103488
:10381000B442F7D3FFF758FC887F0008A87F000860
:10382000014908807047C046E6000020F0B581B02D
:1038300004460A4800880A4D45430020094F0646C1
:10384000A04207D028463146FFF754FC761CB74209
:10385000F6D13E46304601B0F0BDC046E60000203D
:103860001027000081F0FA02F0B583B01F4614461D
:10387000029100F09DFC06462060E34805680321A4
:103880002846FFF737FC0146E048006809188E42D9
:1038900002D9002600F060FCAE420CD20020386055
:1038A000DB480088DB490880FFF7C0FF0299086009
:1038B000012600F051FC0197D7490F68B7423BD968
:1038C0003846FFF78AFE04462846FFF786FE07467D
:1038D00020463946FFF7DAFC0446D0480088FFF757
:1038E0007CFE054620462946FFF715FD0446304676
:1038F000FFF773FE3946FFF7C9FC2146FFF70BFDC2
:103900000746C7480760C2480688C6480488301B77
:1039100000D2A01BFFF756FE2946FFF7FCFC01462C
:103920003846FFF7BBFC05463046FFF756FE01461A
:10393000B44234D9284684E3BB490D68B54233D933
:103940002846FFF74AFE04463846FFF746FE05467E
:1039500020462946FFF79AFC0446B4480088FFF742
:103960003CFE074620463946FFF7D5FC0446304664
:10397000FFF733FE2946FFF789FC2146FFF7CBFC12
:103980000646A6480088FFF728FE01463046FFF7A6
:103990002CFCA3490860A3480588A54839E30846DC
:1039A0002946FFF773FC4EE3A2490F6839D8B742A6
:1039B00037D93846FFF711FE04462846FFF70DFEBB
:1039C000054620462946FFF761FC04469A480088D0
:1039D000FFF703FE074620463946FFF79CFC0446E6
:1039E0003046FFF7FAFD2946FFF750FC2146FFF766
:1039F00092FC064689480088FFF7EFFD01463046F5
:103A0000FFF7F3FB044689480088FFF7E6FD01460F
:103A10002046FFF7EAFB8249086085480588874809
:103A2000F7E287490D68B74242D8B54240D92846E7
:103A3000FFF7D3FD04463846FFF7CFFD0546204685
:103A40002946FFF723FC04467E480088FFF7C5FDA2
:103A5000074620463946FFF75EFC04463046FFF72E
:103A6000BCFD2946FFF712FC2146FFF754FC064631
:103A70006A480088FFF7B1FD01463046FFF7B5FB05
:103A800004466A480088FFF7A8FD01462046FFF774
:103A9000ACFB044668480088FFF79FFD01462046BE
:103AA000FFF7A3FB5E490860644805886648B0E2FA
:103AB00066490F68B5424BD8B74249D93846FFF737
:103AC0008CFD04462846FFF788FD0546204629461A
:103AD000FFF7DCFB04465E480088FFF77EFD0746E3
:103AE00020463946FFF717FC04463046FFF775FDC0
:103AF0002946FFF7CBFB2146FFF70DFC064647485A
:103B00000088FFF76AFD01463046FFF76EFB04466A
:103B100046480088FFF761FD01462046FFF765FB38
:103B2000044645480088FFF758FD01462046FFF748
:103B30005CFB044643480088FFF74FFD01462046E2
:103B4000FFF753FB364908603F480588414860E26B
:103B500041490D68B74200D984E0B54200D881E000
:103B60002846FFF73AFD04463846FFF736FD05467E
:103B700020462946FFF78AFB044638480088FFF7AD
:103B80002CFD074620463946FFF7C5FB0446304664
:103B9000FFF723FD2946FFF779FB2146FFF7BBFB23
:103BA00006461E480088FFF718FD01463046FFF71D
:103BB0001CFB04461D480088FFF70FFD0146204608
:103BC000FFF713FB04461C480088FFF706FD01467B
:103BD0002046FFF70AFB04461A480088FFF7FDFC61
:103BE00001462046FFF701FB044619480088FFF70D
:103BF000F4FC01462046FFF7F8FA09490860154829
:103C00000588174805E2C046FC0300200404002094
:103C1000E80000202804002000040020E603002023
:103C200074030020EA00002008040020EA030020BA
:103C3000EE0000200C040020EC030020F000002027
:103C400010040020EE030020F200002014040020E5
:103C5000F0030020F400002018040020F2030020EC
:103C6000F6000020A1490F68B5425DD8B7425BD984
:103C70003846FFF7B2FC04462846FFF7AEFC05467F
:103C800020462946FFF702FB044699480088FFF7C3
:103C9000A4FC074620463946FFF73DFB0446304664
:103CA000FFF79BFC2946FFF7F1FA2146FFF733FBAC
:103CB000064690480088FFF790FC01463046FFF723
:103CC00094FA04468C480088FFF787FC014620469A
:103CD000FFF78BFA044689480088FFF77EFC01460F
:103CE0002046FFF782FA044685480088FFF775FCF6
:103CF00001462046FFF779FA044682480088FFF71C
:103D00006CFC01462046FFF770FA04467E480088A6
:103D1000FFF763FC01462046FFF767FA7B4908601E
:103D20007B4805887B4874E17B490D68B74266D8BB
:103D3000B54264D92846FFF750FC04463846FFF7E1
:103D40004CFC054620462946FFF7A0FA0446734876
:103D50000088FFF742FC074620463946FFF7DBFAAA
:103D600004463046FFF739FC2946FFF78FFA214613
:103D7000FFF7D1FA0646FB480088FFF72EFC014604
:103D80003046FFF732FA0446F7480088FFF725FC73
:103D900001462046FFF729FA0446F1480088FFF75C
:103DA0001CFC01462046FFF720FA0446F048008834
:103DB000FFF713FC01462046FFF717FA0446ED48CB
:103DC0000088FFF70AFC01462046FFF70EFA04467A
:103DD000E9480088FFF701FC01462046FFF705FA95
:103DE0000446E6480088FFF7F8FB01462046FFF747
:103DF000FCF9DE490860E2480588E34809E1E34947
:103E00000968B54200D98BE0B14200D888E0084685
:103E1000FFF7E3FB04462846FFF7DFFB0546204695
:103E20002946FFF733FA0446D9480088FFF7D5FB47
:103E3000074620463946FFF76EFA04463046FFF73C
:103E4000CCFB2946FFF722FA2146FFF764FA064623
:103E5000C4480088FFF7C1FB01463046FFF7C5F9AB
:103E60000446C1480088FFF7B8FB01462046FFF72B
:103E7000BCF90446BA480088FFF7AFFB014620466C
:103E8000FFF7B3F90446BA480088FFF7A6FB0146DE
:103E90002046FFF7AAF90446B6480088FFF79DFBC5
:103EA00001462046FFF7A1F90446B3480088FFF712
:103EB00094FB01462046FFF798F90446AF48008876
:103EC000FFF78BFB01462046FFF78FF90446AD480C
:103ED0000088FFF782FB01462046FFF786F9A349D9
:103EE0000860A9480588AB4893E0C0461C04002040
:103EF000F4030020E6030020EA030020EC03002086
:103F0000EE030020F0030020F203002074030020E1
:103F1000F6000020F800002020040020F603002016
:103F2000B14200D990E00D46FFF757FB0446284602
:103F3000FFF753FB054620462946FFF7A7F904463D
:103F400095480088FFF749FB074620463946FFF7AA
:103F5000E2F904463046FFF740FB2946FFF796F9A1
:103F60002146FFF7D8F906467E480088FFF735FB63
:103F700001463046FFF739F904467B480088FFF7D1
:103F80002CFB01462046FFF730F9044674480088B0
:103F9000FFF723FB01462046FFF727F90446744844
:103FA0000088FFF71AFB01462046FFF71EF904467A
:103FB00070480088FFF711FB01462046FFF715F90E
:103FC00004466D480088FFF708FB01462046FFF7CE
:103FD0000CF9044669480088FFF7FFFA01462046BD
:103FE000FFF703F9044667480088FFF7F6FA014631
:103FF0002046FFF7FAF8044665480088FFF7EDFA17
:1040000001462046FFF7F1F85849086061480588E5
:1040100062480488281B00D2601BFFF7D3FA394698
:10402000FFF779F901463046FFF738F90646AC420A
:1040300002D80120C00746402846FFF7CEFA0146C5
:104040003046FFF7D2F80746002638463146FFF7DC
:10405000ABFA002825D1434800884349098808184D
:104060003F49098840184249098840184149098850
:104070004018414909884018404909884018414979
:10408000098840184249098840184349098840185E
:10409000FFF798FA014635480068FFF777FA0028DD
:1040A00036D0304800883049098808182C490988DA
:1040B00040182F49098840182E49098840182E4970
:1040C000098840182D49098840182E490988401848
:1040D0002F4909884018304909884018FFF772FABB
:1040E00005462248046820462946FFF733FA00288F
:1040F00007D12B48018829480088884210D82A4EC9
:104100000FE020463146FFF733FA002824D117E0AC
:104110003846FFF790FAFFF789FB029908600FE035
:10412000204E124CFFF759FA01463046FFF75DF872
:104130000746FFF780FAFFF779FB029908602560D0
:104140003846FFF75FFA1949088008480068FFF70A
:1041500072FA019908600126304603B0F0BDC046EE
:10416000EC030020E6030020EA0300207403002093
:10417000EE030020F0030020F2030020F4030020EF
:10418000F8000020F6030020FA000020240400209C
:10419000F8030020FC000020E8030020EC000020D1
:1041A000E80000200000A0400000A0C0280400207B
:1041B000F0B595B0044601A85021FFF70BF87948F7
:1041C00001781A2901D30021017078498C421BD053
:1041D000754D2E78132E17D801788B00744AD45061
:1041E000744B00241C60761C2E702546EEB2B6007F
:1041F0009659A4196D1CEEB28E42F7D91C60491C69
:104200000170002015B0F0BD8C4203D00178890008
:10421000674A545001784A1C02700020644A03E047
:10422000491E001D502808D0CBB29C00145901AD86
:104230002C50002BF4D11921F3E70020014602E0B5
:10424000491C142913D01422521A0446034603E0D1
:104250005B1CDCB2A242F3D9A40001AD2C192546A7
:1042600040CD2F68BE42F3D92E602760F0E7514C55
:104270000020206050480078401E06285FD8C046C5
:1042800078440079400087440327455A5A687500EE
:104290000398049908180599401806994018079939
:1042A000401808994018099940180A9940180B9924
:1042B00040180C9940180D9940180E9940180F9904
:1042C0004018109940181199401812994018FFF79A
:1042D0008BF900223B4B3DE0059806990818079999
:1042E000401808994018099940180A9940180B99E4
:1042F00040180C9940180D9940180E9940180F99C4
:10430000401810994018FFF76FF900222C4BFFF767
:10431000A9F842E0079808990818099940180A99DD
:1043200040180B9940180C9940180D9940180E9997
:104330004018FFF759F9FF22930500220AE0099877
:104340000A9908180B9940180C994018FFF74CF976
:1043500000221D4BFFF71EF81FE00F98099908185F
:104360000A9940180B9940180C9940180D9940185B
:104370000E990BE0079808990818099940180A99AE
:1043800040180B9940180C99401806994018FFF7EF
:104390002BF90022094BFFF765F8FFF761F9206060
:1043A00015B0F0BDE5030020E4030020FFFFFF008F
:1043B0007C03002078030020E400002000001C4063
:1043C000000028400000B03F0000D03F01480088B6
:1043D0007047C04628040020F0B582B004684C4BFA
:1043E00000941C6043684B4C236083684A4C2360F4
:1043F000C3684A4C23600369494C23604369494CB4
:1044000023608369484C2360C369484C2360036A76
:10441000446A806A464D2B60464B1C60464B1860D0
:10442000CB89088AC41A0F88444D2C808C891B1BA9
:10443000434D2B804B89E41A424D2C800C891B1B69
:10444000414D2B80CD88631B404C23808C88019587
:104450002B1B3F4D2B804D88631B3E4E3380EB1B47
:104460003D4E33804B8A181A3C4E3080898AC81AD8
:104470003B4B188010883B4F002827D0B84223D0F0
:104480005388002B20D0BB421ED0374E3380374B91
:1044900018809388364E3380D388364E3380138904
:1044A000354E33805389354E33809389344E338073
:1044B000D389344E3380138A334E3380538A334E3C
:1044C0003380938A324E3380002802D15388002BE8
:1044D00004D0B84205D05088B84202D0002002B0C3
:1044E000F0BD002022462A430DD0019A91420AD302
:1044F000A14208D32C40BC4205D0A94203D3009965
:10450000491C022901D202B0F0BD012002B0F0BD69
:10451000FC03002000040020080400200C040020FC
:104520001004002014040020180400201C040020A3
:10453000200400202404002004040020F6030020AE
:10454000F4030020F2030020F0030020EE0300201B
:10455000EC030020EA030020E6030020F80300201B
:10456000E8030020FFFF0000EA000020E800002030
:10457000EE000020F0000020F2000020F4000020F7
:10458000F6000020F8000020FA000020FC000020C7
:10459000EC00002010B5124812490860FF200530D9
:1045A000486000210F48816007210902C160002195
:1045B000016101214161490281610821C16100213C
:1045C0000162416281620721C1620021016341638E
:1045D00001F070F8002801D000F061F810BD000073
:1045E000003001400001002070B504460D46064B26
:1045F0002A462146054801F031F9002801D0012062
:1046000070BD0020FCE70000B80B00000001002096
:10461000F8B504460D461646064833462A46214656
:104620000090054801F020FA002801D00120F8BDD3
:104630000020FCE7B80B00000001002010B5034883
:1046400000F05AF8024800F057F810BD300300207F
:10465000EC02002010B50446054A2168881A14218E
:10466000FEF748FD8000206401480838E06310BD73
:104670000800024030B50124056CAC40C56B6C608D
:10468000046863604468102C04D10468A260046864
:10469000E16003E00468A1600468E26030BD704737
:1046A00070B5044600252120005D022803D00420B7
:1046B000A06301251EE0206800680E218843216860
:1046C00008602068006840084000216808600120F8
:1046D000216C8840E16B486001212120015500BF19
:1046E00000212020015500BF606B002802D0204629
:1046F000616B8847284670BD70B50446E06B05685D
:10470000206806680420216C8840284000281BD0BF
:1047100004203040002817D020680068202108407D
:10472000002805D1206800680421884321680860BA
:104730000420216C8840E16B4860E06A002852D078
:104740002046E16A88474EE00220216C88402840DC
:10475000002823D00220304000281FD020680068A5
:1047600020210840002808D1206800680A218843D9
:10477000216808600121212001550220216C884018
:10478000E16B486000BF00212020015500BFA06AF6
:10479000002828D02046A16A884724E00820216C00
:1047A0008840284000281ED00820304000281AD019
:1047B000206800680E218843216808600120216C70
:1047C0008840E16B48600120A06301212120015550
:1047D00000BF00212020015500BF206B002802D01F
:1047E0002046216B884770BD70B504460025002C1B
:1047F00001D1012070BD02212120015520680568EA
:104800000F480540A16860680843E16808432169D2
:10481000084361690843A1690843E1690843054306
:10482000206805602046FFF715FF0020A0630121E6
:10483000212001550021202001550020DAE7000049
:104840000FC0FFFFF8B504460D4616461F46002070
:10485000009000BF2020005D012801D10220F8BD9A
:1048600001212020015500BF2120005D01282DD10C
:104870000221212001550020A06320680068400823
:104880004000216808603B46324629462046FFF733
:10489000F1FEE06A002806D0206800680E21084377
:1048A000216808600BE0206800680A21084321683D
:1048B0000860206800680421884321680860206837
:1048C0000068012108432168086006E000BF00215C
:1048D0002020015500BF022000900098BFE7000093
:1048E00070B5044600F014F906462546681C0028F9
:1048F00002D0054800782D1800BF00F009F9801B90
:10490000A842FAD370BD0000DC00002078B5034651
:104910000022E2E0012696400C683440002C7DD055
:104920004D68012D08D04D68022D05D04D68112D20
:1049300002D04D68122D18D1986856000325B54055
:104940000646AE4330465600CD68B54028439860D1
:104950005868012595400646AE43304610264D68FE
:1049600035402D09954028435860D86856000325E6
:10497000B5400646AE43304656008D68B5402843E4
:10498000D8604D68022D02D04D68122D15D1D50882
:10499000AE001D462035A8595507EE0E0F25B5402F
:1049A0000646AE4330465607F60E0D69B54028431D
:1049B000D508AD001E4620367051186856000325F4
:1049C000B5400646AE4330460D79AD07AD0F5600F3
:1049D000B54028431860012636074D683540B5427A
:1049E0007AD100BF404DAD69012635433E4EB561D9
:1049F0003546AD69ED07ED0F009500BF00BF3B4D9B
:104A00009608B600A85995072E0F0F25B540064603
:104A1000AE4330460925ED06AB4200E05CE001D133
:104A2000002514E0324DAB4201D101250FE0314D9C
:104A3000AB4201D102250AE02F4DAB4201D1032543
:104A400005E02E4DAB4201D1042500E00525960777
:104A5000360FB5402843254D9608B600A851284D7D
:104A600028680546A5432846012636044D6835408A
:104A7000B54202D1054625432846214D2860686885
:104A80000546A5432846012676044D683540B542C3
:104A900002D1054625432846194D6860A868054699
:104AA000A5432846012636054D683540B54202D15A
:104AB000054625432846124DA860E8680546A543EB
:104AC0002846012676054D683540B54202D1054697
:104AD000254328460A4DE860521C0D68D540002D3C
:104AE00000D017E778BD0000001002400800014028
:104AF0000004004800080048000C0048001000486E
:104B000000040140002A01D0816100E08162704709
:104B10000148006870470000D40000200348006886
:104B2000034909784018014908607047D400002003
:104B3000DC00002010B50648006810210843044935
:104B40000860002000F006F800F02EF8002010BDEC
:104B50000020024070B50446104801787D20C00056
:104B6000FEF7C8FA064631460D480068FEF7C2FA5D
:104B7000054601F0F5F8002801D0012070BD042C95
:104B800007D200222146501E00F03CF80548046080
:104B900001E00120F2E70020F0E70000DC00002047
:104BA000E0000020D800002008B500BF0D48806953
:104BB000012108430B49886108468069C007C00F7E
:104BC000009000BF00BF00BF0846C0690904084349
:104BD0000449C8610846C06909040840009000BF44
:104BE00000BF08BD001002400146002905DBCB06CE
:104BF000DB0E01229A40024B1A6000BF7047000092
:104C000000E100E070B504460D46164629462046F0
:104C100002F0A0FD70BD0000F8B504460026002596
:104C2000012109042068084088427AD100276048A1
:104C3000C0690903084000280DD100BF5C48C06965
:104C400008435B49C8610846C069090408400090F0
:104C500000BF00BF012757480068FF21013108400D
:104C6000002816D153480068084352490860FFF7EE
:104C70004FFF064606E0FFF74BFF801B642801D973
:104C80000320F8BD4B480068FF210131084000288F
:104C9000F1D04748006A0321090208400546002D6B
:104CA0002DD060680840A84229D04148006A884356
:104CB00005463F48006A0121090408433C4908624F
:104CC0000846006A012109048843394908620846F8
:104CD0000562E807C00F002811D0FFF719FF06464C
:104CE00007E0FFF715FF801B3349884201D90320F5
:104CF000C7E72F48006A022108400028F1D02C485D
:104D0000006A032109028843616808432849086250
:104D1000012F05D10846C069090488432449C861A8
:104D200000BF2078C007C00F002807D02048006BC4
:104D300080088000A16808431D490863022120689B
:104D40000840022808D11A48006B0321090488434F
:104D5000E16808431649086320212068084020289C
:104D600007D11348006B102188432169084310497B
:104D700008630121490420680840884207D10C4893
:104D8000006B80218843A169084309490863012118
:104D9000890220680840884207D10548006B4021FD
:104DA00088436169084302490863002069E70000FD
:104DB00000100240007000408813000070B50446E7
:104DC0000D46002C01D1012070BD58480068C00775
:104DD000C00FA8420ED25548006840084000284342
:104DE0005249086008460068C007C00FA84201D0B9
:104DF0000120E9E7022120680840022814D104219B
:104E000020680840042807D1494840680721090262
:104E1000884340184649486045484068F021884327
:104E2000A1680843424948602078C007C00F0028A5
:104E300047D06068012808D13D4800680121490435
:104E40000840002821D10120BEE76068022808D16F
:104E500037480068012149060840002815D1012083
:104E6000B2E76068032808D13148406B012109048A
:104E70000840002809D10120A6E72D48006802213A
:104E80000840002801D101209EE729484068800899
:104E900080006168084326494860FFF739FE0646EE
:104EA00007E0FFF735FE801B2249884201D9032025
:104EB0008AE71F4840680C210840616889008842E1
:104EC000EFD11A480068C007C00FA8420ED9174892
:104ED00000684008400028431449086008460068FC
:104EE000C007C00FA84201D001206DE7042120684F
:104EF0000840042808D10E48406807210902884369
:104F0000E16808430A49486000F032F808494968F6
:104F1000F02211400909084A515CC840074908605D
:104F20000020FFF717FE00204EE70000002002409F
:104F300000100240881300006E7F0008E00000208F
:104F40000148006870470000E000002000B5FFF74E
:104F5000F7FF05494968072212021140090A034A6E
:104F6000515CC84000BD0000001002407E7F000878
:104F7000F0B589B035A001460EC9C06805AC0EC4B5
:104F8000089036A001460EC9C06801AC0EC404905A
:104F900000250024002700260020009033484568A3
:104FA0000C202840002849D0042804D0082805D027
:104FB0000C2842D13EE02E48009042E00F208004B1
:104FC0002840800C05A90E5C2848C06A0007000F25
:104FD00001A90C5C0320C003284001210904884278
:104FE0000AD12246002322481946FEF799F8314695
:104FF00002F097FB07461BE00320C0032840032173
:10500000C90388420AD1224600231A481946FEF7EE
:1050100087F8314602F085FB074609E02246002367
:1050200013481946FEF77CF8314602F07AFB074632
:10503000009706E00F48009003E000BF0C48009086
:1050400000BF00BF009809B0F0BD000002030405D6
:10505000060708090A0B0C0D0E0F101001020304BD
:1050600005060708090A0B0C0D0E0F100010024070
:1050700000127A00006CDC02FEB50446002C01D15F
:105080000120FEBD2078C007C00F002872D0FC4868
:1050900040680C21084004280CD0F94840680840BA
:1050A000082813D1F6484068490308400121090443
:1050B00088420BD1F24800680121490408400028C9
:1050C0006BD06068002868D10120DAE700BF606813
:1050D000012807D1EA480068012109040843E8498A
:1050E000086031E0606800280ED1E54800680121C1
:1050F00009048843E24908600846006801218904E0
:105100008843DF4908601FE0606805280ED1DC484D
:105110000068012189040843D949086008460068ED
:10512000012109040843D64908600DE0D44800680D
:10513000012109048843D24908600846006801211A
:1051400089048843CE49086000BF6068002812D0F7
:10515000FFF7DEFC054606E0FFF7DAFC401B64289B
:1051600001D903208DE7C6480068012149040840A1
:105170000028F1D011E0FFF7CBFC054606E0FFF771
:10518000C7FC401B642801D903207AE7BC480068AB
:105190000121490408400028F1D10221206808407B
:1051A000022862D1B64840680C21084000280CD083
:1051B000B3484068084008281CD1B14840684903FA
:1051C00008400121C903884214D1AD48006802217A
:1051D0000840002804D0E068012801D0012050E7F1
:1051E000A7480068F82188432169C9000843A449F9
:1051F00008603AE0E068002820D0A148006801215A
:1052000008439F490860FFF783FC054606E0FFF767
:105210007FFC401B022801D9032032E79848006830
:10522000022108400028F2D095480068F821884300
:105230002169C90008439249086016E09048006857
:10524000400840008E490860FFF762FC054606E012
:10525000FFF75EFC401B022801D9032011E78848B4
:105260000068022108400028F2D108212068084087
:10527000082831D1E069002817D08148406A01210F
:1052800008437F494862FFF743FC054606E0FFF705
:105290003FFC401B022801D90320F2E67848406A0F
:1052A000022108400028F2D016E07548406A400804
:1052B000400073494862FFF72BFC054606E0FFF704
:1052C00027FC401B022801D90320DAE66C48406A1B
:1052D000022108400028F2D1042120680840042857
:1052E00072D1002001906648C069890608400028F4
:1052F0000ED100BF6248C06908436149C8610846D1
:10530000C06909040840009000BF00BF012001905F
:105310005C480068FF2101310840002816D1594837
:105320000068084357490860FFF7F2FB054606E0AE
:10533000FFF7EEFB401B642801D90320A1E651488A
:105340000068FF21013108400028F1D000BFA068AB
:10535000012806D14A48006A0121084348490862E9
:105360002AE0A06800280BD14548006A410849009E
:1053700043480162006A04218843414908621BE0F6
:10538000A06805280CD13E48006A042108433C4926
:1053900008620846006A01210843394908620BE0A7
:1053A0003748006A40084000354908620846006AEC
:1053B000042188433249086200BFA068002813D046
:1053C000FFF7A6FB054608E02BE0FFF7A1FB401B1B
:1053D0002D49884201D9032053E62948006A022159
:1053E00008400028F1D011E0FFF792FB054607E0E6
:1053F000FFF78EFB411B2448814201D9032040E680
:105400001F48006A022108400028F1D101980128B4
:1054100006D11B48C0690121090788431849C861A2
:1054200000BF10212068084010285FD16069012862
:105430002CD11348406B04210843114948630846A6
:10544000406B012108430E494863FFF761FB0546A5
:1054500006E0FFF75DFB401B022801D9032010E6A0
:105460000748406B022108400028F2D00448406BF6
:10547000F8218843A169C90008430149486335E020
:105480000010024000700040881300006069401D59
:1054900000280FD18648406B042188438449486323
:1054A0000846406BF8218843A169C9000843804938
:1054B00048631BE07E48406B042108437C494863F5
:1054C0000846406B400840004863FFF721FB054653
:1054D00006E0FFF71DFB401B022801D90320D0E5A1
:1054E0007348406B022108400028F2D12021206837
:1054F0000840202852D16E4840680C2108400C28F2
:105500000AD06B4840680840082811D168484068B4
:105510004903084088420BD16548406B01210904CA
:10552000084000283AD0206A012837D00120A8E599
:10553000206A002819D05E48406B01210904084305
:105540005B494863FFF7E4FA054606E0FFF7E0FA37
:10555000401B022801D9032093E55548406B0121E7
:10556000090408400028F1D018E05148406B01219F
:10557000090488434E494863FFF7CAFA054606E026
:10558000FFF7C6FA401B022801D9032079E54848F5
:10559000406B0121090408400028F1D1606A00280D
:1055A0004FD0434840680C210840082864D0606A06
:1055B000022847D13E4800680121090688433C493A
:1055C0000860FFF7A5FA054606E0FFF7A1FA401BC1
:1055D000022801D9032054E5354800680121490615
:1055E00008400028F1D100BF3148C06A000900011D
:1055F000216B08432E49C862A16AE06A08432C491E
:1056000049687B22D203914308432949486000BF7F
:105610000846006801210906084325490860FFF78C
:1056200077FA054606E0FFF773FA401B022801D916
:10563000032026E51E48006801214906084000288D
:10564000F1D033E01A48006801210906884318495F
:105650000860FFF75DFA054606E0FFF759FA401BC0
:10566000022801D903200CE51148006801214906F0
:1056700008400028F1D119E0606A012800D100E556
:105680000B484668C76A0320C0033040A16A8842BD
:105690000AD13907090F206B814205D10F20800400
:1056A0003040E16A884201D00120EAE40020E8E4C9
:1056B0000010024070B50446002C01D1012070BDDD
:1056C000606A002800D100BF0021A1625D20005D5A
:1056D000002804D15C200155204600F059F8022131
:1056E0005D200155206800684021884321680860DA
:1056F00007210902E068884201D9002501E001255F
:105700002D030F210902E068884206D00721090213
:10571000E068884201D00021A162206B002809D1F5
:1057200007210902E068884202D90221216301E0D1
:1057300001212163A1686068084321690843616908
:10574000084301225202A16911400843E16908435C
:10575000216A0843A16A084321680860A069000C17
:1057600004210840616A0843616B0843E16808430B
:105770002843216848602068C069910088432168F7
:10578000C8610020206601215D200155002096E7B8
:1057900010B586B00446142101A8FDF71BFD00BF1B
:1057A0002C4880690121090308432A498861084679
:1057B000806989140840009000BF00BF00BF2548E1
:1057C000406989010843234948610846406901212D
:1057D00089040840009000BF00BF00BF1D48406919
:1057E00008431C4948610846406901218904084072
:1057F000009000BF00BF00BF16484069084315492C
:10580000486108464069012189040840009000BFB2
:1058100000BF082001900220029000200390032086
:1058200004900020059001A90B48FFF76FF81020A5
:1058300001900020059001A90748FFF767F8202094
:1058400001900020059001A90348FFF75FF806B01A
:1058500010BD00000010024000040048FFB583B0F6
:10586000044616461D460020029007210902E06802
:10587000884204D8E068884202D8012E00D900BFCF
:1058800000BF5C20005D012802D1022007B0F0BDFE
:1058900001215C20015500BFFFF73AF90746019648
:1058A0005D20005D012802D002200290D2E0049821
:1058B000002801D0002E02D101200290CAE003216D
:1058C0005D200155002020660498A063A687E68726
:1058D0000020206400214420015346200153002071
:1058E0002065E0640121C903A068884205D12068D1
:1058F000006849100843216808602068006840215A
:105900000840402804D020680068084321680860E7
:1059100007210902E068884232D96068002802D075
:105920000198012809D1A06B00882168C860A06B8C
:10593000801CA063E08F401EE0871DE02068806827
:105940000221084002280AD1A06B00882168C860A3
:10595000A06B801CA063E08F401EE0870CE0FFF787
:10596000D7F8C01BA84202D3681C002801D1002D23
:1059700002D1032002906DE0E08F0028DED14DE0DF
:105980006068002802D00198012817D1E08F012813
:105990000AD9A06B00882168C860A06B801CA06336
:1059A000E08F801EE08709E0A06B00782168087313
:1059B000A06B401CA063E08F401EE0872BE02068B6
:1059C000806802210840022818D1E08F01280AD9F6
:1059D000A06B00882168C860A06B801CA063E08F6A
:1059E000801EE08717E0A06B007821680873A06B29
:1059F000401CA063E08F401EE0870CE0FFF788F8B2
:105A0000C01BA84202D3681C002801D1002D02D17E
:105A1000032002901EE0E08F0028D0D13A462946AC
:105A2000204601F054F8002801D020202066A0680C
:105A3000002809D100BF00902068C068009020684D
:105A40008068009000BF00BF206E002801D00120B8
:105A5000029000BF01215D20015500BF00215C20A4
:105A6000015500BF029811E7FFB587B004461D46F7
:105A7000109E012002900020019007210902E06899
:105A8000884204D8E068884202D8012D00D900BFBE
:105A900000BF5C20005D012802D102200BB0F0BDE8
:105AA00001215C20015500BFFFF732F807465D2059
:105AB000005D0390606804900695059503980128A1
:105AC0000DD0FF2105310498884205D1A068002837
:105AD00002D10398042802D00220019036E10898F0
:105AE000002804D00998002801D0002D02D10120FF
:105AF00001902BE15D20005D042802D005215D208E
:105B00000155002020660998206446200553442052
:105B100005530898A063E587A5870020E064206509
:105B200007210902E068884202D80598012807D9B0
:105B3000206840680121090388432168486006E025
:105B400020684068012109030843216848602068F3
:105B5000006840210840402804D0206800680843BD
:105B60002168086007210902E068884254D960680A
:105B7000002802D00698012809D1A06B008821686E
:105B8000C860A06B801CA063E08F401EE0873BE0F4
:105B90002068806802210840022811D1E08F002887
:105BA0000ED0029801280BD1A06B00882168C86034
:105BB000A06B801CA063E08F401EE0870020029055
:105BC00020688068C007C00F002812D04620005B04
:105BD00000280ED02068C068216C0880206C801CD2
:105BE00020644620005B401E81B246200153012004
:105BF0000290FEF78DFFC01BB04205D3701C002839
:105C000002D003200190A1E0E08F0028C0D14620FF
:105C1000005B0028BCD18DE06068002802D00698A7
:105C2000012817D1E08F01280AD9A06B00882168CC
:105C3000C860A06B801CA063E08F801EE08709E035
:105C4000A06B007821680873A06B401CA063E08FF4
:105C5000401EE08767E02068806802210840022833
:105C60001FD1E08F00281CD00298012819D1E08FA5
:105C700001280AD9A06B00882168C860A06B801C2D
:105C8000A063E08F801EE08709E0A06B00782168A8
:105C90000873A06B401CA063E08F401EE0870020CB
:105CA000029020688068C007C00F00282ED04620D0
:105CB000005B00282AD04620005B012817D9206805
:105CC000C068216C0880206C801C20644620005B2A
:105CD000801E81B246200153005B012814D8206841
:105CE0004068012109030843216848600CE02068EE
:105CF000007B216C0870206C401C20644620005BF7
:105D0000401E81B24620015301200290FEF700FFA1
:105D1000C01BB04202D3701C002801D1002E02D15A
:105D20000320019012E0E08F002894D14620005B10
:105D3000002890D13A463146204600F0C8FE00289F
:105D400003D0012001902020206600BF01215D20AA
:105D5000015500BF00215C20015500BF01989DE660
:105D600070B504462546681E0949884201D90120BC
:105D70000CE0681E074948610321081F01F0EAFC96
:105D800000200449886107200861002070BD0000E0
:105D9000FFFFFF0000E000E030B502460B4600BF09
:105DA0003C20805C012801D1022030BD01253C202F
:105DB000855400BF02253D20855410684468106852
:105DC000816870252046A84304461868044310687B
:105DD0004460114D1068A8420CD00125AD07106831
:105DE000A84207D00D4D1068A84203D00C4D106892
:105DF000A84207D180250846A843014658680143B8
:105E00001068816001253D20855400BF00253C209D
:105E1000855400BF0020C8E7002C0140000400406A
:105E20000040014010B50446002C01D1012010BDF6
:105E30003D20005D002805D100213C200155204671
:105E400000F00CF802213D200155211D206800F0D2
:105E50007FFF01213D2001550020E8E708B5094AF0
:105E6000016891420DD100BF0749C969022211435F
:105E7000054AD1611146C96902221140009100BF53
:105E800000BF08BD0004004000100240F8B5044601
:105E90000D4600BF3C20005D012801D10220F8BD65
:105EA00001213C20015500BF02213D200155206801
:105EB00086687721304688430646FF21090230462E
:105EC00088430646206886602868502834D00CDC59
:105ED000202851D004DC00284CD0102852D14AE0B0
:105EE00030284AD040284DD13AE060282ED0702882
:105EF00007D001210903401A02D0401A42D10DE017
:105F000041E0EB686A68A968206800F08AFF2068B1
:105F10008668772006432068866034E0EB686A680C
:105F2000A968206800F07DFF20688068012189034E
:105F300008432168886026E0EA686968206801F003
:105F4000E1F85021206800F07AFF1CE0EA686968F7
:105F5000206801F0F0F86021206800F070FF12E086
:105F6000EA686968206801F0CDF84021206800F0F7
:105F700066FF08E000BF00BF00BF2968206800F08E
:105F80005EFF00E000BF00BF01213D20015500BFC2
:105F900000213C20015500BF002080E710B586B0ED
:105FA0000446142101A8FDF715F91149206888421B
:105FB0001CD100BF0F484069491308430D4948618F
:105FC00008464069012149040840009000BF00BF15
:105FD0008020019002200290002003900490012074
:105FE000059001A90920C006FEF790FC06B010BD7F
:105FF000000400400010024070B504460D461646ED
:1060000000BF3C20005D012801D1022070BD0121AC
:106010003C20015500BF02213D200155002E06D035
:10602000042E1BD0082E33D00C2E62D147E0294617
:10603000206800F011FF206880690821084321686A
:10604000886120688069042188432168886120680C
:10605000806929690843216888614BE029462068E6
:1060600000F052FF206880690121C90208432168BD
:1060700088612068806901218902884321688861DC
:10608000206880692969090208432168886131E034
:106090002946206800F098FF2068C069082108435D
:1060A0002168C8612068C069042188432168C861EB
:1060B0002068C069296908432168C8611AE0294637
:1060C000206800F0DFFF2068C0690121C902084391
:1060D0002168C8612068C06901218902884321685C
:1060E000C8612068C0692969090208432168C8613C
:1060F00000E000BF00BF01213D20015500BF00218D
:106100003C20015500BF002080E710B50446002C5C
:1061100001D1012010BD3D20005D002805D10021E6
:106120003C200155204600F00CF802213D2001558D
:10613000211D206800F00CFE01213D2001550020AA
:10614000E8E7704770B504460E46012231462068E4
:1061500000F056FE1449206888420BD0134920688D
:10616000884207D012492068884203D0114920682C
:10617000884201D1012000E00020002806D02068DC
:10618000406C0121C9030843216848642068806885
:1061900045076D0F062D05D02068006801210843D2
:1061A00021680860002070BD002C014000400140C3
:1061B000004401400048014070477047FEB5044666
:1061C0002068C56920680668206887687648284086
:1061D0000190019800280ED12020284000280AD0E4
:1061E00020203040002806D0206E002802D0204613
:1061F000216E8847FEBD019800287DD0F807C00FAA
:10620000002804D1FF20213030400028F5D0E807D5
:10621000C00F00280BD0FF2001303040002806D0EE
:10622000012021680862E06F01210843E067022035
:10623000284000280AD0F807C00F002806D0022006
:1062400021680862E06F04210843E06704202840C9
:1062500000280AD0F807C00F002806D004202168C3
:106260000862E06F02210843E06708202840002808
:106270000ED020203040002803D1F807C00F00289E
:1062800006D0082021680862E06F08210843E06713
:106290000120C002284000280CD001208006304098
:1062A000002807D00120C00221680862E06F202189
:1062B0000843E067E06F002846D0202028400028EF
:1062C00009D020203040002805D0206E002802D0C0
:1062D0002046216E8847E06F00902068806840214A
:1062E0000840402804D0282100980840002826D0E3
:1062F000204601F03FF800E027E020688068402158
:106300000840402817D12068806888432168886049
:10631000E06E00280BD02548E16E4863E06EFEF782
:10632000BFF9002810D0E06E416B88470CE0204692
:10633000FFF743FF08E02046FFF73FFF04E0204659
:10634000FFF73BFF0020E06754E7012000052840ED
:1063500000280CD0012080053840002807D00120FB
:106360000005216808622046FFF726FF42E78020EB
:10637000284000280AD080203040002806D0606ED7
:10638000002802D02046616E884733E7402028402D
:10639000002807D040203040002803D0204600F0DD
:1063A000FBFF27E700BF25E70F080000C9720008C0
:1063B00010B50446002C01D1012010BDA0690028B1
:1063C00000D000E000BF606F002805D100217020E0
:1063D0000155204600F02CF82420606720680068F2
:1063E0004008400021680860204600F0EFFF0128C7
:1063F00000D1E2E7606A002802D0204600F0B4FE37
:10640000206840680921C9028843216848602068E3
:1064100080682A21884321688860206800680121FB
:10642000084321680860204600F016FFC5E7000019
:1064300010B586B00446142101A8FCF7CBFE3B49F9
:10644000206888426FD100BF3948806901218903E3
:10645000084337498861084680690121890308405B
:10646000009000BF00BF00BF31484069C900084329
:106470002F494861084640690121490408400090BD
:1064800000BF00BF032040020190022002900020C4
:106490000390032004900120059001A90920C00663
:1064A000FEF734FA234824490860002048600021A0
:1064B000214881608021C16000210161416120216A
:1064C0008161C901C161FEF78FF9002801D0FEF793
:1064D000E6F800BF1848E066446200BF154814386B
:1064E000164908601020486000211448816080210E
:1064F000C160002101614161816101210903C16124
:10650000FEF772F9002801D0FEF7C9F800BF0B486A
:10651000A066446200BF002211461B20FEF772FBFA
:106520001B20FEF761FB06B010BD000000380140E3
:106530000010024030000240EC0200203003002036
:1065400070B504460E461546606F20285BD1002EBC
:1065500001D0002D01D1012070BD01210903A068E7
:10656000884208D12069002805D1F007C00F002813
:1065700001D00120F0E700BF7020005D012801D1AB
:106580000220E9E701217020015500BFE664502098
:106590000553522005530020E06721206067A06E5C
:1065A000002820D01948A16E88621948A16EC862DF
:1065B0001848A16E08630020A16E486323681A463C
:1065C00028322B46E16CA06EFEF73CF900280AD079
:1065D0001020E06700BF00217020015500BF20207F
:1065E00060670120B8E740202168086200BF0021F1
:1065F0007020015500BF2068806880210843216811
:1066000088600020A8E70220A6E700003373000896
:1066100067730008E17200087047704700BFFEE72B
:1066200008B500BF0A48406901210843084948618C
:1066300008464069C007C00F009000BF00BF00229D
:1066400011460A20FEF7DEFA0A20FEF7CDFA08BD51
:106650000010024000B587B0142102A8FCF7BAFD73
:1066600000BF124840690121490408430F494861AD
:1066700008464069012149040840019000BF00BF5D
:10668000002249120920C006FEF73CFAFF20013023
:1066900002900120039000200490059002A9092097
:1066A000C006FEF733F907B000BD0000001002403D
:1066B00000B58DB0002009900A900B900C900790C7
:1066C00008901C216846FCF785FD23482349086093
:1066D000002048600021214881607D21C900C160FF
:1066E000002101618161FFF79DFB002801D0FDF7CA
:1066F000D6FF01200003099009A91848FFF7C6FB3F
:10670000002801D0FDF7CBFF1448FFF7FEFC00285E
:1067100001D0FDF7C4FF00200790089007A90F489B
:10672000FFF73AFB002801D0FDF7B9FF6020009089
:10673000FF20F53001900020029004900422694669
:106740000648FFF759FC002801D0FDF7A8FF0348D1
:10675000FFF724FC0DB000BD000400402C02002017
:1067600010B50E480E4908604B20C001486000215A
:106770000B488160C16001610C2141610021816190
:10678000C16101620020064948620846FFF710FE19
:10679000002801D0FDF783FF10BD00000038014044
:1067A0006C020020704708B500220121C9030920AE
:1067B000C006FEF7A7F9D421684601700021417098
:1067C00081700121C1700421FDF70EFF0122D10368
:1067D0000920C006FEF796F908BD70B50025002413
:1067E00000F040F8FDF7D6FE00F0FFF80120FEF7BC
:1067F00077F800BF00F00EF90546002D00D108E043
:1068000000F0F3F8601CC4B20120FEF769F80A2C0E
:10681000F0DB00BF0120FEF763F800F067F8FFF738
:10682000C2FF0120FEF75CF800F04AF80120FEF7F5
:1068300057F800F001F870BD08B500220121C90326
:106840000920C006FEF75EF98C2000900121684601
:10685000FDF7CAFE0122D1030920C006FEF752F956
:1068600008BD000000B587B0142102A8FCF7B2FCF7
:1068700000BF124840690121490408430F4948619B
:1068800008464069012149040840019000BF00BF4B
:10689000012289100920C006FEF734F90120C00347
:1068A00002900120039004900020059002A9092085
:1068B000C006FEF72BF807B000BD00000010024034
:1068C00008B500220121C9030920C006FEF71AF904
:1068D0008A20009001216846FDF786FE0122D1033F
:1068E0000920C006FEF70EF908BD000038B50024E7
:1068F00029E0C020204369460870A00013490858C9
:106900000002010E68464170A0001049085A0004B8
:10691000010E68468170A0000C49095C6846C17090
:1069200000220121C9030920C006FEF7EBF804216B
:106930006846FDF759FE0122D1030920C006FEF783
:10694000E1F8601CC4B2152CD3D338BDC07E00085A
:106950001CB5044600220121C9030920C006FEF728
:10696000D1F84020204369460871002168464171F2
:106970008171C1710422694601A8FDF749FE012217
:10698000D1030920C006FEF7BDF86846407801042F
:1069900068468078000208436946C97808431CBDF0
:1069A0001CB500220121C9030920C006FEF7AAF880
:1069B000482168460171002141718171C171042231
:1069C000694601A8FDF724FE0122D1030920C00673
:1069D000FEF798F86846407801046846807800021F
:1069E00008436946C97808431CBD08B50022012147
:1069F000C9030920C006FEF785F888200090012110
:106A00006846FDF7F1FD0122D1030920C006FEF71B
:106A100079F808BD7CB500262B4D00244EE000BF60
:106A20000920000320430112684601710920000378
:106A30002043C1B268464171297881710022012149
:106A4000C9030920C006FEF75DF8032101A8FDF780
:106A5000CBFD0122D1030920C006FEF753F8012027
:106A60000003204301126846017101200003204306
:106A7000C1B2684641710021817100220121C90320
:106A80000920C006FEF73EF80322694601A8FDF77B
:106A9000BFFD0122D1030920C006FEF733F8701CA8
:106AA000C6B20A2E01DD01207CBD287869468978AE
:106AB0008842B5D100266D1C601C84B23B200001C9
:106AC0008442ACD30020EFE7107B00087047F8B594
:106AD00004460E461546334600220321C9022046CD
:106AE000009500F029F8002805D0206E20210843E9
:106AF00020660320F8BD3346002280212046009501
:106B000000F071F8002805D0206E2021084320668F
:106B10000320EFE733460022032149022046009577
:106B200000F00AF8002805D0206E202108432066D6
:106B30000320DFE70020DDE7F8B504460E461746E0
:106B40001D4649E003204002864203D1002F01D1B7
:106B50002068007B681C00283ED0FDF7D9FF06990D
:106B6000401AA84201D2002D36D120684068E021A9
:106B7000884321684860FF210531606888420ED152
:106B80000121C903A068884203D04911A068884246
:106B900005D12068006840218843216808600121F0
:106BA0004903A06A88420DD100BF2068006888436D
:106BB00021680860206800680121490308432168B2
:106BC000086000BF01215D20015500BF00215C204D
:106BD000015500BF0320F8BD206880683040B842EE
:106BE000B0D10020F7E7F8B504460E4617461D461B
:106BF00041E0681C00283ED0FDF78AFF0699401A44
:106C0000A84201D2002D36D120684068E021884397
:106C100021684860FF210531606888420ED101215A
:106C2000C903A068884203D04911A068884205D1F1
:106C300020680068402188432168086001214903D9
:106C4000A06A88420DD100BF20680068884321688F
:106C50000860206800680121490308432168086032
:106C600000BF01215D20015500BF00215C200155BE
:106C700000BF0320F8BD206880683040B04201D1D9
:106C8000012000E00020B842B3D10020F2E77047B5
:106C9000FEB505460E46174601200090FFF780FE20
:106CA0000190012109050198084000280DD0002419
:106CB00007E02919C8B2FFF74BFEA1007050601C15
:106CC000C4B2BC42F5DB00200090072D01DCFFF7C9
:106CD000B3FD0098FEBD10B5FDF720FF10BD00B557
:106CE00099B034210CA8FCF775FA0020089009909F
:106CF0000A900B901C2101A8FCF76CFA20200C9044
:106D000001201490002015900CA8FEF7B5F900287A
:106D100001D0FDF7C4FC0720089003200990002053
:106D20000A900B90012108A8FEF748F8002801D02E
:106D3000FDF7B5FC012001900020039001A8FDF7AC
:106D40006BFF002801D0FDF7AAFC19B000BD704709
:106D500010B50268244B984206D001239B07984245
:106D600002D0224B984205D170241346A3431A4601
:106D70004B681A431C4B984212D001239B07984240
:106D80000ED01A4B98420BD0194B984208D0194B91
:106D9000984205D0184B984202D0184B984206D121
:106DA000032424021346A3431A46CB681A438024C3
:106DB0001346A3434C6923431A4602608B68C3629F
:106DC0000B688362084B984208D00A4B984205D062
:106DD000094B984202D0094B984201D10B690363D9
:106DE0000123436110BD0000002C0140000400405D
:106DF00000200040004001400044014000480140A4
:106E000070B5CD06ED0E0124AC402346046A9C43C8
:106E10000462046ACE06F60E1546B5402C430462A1
:106E200070BD70B50C468168FF2636020D46B5432D
:106E300029461D02154325432943816070BD10B5C5
:106E40000A46816870240B46A3431946072313435F
:106E50001943816010BD000070B5056A6D086D00B2
:106E60000562026A4368846970262546B5432C464C
:106E7000A408A4000D682C4302261546B5432A46F3
:106E80008D682A431C4DA84200D10BE01B4DA8423F
:106E900000D107E01A4DA84200D103E0194DA842E5
:106EA0000AD100BF08261546B5432A46CD682A43B5
:106EB00004261546B5432A460F4DA84208D00F4D6B
:106EC000A84205D00E4DA84202D00E4DA8420CD1CA
:106ED000FF2601361D46B5432B4676001D46B543B9
:106EE0002B464D692B438D692B43436084614D686C
:106EF0004563026270BD0000002C0140004001406B
:106F0000004401400048014070B5056A1026B543B1
:106F10000562026A43688469072636032546B5433D
:106F20002C46032636022546B5432C460D682D0215
:106F30002C4320261546B5432A468D682D012A4349
:106F40001D4DA84200D10BE01C4DA84200D100BF4E
:106F50001B4DA84200D100BF1A4DA8420BD10AE038
:106F600080261546B5432A46CD682D012A43402682
:106F70001546B5432A46104DA84208D00F4DA842E9
:106F800005D00F4DA84202D00E4DA8420ED10126C9
:106F9000B6021D46B5432B4676001D46B5432B462B
:106FA0004D69AD002B438D69AD002B434360846177
:106FB0004D688563026270BD002C014000400140B5
:106FC000004401400048014070B5056AFF260136C3
:106FD000B5430562026A4368C46970262546B54315
:106FE0002C46A408A4000D682C4301267602154601
:106FF000B5432A468D682D022A431E4DA84200D172
:107000000BE01D4DA84200D100BF1C4DA84200D18D
:1070100000BF1B4DA8420CD10BE00126F60215461D
:10702000B5432A46CD682D022A4376101546B5434E
:107030002A46104DA84208D00F4DA84205D00F4D4A
:10704000A84202D00E4DA8420ED1012636031D469D
:10705000B5432B4676001D46B5432B464D692D01A1
:107060002B438D692D012B434360C4614D68C5637B
:10707000026270BD002C014000400140004401400C
:107080000048014070B5056A01263603B543056224
:10709000036A4468C269072636031546B5432A4683
:1070A000032636021546B5432A460D682D022A43AB
:1070B000012676031D46B5432B468D682D032B43D1
:1070C0000C4DA84208D00C4DA84205D00B4DA8424B
:1070D00002D00B4DA84207D10126B6032546B54381
:1070E0002C464D69AD012C434460C2614D68056476
:1070F000036270BD002C014000400140004401408B
:107100000048014070B50B461446026A056A6D08D6
:107110006D0005628169F0260D46B54329462501BB
:1071200029430A261546B5432A4615461D432A46D5
:107130008161026270BD70B50B461446056A102667
:10714000B54305628169026A0F2636030D46B543D1
:10715000294625032943A0261546B5432A461D0185
:107160002A438161026270BD818CC907C90F002961
:1071700008D001684968012252049143826A114390
:10718000026851600222416A1140022907D1016858
:107190004968D2039143C26A1143026851600422D4
:1071A000416A1140042907D10168496812049143DA
:1071B000026B1143026851600822416A114008299C
:1071C00007D10168496812039143426B1143026879
:1071D00051601022416A1140102907D10168896865
:1071E00012029143826B1143026891602022416A2E
:1071F0001140202907D10168896812029143C26BAE
:107200001143026891604022416A1140402915D122
:107210000168496892039143026C1143026851600E
:1072200001221205016C914208D1016849680322CC
:1072300052059143426C1143026851608022416AB9
:107240001140802907D10168496812039143826C7B
:10725000114302685160704738B504460020E0676A
:10726000FDF756FC054620680068082108400828FC
:107270000BD114482B46002289040090204600F0D0
:10728000BFF9002801D0032038BD20680068042120
:10729000084004280BD10B482B460022090500901A
:1072A000204600F0ADF9002801D00320ECE72020B3
:1072B0006067A06700BF00217020015500BF00205B
:1072C000E2E70000FFFFFF0170B505466C6A002190
:1072D0005A200153522001532046FEF76EFF70BD25
:1072E000F8B505466C6A666FA76F206880688021D4
:1072F0000840802807D1212E05D1002152200153BA
:10730000204600F059F82068806840210840402855
:1073100007D1222F05D100215A200153204600F029
:1073200029F8E06F10210843E0672046FEF745FF8B
:10733000F8BD70B505466C6AA86920280FD00021F9
:10734000522001532068806880218843216888602A
:1073500020680068402108432168086002E0204658
:10736000FFF75AF970BD70B50446656A2846FFF705
:1073700054F970BD01680968FF2221329143026807
:1073800011600168896849084900026891602021FC
:10739000816700210166704710B5044620680068C7
:1073A00040218843216808602020606700206066D3
:1073B0002046FFF731F910BD01680968C0229143EA
:1073C000026811602021416770470000FEB5044645
:1073D0000027002000902169A068084361690843E4
:1073E000E16908430290206800687C4908400299DE
:1073F0000843216808602068406803210903884326
:10740000E168084321684860A0690290206A0299F7
:1074100008430290206880680B2109028843029982
:1074200008432168886000BF6D492068884217D1F1
:107430006C48006B8007800F002806D0012808D018
:10744000022808D0032808D101E0002507E0022522
:1074500005E0042503E0082501E0102500BF2BE02E
:107460006149206888421AD15E48006B03210904F3
:107470000840002808D001210904401A08D0401A09
:1074800008D0401A08D101E0002507E0022505E0F8
:10749000042503E0082501E0102500BF0CE0534956
:1074A0002068884201D1002506E0514920688842C1
:1074B00001D1002500E0102500BF0121C903E069CA
:1074C00088424AD1002D06D0022D10D0042D16D0AE
:1074D000082D29D11FE0FDF739FD064672006368CB
:1074E0005B08D0186168FBF705FE87B21FE0616892
:1074F0004A08404BD018FBF7FDFD87B217E0FDF7B7
:1075000037FD0646720063685B08D0186168FBF7B8
:10751000F1FD87B20BE061684A0801231B04D01813
:10752000FBF7E8FD87B202E00120009000BF00BF3A
:10753000102F0FD3304887420CD82F480F383840CF
:1075400001903807400F0199084301900198216884
:10755000C8603EE0012000903BE0002D06D0022DE7
:107560000ED0042D14D0082D25D11BE0FDF7EEFC24
:10757000064661684A089019FBF7BCFD87B21DE01A
:1075800061684A081D4BD018FBF7B4FD87B215E0BF
:10759000FDF7EEFC064661684A089019FBF7AAFD64
:1075A00087B20BE061684A080123DB03D018FBF7C0
:1075B000A1FD87B202E00120009000BF00BF102FA4
:1075C00005D30D48874202D82068C76001E001203A
:1075D00000900020206660660098FEBDF369FFEF12
:1075E00000380140001002400044004000480040C4
:1075F000004C00400024F400FFFF000000127A005D
:10760000FFB581B004460D4617460A9E4AE0701C3D
:10761000002847D0FDF77CFA0499401AB04201D8FF
:10762000002E17D120680068FF21A131884321680E
:107630000860206880684008400021688860202039
:107640006067A06700BF00217020015500BF0320C4
:1076500005B0F0BD2068006804210840002821D052
:107660002068C06949020840C00A00281AD00846AC
:107670002168086220680068FF21A13188432168E1
:1076800008602068806840084000216888602020E9
:107690006067A067E06700BF00217020015500BF50
:1076A0000320D5E72068C0692840A84201D1012005
:1076B00000E00020B842AAD00020C9E710B5024877
:1076C000FEF77CFD10BD00006C0200200FB410B569
:1076D00004A9074B02AA039800F088F8044602A9FF
:1076E000002000F02BF9204610BC08BC04B018475D
:1076F0003D7900082021020C01D010211046020A19
:1077000001D010460839020901D01046091F82082D
:1077100001D01046891E420801D0881E7047081A01
:107720007047F8B582B28BB2040C0D0C104658436A
:10773000002126465E43370C3604801979411646EF
:107740006E43370C36048019794126466E438919F9
:10775000F8BD000010B5002819DB1A4A03231B02EC
:10776000D21883089B00D2588307DC0EFF23A34066
:107770009A438B071B0E8407E40EA3401A43114B58
:10778000032424021B198408A4001A5118E00E4A8D
:1077900003071B0F083B9B089B00D2588307DC0E96
:1077A000FF23A3409A438B071B0E8407E40EA340DC
:1077B0001A43054B0407240F083CA408A4001A51DF
:1077C00010BD000000E100E01CED00E002E008C890
:1077D000121F08C1002AFAD170477047002001E04B
:1077E00001C1121F002AFBD170470000FFB58DB008
:1077F0000446002506E025280AD0109A0F999047E4
:10780000641C6D1C20780028F5D1284611B0F0BD0D
:1078100000270121484A009700E00743641C2378B1
:107820000846203B98401042F7D120782E2817D1E7
:10783000042007436078641C2A280CD10E98641C2D
:1078400002C800910E900BE000990A225143303992
:107850004018641C00902078014630390929F3D97A
:1078600020780028D1D0642808D0692806D075284F
:107870001ED0109A0F9990476D1C5BE00A200E995C
:10788000019001C90E91002802DA40422D2102E048
:10789000390504D52B216A461172012103E0F9074D
:1078A00004D02021F7E70BAE0B910DE00021FAE7A1
:1078B0000A200E99019001C90E91F7E70199FBF793
:1078C00019FC3031761E31700028F7D103A8801BD7
:1078D00020300190780701D5009801E00120009048
:1078E0000199884201DD401A00E000200027009045
:1078F00006E002A8109AC05D0F9990476D1C7F1C8E
:107900000B988742F5DB04E0109A30200F999047DE
:107910006D1C0099481E00900029F5DC05E03078C8
:10792000109A761C0F9990476D1C0199481E019082
:107930000029F4DC641C65E7092801000A68531C6F
:107940000B6010707047000098B0C0225B495C4823
:10795000FBF727FC00BF5B4800688008800059499E
:10796000086008460068032108435649086000BFC4
:10797000FDF7E0F8FFF7B3F9FEF76CFEFEF750FEF7
:10798000FEF796FEFEF7ECFEFEF727FF2C224E498F
:107990000DA8FBF706FC18224B492C3107A8FBF772
:1079A00000FC18224849443101A8FBF7FAFB01AA60
:1079B00007A90DA8FCF710FD012211020920C0063D
:1079C000FDF7A0F84B208001FBF72AFF002400BF41
:1079D00010E001223D491046FFF75AF93B493C4B64
:1079E0000A1D08683B49FBF73FFF7820FCF778FF4A
:1079F000601CC4B2162CECDB04213748FEF7A2FB56
:107A000034480068400834490968886300BF314839
:107A1000006831490968C8622E4801682E48C16073
:107A200000BF49E0012229491046FFF731F92749F3
:107A3000274B0A1D08682749FBF716FF694688830C
:107A4000C820FCF74DFFFCF7C1FC6946C8832349F9
:107A50000878C10F091849104900411A10D11D4872
:107A6000006840081C490968886300BF194800681D
:107A700019490968C862174801681748C16000BF02
:107A800016480078052812DD6846C08B00900F4824
:107A900043680F4812A102681B48FFF717FE5022E7
:107AA00019491A48FEF74CFD00200C4908700B4894
:107AB0000078401C09490870B4E700000030000855
:107AC0000000002000000140147F0008C0000020DA
:107AD000D0000020C80000202C020020CC00002094
:107AE000B8DFB6C8A3BA25642020202020C2CBB2BC
:107AF000A8BAF3B5E7C8DDD6B5A3BA25642020201F
:107B000020687A3D25640A00640100206C02002090
:107B100000000062630065BE012026425C48A003AD
:107B200021E42031A10321E42031840123630100F9
:107B300000000000200B4358C0FE43C0447A7E2062
:107B40000BC0C0C0C8FF43ED44C0C0C0F6FF43EC4B
:107B500044C0C0C0C8FF412394D043EE44D243EF99
:107B600044205A706071617868027AF343C7FE411D
:107B7000EB455A21DF46464646EC44C0C0C0C8FF2C
:107B80004355ED45EC51F4412388EA45F5412388FE
:107B9000E9451D414358EA2199E95046EB44A902C1
:107BA000EB5943CAFE415CA803C05AEB45EB41F2D6
:107BB00045F6412388EA45F7412388E9451F4143BB
:107BC00058EA2199E95046EB44A902EB5943CAFE11
:107BD000415CA803C05AEB45EB41F34502FFFFFFB0
:107BE00047474747474747477C7D45410247474707
:107BF00047474747F07C6D45416C7D45410247470B
:107C00004747474747F06C7D45410247474747474D
:107C10004747F07C6D454145410247474747474745
:107C200047F07C6D45410247474747474747024F6A
:107C30004F4F4F4F4F4F4F4F4F4F4F4F4F4F4F4F54
:107C40004F4F4F4F4F4F4F4F4F4F4F4F4F4F4F4F44
:107C50004F4F4F4F4F4F4F4F4F4F4F4F4F4F4F0281
:107C60004E4E4E4E4E4E4E4E4E4E4E4E4E4E4E4E34
:107C70004E4E4E4E4E4E4E4E4E4E4E4E4E4E4E4E24
:107C80004E4E4E4E4E4E4E4E4E4E4E4E4E4E4E4E14
:107C900002565656565656565656565656565656D8
:107CA0005656565656565656565656565656565674
:107CB0005656565656565656565656565656565664
:107CC00056025E5E5E5E5E5E5E5E5E5E5E5E5E5E38
:107CD0005E5E5E5E5E5E5E5E5E5E5E5E5E5E5E5EC4
:107CE0005E5E5E5E5E5E5E5E5E5E5E5E5E5E5E5EB4
:107CF0005E5E5E026AFD43404F4F4FEB457AF941AD
:107D00004358EB2199EA44C0C0C0F1FF43EC44C0A2
:107D1000C0C0C8FF41ED45C041C0C0C0F8FF43E945
:107D2000446A1D43AB01EA588E03EC531D501F44B7
:107D3000EC53ED53E943EC58ACE68E26C0C0C0F9D5
:107D4000FF43EC44C0C0C0C8FF43ED44C041C0C0C5
:107D5000C0FCFF43E9441D431F59E943ED53EC5375
:107D600058ACF27AC0C0C0C9FF43EC44E744E844D1
:107D7000C0C0C0C8FF43ED441F434E4E4E44C0C078
:107D8000C0CFFF43E9448E07C0C0C0CBFF43E944E6
:107D9000405D1D431F21CAE843EC441D45F843AB39
:107DA0000CC041ED53531F434E4E4E44E753C04168
:107DB000E853E75341EC45E9435CACD3C0C0C0CFC6
:107DC000FF43E944E841E9435CA80CC041E8435360
:107DD000EC441D445943ABEBC843464646447A8ABB
:107DE0001BC043405D5D9015C845C945F843AA0BCB
:107DF000CA45CB45CC45CD45CE45CF450002C04315
:107E00004E4EEA44E9448E06C0434EEA44E944F843
:107E100043AB13C0434EEA444E50E9448E08C0437E
:107E2000EA444E4E50E944C0C0C0C8FF434E4EE93C
:107E3000519101235AEA43E9519201235AEA43E955
:107E4000519301235AEA43E9519401235AEA43E941
:107E5000519501235AEA43E9519601235AEA43E92D
:107E6000519701235AEA43E95102E9434646EC445B
:107E70001D45027AFA414F4F4FE7455AFB43E775DC
:107E800021CA65D0455AFC43E721CAD1455AFD4372
:107E9000E721CAD245796902D7FE43E7455DAD01C6
:107EA0005D4541021F431D44C043EC51ED515DAAA5
:107EB000F202FFFFFFFFFFFFFFFFFFFFFFFFFFFFDC
:107EC000FF004200221020000B160F00EA210D00D7
:107ED0001102000000008000400C000000001F00A4
:107EE000100380008F20BF00470018000000000032
:107EF0000000000000000000000000000000000082
:107F00000000000000000000000000000000200051
:107F1000000000000459100099371300662715006F
:107F2000DB981600CF3E18001F9E1900BF241B00CF
:107F30005FAB1C00FF311E009FB81F003F3F2100B8
:107F40000000A7004F01B30117027B02DF024303C9
:107F5000A703FF0358040000161751158813521287
:107F60001C110E10000F2E0E5C0D500C410B00006A
:107F700000000000000001020304060708090000D9
:107F80000000010203040000A87F0008C0000020D8
:107F900040000000CC770008E87F000800010020C6
:107FA00030070000DC77000800000000000000003F
:107FB0002823000000000000000000000000000076
:107FC000040000000100000000127A000400C0124A
:107FD00016175115410B881352121C110E10000F69
:087FE0002E0E5C0D500C000098
:04000005080030C1FE
:00000001FF
