:020000040800F2
:10000000C8360020C9010008D10100088F930008FC
:10001000D5010008D7010008D90100080000000040
:10002000000000000000000000000000DB010008EC
:10003000DD0100080000000017930008C704000855
:10004000E3010008E3010008E3010008E301000800
:10005000E3010008E3010008E3010008E3010008F0
:10006000E3010008E3010008E3010008E3010008E0
:10007000E3010008E3010008E3010008E3010008D0
:10008000E3010008E3010008E3010008E3010008C0
:10009000E3010008E3010008E3010008E3010008B0
:1000A000E3010008E3010008E3010008E3010008A0
:1000B000E3010008E301000895530008E30100088C
:1000C000E3010008E3010008E3010008E301000880
:1000D000E301000877520008E3010008E30100088B
:1000E000E3010008E3010008E301000800F002F862
:1000F00000F05AF80AA090E8000C82448344AAF168
:100100000107DA4501D100F04FF8AFF2090EBAE865
:100110000F0013F0010F18BFFB1A43F0010318473B
:10012000449F0000649F00000A444FF0000C10F848
:10013000013B13F0070408BF10F8014B1D1108BF65
:1001400010F8015B641E05D010F8016B641E01F805
:10015000016BF9D113F0080F1EBF10F8014BAD1C55
:100160000C1B09D16D1E58BF01F801CBFAD505E073
:1001700014F8016B01F8016B6D1EF9D59142D6D3CD
:10018000704700000023002400250026103A28BFF5
:1001900078C1FBD8520728BF30C148BF0B607047F9
:1001A0001FB51FBD10B510BD09F042F91146FFF78C
:1001B000F7FF07F04BFD09F060F903B4FFF7F2FF1A
:1001C00003BC09F067F90000094880470948004767
:1001D000FEE7FEE7FEE7FEE7FEE7FEE7FEE7FEE7F7
:1001E000FEE7FEE704480549054A064B7047000054
:1001F000592D0008ED000008C8300020C836002046
:10020000C8320020C832002010B500F0DFFB00200B
:1002100010BD30B585B0684602F01FFF4FF47A720A
:100220000198B0FBF2F1B1F1807F00D31DE021F025
:100230007F40401E4FF0E022506150170F220028EF
:1002400007DA13071D0E0A4B00F00F04241F1D557B
:1002500003E013071C0E074B1C5400BF00204FF097
:10026000E02290610720106100BF05B030BD0000A2
:1002700018ED00E000E400E000B587B0012108209F
:1002800002F058FF0121880302F061FF4FF4604043
:10029000ADF8040003208DF8060018208DF8070043
:1002A00001A9744804F0A2FA4FF48050ADF804009C
:1002B00003208DF8060010208DF8070001A96D4875
:1002C00004F094FA4FF480516A4804F03CFB00209B
:1002D000ADF808004FF48270ADF80A000020ADF8C8
:1002E0000C00ADF80E000120ADF810004002ADF892
:1002F00012003820ADF814000020ADF816000720D9
:10030000ADF8180002A95C4804F0B0F801215A4881
:1003100004F051F907B000BD08B50121082002F032
:1003200009FF4FF40060ADF8000010208DF80300C5
:1003300003208DF8020069464E4804F057FA4FF446
:1003400000614C4804F001FB4FF48060ADF8000000
:1003500048208DF8030003208DF8020069464548C7
:1003600004F044FAFFF788FF08BD70B50446002585
:1003700000BF0221404804F0A2F90028F9D021462C
:100380003D4804F049F900BF01213B4804F097F9CA
:100390000028F9D0384804F041F9C5B2284670BDAC
:1003A00070B504460D464FF48051324804F0CDFA42
:1003B00000BF4FF480612F4804F0ABFA0028F8D159
:1003C00004F00F0141F05000FFF7CFFF0020FFF7CE
:1003D000CCFF2846FFF7C9FF4FF48051254804F0B1
:1003E000B2FA70BD10B504210020FFF7D9FF00213B
:1003F0000220FFF7D5FF23210320FFF7D1FF0021C3
:100400000420FFF7CDFF10BD10B500244FF480513C
:10041000184804F09AFA00BF4FF48061154804F0C0
:1004200078FA0028F8D1FC20FFF79FFF0020FFF7A3
:100430009CFF0120FFF799FFFF20FFF796FF44EA9A
:100440000044FF20FFF791FF44EA0024FF20FFF75C
:100450008CFF04434FF48051064804F074FA2046A0
:1004600010BD10B5044621460120FFF799FFFFF7A4
:10047000CBFF10BD000C0140003800400146481E73
:10048000B0F1807F01D301207047481E4FF0E02279
:100490005061FF20104A107000204FF0E022906160
:1004A000072010610020EFE710B502F07CFC0B483C
:1004B00000684FF47A71B0FBF1F42046FFF7DEFFDD
:1004C00007F07EFB10BD10B507F03EFC07F03DFBCA
:1004D00007F047FC10BD000023ED00E06C00002099
:1004E00008B501210C2002F025FE8220ADF80000A5
:1004F00048208DF8030003208DF802006946FE486D
:1005000004F074F940F6A800ADF800006946FB4815
:1005100004F06CF95420ADF8000010208DF80300B1
:1005200003208DF802006946F44804F05FF92120A9
:10053000ADF800006946F04804F058F92121EE4872
:1005400004F003FA5421ED4804F0FFF908BD38B572
:1005500004460D46002000904FF40061E74804F087
:10056000D8F98DF800008021E34804F0D2F98DF825
:1005700001009DF8000038B99DF80100012803D161
:100580004FF4165020600DE09DF80000012806D1C0
:100590009DF8010018B94FF4E130206002E04FF4FB
:1005A000165020600221D44804F0B3F98DF80300FE
:1005B0008021D24804F0ADF98DF802002021CF4807
:1005C00004F0A7F98DF801000821CC4804F0A1F946
:1005D0008DF800009DF800004006000E8DF8000028
:1005E0009DF800009DF8011008438DF800009DF86B
:1005F00000004006000E8DF800009DF800009DF8F8
:10060000021008438DF800009DF800004006000E1F
:100610008DF800009DF800009DF8031008438DF848
:1006200000009DF800006430287038BD90B00024B0
:100630000020079000250690002606A907A8FFF7CE
:1006400086FF079D9DF81860012000220823CDE950
:10065000032002930590012107981346CDE900106D
:1006600011469DF8180004F08BFF8DE006A907A83D
:10067000FFF76DFF0798A84203D19DF81800B0421C
:1006800019D0079D9DF81860FFF7C3FD4FF47A70ED
:1006900004F020FF012000220823CDE9032002936B
:1006A0000590012107981346CDE9001011469DF8E9
:1006B000180004F065FF92490868924901F057F864
:1006C00008908F4948688F49091D01F084F9099005
:1006D0008B4988688B49083101F0D5FA0A9088491E
:1006E000C86888490C3101F01DFC0B9084490869E9
:1006F0008449103101F04AFD0C90814948698149D3
:10070000143101F092FE0D907D4988697D491831C0
:1007100001F0BFFF0E907A49C8697A491C3102F096
:100720000AF90F9000242AE008A850F82400000CD1
:1007300004EB8401642202EB4101734A22F81100A8
:1007400008A830F8240004EB8401652202EB410183
:100750006D4A22F811004FF6FF7004EB8401662207
:1007600002EB4101684A22F8110004EB8401672280
:1007700002EB4101644A22F81100601CC4B2082C4B
:10078000D2DB3C2008F089FA70E7002464E05F497E
:1007900001EB840000F04FFA5D4941F824005B4909
:1007A000303101EB840000F046FA594A04F10B01A4
:1007B00042F821005549603101EB840000F03BFA1A
:1007C000534A04F1160142F821005049903101EBDF
:1007D000840000F030FA4E4A04F1210142F8210071
:1007E0004A49C03101EB840000F025FA484A04F17F
:1007F0002C0142F821004549F03101EB840000F062
:100800001AFA434A04F1370142F82100414901EB49
:10081000840000F010FA3E4A04F1420142F821003F
:100820003C49303101EB840000F005FA384A04F10C
:100830004D0142F82100002011460860C862886519
:10084000C1F88400C1F8B000C1F8DC00C1F80801AB
:10085000C1F83401601CC4B20A2C98DD2C4800F0A9
:10086000B7FA04E004F00CFC052008F016FAF9E7EA
:100870000024A14600BF09E0274901EB440000F035
:10088000F7F9264921F81400601CC4B2082CF3DBE8
:100890002148103000F0ECF9204908820846008A0F
:1008A00045F2AA51884203D01B48103000F0E3F90A
:1008B0008BE0002453E0082141EA0411C8B2FFF79D
:1008C000D0FD174908600846006800F4000080B1B8
:1008D00008460068C043086008460068C0F3160078
:1008E000086008460068401C0860084600684042EE
:1008F00008600B48006815E0000C0140000801404A
:1009000034010020680100208A1B002000F8010843
:100910008801002020F9010800F00108540100209E
:100920000400002008F043FF074600224E4B08F069
:1009300069FF054608F00EFF4C49086004F0070007
:1009400018B104F00700401E00E0072000F0FF0986
:1009500046480068464941F82900601CC4B2082C8A
:10096000A9DB00242CE0434830F81400B0F5FA4F1E
:100970000FDD3F4850F824103E4830F81400A0F531
:10098000FA4000EB800001EB4000394941F82400B7
:1009900014E0384830F81400B0F5FA4F0EDA344855
:1009A00050F82400334931F81410C1F5FA4101EB35
:1009B0008101A0EB41002E4941F82400601CC4B223
:1009C000082CD0DB642008F068F972E71FB5FFF748
:1009D00020FC4FF47A7004F07DFDFFF781FDFFF7F6
:1009E0009BFC4FF40061244803F0ADFFFFF7FAFCD5
:1009F000142003214FF48062204BCDE90032CDE971
:100A0000021000231E4A1FA1204808F057F81420A6
:100A100004210A021E4BCDE90032CDE90210002369
:100A20001C4A1DA11E4808F049F8142005214FF466
:100A300080621C4BCDE90032CDE9021000231A4A36
:100A40001AA11C4808F03AF81A4808F072F8322047
:100A500008F023F9124808F06CF80C4808F069F81F
:100A6000012004B010BD0000D012E33F00000020C0
:100A70003401002054010020000C014060030020DC
:100A8000710800087461736B31000000E8020020F7
:100A9000D80700208B0700087461736B32000000D8
:100AA00060070020500C00202D0600087461736B55
:100AB00033000000D80B002001460878704770B55D
:100AC00006460C461546002306E03046FFF7F4FFC5
:100AD000E054761C581C83B2AB42F6DB70BD2DE9A6
:100AE000F04705460E46B84FE80A4FEAC0284FF4D3
:100AF000006239464046FFF7E2FFC5F30A003E5464
:100B000003F0E1FF352004F079FAC5F30A00385C00
:100B1000FF2802D0284604F01BF800240CE0A14670
:100B200004EBD9725210A84B33F8121008EB0400F2
:100B300004F011F9A01C84B2B4F5006FEFD3352096
:100B400004F05CFA03F0CBFF2878B04202D000201A
:100B5000BDE8F0870120FBE70146088870472DE9D2
:100B6000FC5F05460E46174697480190002000900E
:100B70008146E80A4FEAC02AC5F30A00C0F50068BA
:100B8000474506D905EB08000090A7EB08001FFABF
:100B900080F94FF4006250460199FFF790FF00245E
:100BA00007E0315D2819C0F30A0201988154601CE6
:100BB00084B2A7EB0900A042F3DC03F084FF3520E8
:100BC00004F01CFA284603F0C3FF00240CE0A346FF
:100BD00004EBDB7252107C4B33F812100AEB04006A
:100BE00004F0B9F8A01C84B2B4F5006FEFD32878F4
:100BF0003178884202D00020BDE8FC9FB9F1000F97
:100C000008D006EB08014A460098FFF7A8FF00202D
:100C1000009081460120EFE7F8B505460C46261204
:100C2000E7B28DF800708DF801600222694628460F
:100C3000FFF795FFF8BD0146086870472DE9F843B6
:100C400005460C46260EC4F30747C4F3072804F0F4
:100C5000FF098DF800908DF801808DF802708DF8F5
:100C60000360042269462846FFF779FFBDE8F88350
:100C70000146088870477FB504460D460026534854
:100C8000844217D0801C844214D0801C844211D02E
:100C9000801C84420ED0801C84420BD0801C844275
:100CA00008D0801C844205D0801C844202D0801C65
:100CB00084426ED14548844204D0FFF7D9FFADF895
:100CC000000001E0ADF800504048801C844204D090
:100CD000FFF7CEFFADF8020001E0ADF802503B484F
:100CE000001D844204D0FFF7C3FFADF8040001E00B
:100CF000ADF804503548801D844204D0FFF7B8FF9A
:100D0000ADF8060001E0ADF80650304808308442E6
:100D100004D0FFF7ADFFADF8080001E0ADF80850D2
:100D20002A480A30844204D0FFF7A2FFADF80A0037
:100D300001E0ADF80A5025480C30844204D0FFF79A
:100D400097FFADF80C0001E0ADF80C501F480E30D5
:100D5000844204D0FFF78CFFADF80E0001E0ADF83F
:100D60000E501A481030844209D1002605E04FF495
:100D7000FA402DF81600701C86B2082EF7DB03F03F
:100D8000A2FE352004F03AF9104803F0E1FE0026F7
:100D900009E017E03DF816100C4A02EB460003F09C
:100DA000DAFF701C86B2082EF4DB0848103084424B
:100DB00003D145F2AA5103F0CEFF352004F01EF90D
:100DC00003F08DFE7FBD00005010002000F00108F0
:100DD0002DE9F0410546F94E0224F948056005F178
:100DE0002C00F84908602C30F74908602C30F7498E
:100DF00008602C30F64908602C30F64908602C3029
:100E0000F54908602C30F54908600124A9E0EC4957
:100E1000096851F82420611EE94B1B6853F8211022
:100E2000501A08F031FF07463946304608F04AFEAE
:100E3000611EEB4A42F82100E249096851F824207A
:100E4000611EE04B1B6853F82110501A08F01CFF7C
:100E500007463946304608F035FE611EE14A42F841
:100E60002100D949096851F82420611ED64B1B681E
:100E700053F82110501A08F007FF0746394630464C
:100E800008F020FE611ED84A42F82100CF490968C7
:100E900051F82420611ECD4B1B6853F82110501AC5
:100EA00008F0F2FE07463946304608F00BFE611E98
:100EB000CE4A42F82100C649096851F82420611E33
:100EC000C34B1B6853F82110501A08F0DDFE07468B
:100ED0003946304608F0F6FD611EC54A42F8210049
:100EE000BC49096851F82420611EBA4B1B6853F8AD
:100EF0002110501A08F0C8FE07463946304608F05F
:100F0000E1FD611EBB4A42F82100B349096851F86E
:100F10002420611EB04B1B6853F82110501A08F0B2
:100F2000B3FE07463946304608F0CCFD611EB24A92
:100F300042F82100A949096851F82420611EA74BF5
:100F40001B6853F82110501A08F09EFE07463946D8
:100F5000304608F0B7FD611EA84A42F82100601C27
:100F6000C4B20A2C7FF753AF9548006828B19B485C
:100F7000006810B10120BDE8F0810020FBE72DE9F9
:100F8000F04F87B082464FF000090024A3461C2191
:100F9000684608F023FA9A480078082802DB002007
:100FA0009749087097489649097840F821A09448D5
:100FB00004780078401C924908704FF000090DE059
:100FC000904850F824004DF82900002C00DC08243B
:100FD000601EC4B209F1010000F0FF09B9F1070F6A
:100FE000EEDB4FF000091CE0002412E05DF8241055
:100FF000601C5DF82000814209D95DF824B0601CB6
:101000005DF820004DF82400601C4DF820B0601CF5
:10101000C4B2C9F10700A042E8DC09F1010000F008
:10102000FF09B9F1070FDFDB002077490860DDE930
:101030000201084404990844734909680844724944
:1010400008600846006808F0C9FB074600226F4B9D
:1010500008F028FA054608F07DFB6B490860084651
:10106000006807B0BDE8F08F2DE9F04F87B08246E9
:101070004FF000090024A3461C21684608F0AEF991
:1010800063480078082802DB002061490870614845
:101090005F49097840F821A05D4804780078401C39
:1010A0005B4908704FF000090DE05A4850F82400E1
:1010B0004DF82900002C00DC0824601EC4B209F1A0
:1010C000010000F0FF09B9F1070FEEDB4FF0000956
:1010D0001CE0002412E05DF82410601C5DF8200084
:1010E000814209D95DF824B0601C5DF820004DF8FC
:1010F0002400601C4DF820B0601CC4B2C9F1070088
:10110000A042E8DC09F1010000F0FF09B9F1070F86
:10111000DFDB002040490860DDE902010844049952
:1011200008443D49096808443B490860084600688E
:1011300008F054FB07460022344B08F0B3F905468B
:1011400008F008FB344908600846006807B0BDE8AD
:10115000F08F2DE9F04F87B082464FF00009002450
:10116000A3461C21684608F039F92C480078082865
:1011700002DB00202949087029482849097840F8ED
:1011800021A0264804780078401C244908704FF0BC
:1011900000090DE0224850F824004DF82900002CE9
:1011A00000DC0824601EC4B209F1010000F0FF0950
:1011B000B9F1070FEEDB4FF0000950E00024F448CE
:1011C0000C00002010000020140000201800002057
:1011D0001C00002020000020240000202800002007
:1011E0005018002078180020A0180020C8180020EF
:1011F000F01800201819002040190020681900205C
:101200002C00002090190020300000200000084031
:1012100034000020B0190020380000203C000020DD
:10122000D0190020002412E05DF82410601C5DF845
:101230002000814209D95DF824B0601C5DF82000CF
:101240004DF82400601C4DF820B0601CC4B2C9F1F8
:101250000700A042E8DC09F1010000F0FF09B9F144
:10126000070FDFDB0020F9490860DDE902010844CF
:1012700004990844F54909680844F4490860084697
:10128000006808F0ABFA07460022F14B08F00AF9B3
:10129000054608F05FFAED4908600846006807B0A7
:1012A000BDE8F08F2DE9F04F87B082464FF000097E
:1012B0000024A3461C21684608F090F8E548007811
:1012C000082802DB0020E3490870E348E149097877
:1012D00040F821A0DF4804780078401CDD49087000
:1012E0004FF000090DE0DC4850F824004DF82900CB
:1012F000002C00DC0824601EC4B209F1010000F0DB
:10130000FF09B9F1070FEEDB4FF000091CE00024E4
:1013100012E05DF82410601C5DF82000814209D9BC
:101320005DF824B0601C5DF820004DF82400601CBE
:101330004DF820B0601CC4B2C9F10700A042E8DC3F
:1013400009F1010000F0FF09B9F1070FDFDB002010
:10135000C2490860DDE90201084404990844BF4914
:1013600009680844BD4908600846006808F036FA74
:1013700007460022B64B08F095F8054608F0EAF952
:10138000B64908600846006807B0BDE8F08F2DE94F
:10139000F04F87B082464FF000090024A3461C217D
:1013A000684608F01BF8AE480078082802DB0020E9
:1013B000AB490870AB48AA49097840F821A0A84871
:1013C00004780078401CA64908704FF000090DE031
:1013D000A44850F824004DF82900002C00DC082413
:1013E000601EC4B209F1010000F0FF09B9F1070F56
:1013F000EEDB4FF000091CE0002412E05DF8241041
:10140000601C5DF82000814209D95DF824B0601CA1
:101410005DF820004DF82400601C4DF820B0601CE1
:10142000C4B2C9F10700A042E8DC09F1010000F0F4
:10143000FF09B9F1070FDFDB00208B490860DDE908
:101440000201084404990844874909680844864908
:1014500008600846006808F0C1F9074600227C4B86
:1014600008F020F8054608F075F97F49086008463D
:10147000006807B0BDE8F08F2DE9F04F87B08246D5
:101480004FF000090024A3461C21684607F0A6FF80
:1014900076480078082802DB0020744908707448F8
:1014A0007249097840F821A0704804780078401CFF
:1014B0006E4908704FF000090DE06D4850F82400A7
:1014C0004DF82900002C00DC0824601EC4B209F18C
:1014D000010000F0FF09B9F1070FEEDB4FF0000942
:1014E0001CE0002412E05DF82410601C5DF8200070
:1014F000814209D95DF824B0601C5DF820004DF8E8
:101500002400601C4DF820B0601CC4B2C9F1070073
:10151000A042E8DC09F1010000F0FF09B9F1070F72
:10152000DFDB002053490860DDE90201084404992B
:1015300008445049096808444E4908600846006854
:1015400008F04CF907460022414B07F0ABFF054677
:1015500008F000F9474908600846006807B0BDE890
:10156000F08F2DE9F04F87B082464FF0000900243C
:10157000A3461C21684607F031FF3F480078082841
:1015800002DB00203C4908703C483B49097840F8A0
:1015900021A0394804780078401C374908704FF082
:1015A00000090DE0354850F824004DF82900002CC2
:1015B00000DC0824601EC4B209F1010000F0FF093C
:1015C000B9F1070FEEDB4FF000091CE0002412E038
:1015D0005DF82410601C5DF82000814209D95DF897
:1015E00024B0601C5DF820004DF82400601C4DF80C
:1015F00020B0601CC4B2C9F10700A042E8DC09F1C8
:10160000010000F0FF09B9F1070FDFDB00201C49E2
:101610000860DDE902010844049908441849096892
:101620000844174908600846006808F0D7F80746DC
:101630000022074B07F036FF054608F08BF81049EB
:1016400008600846006807B0BDE8F08F4000002041
:101650000000084044000020F0190020480000204D
:101660004C000020101A00205000002054000020E0
:10167000301A0020580000205C000020501A002082
:10168000600000202DE9F04F87B082464FF000093E
:101690000024A3461C21684607F0A0FEFE480078FF
:1016A000082802DB0020FC490870FC48FA49097848
:1016B00040F821A0F84804780078401CF6490870EA
:1016C0004FF000090DE0F54850F824004DF82900CE
:1016D000002C00DC0824601EC4B209F1010000F0F7
:1016E000FF09B9F1070FEEDB4FF000091CE0002401
:1016F00012E05DF82410601C5DF82000814209D9D9
:101700005DF824B0601C5DF820004DF82400601CDA
:101710004DF820B0601CC4B2C9F10700A042E8DC5B
:1017200009F1010000F0FF09B9F1070FDFDB00202C
:10173000DB490860DDE90201084404990844D849FE
:1017400009680844D64908600846006808F046F869
:1017500007460022D34B07F0A5FE054607F0FAFF27
:10176000CF4908600846006807B0BDE8F08F2DE952
:10177000F04706460D4600243046FFF700FC0446BD
:101780002C60C94800680068A04202D30020BDE870
:10179000F087C54800680068A04211D2C2480068BE
:1017A0004068A0420CD3204608F06EFA8046BF483D
:1017B0000168404608F07CFA074608F045FAE6E77B
:1017C000B94800684068A04218D2B74800688068ED
:1017D000A04213D3B44909684968601A08F054FA62
:1017E0008146B2484168484608F062FA8046B049EE
:1017F00008F006F9074608F027FAC8E7AA48006883
:101800008068A04218D2A8480068C068A04213D3DC
:10181000A54909688968601A08F036FA8146A34824
:101820008168484608F044FA8046A24908F0E8F882
:10183000074608F009FAAAE79B480068C068A0427A
:1018400018D2994800680069A04213D396490968E4
:10185000C968601A08F018FA81469448C168484679
:1018600008F026FA8046944908F0CAF8074608F0BE
:10187000EBF98CE78C4800680069A04218D28A48CE
:1018800000684069A04213D3874909680969601A52
:1018900008F0FAF9814685480169484608F008FAD7
:1018A0008046864908F0ACF8074608F0CDF96EE7A7
:1018B0007D4800684069A04218D27B480068806972
:1018C000A04213D3784909684969601A08F0DCF925
:1018D000814676484169484608F0EAF980467849E9
:1018E00008F08EF8074608F0AFF950E76E48006838
:1018F0008069A04218D26C480068C069A04213D326
:10190000694909688969601A08F0BEF98146674823
:101910008169484608F0CCF980466A4908F070F8B9
:10192000074608F091F932E75F480068C069A042B5
:1019300018D25D480068006AA04213D35A4909686A
:10194000C969601A08F0A0F981465848C16948463B
:1019500008F0AEF980465C4908F052F8074608F0F6
:1019600073F914E750480068006AA04218D24E4844
:101970000068406AA04213D34B490968096A601A9B
:1019800008F082F981464948016A484608F090F912
:1019900080464E4908F034F8074608F055F9F6E657
:1019A00041480068406AA04213D23F490968496A29
:1019B000601A08F069F981463C48416A484608F0D7
:1019C00077F98046424908F01BF8074608F03CF9D1
:1019D000DDE60020DBE62DE9F04706460D46002453
:1019E0003046FFF741FB04462C603A480068006827
:1019F000A04202D30020BDE8F087364800680068A6
:101A0000A04211D2334800684068A0420CD320465F
:101A100008F03AF9804630480168404608F048F935
:101A2000074608F011F9E6E72A4800684068A04236
:101A300018D2284800688068A04213D32549096855
:101A40004968601A08F020F98146234841684846F1
:101A500008F02EF98046164907F0D2FF074608F035
:101A6000F3F8C8E71B4800688068A0423CD21948D8
:101A70000068C068A04237D3164909688968601AAF
:101A800008F002F9814614488168484608F010F9C8
:101A90008046084922E0000064000020701A0020FF
:101AA00068000020000008400C00002050180020B2
:101AB0000024F44800247449001BB7490024F44969
:101AC0008096184A001B374A809F554A0024744A62
:101AD0004054894A100000207818002007F090FF39
:101AE000074608F0B1F886E7FE480068C068A042E3
:101AF00018D2FC4800680069A04213D3F94909686C
:101B0000C968601A08F0C0F88146F748C1684846BD
:101B100008F0CEF88046F54907F072FF074608F056
:101B200093F868E7EF4800680069A04218D2ED48D2
:101B300000684069A04213D3EA4909680969601A3C
:101B400008F0A2F88146E8480169484608F0B0F874
:101B50008046E74907F054FF074608F075F84AE762
:101B6000E04800684069A04218D2DE4800688069F9
:101B7000A04213D3DB4909684969601A08F084F868
:101B80008146D9484169484608F092F88046D949CB
:101B900007F036FF074608F057F82CE7D1480068F1
:101BA0008069A04218D2CF480068C069A04213D310
:101BB000CC4909688969601A08F066F88146CA4804
:101BC0008169484608F074F88046CB4907F018FF51
:101BD000074608F039F80EE7C2480068C069A0421D
:101BE00018D2C0480068006AA04213D3BD490968F2
:101BF000C969601A08F048F88146BB48C16948467F
:101C000008F056F88046BD4907F0FAFE074608F08E
:101C10001BF8F0E6B3480068006AA04218D2B14849
:101C20000068406AA04213D3AE490968096A601A85
:101C300008F02AF88146AC48016A484608F038F8AE
:101C40008046AF4907F0DCFE074607F0FDFFD2E60D
:101C5000A4480068406AA04213D2A2490968496AB0
:101C6000601A08F011F881469F48416A484608F01A
:101C70001FF88046A34907F0C3FE074607F0E4FFBC
:101C8000B9E60020B7E62DE9F04706460D460024E8
:101C90003046FFF75EFA04462C609B4800680068F7
:101CA000A04202D30020BDE8F08797480068006892
:101CB000A04211D2944800684068A0420CD320464C
:101CC00007F0E2FF804691480168404607F0F0FFC8
:101CD000074607F0B9FFE6E78B4800684068A04276
:101CE00018D2894800688068A04213D386490968E1
:101CF0004968601A07F0C8FF814684484168484631
:101D000007F0D6FF8046824907F07AFE074607F0C3
:101D10009BFFC8E77C4800688068A04218D27A48D8
:101D20000068C068A04213D3774909688968601ABF
:101D300007F0AAFF814675488168484607F0B8FF5A
:101D40008046744907F05CFE074607F07DFFAAE76E
:101D50006D480068C068A04218D26B4800680069EE
:101D6000A04213D368490968C968601A07F08CFF5C
:101D700081466648C168484607F09AFF80465B493D
:101D800007F03EFE074607F05FFF8CE75E480068FD
:101D90000069A04218D25C4800684069A04213D391
:101DA000594909680969601A07F06EFF814657486A
:101DB0000169484607F07CFF80464D4907F020FE48
:101DC000074607F041FF6EE74F4800684069A042B0
:101DD00018D24D4800688069A04213D34A49096867
:101DE0004969601A07F050FF8146484841694846F2
:101DF00007F05EFF80463F4907F002FE074607F006
:101E000023FF50E7404800688069A04218D23E484E
:101E10000068C069A04213D33B4909688969601A08
:101E200007F032FF814639488169484607F040FF94
:101E30008046314907F0E4FD074607F005FF32E729
:101E400031480068C069A04218D22F480068006A73
:101E5000A04213D32C490968C969601A07F014FF1E
:101E600081462A48C169484607F022FF8046234937
:101E700007F0C6FD074607F0E7FE14E722480068B2
:101E8000006AA04218D220480068406AA04213D3DA
:101E90001D490968096A601A07F0F6FE81461B4869
:101EA000016A484607F004FF8046154907F0A8FD7F
:101EB000074607F0C9FEF6E613480068406AA042EC
:101EC0002ED211490968496A601A07F0DDFE814681
:101ED0000E48416A484607F0EBFE8046094907F084
:101EE0008FFD19E01000002078180020001BB74972
:101EF0000024F4498096184A001B374A809F554AAF
:101F00000024744A4054894A14000020A01800207C
:101F10000024F44800247449074607F095FEC2E601
:101F20000020C0E62DE9F04706460D460024304665
:101F3000FFF7B8F904462C60FE4800680068A0422C
:101F400002D30020BDE8F087FA4800680068A0428C
:101F500011D2F84800684068A0420CD3204607F030
:101F600093FE8046F4480168404607F0A1FE07460C
:101F700007F06AFEE6E7EF4800684068A04218D222
:101F8000EC4800688068A04213D3EA4909684968B0
:101F9000601A07F079FE8146E7484168484607F035
:101FA00087FE8046E54907F02BFD074607F04CFE0B
:101FB000C8E7E04800688068A04218D2DD480068A1
:101FC000C068A04213D3DB4909688968601A07F02A
:101FD0005BFE8146D8488168484607F069FE804626
:101FE000D74907F00DFD074607F02EFEAAE7D148B6
:101FF0000068C068A04218D2CE4800680069A042BC
:1020000013D3CC490968C968601A07F03DFE8146C0
:10201000C948C168484607F04BFE8046C94907F0E9
:10202000EFFC074607F010FE8CE7C2480068006925
:10203000A04218D2BF4800684069A04213D3BD49EE
:1020400009680969601A07F01FFE8146BA480169EC
:10205000484607F02DFE8046BB4907F0D1FC0746F5
:1020600007F0F2FD6EE7B34800684069A04218D25D
:10207000B04800688069A04213D3AE490968496935
:10208000601A07F001FE8146AB484169484607F0F7
:102090000FFE8046AD4907F0B3FC074607F0D4FDBC
:1020A00050E7A44800688069A04218D2A14800689F
:1020B000C069A04213D39F4909688969601A07F073
:1020C000E3FD81469C488169484607F0F1FD804662
:1020D0009F4907F095FC074607F0B6FD32E79548A3
:1020E0000068C069A04218D292480068006AA04205
:1020F00013D390490968C969601A07F0C5FD814684
:102100008D48C169484607F0D3FD8046914907F0E4
:1021100077FC074607F098FD14E786480068006AD8
:10212000A04218D283480068406AA04213D3814974
:102130000968096A601A07F0A7FD81467E48016AAE
:10214000484607F0B5FD8046834907F059FC07462D
:1021500007F07AFDF6E677480068406AA04213D29D
:1021600074490968496A601A07F08EFD8146724811
:10217000416A484607F09CFD8046784907F040FCDC
:10218000074607F061FDDDE60020DBE62DE9F047BC
:1021900006460D4600243046FFF7F9F804462C6049
:1021A0006F4800680068A04202D30020BDE8F087B5
:1021B0006B4800680068A04211D269480068406816
:1021C000A0420CD3204607F05FFD804665480168B9
:1021D000404607F06DFD074607F036FDE6E760482C
:1021E00000684068A04218D25D4800688068A0423C
:1021F00013D35B4909684968601A07F045FD8146B9
:1022000058484168484607F053FD80464B4907F05F
:10221000F7FB074607F018FDC8E7514800688068DB
:10222000A04218D24E480068C068A04213D34C495F
:1022300009688968601A07F027FD81464948816866
:10224000484607F035FD80463D4907F0D9FB074673
:1022500007F0FAFCAAE742480068C068A04218D21A
:102260003F4800680069A04213D33D490968C96826
:10227000601A07F009FD81463A48C168484607F0F0
:1022800017FD80462F4907F0BBFB074607F0DCFC33
:102290008CE7334800680069A04218D230480068D3
:1022A0004069A04213D32E4909680969601A07F0F2
:1022B000EBFC81462B480169484607F0F9FC804653
:1022C000214907F09DFB074607F0BEFC6EE7244856
:1022D00000684069A04218D2214800688069A04285
:1022E00013D31F4909684969601A07F0CDFC81467C
:1022F0001C484169484607F0DBFC8046134907F05B
:102300007FFB074607F0A0FC50E71548006880698E
:10231000A04233D212480068C069A0422ED31049AF
:1023200009688969601A07F0AFFC81460D48816928
:10233000484619E018000020C81800200024F4487E
:1023400000247449001BB7490024F4498096184AB8
:10235000001B374A809F554A0024744A4054894ADA
:102360001C000020F018002007F0A2FC8046FB496A
:1023700007F046FB074607F067FC17E7F8480068D8
:10238000C069A04218D2F6480068006AA04213D380
:10239000F3490968C969601A07F076FC8146F1487B
:1023A000C169484607F084FC8046EF4907F028FBE6
:1023B000074607F049FCF9E6E9480068006AA042D0
:1023C00018D2E7480068406AA04213D3E44909687C
:1023D000096A601A07F058FC8146E248016A4846DB
:1023E00007F066FC8046E14907F00AFB074607F064
:1023F0002BFCDBE6DA480068406AA04213D2D849D9
:102400000968496A601A07F03FFC8146D548416A6D
:10241000484607F04DFC8046D54907F0F1FA0746DB
:1024200007F012FCC2E60020C0E62DE9F0470646A0
:102430000D4600243046FFF71FF804462C60CD48B7
:1024400000680068A04202D30020BDE8F087C948B8
:1024500000680068A04211D2C64800684068A042E7
:102460000CD3204607F010FC8046C3480168404664
:1024700007F01EFC074607F0E7FBE6E7BD480068EB
:102480004068A04218D2BB4800688068A04213D3BD
:10249000B84909684968601A07F0F6FB8146B648F2
:1024A0004168484607F004FC8046B44907F0A8FAA2
:1024B000074607F0C9FBC8E7AE4800688068A0423D
:1024C00018D2AC480068C068A04213D3A949096873
:1024D0008968601A07F0D8FB8146A748816848469A
:1024E00007F0E6FB8046A64907F08AFA074607F0A0
:1024F000ABFBAAE79F480068C068A04218D29D487D
:1025000000680069A04213D39A490968C968601A33
:1025100007F0BAFB81469848C168484607F0C8FBF7
:102520008046984907F06CFA074607F08DFB8CE768
:10253000904800680069A04218D28E48006840693F
:10254000A04213D38B4909680969601A07F09CFB04
:10255000814689480169484607F0AAFB80468A49B6
:1025600007F04EFA074607F06FFB6EE781480068F8
:102570004069A04218D27F4800688069A04213D306
:102580007C4909684969601A07F07EFB81467A48F0
:102590004169484607F08CFB80467C4907F030FAD9
:1025A000074607F051FB50E7724800688069A04277
:1025B00018D270480068C069A04213D36D490968F9
:1025C0008969601A07F060FB81466B48816948465B
:1025D00007F06EFB8046614907F012FA074607F0E4
:1025E00033FB32E763480068C069A04218D26148F3
:1025F0000068006AA04213D35E490968C969601A7D
:1026000007F042FB81465C48C169484607F050FB31
:102610008046554907F0F4F9074607F015FB14E723
:1026200054480068006AA04218D252480068406AC4
:10263000A04213D34F490968096A601A07F024FBC6
:1026400081464D48016A484607F032FB80464749BB
:1026500007F0D6F9074607F0F7FAF6E645480068AE
:10266000406AA04213D243490968496A601A07F0D8
:102670000BFB81464048416A484607F019FB8046FB
:102680003B4907F0BDF9074607F0DEFADDE600201A
:10269000DBE62DE9F04706460D4600243046FEF7FE
:1026A00060FF04462C603A4800680068A04202D3EC
:1026B0000020BDE8F087364800680068A04211D2CB
:1026C000334800684068A0420CD3204607F0DCFA8B
:1026D000804630480168404607F0EAFA074607F0AE
:1026E000B3FAE6E72A4800684068A04218D22848B2
:1026F00000688068A04213D3254909684968601AB8
:1027000007F0C2FA814623484168484607F0D0FAEC
:1027100080461A4907F074F9074607F095FAC8E7AA
:102720001B4800688068A04236D219480068C0681B
:10273000A04231D3164909688968601A07F0A4FAE3
:10274000814614488168484607F0B2FA80460C4931
:1027500007F056F9074607F077FAAAE7001B374A51
:102760001C000020F0180020809F554A0024744A65
:102770004054894A20000020181900200024F44801
:1027800000247449001BB7490024F4498096184A74
:102790002400002040190020FE480068C068A042C4
:1027A00018D2FC4800680069A04213D3F9490968AF
:1027B000C968601A07F068FA8146F748C168484658
:1027C00007F076FA8046F54907F01AF9074607F050
:1027D0003BFA6EE7EF4800680069A04218D2ED4866
:1027E00000684069A04213D3EA4909680969601A80
:1027F00007F04AFA8146E8480169484607F058FA66
:102800008046E74907F0FCF8074607F01DFA50E755
:10281000E04800684069A04218D2DE48006880693C
:10282000A04213D3DB4909684969601A07F02CFA02
:102830008146D9484169484607F03AFA8046D94965
:1028400007F0DEF8074607F0FFF932E7D1480068E5
:102850008069A04218D2CF480068C069A04213D353
:10286000CC4909688969601A07F00EFA8146CA489E
:102870008169484607F01CFA8046CB4907F0C0F84A
:10288000074607F0E1F914E7C2480068C069A042B2
:1028900018D2C0480068006AA04213D3BD49096835
:1028A000C969601A07F0F0F98146BB48C16948461A
:1028B00007F0FEF98046BD4907F0A2F8074607F089
:1028C000C3F9F6E6B3480068006AA04218D2B148DE
:1028D0000068406AA04213D3AE490968096A601AC9
:1028E00007F0D2F98146AC48016A484607F0E0F9A2
:1028F0008046AF4907F084F8074607F0A5F9D8E607
:10290000A4480068406AA04213D2A2490968496AF3
:10291000601A07F0B9F981469F48416A484607F0B6
:10292000C7F98046A34907F06BF8074607F08CF912
:10293000BFE60020BDE62DE9F04706460D4600241F
:102940003046FEF79FFE04462C609B4800680068F6
:10295000A04202D30020BDE8F087974800680068D5
:10296000A04211D2944800684068A0420CD320468F
:1029700007F08AF9804691480168404607F098F9C7
:10298000074607F061F9E6E78B4800684068A04217
:1029900018D2894800688068A04213D38649096824
:1029A0004968601A07F070F98146844841684846D2
:1029B00007F07EF98046824907F022F8074607F0C3
:1029C00043F9C8E77C4800688068A04218D27A487A
:1029D0000068C068A04213D3774909688968601A03
:1029E00007F052F9814675488168484607F060F95A
:1029F0008046744907F004F8074607F025F9AAE76E
:102A00006D480068C068A04218D26B480068006931
:102A1000A04213D368490968C968601A07F034F9FD
:102A200081466648C168484607F042F980465B49DE
:102A300006F0E6FF074607F007F98CE75E480068F6
:102A40000069A04218D25C4800684069A04213D3D4
:102A5000594909680969601A07F016F9814657480B
:102A60000169484607F024F980464D4906F0C8FF41
:102A7000074607F0E9F86EE74F4800684069A04252
:102A800018D24D4800688069A04213D34A490968AA
:102A90004969601A07F0F8F8814648484169484694
:102AA00007F006F980463F4906F0AAFF074607F0FF
:102AB000CBF850E7404800688069A04218D23E48F1
:102AC0000068C069A04213D33B4909688969601A4C
:102AD00007F0DAF8814639488169484607F0E8F896
:102AE0008046314906F08CFF074607F0ADF832E723
:102AF00031480068C069A04218D22F480068006AB7
:102B0000A04213D32C490968C969601A07F0BCF8C0
:102B100081462A48C169484607F0CAF880462349D9
:102B200006F06EFF074607F08FF814E722480068AA
:102B3000006AA04218D220480068406AA04213D31D
:102B40001D490968096A601A07F09EF881461B480A
:102B5000016A484607F0ACF88046154906F050FF78
:102B6000074607F071F8F6E613480068406AA0428D
:102B70002ED211490968496A601A07F085F8814622
:102B80000E48416A484607F093F88046094906F026
:102B900037FF19E02400002040190020001BB7492E
:102BA0000024F4498096184A001B374A809F554AF2
:102BB0000024744A4054894A2800002068190020E3
:102BC0000024F44800247449074607F03DF8C2E6A3
:102BD0000020C0E631490143314A1160704770B5A9
:102BE000002100230F22C47804B32D4C246804F480
:102BF000E064C4F5E064210AC1F10403CA404478EA
:102C000004FA03F18478144021430901254C067825
:102C1000A155047804F01F050124AC4005786D111E
:102C2000AD0005F1E025C5F8004109E0047804F0A5
:102C30001F050124AC401C4D0678761145F826404E
:102C400070BD1A4A0A400243154B1B1F1A60704799
:102C500039B1134A121D12680243114B1B1D1A6031
:102C600006E00F4A121D126882430D4B1B1D1A60AD
:102C70007047042808D14FF0E021096941F00401B0
:102C80004FF0E022116107E04FF0E021096921F0E7
:102C900004014FF0E0221161704700000000FA05C6
:102CA0000CED00E000E400E080E100E080FFFF1FA9
:102CB0000CB50020019000905E48006840F4803020
:102CC0005C49086000BF5B48006800F40030009079
:102CD0000198401C0190009818B90198B0F5A06FB8
:102CE000F1D15448006800F4003010B10120009088
:102CF00001E0002000900098012828D14E4800688B
:102D000040F010004C4908600846006820F00300BD
:102D100008600846006808604648406845494860C1
:102D20000846406848600846406848600846406871
:102D300020F0030048600846406840F00100486009
:102D400000BF3C48406800F00C000428F9D10CBDDD
:102D500010B5FFF7ADFF10BD10B53648006840F064
:102D60000100344908600846406834490840314948
:102D7000486008460068324908402E490860084605
:102D8000006820F4802008600846406820F4FE00B7
:102D900048604FF41F008860FFF7DAFF4FF00060D3
:102DA0002849086010BD10B5002100200022214BE9
:102DB0005B6803F00C0121B1042906D0082928D151
:102DC00007E0214B214C236027E01F4B1F4C236061
:102DD00023E0184B5B6803F47010164B5B6803F438
:102DE0008032022303EB904022B9194B4343174C26
:102DF00023600DE00F4B5B6803F4003323B1144BE9
:102E00004343124C236003E00F4B43430F4C2360BA
:102E100003E00D4B0D4C236000BF00BF054B5B680A
:102E2000C3F303130B4CE15C084B1B68CB40074C0E
:102E3000236010BD00100240002002400000FFF897
:102E4000FFFFF6FE08ED00E000127A006C000020A3
:102E500000093D0070000020DF48006840F00100DC
:102E6000DD49086008464068DC490840DA494860A6
:102E700008460068DA490840D749086008460068F3
:102E800020F4802008600846406820F4FE00486076
:102E90004FF41F0088607047CF49096821F48031E2
:102EA000CD4A11601146096821F480211160B0F506
:102EB000803F03D0B0F5802F0ED106E0C6490968E7
:102EC00041F48031C44A116007E0C349096841F404
:102ED000A021C14A116000E000BF00BF704710B5DB
:102EE00001460022002300204A11012A02D1BA4CD7
:102EF000236806E0022A02D1B74C236A01E0B64CEF
:102F0000636A01F01F02012494401C400CB10120AF
:102F100000E0002010BD38B50020009000240025FE
:102F200000BF3120FFF7DBFF05460098401C0090F2
:102F30000098B0F5A06F01D0002DF2D03120FFF73E
:102F4000CEFF08B1012400E00024204638BD014630
:102F50000020A14A106820F0F80040EAC10010608B
:102F60007047A04908607047024600209A4B586895
:102F700020F47C1042EA01031843974B58607047D5
:102F800098490866704701460020934A506820F02F
:102F900003000843506070478F48406800F00C0001
:102FA0007047014600208C4A506820F0F00008432A
:102FB0005060704701460020874A506820F4E06066
:102FC00008435060704701460020834A506820F44F
:102FD000605040EAC1005060704729B17E4A527A81
:102FE00002437D4B5A7204E07B4A527A82437A4B09
:102FF0005A7270477B49D8310860704701460020FB
:10300000754A506820F440400843506070470021E2
:10301000714A20321170704A82F82010012802D0C3
:1030200004280AD104E001216B4A2032117005E026
:103030000521694A2032117000E000BF00BF7047CF
:103040006949086070476449096A0143624A11622C
:103050007047654944390860704730B50021002247
:10306000002400235C4D6D6805F00C0121B104299A
:1030700005D0082923D105E05C4D056022E05B4DB9
:1030800005601FE0544D6D6805F47012524D6D6877
:1030900005F48034022505EB92421CB9544D55438A
:1030A00005600BE04C4D6D6805F400351DB1504DC9
:1030B0005543056002E04D4D5543056002E04B4D20
:1030C000056000BF00BF444D6D6805F0F0010909BF
:1030D000484D6B5C0568DD4045603F4D6D6805F40B
:1030E000E061090A434D6B5C4568DD4085603A4DFF
:1030F0006D6805F46051C90A3E4D6B5C4568DD4062
:10310000C560354D6D6805F44041890B3A4D6B5CE7
:10311000C568B5FBF3F5056130BD29B12E4A52698A
:1031200002432D4B5A6104E02B4A526982432A4BD9
:103130005A61704729B1284A92690243264B9A6125
:1031400004E0254A92698243234B9A61704729B172
:10315000214AD2690243204BDA6104E01E4AD26957
:1031600082431D4BDA61704729B11B4AD268024382
:10317000194BDA6004E0184AD2688243164BDA60D1
:10318000704729B1144A12690243134B1A6104E0D3
:10319000114A12698243104B1A6170471249403933
:1031A000086070470F49C86470470B49C871704781
:1031B0000948406A40F080700749486270470146FC
:1031C0000020054A92680A400AB1012000E0002070
:1031D0007047014988727047001002400000FFF8F4
:1031E000FFFFF6FE000042428004424200127A00D5
:1031F00000093D00800000209000002010B504462A
:10320000FB48844209D101218803FFF7ADFF00216B
:103210004FF48040FFF7A8FF32E0F648844209D11E
:1032200001214804FFF7ADFF00214FF40030FFF704
:10323000A8FF25E0F048844209D101218804FFF766
:10324000A0FF00214FF48020FFF79BFF18E0EB4820
:10325000844209D10121C804FFF793FF00214FF4F4
:103260000020FFF78EFF0BE0E548844208D10121E2
:103270000805FFF786FF00214FF48010FFF781FF5C
:1032800010BD2DE9F04786B005460E460024A24643
:1032900000BFA1460027B08900B100BF2F462C8A8D
:1032A0004CF6FF700440F08804432C82AC894EF643
:1032B000F3100440B08831890843718908430443FE
:1032C000AC81AC8A4FF6FF400440B0890443AC8225
:1032D00001A8FFF7C2FEC648874202D1DDF810A060
:1032E00001E0DDF80CA0A88900F4004040B10AEB31
:1032F000CA0000EB0A1031684900B0FBF1F807E0A2
:103300000AEBCA0000EB0A1031688900B0FBF1F843
:103310006420B8FBF0F004012009642101FB10894E
:10332000A88900F4004040B1322000EBC900B0FB96
:10333000F1F000F00700044308E0322000EB091030
:103340006421B0FBF1F000F00F0004432C8106B0C3
:10335000BDE8F0874FF41651016000218180C180E3
:1033600001810C21418100218181704710B5024605
:103370000020108A4FF2FF0318400B884C8823432B
:103380008C882343CC8823431843108210BD00212E
:10339000018041808180C180704721B1828942F4DF
:1033A0000052828104E082894DF6FF731A408281C7
:1033B0007047F0B50346002400260025002040F6A3
:1033C0006A17B94200D100BF1846C1F3421401F098
:1033D0001F06012707FA06F5012C01D10C3004E085
:1033E000022C01D1103000E014301AB107682F43CD
:1033F000076002E00768AF430760F0BD1AB1838A37
:103400000B43838202E0838A8B4383827047028A64
:103410004FF6F0731A400282028A0A430282704712
:1034200082894FF2FF731A40828182890A43828126
:10343000704721B1828942F00202828104E08289D0
:103440004FF6FD731A4082817047028A4FF6DF7390
:103450001A400282028A0A430282704721B1028A1C
:1034600042F48042028204E0028A4BF6FF731A4063
:1034700002827047C1F30802828070470146888843
:10348000C0F308007047818941F0010181817047D4
:10349000028BD2B20283028B42EA0122028370477E
:1034A000028B02F47F420283028B0A43028370473D
:1034B00021B1828A42F02002828204E0828A4FF6A1
:1034C000DF731A408282704721B1828A42F0100273
:1034D000828204E0828A4FF6EF731A40828270473C
:1034E00021B1828A42F00802828204E0828A4FF689
:1034F000F7731A408282704721B1828942F40042F8
:10350000828103E08289C2F30E028281704721B179
:10351000828A42F40062828204E0828A4FF2FF7360
:103520001A4082827047828A4FF6FB731A40828269
:10353000828A0A438282704721B1828A42F0020263
:10354000828204E0828A4FF6FD731A4082827047BD
:1035500002460020B1F5007F00D100BF13880B4068
:103560000BB1012000E00020704701F40072B2F5B9
:10357000007F00D100BFCA430280704770B5024689
:10358000002400230025002040F66A16B14200D135
:1035900000BFC1F3421501F01F03012606FA03F331
:1035A000012D02D19689334006E0022D02D1168A00
:1035B000334001E0968A33400C12012606FA04F4E7
:1035C0001688344013B10CB1012000E0002070BD1A
:1035D00010B50022002340F66A14A14200D100BFBA
:1035E0000A1201249440A3B2DC43048010BD000001
:1035F000003801400044004000480040004C0040BA
:103600000050004010B50446FE48844208D1012114
:10361000C014FFF7A9FD0021E014FFF7A5FDC4E0E9
:10362000B4F1804F08D101210846FFF7AAFD00211F
:103630000120FFF7A6FDB8E0F348844208D101213C
:103640000220FFF79EFD00210220FFF79AFDACE06B
:10365000EE48844208D101210420FFF792FD0021A9
:103660000420FFF78EFDA0E0E948844208D1012143
:103670000820FFF786FD00210820FFF782FD94E077
:10368000E448844208D101211020FFF77AFD00218F
:103690001020FFF776FD88E0DF48844208D1012141
:1036A0002020FFF76EFD00212020FFF76AFD7CE05F
:1036B000DA48844208D101214014FFF755FD00216A
:1036C0006014FFF751FD70E0D548844209D1012113
:1036D000C804FFF749FD00214FF40020FFF744FD27
:1036E00063E0D048844209D101210805FFF73CFD81
:1036F00000214FF48010FFF737FD56E0CA4884429E
:1037000009D101214805FFF72FFD00214FF40010DA
:10371000FFF72AFD49E0C548844208D10121402035
:10372000FFF72FFD00214020FFF72BFD3DE0C048B3
:10373000844208D101218020FFF723FD0021802051
:10374000FFF71FFD31E0BB48844208D101218015FD
:10375000FFF717FD0021A015FFF713FD25E0B64880
:10376000844209D101210804FFF7FEFC00214FF437
:103770008030FFF7F9FC18E0B048844209D10121FC
:103780004804FFF7F1FC00214FF40030FFF7ECFC98
:103790000BE0AB48844208D101218804FFF7E4FC28
:1037A00000214FF48020FFF7DFFC10BD00220288CB
:1037B000944B98420ED0994B98420BD0B0F1804F69
:1037C00008D0914B984205D0904B984202D0904B34
:1037D000984204D14FF68F731A404B881A438D4B91
:1037E000984207D08C4B984204D04FF6FF431A40C2
:1037F000CB881A4302808B8883850B880385814B95
:1038000098420BD0854B984208D08B4B984205D0FC
:103810008A4B984202D08A4B984201D10B7A038698
:1038200001238382704770B5002400220023058C99
:103830004FF6FE7635400584028C8388048B4FF664
:103840008F752C40B51E2C400D882C43751E2A40C8
:103850000D892A434D882A436A4DA8420BD06F4DEB
:10386000A84208D0744DA84205D0744DA84202D099
:10387000734DA84213D14FF6F7752A404D892A435C
:103880004FF6FB752A408D882A434FF6FF652B4083
:103890004FF6FF552B408D892B43CD892B438380D9
:1038A0000483CD888586028470BD70B50024002213
:1038B0000023058C4FF6EF7635400584028C838813
:1038C000048B48F6FF752C404FF6FF452C400D88C1
:1038D0004FF6FF7606EA05252C434FF6DF752A40A2
:1038E0000D8906EA05152A434D8806EA05152A437F
:1038F000444DA84202D0494DA8421DD14FF67F75D4
:103900002A404D894FF6FF7606EA05152A434FF601
:10391000BF752A408D8806EA05152A434FF6FF3504
:103920002B404FF2FF752B408D8906EA85052B430E
:10393000CD8906EA85052B4383800483CD880587DE
:10394000028470BD70B5002400220023058C4FF660
:10395000FF6635400584028C8388848B4FF68F7513
:103960002C404FF6FC752C400D882C434FF6FF552C
:103970002A400D894FF6FF7606EA05252A434D8831
:1039800006EA05252A431F4DA84202D0234DA8422E
:103990001DD14FF2FF752A404D894FF6FF7606EA9A
:1039A00005252A434FF6FF352A408D8806EA05256E
:1039B0002A434EF6FF752B404DF6FF752B408D893F
:1039C00006EA05152B43CD8906EA05152B438380AE
:1039D0008483CD888587028470BD70B50022002362
:1039E0000024058C4EF6FF7635400584038C8488D0
:1039F000828B48F6FF752A404FF6FF452A400D8816
:103A000020E00000002C01400004004000080040BD
:103A1000000C004000100040001400400034014041
:103A2000004C01400050014000540140001800408B
:103A3000001C0040002000400040014000440140C4
:103A4000004801404FF6FF7606EA05252A434DF669
:103A5000FF752B400D8906EA05352B434D8806EA94
:103A600005352B43FA4DA84202D0FA4DA84208D1A1
:103A70004BF6FF752C408D894FF6FF7606EA8515CB
:103A80002C4384808283CD88A0F84050038470BD8D
:103A9000828B4FF2FF331A408283828B4FF6FF7383
:103AA00003EA01231A4382837047F0B50C4615469A
:103AB000002200210026078C4EF6FF7C07EA0C0747
:103AC0000784828B018C4FF6FF7707EA043640F6B5
:103AD000FF473A404FF6FF7707EA05273A434FF68C
:103AE000FF7707EA03373A43D94FB8420ED0D94F90
:103AF000B8420BD0B0F1804F08D0D74FB84205D0B4
:103B0000D64FB84202D0D64FB84206D14DF6FF7715
:103B1000394046F48057394305E047F6FF573940AE
:103B200044F48057394382830184F0BD828B4FF681
:103B3000F3731A408283828B0A4382837047F0B505
:103B40000C461546002200210026078C4FF6FF6C1C
:103B500007EA0C070784828B018C4FF6FF7707EA90
:103B600004264FF60C773A404FF6FF7707EA031723
:103B70002F433A43B64FB8420ED0B64FB8420BD09F
:103B8000B0F1804F08D0B44FB84205D0B34FB8421F
:103B900002D0B34FB84206D14FF6FF57394046F432
:103BA0008077394305E04FF2FF57394044F480777E
:103BB000394382830184F0BD028B4FF2FF331A40F8
:103BC0000283028B4FF6FF7303EA01231A43028339
:103BD0007047F0B50C461546002200210026078CE0
:103BE0004FF6EF7C07EA0C070784028B018C4FF637
:103BF000FF7707EA041640F6FF473A404FF6FF7793
:103C000007EA03373A434FF6FF7707EA05273A43B7
:103C10008F4FB8420ED08F4FB8420BD0B0F1804FCB
:103C200008D08D4FB84205D08C4FB84202D08C4F8F
:103C3000B84206D14FF6DF77394046F010073943D6
:103C400005E04FF65F77394044F0100739430283AF
:103C50000184F0BD028B4FF6F3731A400283028B8E
:103C60000A4302837047F0B50C4615460022002136
:103C7000068C4FF6FE773E400684028B018C4FF691
:103C80000C7632407E1C06EA03162E433243704EF9
:103C9000B0420ED06F4EB0420BD0B0F1804F08D082
:103CA0006D4EB04205D06D4EB04202D06C4EB04267
:103CB00006D14FF6FD76314044F00106314305E070
:103CC0004FF6F576314044F001063143028301841A
:103CD000F0BD70B505460C465D4885420ED05D4886
:103CE00085420BD0B5F1804F08D05B48854205D0A6
:103CF0005A48854202D05A48854200D100E000BFB0
:103D0000208850B92389A28861882846FFF7ABFF35
:103D1000E1882846FFF79EFF25E0208804280AD185
:103D20002389A28861882846FFF753FFE188284647
:103D3000FFF742FF17E0208808280AD12389A288CC
:103D400061882846FFF7FBFEE1882846FFF7EEFE74
:103D500009E02389A28861882846FFF7A6FEE1884A
:103D60002846FFF795FE70BD2DE9F04105460C464B
:103D700000260127608808B9022600E00026A088F6
:103D8000012801D1022700E001272088A0B923895A
:103D9000A28861882846FFF766FFE1882846FFF77A
:103DA00059FF23893A4631462846FFF712FFE1883A
:103DB0002846FFF701FF13E02389A288618828467F
:103DC000FFF707FFE1882846FFF7F6FE23893A460A
:103DD00031462846FFF747FFE1882846FFF73AFFBC
:103DE000BDE8F0810A884B881A438B881A43CB8838
:103DF0001A430B891A434B891A438B891A43A0F83B
:103E0000442070474FF6FF71818000210180C180FE
:103E10004180017270470021018041808180C18012
:103E2000018141818181C1817047002101804180F0
:103E3000012181800021C180018170470021018022
:103E400041808180C1800181418181817047000072
:103E5000002C0140003401400004004000080040F4
:103E6000000C004021B1028842F00102028004E00F
:103E700002884FF6FE731A400280704731B1B0F8E5
:103E8000442042F40042A0F8442005E0B0F8442069
:103E9000C2F30E02A0F8442070471AB183890B4385
:103EA000838102E083898B438381704781827047DD
:103EB00041EA0203A0F8483070471AB183890B43E6
:103EC000838102E083898B438381704701894FF6A8
:103ED000F8721140018170470A46002101894FF6AE
:103EE0008F73194011430181704730B504460D4668
:103EF00029462046FFF7F0FF208940F00700208187
:103F000030BD2DE9F04104460D4616461F46602D92
:103F100006D13B46012231462046FFF75AFE05E016
:103F20003B46012231462046FFF79DFE29462046AA
:103F3000FFF7D2FF208940F007002081BDE8F08123
:103F400030B50C4600210189C9B24FF6FF7505EA6C
:103F50000325154325432943018130BD2DE9F04157
:103F600005460E4617469846002443463A463146D3
:103F70002846FFF7E5FF2C894FF6F870044044F01F
:103F800007044FF68F70044044F070042C81BDE8A4
:103F9000F081F0B504460D4616461F463B463246B4
:103FA00029462046FFF7CCFF208940F4804020813D
:103FB000F0BD0185828270470A46002101884FF6D4
:103FC0008F731940114301807047F0B50C461546B8
:103FD0001E460021002200230189028B038C4FF62C
:103FE000F877394021434FF6FC473A4040F2011739
:103FF0003A434FF6DD773B404FF6FF7707EA061767
:104000002F433B43018102830384F0BD0A46002114
:10401000018B4FF68F7319401143018370470A4695
:104020000021018B48F6FF7319404FF6FF7303EA36
:1040300002231943018370470A460021818B4FF602
:104040008F7319401143818370470A460021818B89
:1040500048F6FF7319404FF6FF7303EA0223194332
:104060008183704721B1028842F08002028004E01F
:1040700002884FF67F731A400280704721B1828810
:1040800042F00402828004E082884FF6FB731A40FB
:104090008280704721B1828842F00802828004E069
:1040A00082884FF6F7731A408280704721B1828868
:1040B00042F00102828004E082884FF6FE731A40CB
:1040C000828070470A460021018B4FF6F773194032
:1040D0001143018370470A460021018B4FF2FF73A1
:1040E00019404FF6FF7303EA022319430183704717
:1040F0000A460021818B4FF6F773194011438183E3
:1041000070470A460021818B4FF2FF7319404FF62A
:10411000FF7303EA02231943818370470A46002193
:10412000018B4FF6FB7319401143018370470A4618
:104130000021018B4FF6FF3319404FF6FF7303EA5E
:1041400002231943018370470A460021818B4FF6F1
:10415000FB7319401143818370470A460021818B0C
:104160004FF6FF3319404FF6FF7303EA022319435A
:10417000818370470A460021018B4FF67F731940F7
:104180001143018370470A460021018BC1F30E01E0
:104190004FF6FF7303EA02231943018370470A466F
:1041A0000021818B4FF67F73194011438183704743
:1041B0000A460021818BC1F30E014FF6FF7303EA1B
:1041C00002231943818370470A460021018C4FF670
:1041D000FD7319401143018470470A460021018C88
:1041E0004FF6F77319401143018470470A460021C6
:1041F000018C4FF6DF7319404FF6FF7303EA021389
:104200001943018470470A460021018C4FF67F73E1
:1042100019404FF6FF7303EA0213194301847047F4
:104220000A460021018C4FF6FF5319404FF6FF73E9
:1042300003EA02231943018470470A460021018CD6
:104240004FF2FF7319404FF6FF7303EA022319433D
:10425000018470470A460021018C4DF6FF73194016
:104260004FF6FF7303EA023319430184704730B5F8
:10427000002301248C40A3B2048C9C430484048C4E
:1042800002FA01F5ADB22C43048430BD30B50023F1
:1042900004248C40A3B2048C9C430484048C02FA52
:1042A00001F5ADB22C43048430BD70B50346002047
:1042B00000241846183001258D40ACB21D8CA54352
:1042C0001D8409B1082909D100EB6100056825F0BA
:1042D000700505600568154305600EE00D1FC5F308
:1042E0004E052844056825F4E045056005684FF64D
:1042F000FF7606EA02263543056070BD21B10288CB
:1043000042F00202028004E002884FF6FD731A4078
:104310000280704721B1028842F00402028004E06A
:1043200002884FF6FB731A400280704721B18288E1
:1043300042F08002828004E082884FF67F731A4048
:104340008280704702884FF6F7731A400280028815
:104350000A430280704782884FF68F731A4082802A
:1043600082880A438280704702894FF6F8731A40A8
:10437000028102890A430281704702894FF67F73E6
:104380001A40028102890A43028170478184704782
:1043900081857047818670470187704781877047A4
:1043A000A0F84010704702884FF6FF431A40028081
:1043B00002880A43028070470146888E7047014692
:1043C000088F70470146888F70470146B1F840005A
:1043D00070470146888C70470146088D7047024639
:1043E0000020138A0B400BB1012000E00020704731
:1043F000CA430282704730B50246002000230024E1
:10440000158A05EA0103958905EA010413B10CB187
:10441000012000E0002030BDCA4302827047000046
:1044200010B50446BE48844208D101218014FEF72D
:104430009BFE0021A014FEF797FE16E0B9488442C7
:1044400008D101210014FEF79CFE00212014FEF784
:1044500098FE0AE0B448844207D10121C013FEF758
:1044600090FE0021E013FEF78CFE10BD10B5002277
:10447000028802F441520B884C8823438C882343E2
:10448000CC8823430C8923434C8923438C892343C1
:10449000CC8923431A430280838B4FF2FF7423405D
:1044A00083830B8A038210BD2DE9F04F85B005464A
:1044B0000C464FF0000902274FF000084FF0010BA7
:1044C0000026B246A88B4FF240010840A883022084
:1044D0002884B5F81C90A068022801D100BF38E0FC
:1044E000A08810B94FF0010B01E04FF0020B8D488E
:1044F000854200D100E000BF6846FEF7AEFDDDF862
:1045000000A0E088B0F5007F0AD14FEA1A2000EB46
:1045100080004000A168B0FBF1F0401D86B20BE0C6
:104520004FEA4B10BAFBF0F000EB80004000A168AE
:10453000B0FBF1F0401D86B20A20B6FBF0F606F0A3
:104540000108A6EB0800C0F34F074FF6FF7000EA22
:104550000828022F01DBFF2F02DD02274FF00008A1
:10456000E08840EA080038432884A088A1890843ED
:10457000618808432188084340F4006040EA090943
:10458000A5F81C9005B0BDE8F08F002101804180A6
:104590008180C180018141818181C18107210182A6
:1045A00070470021018041808180C18002218160AB
:1045B00000218181704721B1028842F040020280CF
:1045C00004E002884FF6BF731A400280704721B1A1
:1045D000828B42F48062828304E0828B4FF6FF3349
:1045E0001A408283704730B5002400230C11012546
:1045F000A540ABB21AB185881D43858002E085884D
:104600009D43858030BD1AB183880B43838002E0CF
:1046100083888B43838070478181704701468889F6
:1046200070474FF6FF62914204D0028842F48072D4
:10463000028004E002884FF6FF631A400280704750
:1046400021B1828842F00402828004E082884FF621
:10465000FB731A408280704702884FF2FF731A4042
:10466000028002880A4302807047018841F4805129
:104670000180704721B1028842F40052028004E0B8
:1046800002884DF6FF731A400280704702460020F0
:10469000012901D0108B00E0908A70470146088AFA
:1046A0007047B1F5804F04D1028842F48042028005
:1046B00004E002884BF6FF731A40028070470246FE
:1046C000002013890B400BB1012000E0002070474F
:1046D000CA4302817047F0B502460020002400233F
:1046E000002501F00F070126BE40B4B20B110126D0
:1046F0009E40B3B2968806EA03051689264016B195
:104700000DB1012000E00020F0BD10B5002201F045
:104710000F040123A3409AB2D343038110BD0000CC
:104720000030014000380040003C004010B5044615
:10473000CC48844208D101210420FEF715FD002158
:104740000420FEF711FD46E0C748844208D101214C
:104750000820FEF709FD00210820FEF705FD3AE0DC
:10476000C248844208D101211020FEF7FDFC00213F
:104770001020FEF7F9FC2EE0BD48844208D101214B
:104780002020FEF7F1FC00212020FEF7EDFC22E0C6
:10479000B848844208D101214020FEF7E5FC002101
:1047A0004020FEF7E1FC16E0B348844208D1012125
:1047B0008020FEF7D9FC00218020FEF7D5FC0AE01E
:1047C000AE48844207D101218015FEF7CDFC0021BF
:1047D000A015FEF7C9FC10BD10B501210846FEF773
:1047E000C3FC00210120FEF7BFFC10BD2DE9F04104
:1047F000024600250026002000230024002791F80F
:1048000003C00CF00F0591F803C00CF0100CBCF1C4
:10481000000F03D091F802C04CEA050591F800C0E2
:10482000BCF1000F31D0146800202BE04FF0010CD8
:104830000CFA00F3B1F800C00CEA03069E4220D146
:1048400083004FF00F0C0CFA03F7BC4305FA03FC8E
:104850004CEA040491F803C0BCF1280F06D14FF0D4
:10486000010C0CFA00FCC2F814C00AE091F803C075
:10487000BCF1480F05D14FF0010C0CFA00FCC2F856
:1048800010C0401C0828D1D31460B1F800C0BCF19E
:10489000FF0F34DD546800202EE000F1080C4FF0CB
:1048A000010808FA0CF3B1F800C00CEA03069E42B6
:1048B00021D183004FF00F0C0CFA03F7BC4305FA2B
:1048C00003FC4CEA040491F803C0BCF1280F05D1A5
:1048D00000F1080C08FA0CF8C2F8148091F803C033
:1048E000BCF1480F07D100F1080C4FF0010808FA9D
:1048F0000CF8C2F81080401C0828CED35460BDE8E4
:10490000F0814FF6FF710180022181700421C17096
:1049100070470246002093680B400BB1012000E075
:10492000002070470146886880B270470246002028
:10493000D3680B400BB1012000E000207047014616
:10494000C86880B2704701617047416170470AB121
:10495000016100E041617047C16070474FF48032EF
:104960000A4382618161826182698269704702467D
:104970000020434B18684FF68073184040EA02103D
:1049800008433F4B186070473E49C8617047F0B517
:104990000A46002300240021002500F00046B6F15D
:1049A000004F02D1364EF16901E0354E7168C0F317
:1049B000034583B200F44016B6F5401F08D121F03C
:1049C00070612F4E766826F070662D4F7E6012E083
:1049D00000F48016B6F5801F06D1032606FA05F40A
:1049E000A14341F0706106E0460D360103FA06F678
:1049F000B14341F0706122B1460D360103FA06F66B
:104A0000314300F00046B6F1004F02D11C4EF16177
:104A100001E01B4E7160F0BD30B500228B071C0F0A
:104A20000F2303FA04F2164B08338C1053F824308A
:104A30009343134C08348D1044F8253023468C10D2
:104A400053F824308C07240F00FA04F423430C4C51
:104A500008348D1044F8253030BD0A49DC31086037
:104A60007047000000080140000C014000100140A8
:104A70000014014000180140001C014000200140CA
:104A8000000001400000204201460020FE4A10685C
:104A900000F03800084310607047FB49096821F0B6
:104AA0000801F94A11601146096801431160704715
:104AB000F549096821F01001F34A116011460968AF
:104AC000014311607047F148EF494860F048486081
:104AD0007047EE48EC494860ED4848607047EA4846
:104AE000006940F08000E84908617047E6480069C5
:104AF00040F08000E449086170470420E249C96839
:104B000001F0010109B101200EE0DF49C96801F09F
:104B1000040109B1022007E0DB49C96801F0100176
:104B200009B1032000E00420704700B502460423C9
:104B3000FFF7E3FF034603E0FFF7DFFF0346521EE4
:104B4000012B01D1002AF7D102B90523184600BD77
:104B500030B5044604254FF43020FFF7E6FF054644
:104B6000042D17D1C848006940F00200C649086109
:104B700008464461006940F0400008614FF430206D
:104B8000FFF7D3FF0546C048006941F6FD710840B4
:104B9000BD490861284630BD10B504244FF43020CB
:104BA000FFF7C3FF0446042C16D1B748006940F054
:104BB0000400B54908610846006940F040000861FA
:104BC0004FF43020FFF7B1FF0446AF48006941F6CB
:104BD000FB710840AC490861204610BD00B5024693
:104BE0000423FFF78AFF034603E0FFF786FF03462F
:104BF000521E012B01D1002AF7D102B90523184614
:104C000000BD10B504244FF43020FFF7E7FF044641
:104C1000042C16D19C48006940F004009A490861B0
:104C20000846006940F0400008614FF43020FFF76B
:104C3000D5FF04469448006941F6FB71084092494B
:104C40000861204610BD00208F49C96901F00201AA
:104C500009B1012000E00020704730B5A5250424EB
:104C6000FFF7F1FF00B100254FF43020FFF75DFFA3
:104C70000446042C3AD1854883498860844888607A
:104C80000846006940F0200008610846006940F0CD
:104C9000400008614FF43020FFF747FF0446042C22
:104CA0001BD17948006941F6DF71084076490861F7
:104CB0000846006940F01000086176480580E0026F
:104CC000FFF733FF0446052C10D06F48006941F60A
:104CD000EF7108406C49086108E0052C06D06A486D
:104CE000006941F6EF71084067490861204630BD10
:104CF00078B506460C46042500200090E802FFF730
:104D000014FF0546042D24D15F48006940F00100DE
:104D10005D4908613480E802FFF707FF0546042D6E
:104D200010D1B01C0090200C00990880E802FFF719
:104D3000FCFE05465448006941F6FE7108405249A0
:104D4000086106E05048006941F6FE7108404E498E
:104D50000861284678BD70B504460D460426F00269
:104D6000FFF7E3FE0646042E11D14748006940F0E4
:104D70000100454908612580F002FFF7D6FE06468E
:104D80004148006941F6FE7108403F4908613046DC
:104D900070BD70B505460E460424E002FFF7C5FE5F
:104DA0000446042C17D13948374988603848886050
:104DB0000846006940F0100008612E80E002FFF70D
:104DC000B4FE0446052C06D02F48006941F6EF7169
:104DD00008402D490861204670BD2DE9F043044686
:104DE0004FF6FF763746B046B1460425E443E6B2B7
:104DF000C4F30727C4F307484FEA1469E802FFF732
:104E000094FE0546042D49D120481F49886020485A
:104E100088600846006940F010000861FF2E06D047
:104E20001C4808300680E802FFF77FFE0546042D87
:104E300008D1FF2F06D017480A300780E802FFF795
:104E400074FE0546042D0AD1B8F1FF0F07D01148B2
:104E50000C30A0F80080E802FFF767FE0546042D3D
:104E60000AD1B9F1FF0F07D00A480E30A0F8009020
:104E7000E802FFF75AFE0546052D0FD002480069EB
:104E800041F6EF71084007E000200240230167452A
:104E9000AB89EFCD00F8FF1F664908612846BDE8E1
:104EA000F08330B5054604244FF43020FFF73DFE73
:104EB0000446042C41D160485E4988605F488860A0
:104EC0000846006940F0200008610846006940F08B
:104ED000400008614FF43020FFF727FE0446042C01
:104EE00022D15448006941F6DF71084051490861F8
:104EF0000846006940F0100008611DB100205049CB
:104F0000088002E0A5204E4908804FF43020FFF7CA
:104F10000CFE0446052C10D04648006941F6EF719E
:104F200008404449086108E0052C06D04148006962
:104F300041F6DF7108403F490861204630BDF0B5B9
:104F400005460E46174604243B483A4988603B48CC
:104F50008860E002FFF7E9FD0446042C19D13548CA
:104F6000006940F010003349086147F0F800304311
:104F700028433349891C0880E002FFF7D6FD044628
:104F8000052C06D02B48006941F6EF7108402949ED
:104F900008612046F0BD2748C06980087047254851
:104FA000006A704700202349096801F0200109B117
:104FB000012000E00020704729B11E4A1269024317
:104FC0001C4B1A6104E01B4A12698243194B1A6197
:104FD000704701460020012908D1164AD26902F023
:104FE00001020AB1012008E0002006E0114AD2685F
:104FF0000A400AB1012000E0002070470D49C86056
:10500000704704200B49C96801F0010109B1012072
:105010000EE00849C96801F0040109B1022007E067
:105020000449C96801F0100109B1032000E004201F
:10503000704700000020024023016745AB89EFCD97
:1050400000F8FF1F7047704710B5FFF7FCFFFFF730
:10505000F9FF10BD7047704710B5FFF7FCFFFFF771
:10506000F9FF10BD58B1017D19B1012900D105E04A
:1050700000BF012102780E4B995400BF00BF70475A
:1050800070B5002410E00A48005D58B100200849BE
:10509000085540F213106043064901EB800528468D
:1050A00000F01EFB601CC4B2032CECDB70BD0000E2
:1050B00094000020502000202DE9F04788B00446DD
:1050C0000D4616461F46DDE91089002C7ED065721C
:1050D000E66084F81080677484F8129001A8FEF7E7
:1050E00039F90196072F06D0082F03D10020ADF81B
:1050F000080001E000BF00BF00BFB8F1000F10D0F2
:10510000B8F1010F03D0B8F1020F0ED104E04FF453
:10511000C060ADF80C0009E04FF48060ADF80C0001
:1051200004E00020ADF80C0000E000BF00BFB9F1C2
:10513000010F03D0B9F1020F09D103E00020ADF84F
:105140000A0005E04FF40050ADF80A0000E000BF8F
:1051500000BF012D22D19648806940F00400944997
:1051600088619448006820F47F609249086008468E
:10517000006840F4966008608D48806940F4804083
:105180008B498861DFF830A225208DF81C000020B3
:105190008DF81D0003208DF81E0000E000BF00BF49
:1051A00005A8FEF7F4F80020ADF81400ADF81600DD
:1051B0004FF40070ADF818000020ADF81A0005A9F2
:1051C0005046FEF7D3F801A9504600E01BE0FEF779
:1051D00058F8012240F225515046FEF7EAF8012224
:1051E00040F226615046FEF7E4F801215046FEF7F2
:1051F000D4F84FF4A060FDF7EDFC01208DF81F00FE
:1052000007A8FDF7ECFC08B0BDE8F08770B56B4C63
:10521000607A01282ED120216748FEF799F90128EC
:1052200013D16548FEF72AF9C5B220216248FEF77E
:105230009CF9E06A401CE0622946204600F03BFAF7
:105240005F480078401C5E49087040215A48FEF7CC
:105250007FF901280ED1D4F83801401CC4F8380178
:10526000204600F046FA0020554908704021524877
:10527000FEF77BF970BD10B5FFF7C8FF10BD70B524
:1052800004460D46607A012804D129464A48FEF7B3
:10529000F1F800E000BF00BF70BD10B50446607AB1
:1052A000012806D1012240F226614348FEF781F829
:1052B00000BF00BF10BD10B50446607A012806D1BA
:1052C000012240F225513C48FEF773F800BF00BFB1
:1052D00010BD10B50446607A012806D1002240F2C4
:1052E00026613548FEF765F800E000BF00BF10BD3D
:1052F00010B50446607A012806D1002240F22551FB
:105300002D48FEF756F800E000BF00BF10BD1FB5E6
:1053100001210420FDF71BFF2A480088ADF8080092
:105320004820ADF804000020ADF80A00ADF80600F2
:1053300001A92548FEF73AFA01212348FEF792FE1B
:105340004FF4A060FDF746FC1E208DF800000320FE
:105350008DF801008DF8020001208DF803006846E9
:10536000FDF73DFC01211848FFF756F801221146D0
:105370001548FEF792FD01211348FEF773FD1FBD8E
:10538000704710B511480068401C1049086000F0D3
:10539000E7FA10BD10B501210B48FFF72CF828B132
:1053A00001210948FFF738F8FFF7EBFF10BD0000B7
:1053B0000010024004080140003801405020002045
:1053C00097000020A000002000080040A40000205A
:1053D00002464FF47A600880002070474FF47A63E9
:1053E0001380704702464FF47A60088000207047AF
:1053F0000246D2B240F261239A4206DC00230B80BF
:10540000324B1B6833F8120003E04FF47A630B80D1
:105410000020704702464FF47A60088000207047F1
:105420000246D2B240F261239A4206DC00230B808E
:10543000274B1B6833F8120003E04FF47A630B80AC
:105440000020704702464FF47A60088000207047C1
:1054500010B5C0B240F26223984223DA00231380D1
:105460001B4B1B6823F81010A0F13003122B14D231
:10547000DFE803F0090A0B130C0D0E0F10131313C2
:105480001313131311120CE00BE00AE009E008E01B
:1054900007E006E005E004E003E04FF47A631380E0
:1054A00000BF02E04FF47A63138010BD4FF47A63BB
:1054B0001380704730B50546039C0020208030BD26
:1054C00070B5DDE904540026268070BD9C000020E4
:1054D0009800002070B50646FD490E80FD4C002561
:1054E00018E0257001202072002020750120E07452
:1054F0000020208604F138006063012060700020E5
:10550000606001202077204600F0E0FD04F24C446A
:10551000681CC5B2032DE4DB0020EF490870FFF7DB
:1055200093FDFFF7F4FE70BD10B5FFF729FFFFF7FD
:1055300093FD10BD00B14172704700B141707047DA
:10554000B8B129B1012902D10123037503E000BFDD
:105550000023037500BF00BF22B1012A05D101233A
:10556000C37405E00023C37402E00023C37400BFCA
:1055700000BF704700B10172704700B1816270478F
:105580002DE9FC5F06468A4617469846DDE90CB9C8
:10559000D1480078032842DACF48007840F213114E
:1055A0004843CC4901EB800439462046FFF7E5FF2C
:1055B00031462046FFF7DEFF424651462046FFF7C0
:1055C000BFFF20461199FFF7B8FF59462046FFF765
:1055D000B1FFDDE90F01CDE900014A4659462046F9
:1055E0000E9BFFF769FD207D012801D10020207767
:1055F000B748008800EB800000EB80004000B0FB63
:10560000F9F085B2012D00DC022525836583B248BF
:105610000078401CB04908702046BDE8FC9F00207F
:10562000FBE7018B4183704700B502460B461046ED
:10563000FFF7F7FF107D012800D11077108EFF28AB
:1056400009DAD06A401CD062516B481C50630B7061
:10565000108E401C108600BD2DE9F04104460D4619
:10566000E06A401CE0623A2D04D104F13800606326
:1056700000202086208EFF2806DA616B481C6063BC
:105680000D70208E401C20860A2D12D104F139079E
:10569000384600F0A7F90646207AB04200D01EB97D
:1056A0002046FFF7DFFC04E004F1380060630020CF
:1056B0002086BDE8F08170B504460D46E07C38B127
:1056C00001280AD105F07F012046FFF7C5FF05E05C
:1056D00029462046FFF7A8FF00E000BF00BF70BDCD
:1056E00010B5044624B1207D10B9204602F00EFA10
:1056F00010BD70B50446B4F83C01002818DD04F56F
:105700009C74A088401EA0802068401C2060A16876
:10571000481CA060A4F59C740D7829462046FFF72C
:10572000AEFD207D01280DD100202077208609E0E4
:1057300004F5A270C4F840012046FFF7CAFD2046D8
:10574000FFF7B9FD70BD10B5044604F5A270C4F8AA
:1057500040012046FFF7CDFF2046FFF7C9FD204658
:10576000FFF79BFD10BD2DE9F041044604F138061A
:10577000258E04F2432705F0010078B30B2D2EDDB2
:1057800030783A282BD1A81E305C0D2827D1681E0E
:10579000305C0A2823D1E81E85B2761C0020A4F8CC
:1057A00042030CE0304600F01DF907F8010BB61C6F
:1057B000A81E85B2B4F84203401CA4F84203022D8F
:1057C000F0DCB4F84203801EA4F84203304600F037
:1057D00009F9A4F844030120BDE8F081FFE70020A7
:1057E000FAE72DE9F047054605F5527605F5A2746E
:1057F0003A2004F8010B16F8010B214600F0D6F808
:10580000044616F8010B214600F0D0F8044605279F
:1058100095F848940BE016F8010B214600F0C6F805
:105820000446B81C87B2A9F101001FFA80F9B9F14A
:10583000000FF0DC3946284600F019F98046214671
:10584000404600F0B3F804460D2004F8010B0A208E
:1058500004F8010B381D87B2A5F84A84A5F83C71FD
:105860002846FFF770FFBDE8F08730B5024602F129
:105870003801148E042C33DBFF2C2FDC02F243237F
:1058800011F8010B03F8010B601E84B211F8010B33
:1058900003F8010B601E84B20020A2F842030AE064
:1058A00011F8010B03F8010BB2F84203401CA2F8F7
:1058B0004203601E84B2022CF2DC11F8015B08780E
:1058C00005EB002085B2A2F84453012030BD000052
:1058D000A000002050200020A80000200020F5E7B4
:1058E0000020F3E72DE9F0470446002704F5A275F0
:1058F00004F5527894F84804801C00F0FF0909E090
:1059000018F8010B05F8010B781C87B2A9F101000A
:1059100000F0FF09B9F1000FF2DC204600F0E9F8D1
:10592000064605F8016B30122870B81C87B2A4F83F
:105930004A64A4F83C712046FFF705FFBDE8F087F4
:1059400000B5194A002308E0D07C10B91046FFF7D3
:1059500068FE02F24C42581CC3B2032BF4DB00BDBC
:1059600070B5114C00251BE0E07CA8B9207F012810
:1059700010D1608B00280FDD608B401E6083608B30
:1059800050B9207D012801D1002020772046FFF763
:1059900069FB01E0208B608304F24C44681CC5B2B3
:1059A000032DE1DB70BD00005020002003461A09E2
:1059B000092A04DC02F1300001F8010B03E002F1D6
:1059C000370001F8010B03F00F02092A04DC02F191
:1059D000300001F8010B03E002F1370001F8010B80
:1059E0000846704710B5034619785B1C1A783929A8
:1059F00003DCA1F13004E0B208E0462903DCA1F1A8
:105A00003704E0B202E0A1F15704E0B20407200E2F
:105A1000392A04DCA2F130040444E0B20AE0462A48
:105A200004DCA2F137040444E0B203E0A2F157041D
:105A30000444E0B210BDF0B50446218E481F00EBCF
:105A4000D071C1F34F0704F13906002505E0304657
:105A5000FFF7C8FF2844C5B2B61C381EA7F10101E4
:105A60008FB2F4DCE843401CC5B22846F0BD2DE9F6
:105A7000F04105460E46701E00EBD071C1F34F0891
:105A800005F24517002405E03846FFF7ABFF204438
:105A9000C4B2BF1CB8F10000A8F101011FFA81F8DF
:105AA000F2DCE043401CC4B22046BDE8F081F0B512
:105AB000014601F24325B1F84263B61CB4B24FF679
:105AC000FF7011E0661EB4B215F8016B7040082239
:105AD00000BF00F00103401013B14AF2010670400C
