:020000040800F2
:104000000835002045410008956D000895510008CD
:10401000C16C000885490008097400080000000010
:10402000000000000000000000000000896F000890
:10403000D14C000800000000976D0008D56F000803
:104040005F4100085F4100085F4100085F410008D0
:104050005F4100085F4100085F4100085F410008C0
:104060005F4100085F4100085F4100085F410008B0
:104070005F4100085F410008B14B00085F41000844
:104080005F4100085F4100085F4100085F41000890
:104090005F4100085F4100085F4100085F41000880
:1040A0005F4100085F4100085F4100085F41000870
:1040B0005F4100085F410008A97000085F410008E7
:1040C0005F4100085F4100085F4100085F41000850
:1040D0005F410008FD7000085F4100085F41000873
:1040E0005F4100085F4100085F4100085F41000830
:1040F0005F4100085F4100085F4100085F41000820
:104100005F4100085F4100085F4100085F4100080F
:104110005F4100085F4100085F4100085F410008FF
:104120005F4100085F4100085F4100085F410008EF
:10413000DFF80CD000F0F8FB0048004797D60008E5
:10414000083500200648804706480047FEE7FEE79E
:10415000FEE7FEE7FEE7FEE7FEE7FEE7FEE7FEE737
:10416000457000083141000840EA01039B0703D075
:1041700009E008C9121F08C0042AFAD203E011F8A6
:10418000013B00F8013B521EF9D27047D2B201E068
:1041900000F8012B491EFBD270470022F6E710B54C
:1041A00013460A4604461946FFF7F0FF204610BDA5
:1041B000421C10F8011B0029FBD1801A7047F0B493
:1041C00080EA0102D40F4200B2EB410F02D2024654
:1041D000084611464A0042D0C30DDDB2C1F3C752B2
:1041E000AD1A202D35DAC1F3160141F4000204B1F5
:1041F0005242C5F1200602FA06F12A411044B3EBFF
:10420000D05F23D0C4B1012DA0EBC35009DCF0BCBA
:104210004FF0004202EAC352DBB200F5000000F0AA
:10422000E0BA400000F1807000EBC350A0F1807054
:1042300040EAD170490009E0490841EAC071A0EBA9
:10424000C35000F50000400800EBC350F0BC00F084
:10425000BFBA6142012202EB4101001BF6E7F0BC4C
:10426000704781F00041AAE780F00040A7E780EAAC
:10427000010210B502F00043400022D04A001FD0D6
:10428000010E01EB1261C0F35600C2F3560240F476
:10429000000042F40002A0FB022000047F39140455
:1042A00000D0401C50EA124001D44000491EC2B266
:1042B0000C0604EBD010401C4008802A02D003E01A
:1042C000002010BD20F00100002900DA0020184372
:1042D00010BD30B480EA010202F0004530F0004227
:1042E00021F0004013D090B1C30DD40DC2F31601DC
:1042F000C0F31600E41A41F4000140F400027D34DA
:10430000914201D3641C00E04900002C02DA30BC69
:10431000002070474FF400000023914201D3891A16
:10432000034340084FEA4101F7D151B1914202D114
:104330004FF0004105E002D24FF0010101E06FF0C3
:10434000010103EBC450284430BC00F041BA2DE910
:10435000FE4F804681EA0300C00F0C46009021F01A
:10436000004123F00045B8EB0200A94105D24046C8
:10437000214690461C460B46024623F0004010435F
:1043800047D0270DC7F30A00C3F30A510290401A21
:10439000019040286BDAC3F3130040F4801B0098AF
:1043A000924620B10023D2EB030A63EB0B0B01987A
:1043B0005946C0F14002504600F0D9F906460D4674
:1043C00050465946019A00F0F1F910EB080061419E
:1043D000002487EA115284EAE7731A4340D0009A16
:1043E00062B3019A012A4FEA075215DC001B61EB08
:1043F00002014FF0004202EA0752CDE90042001CE0
:1044000041F5801132462B4600F028FA03B0BDE892
:10441000F08F40462146F9E7001B61EB0201001CCA
:1044200041F5801300185B412018A2F5001747EBF7
:10443000030140EAD570B6196D4111E06D084FEAED
:10444000360645EAC0754FEA0752001B61EB0201D0
:10445000001C41F5801149084FEA30000019514114
:1044600032462B4603B0BDE8F04F00F0E8B90098A3
:10447000012240000023D0EB020263EBE0730098BE
:1044800021464FEAE074B8EB000061EB0401E9E774
:1044900083F000435BE781F0004158E72DE9FE4FD0
:1044A00081EA030404F0004421F0004100944FF03D
:1044B000000B23F0004350EA01045ED052EA0304EB
:1044C0005BD0C3F30A54C1F30A552C44A4F2F3346D
:1044D0000194A0FB0254C1F3130141F48011C3F312
:1044E000130343F4801301FB024400FB034E840AD0
:1044F000970A44EA815447EA8357A4FB0768029568
:104500008D0A05FB07854FEA932C04FB0C54270505
:10451000029D4FEA065847EA1637B5EB08056EEBE1
:10452000070C870E920E47EA811742EA8312A7FB17
:104530000201B6EB0B0164EB00042B0D43EA0C33D4
:104540005E1844EB1C50DA465146E7FB0201C5F306
:1045500013044FEA0B3343EA14534FEA0432019C2D
:1045600043EA0603A4F10C040294009CCDE900B4D4
:1045700000F074F903B0BDE8F08F00200146F9E7C0
:104580002DE9F04D81EA030404F0004B21F00045D1
:1045900014464FF0000A23F0004150EA050220D0F3
:1045A00054EA01021DD0C5F30A570246C5F31303AE
:1045B000C1F31300C1F30A5640F4801543F480138D
:1045C000A7EB0608101BD64608F2FD3873EB050072
:1045D00002D308F1010801E092185B41B8F1000F25
:1045E00003DA00200146BDE8F08D00204FF4801171
:1045F000064684460EE0171B73EB050705D3121B16
:1046000063EB050306434CEA010C49084FEA30000E
:1046100092185B4150EA0107EDD152EA030012D033
:1046200082EA040083EA0501084305D0101BAB4170
:1046300006D20122002306E000224FF0004302E0F0
:104640006FF0010253101AEB06004CEB085110EB0F
:104650000A0041EB0B01BDE8F04D00F0F0B8C10FCE
:1046600080EAE0700844CA079623002100F0B9B838
:1046700096230022114600F0B4B80EB5C10F80EAAF
:10468000E0700844CA07002140F233438DE80E0071
:104690000A460B4600F0E2F803B000BD0EB540F24A
:1046A000334102910021CDE900110A460B4600F08A
:1046B000D5F803B000BD20F00040C10DC0F31600D6
:1046C00040F400007F2901DA00207047962903DCBE
:1046D000C1F19601C8407047963988407047C1F3D0
:1046E0000A5210B5C1F3130140F2FF3341F48011B7
:1046F0009A4201DA002010BD40F233439A42A2F2FE
:10470000334203DC524200F041F810BD904010BD2E
:1047100000F0004230F000400AD0C10D01F5607198
:10472000C0F3160042EA0151C20840071143704726
:1047300000200146704701F0004330B421F00041F1
:1047400050EA010206D00A0DA2F56072C1F313010E
:10475000002A02DC30BC00207047440F44EAC10448
:10476000C100E01830BC00EBC25000F031B8202A84
:1047700004DB203A00FA02F1002070479140C2F1B8
:10478000200320FA03F3194390407047202A04DBEA
:10479000203A21FA02F00021704721FA02F3D040BA
:1047A000C2F120029140084319467047202A06DBD7
:1047B000CB17203A41FA02F043EAE07306E041FAEF
:1047C00002F3D040C2F120029140084319467047DD
:1047D0000029A8BF7047401C490008BF20F0010015
:1047E000704710B4B0FA80FC00FA0CF050EA0104F3
:1047F00004BF10BC704749B1CCF1200421FA04F485
:1048000011FA0CF118BF012121430843A3EB0C015D
:10481000CB1D4FEA00614FEA102042BF002010BCC0
:10482000704700EBC35010440029A4BF10BC704770
:10483000401C490008BF20F0010010BC704710B5B3
:10484000141E73F1000408DA401C41F100019218B3
:104850005B411A4301D120F0010010BD2DE9F04D5C
:1048600092469B4611B1B1FA81F202E0B0FA80F2B1
:1048700020329046FFF77BFF04460F4640EA0A00CD
:1048800041EA0B0153465A46084313D0114653EAF6
:10489000010019D0C8F140025046FFF777FF0546E6
:1048A0000E46504659464246FFF761FF084305D081
:1048B000012004E020463946BDE8F08D0020054384
:1048C00046EAE0762C4337430A986305E40AA0EBF6
:1048D00008000022FD0A44EA47540A3002D50020AD
:1048E0000146E9E7010510196941DDE908450019AC
:1048F0006941BDE8F04DA2E770B521F000430343E4
:104900000CD0C1F30A550024D5EB040564EB040375
:10491000D617AD1AB34102DB0020014670BD201846
:1049200041EB025170BD0000064C074D06E0E06807
:1049300040F0010394E8070098471034AC42F6D3E6
:10494000FFF7FAFBA8E30008C8E3000810B50A481F
:10495000048840F6FF70844205DA0748008800F0BA
:1049600065FB064908800548008802F0C7FF044936
:104970000880012010BD0000C8000020CA000020EF
:10498000CC00002000BFFEE703460BB900207047B3
:1049900022B1081203F8010B197003E003F8011BA0
:1049A000081218700120F2E710B5034603B109B9E7
:1049B000002010BDAAB111F8014B2006186011F8B3
:1049C000014B186840EA0440186011F8014B186860
:1049D00040EA0420186011F8010B1C68204318609D
:1049E00014E011F8010B186011F8014B186840EA47
:1049F0000420186011F8014B186840EA0440186060
:104A000011F8014B186840EA046018600120D0E7F3
:104A10002DE9F8470546884615B1B8F1030F02DACB
:104A20000020BDE8F887A8F1030084B2204604EB1B
:104A3000D0714910A4EB410109B10020F1E72046F3
:104A400004EBD071C1F34F042F462E466D1C4FF07E
:104A5000000920E015F8011B684600F02CF828B189
:104A60009DF8000000074FEA106A01E00020D8E737
:104A700015F8011B684600F01EF820B19DF80000F3
:104A80004AEA000A01E00020CBE707F801AB09F190
:104A900001001FFA80F9A145DCDB601E84B22146CB
:104AA000304600F074F88246305D504501D0002059
:104AB000B7E70120B5E702460AB900207047302960
:104AC00005DB392903DCA1F13000107011E0412928
:104AD00005DB462903DCA1F13700107009E06129EC
:104AE00005DB662903DCA1F15700107001E000200E
:104AF000E4E70120E2E72DE9F047ADF5167D064633
:104B00000D466C462EB125B14FF41670B0EB450F33
:104B100004DA00200DF5167DBDE8F087B1464FF4AC
:104B200016712046FFF739FB05F0FF0A20E099F8DF
:104B300000004FEA201899F8000000F00F0709F173
:104B40000109B8F1090F04DC08F1300004F8010B89
:104B500003E008F1370004F8010B092F04DC07F12A
:104B6000300004F8010B03E007F1370004F8010BF3
:104B7000BAF10000AAF1010101F0FF0AD7D1761CB9
:104B80006A0069463046FFF7EFFA0120C2E710B528
:104B900002460B46002103E012F8014B6018C1B237
:104BA000181EA3F10104A3B2F6D14842C0B210BD51
:104BB00010B502220321094808F0C3FA012804D1E4
:104BC00001220321054808F0B4FA0121044809F044
:104BD00069FA034809F0E1F910BD00000000024045
:104BE0000008004010B588B00446002211460E208F
:104BF00008F062FD4FF4A06008F026FF0321324860
:104C000008F096F901A808F003FB01208DF81E00BA
:104C1000A068039001208DF81D00002004900590ED
:104C20002A48019000208DF81C0002904FF440505B
:104C3000069001AA0321244808F0B2F90421224871
:104C400008F076F901A808F0E3FA00208DF81E00BC
:104C50002068039001208DF81D0000200490A0889A
:104C600005901A48019000208DF81C0004904FF424
:104C70004050069001AA0421134808F091F903213D
:104C8000114808F0B3F803210F4808F09BFA0421FB
:104C90000D4808F0C4F804210B4808F093FA0222EA
:104CA0000321094808F02CFA02220421064808F0E2
:104CB0000EFA80210548001F09F065FA0421024818
:104CC00008F07BF808B010BD000002400438014035
:104CD000704700000146886908B1486908B900209A
:104CE0007047486808B1C86808B90020F8E7088923
:104CF00008B1088A08B90020F2E70B4A486810603A
:104D00000889908048699060084AC8681060088ADD
:104D10005060886990600878054A10704878507033
:104D2000887890700120DBE7F8040020040500205B
:104D30003C00002070B506460C461546002306E0F0
:104D4000304600F007F8E054761C581C83B2AB42A2
:104D5000F6DB70BD01460878704701460868704769
:104D60002DE9FC5F05460E461746304801900020AD
:104D700000908146A80A4FEA802AC5F30900C0F5D1
:104D80008068474506D905EB08000090A7EB0800AE
:104D90001FFA80F94FF4806250460199FFF7CAFF6D
:104DA000002407E0315D2819C0F3090201988154FD
:104DB000601C84B2A7EB0900A042F3DC08F0A0FB62
:104DC00040F2053008F0B6FA4FF4417008F0B2FA3C
:104DD00040F2023008F0AEFA504608F01BFB002407
:104DE0000CE0A34604EBDB725210104B33F81210A8
:104DF0000AEB040008F0AEFAA01C84B2B4F5806F90
:104E0000EFD328783178884202D00020BDE8FC9F9B
:104E1000B9F1000F08D006EB08014A460098FFF7E9
:104E20009FFF0020009081460120EFE7F80000205E
:104E300013B50446012201A92046FFF791FF1CBDCE
:104E40002DE9F84305460C46260EC4F30747C4F384
:104E5000072804F0FF098DF800908DF801808DF887
:104E600002708DF80360042269462846FFF778FF38
:104E7000BDE8F88310B54FF4106008F065FD00BF81
:104E80004FF4106008F070FD0128F9D1062140F6BA
:104E9000C41008F057FB08F091FB10BD70B517481F
:104EA00000684FF47A72B0FBF2F1481EB0F1807FD7
:104EB00001D301201BE0481E4FF0E0225061501743
:104EC0000F22002807DA13071D0E0D4B00F00F0408
:104ED000241F1D5503E013071C0E0A4B1C5400BF72
:104EE00000204FF0E022906107201061002008B1FF
:104EF00000BFFEE700F012F870BD000000000020C7
:104F000018ED00E000E400E00349086000BF02493A
:104F100009680029FBD17047C400002000201FE071
:104F2000002100EB8002104B03EB8202516000EB8A
:104F3000800203EB8202916000EB800203EB8202AD
:104F4000517000EB800203F8221000EB800203EBAB
:104F50008202116100EB800203EB8202D160401CEF
:104F60000628DDD3704700008C13002010B5002404
:104F70002CE004EB8400174901EB8000407820B35B
:104F8000002004EB8401134A02EB8101487004EB1A
:104F90008402104B03EB8202D06804EB840203EB23
:104FA00082021169884780B104EB8400094901EB52
:104FB0008000406804EB8401064A02EB81018860AE
:104FC000012004EB840102F82100641C062CD0D3DC
:104FD00010BD00008C13002070B5062801DA01B165
:104FE00003B970BD002400EB80050F4E06F8254084
:104FF00000EB8004354605EB8404216100EB80045E
:1050000005EB8404E26000EB800405EB840463603C
:1050100000EB800405EB8404A360012400EB800511
:1050200006F8254000BFDCE78C1300202DE9F04F87
:105030008DB082464FF000090024A346302101A81C
:10504000FFF7ABF84D4800780E2802DB00204B49F3
:1050500008704B4800780D2828DA0020494908607C
:1050600047480078401C464908704748434909783A
:1050700040F821A04FF000090BE04846411C01F028
:10508000FF09414951F820003E49096808443D495B
:1050900008603A4800788145EFDD38480078401CC8
:1050A0003649087050460DB0BDE8F08F3648334998
:1050B000097840F821A0314804780078401C2F4935
:1050C00008704FF000090EE02F4850F8240001A9A5
:1050D00041F82900002C00DC0E24601EC4B209F146
:1050E000010000F0FF09B9F10C0FEDDB4FF00009F2
:1050F00020E0002416E001A850F8241001AA601C4A
:1051000052F8200081420BD901A850F824B001A91F
:10511000601C51F8200041F82400601C41F820B0C8
:10512000601CC4B2C9F10C00A042E4DC09F101002A
:1051300000F0FF09B9F10C0FDBDB0020114908601A
:10514000DDE90501084407990844089908440D4918
:10515000096808440B49086008460068FFF79EFA92
:1051600007460022094BFFF70BFA0546FFF7B7FA8F
:10517000074908800846008895E70000D60000200F
:10518000D7000020D00000200414002000001040B0
:10519000D400002000BFFEE70246117809025078D3
:1051A00001440902907801440902D078014408467C
:1051B000704700002DE9F05F6E4800786E4909687D
:1051C000087004206C490968487020206A49096801
:1051D00088706A48B0F824B04FF0040A0DE0AAF1D4
:1051E0000100C0002BFA00F063490968CAF1070208
:1051F0008854AAF1010000F0FF0ABAF1000FEEDCBA
:105200005E49886AFFF784FA80464FF066325C4B4D
:10521000FFF79DF8064600225A4BFFF73FF9044678
:10522000FFF75DFA83464FF0040A0DE0AAF1010092
:10523000C0002BFA00F050490968CAF10B028854EB
:10524000AAF1010000F0FF0ABAF1000FEEDC4B49B1
:10525000C86AFFF730FA83464FF0040A0DE0AAF15E
:105260000100C0002BFA00F043490968CAF10F029F
:105270008854AAF1010000F0FF0ABAF1000FEEDC39
:105280004148B0F860B04FF0040A0DE0AAF1010007
:10529000C0002BFA00F038490968CAF1130288549B
:1052A000AAF1010000F0FF0ABAF1000FEEDC364867
:1052B000B0F862B04FF0040A0DE0AAF10100C0009E
:1052C0002BFA00F02C490968CAF117028854AAF198
:1052D000010000F0FF0ABAF1000FEEDC2748D0F819
:1052E0001CB04FF0040A0DE0AAF10100C0002BFA37
:1052F00000F021490968CAF11B028854AAF1010093
:1053000000F0FF0ABAF1000FEEDC1C48B0F826B03E
:105310004FF0040A0DE0AAF10100C0002BFA00F0E2
:1053200015490968CAF11F028854AAF1010000F06A
:10533000FF0ABAF1000FEEDC23200F49C8804FF0BE
:10534000040A0DE0AAF10100C0002BFA00F00A499E
:105350000968CAF123028854AAF1010000F0FF0A8B
:10536000BAF1000FEEDC044AD188106801F0AAFA05
:10537000BDE8F09F3C000020F8040020E80F00206A
:105380006612714000002440540F00202DE9F05FA8
:105390009048006841798F480068007901EB00204F
:1053A00087B28C48006890F802A08A480068C578E7
:1053B00000208949C88087480068007810B1874874
:1053C000007800E000208449CA88C988491C824BC3
:1053D000D98019460968885403211846C288C088B4
:1053E000401CD8801846006881547806010E184683
:1053F000C288C088401CD8801846006881540026A6
:10540000802D03D101F0C8FCBDE8F09F4FF00008EB
:10541000C9E0A5F1300044286FD2DFE800F0222770
:105420002B2F32363A3E4A5659A8A85CA85F6265CF
:10543000686B6F7275787B7E8184878A8D9093A864
:10544000A8A8A8A8A8A8A8A8A8A8A8A8A8A899A8EB
:10545000A8A8A8A8A8A8A8A8A8A8A8A8A8A89C9FE1
:10546000A2A501265D4890F8009083E05B4890F883
:1054700001907FE0594890F802907BE04FF00009DE
:1054800078E0574890F8459074E0564890F80090BE
:1054900070E0534890F844906CE05249D1F85C03B6
:1054A0005149FEF7E4FE8346FFF705F91FFA80F93C
:1054B00060E04C49D1F860034B49FEF7D8FE8346C3
:1054C000FFF7F9F81FFA80F954E04FF0000951E0B6
:1054D0004FF000094EE04FF001094BE04FF000099A
:1054E00048E04FF0000945E04FF0000942E04FF07E
:1054F00000093FE04FF000093CE038E04FF00009C0
:1055000038E04FF0000935E04FF0000932E04FF08D
:1055100000092FE04FF000092CE04FF0000929E0CE
:105520004FF0000926E04FF0000923E04FF000099A
:1055300020E04FF000091DE04FF000091AE04FF0A5
:10554000000917E02948FFF708FC1FFA80F911E06D
:105550004FF000090EE04FF000090BE04FF000099A
:1055600008E04FF0000905E04FF0000902E04FF0BD
:10557000000900BF00BF02240FE0601EC00049FA0E
:1055800000F0C1B21448C288C088401C124BD880B9
:10559000184600688154601EC4B2002CEDDC681C03
:1055A000C5B208F10108B845FFF633AF012E0AD1A4
:1055B000094800688078022805D1074AD188106818
:1055C00001F080F904E0044AD188106801F07AF90A
:1055D00000BF19E704050020F80400203C0000206B
:1055E000540F0020281000200000C842443000085A
:1055F0002DE9F047674800684179664800680079FE
:1056000001EB002086B26348006890F80290614880
:105610000068C47800206049C8805E48006800784F
:1056200010B15E48007800E000205B49CA88C98854
:10563000491C594BD98019460968885404221846D8
:10564000C188C088401CD880184600684254700643
:10565000010E1846C288C088401CD88018460068D1
:1056600081541A2C0DDCA0191C280ADC4EB106F05E
:10567000010030B904F0010018B9484800784845E5
:1056800004D0022001F0FCF8BDE8F0874FF00008DC
:1056900076E01B2C5AD2DFE804F00E59105912594B
:1056A00018591A595359555957591D5925592D5992
:1056B00035593F594900002549E0002547E0384861
:1056C000008800EB8000450041E000253FE03548C0
:1056D00005883CE0344903C9FFF701F800EB80007E
:1056E000450034E0314903C9FEF7F9FF00EB8000C3
:1056F00045002CE02E4903C9FEF7F1FF00EB8000C6
:10570000450024E02B492C480068FEF7B0FD824696
:10571000FEF7D1FF05461AE0264928480068FEF743
:10572000A6FD8246FEF7C7FF054610E02149244842
:105730000068FEF79CFD8246FEF7BDFF054606E0C9
:10574000002504E0002502E0002500E000BF00BFC6
:1057500004270FE0781EC00025FA00F0C1B20E4801
:10576000C288C088401C0C4BD88018460068815401
:10577000781EC7B2002FEDDCA01CC4B208F10208ED
:10578000B04586DB044AD188106801F09BF800BF61
:105790007AE7000004050020F80400203C00002007
:1057A000CC000020CA0000207000002078000020FB
:1057B00080000020000020416000002064000020E4
:1057C0006800002070B53A4800688578384800685D
:1057D000C47800203749C88035480068007810B187
:1057E0003548007800E000203249CA88C988491C41
:1057F000304BD98019460968885405211846C2885B
:10580000C088401CD880184600688154502C05DBA5
:10581000532C03DC28480078A84203D0022001F072
:105820002FF870BD224800680079FF2803D1204876
:105830000068407958B11E480068007918B91C48C2
:105840000068407918B1032001F01AF8E9E7502CFC
:1058500006D0512C1FD0522C1ED0532C1ED11CE030
:1058600013480068007940B911480068407920B9B0
:105870001248808A124908800CE00D4800680079BF
:10588000FF2807D10A480068407918B90B484069D9
:105890000B49486003E002E001E000E000BF00BF08
:1058A00004490868062101F00DF800BFB9E70000BF
:1058B00004050020F80400203C000020E80F002030
:1058C000540F00202DE9F04786B000270024F84847
:1058D00000684179F6480068007901EB002086B243
:1058E000F348006890F80280F1480068C57800200D
:1058F000F049C880EE480068007810B1EE480078A2
:1059000000E00020EB49CA88C988491CE94BD980CE
:1059100019460968885410211846C288C088401C5E
:10592000D8801846006881547006010E1846C28857
:10593000C088401CD880184600688154302D04DB94
:10594000542D02DCA819552808DD802D06D0702DB5
:1059500012DB732D10DCA81974280DDC66B1D44855
:1059600000688079B0EB460F06D1D34800784045F7
:1059700008D0B8F1000F05D0022000F081FF06B07A
:10598000BDE8F087802D02D106F000FEF7E7342D48
:1059900079D01C2EFCD04FF0000AA6E1C448016863
:1059A00004F10800095CC2480268E01D105C01EBCC
:1059B00000201FFA80F9A5F13000442873D2DFE8F7
:1059C00000F0222F50727391A9F7F5F4F3F2F1F081
:1059D000EFEEEDECEBEAE9E8E7E6E5E4E3E2E1E04F
:1059E000DFDEDD7272727272727272727272727253
:1059F0007272DC727272727272727272727272721D
:105A00007272DBDAD9D8AA48016804F10800085C90
:105A1000A949087001231A46022001F003FD5DE147
:105A2000A348016804F10800085C012806DBA048CF
:105A3000016804F10800085C072803DD03209E4983
:105A4000487006E09A48016804F10800085C9A4929
:105A5000487001231A469849491C032001F0E2FCD2
:105A60003CE19348016804F10800085C012806DB6A
:105A70008F48016804F10800085C032804DD032056
:105A80008D49887007E033E18948016804F1080016
:105A9000085C8949887001231A468749891C0420BB
:105AA00001F0C0FC1AE118E18148016804F1080026
:105AB000085C00280EDD7E48016804F10800085CDF
:105AC000032807DA7A48016804F10800085C7B497A
:105AD00081F845000023012278494531102001F06A
:105AE000A1FCFBE07248016804F10800085C002892
:105AF00009DD6F48016804F10800085C704908700E
:105B0000087801F043FA002301226D49062001F0D4
:105B100089FCE3E06648016804F10800085C674915
:105B200081F84400084690F84400012804DB084648
:105B300090F84400042803DD0120604981F8440006
:105B40005E4890F8440001280BDD5C4890F8440062
:105B50004FF47A7100FB01F300225A490320FFF74A
:105B60003BFA0023012255494431072001F05AFC39
:105B7000B4E0B1E0AFE0ADE0ABE0A9E081E07DE012
:105B800079E075E071E06DE069E065E063E061E0B7
:105B90005FE05DE05BE059E057E055E053E051E045
:105BA0004DE04BE047E043E03FE03BE01DE0FFE736
:105BB0004846FEF773FD0022434BCDE90001FEF796
:105BC000DFFCCDE90201FEF7B6FD3D49C1F85C03FB
:105BD0000422D1F85C0304A907F049FB0023042246
:105BE00004A9082001F01EFC78E04846FEF756FDA7
:105BF0000022354BCDE90001FEF7C2FCCDE90201E0
:105C0000FEF799FD2E49C1F860030422D1F8600324
:105C100004A907F02CFB0023042204A90C2001F0A6
:105C200001FC5BE0A01C84B258E0A01C84B255E0EB
:105C3000A01C84B252E0A01C84B24FE04EE0A01C35
:105C400084B24BE04AE049E048E047E046E045E006
:105C500044E043E042E041E0A01C84B23EE0A01CEE
:105C600084B23BE0A01C84B238E0A01C84B235E0D2
:105C7000A01C84B232E0A01C84B22FE0A01C84B22D
:105C80002CE00B48016804F10800085CFA2804DDE8
:105C900023210E48FFF7CCF807E00548026804F11D
:105CA0000800115C0948FFF7C3F8A01C84B215E096
:105CB00004050020F80400203C000020540F0020C0
:105CC000281000200D7400080000594044300008DE
:105CD00004E003E002E001E000E000BF00BFA01C20
:105CE00084B2681CC5B20AF1010AB245FFF656AE8D
:105CF000002707E008480068C05D08490968C855E2
:105D0000781CC7B2062FF5DB04490868062100F0AD
:105D1000D9FD00BF33E6000004050020F804002090
:105D20002DE9F0410027344800684079324909687C
:105D3000097940EA01263048006885782E480068D5
:105D4000C47800202D49C8802B480068007810B125
:105D50002B48007800E000202849CA88C988491CDF
:105D6000264BD98019460968885425211846C288CF
:105D7000C088401CD880184600688154032C03DC7E
:105D80001F480078A84204D0022000F079FDBDE849
:105D9000F081194800680079FF2803D1164800688F
:105DA000407958B114480068007918B91248006861
:105DB000407918B1032000F063FDE8E734B1012C0D
:105DC0000ED03F2C0DD0402C0DD10BE00A480068BE
:105DD000007918B908480068407900B100BF03E0B5
:105DE00002E001E000E000BF00BF044908680621AE
:105DF00000F068FD00BFCAE704050020F804002099
:105E00003C0000202DE9F0474FF000095A48006897
:105E100090F802A058480068C57857480068417952
:105E200055480068007901EB002086B200205349F4
:105E3000C88051480068007810B15148007800E0EF
:105E400000204E49CA88C988491C4C4BD980194644
:105E50000968885426211846C288C088401CD8800A
:105E60001846006881547006010E1846C288C08822
:105E7000401CD880184600688154002773E0842DA8
:105E80003BD00EDC7E2D2BD006DC0E2D18D07A2DCB
:105E900020D07C2D4CD120E0802D25D0822D47D1E3
:105EA00026E0922D35D006DC862D2BD0882D2AD0E9
:105EB000902D3DD128E0942D30D0962D38D132E070
:105EC00029464A102F4931F81200FEF7D1FB8146CE
:105ED000C84630E04FF000082DE04FF000082AE0FF
:105EE0002948D0F8288026E02748D0F8148022E0FE
:105EF00024488438D0F800801DE022488438D0F847
:105F0000048018E017E016E01E488438D0F824809A
:105F100011E01C488438D0F828800CE019488438F7
:105F2000D0F82C8007E017488438D0F8308002E0A1
:105F30004FF0000800BF00BF04240FE0601EC00047
:105F400028FA00F0C1B20D48C288C088401C0B4B33
:105F5000D880184600688154601EC4B2002CEDDC65
:105F6000A81CC5B2BF1CB74289DB044AD18810689F
:105F700000F0A8FCBDE8F08704050020F80400202C
:105F80003C000020D80F0020E80F00202DE9FC4144
:105F9000002000907048006841796F4800680079DF
:105FA00001EB002086B200256B48006890F8028063
:105FB00069480068C47800206849C880664800685D
:105FC000007810B16648007800E000206349CA8874
:105FD000C988491C614BD980194609688854272112
:105FE0001846C288C088401CD88018460068815472
:105FF0007006010E1846C288C088401CD88018461A
:1060000000688154742C02DCA01976280DDD7E2CEA
:1060100004DB9A2C02DCA0199C2806DDB02C15DBD1
:10602000B62C13DCA019B82810DC06F0010068B902
:1060300066B104F0010048B9474800688079B0EBC8
:10604000460F03D146480078404504D0022000F0B6
:1060500017FCBDE8FC814048016805F10800095CB7
:106060003D480268E81D105C01EB002000B2ADF86D
:1060700004003948016805F10A00095C36480268E5
:1060800005F10900105C01EB002000B2ADF806003C
:10609000002758E02046882C20D00EDC82281AD019
:1060A00006DC0E2814D01E2813D0802845D111E01C
:1060B000842811D0862840D10FE090380B283CD29C
:1060C000DFE800F00D3B0E3B173B203B293B320045
:1060D00034E033E032E031E030E02FE02EE02DE03C
:1060E0001D490A68E91D5018FFF756F81D498862D6
:1060F00024E019490A68E91D5018FFF74DF81949BD
:10610000C8621BE014490A68E91D5018FFF744F8FB
:106110001449086312E010480268E81D11180122B2
:106120006846FEF741FC09E00B480268E81D1118BB
:1061300001226846FEF738FC00E000BF00BF2D1DBD
:10614000A01CC4B2BF1CB742A4DB044908680621E6
:1061500000F0B8FB00BF7CE704050020F804002035
:106160003C000020540F00202DE9F0414F4800680A
:10617000C5784E48006890F8058000204C49C880DA
:106180004A480068007810B14A48007800E00020D2
:106190004749CA88C988491C454BD98019460968AE
:1061A00088542A211846C288C088401CD8801846C6
:1061B000006881543D48006882781846C188C088CC
:1061C000401CD880184600684254384800688078DF
:1061D0003849097888420ED1E02D0CDBE52D0ADC28
:1061E00005EB0800E62806DCB8F1000F03D02F48C5
:1061F0000068007920B1022000F042FBBDE8F08188
:106200000624002748E0A5F1E000062840D2DFE898
:1062100000F0030D17212B3524480068005D401C59
:10622000C6B2A019C4B2681CC5B232E01F480068EB
:10623000005D401CC6B2A019C4B2681CC5B228E0FB
:106240001A480068005D401CC6B2A019C4B2681CA0
:10625000C5B21EE015480068005D401CC6B2A0191A
:10626000C4B2681CC5B214E010480068005D401C50
:10627000C6B2A019C4B2681CC5B20AE00B480068D7
:10628000005D401CC6B2A019C4B2681CC5B200E0D3
:1062900000BF00BF781CC7B24745B4DB044908689B
:1062A000062100F00FFB00BFA8E700000405002056
:1062B000F80400203C0000202DE9F041C8480068A7
:1062C000C578C748006847790020C649C880C448D7
:1062D0000068007810B1C448007800E00020C1498F
:1062E000CA88C988491CBF4BD98019460968885497
:1062F0002B211846C288C088401CD88018460068E8
:106300008154B748006802791846C188C088401C8B
:10631000D880184600684254B14800684179184650
:10632000C288C088401CD880184600688154AC4898
:1063300000688078AC49097888420BD1E02D09DBF0
:10634000E52D07DCE819E62804DC1FB1A448006845
:10635000007920B1022000F093FABDE8F081002618
:1063600033E1A5F1E00006287ED2DFE800F003303B
:106370006296C3F6E0229B48C188C088401C994BB6
:10638000D8801846006842549848FDF711FFC1B202
:106390009448C288C088401C924BD8801846006838
:1063A00081549248FDF704FF80468E4909688D4A62
:1063B000D288881842468D49FDF7D6FE8B48FDF7F6
:1063C000F7FE8849C98808448649C880F8E0E12278
:1063D0008448C188C088401C824BD8801846006819
:1063E00042541846C188C088401C1A46D0801046C6
:1063F0000068445410468088032190FBF1F0A042CD
:1064000000DB84B9012177480268C088401E11541E
:1064100000217448C288C088401C724BD88018463E
:1064200000688154CCE06F48C08820446D49C88022
:10643000C6E0E2226B48C188C088401C694BD88006
:106440001846006842541846C188C088401C1A4645
:10645000D08010460068445410468088032190FB89
:10646000F1F0A04202DB00E0A9E084B901215D481F
:106470000268C088401E115400215A48C288C08852
:10648000401C584BD88018460068815498E0554805
:10649000C08820445349C88092E0E3225148C18813
:1064A000C088401C4F4BD880184600684254504862
:1064B000FDF77EFEC1B24B48C288C088401C494BE4
:1064C000D8801846006881544948FDF771FE80461F
:1064D00044490968434AD288881842464449FDF72E
:1064E00043FE4348FDF764FE3E49C98808443D49E0
:1064F000C88065E0E4223B48C188C088401C394B15
:10650000D8801846006842541846C188C088401C8C
:106510001A46D080104600684454104680880321F3
:1065200090FBF1F0A04200DB8CB901212D480268FC
:10653000C088401E115400212A48C288C088401CCF
:10654000284BD88018460068815439E005E025487A
:10655000C08820442349C88032E0E5212148C28810
:10656000C088401C1F4BD8801846006881541846CC
:10657000C188C088401C1A46D08010460068445428
:1065800010468088032190FBF1F0A04200DB84B923
:10659000012114480268C088401E1154002111488E
:1065A000C288C088401C0F4BD880184600688154B0
:1065B00006E00C48C08820440A49C88000E000BFBB
:1065C00000BF681CC5B2701CC6B2BE42FFF6C9AEA1
:1065D000044AD188106800F075F900BFBDE60000DC
:1065E00004050020F80400203C000020A5E200087B
:1065F0009CE2000838B548A0006800904748006851
:10660000C17846480068807801EB002084B2434896
:106610000068417941480068007901EB002085B2AB
:1066200000203F49C8803D480068007810B13D48CF
:10663000007800E000203A49CA88C988491C384BD4
:10664000D98019460968885441211846C288C088F3
:10665000401CD88018460068815400211846C28822
:10666000C088401CD8801846006881540121184613
:10667000C288C088401CD880184600688154012C0C
:1066800003D0022000F0FCF838BD00212448C28865
:10669000C088401C224BD8801846006881540122D3
:1066A0001846C188C088401CD880184600684254EB
:1066B0004DB10120194609688871194608680721FB
:1066C00000F000F9E0E700211548C288C088401CAE
:1066D000134BD88018460068815419460868072172
:1066E00000F0F0F8012269460F48FEF739FB14204C
:1066F000FEF70AFC00BFBFF34F8F0C48006800F4A0
:10670000E0600B490843001D08490860BFF34F8F44
:1067100000BF00BFFEE70000FF00000004050020EE
:10672000F80400203C000020003000080CED00E0E0
:106730000000FA0570B54F480468808881B24D4862
:106740008268204690470546032D00D270BD207810
:106750003A2800D0FAE7474800682844841E207889
:106760000D2800D0F2E7641C20780A2800D0EDE75D
:10677000A9B2404A1068FEF74BF900B9E6E73D4878
:106780000468681F4508207828B120783A490978BC
:10679000884200D0DAE737480068407826282CD0B5
:1067A0000CDC052819D004DC032810D0042833D1D0
:1067B00010E0102814D025282ED11BE027281FD048
:1067C0002A2820D02B2821D0412825D121E0FEF7EE
:1067D000DDFD4CE0FEF70CFF49E0FEF7F3FF46E07D
:1067E000E81F244909688979884200D0AEE7FFF79D
:1067F00069F83CE0FFF794FA39E0FFF703FB36E075
:10680000FFF7C4FB33E0FFF7AFFC30E0FFF754FDC8
:106810002DE0FFF7EFFE2AE000201849C880154858
:10682000006801781548C288C088401C134BD88086
:106830001846006881540F480068407840F0800195
:106840001846C288C088401CD88018460068815409
:1068500001221846C188C088401CD88018460068AC
:1068600042541A46D188106800F02CF800BF00BFCF
:1068700000BF6BE7040500203C000020F804002066
:1068800010B5044601200E49C880CA88C988491C31
:106890000B4BD980194609685018017841F08001E6
:1068A00001701846C188C088401C1A46D080104626
:1068B00000684454D188106800F004F810BD00004E
:1068C000F80400202DE9F04106460C462720FEF78B
:1068D0001BFB1A49224608683146FDF745FC17485C
:1068E0000068007820B9154800684078032823D153
:1068F000A1B2124A1068FEF74AF907460F4800682D
:1069000005192F70641CA1B20C4A1068FEF7F3F849
:1069100008B9BDE8F0816400084805683A2005F828
:10692000010B2544012240F60A512846FEF72CF8B7
:10693000E41CA0B200F0C6F900BFEAE7F8040020AA
:106940002DE9F0410446204600F07BF90546611C24
:10695000C8B200F076F9064646EA052738B2BDE827
:10696000F081000010B500224FF400710F4806F0CE
:106970002FFE4FF48073032210210C4806F02DFEE9
:1069800000224FF48071094806F022FE00F010F852
:1069900001225102054806F01BFE00F009F8002212
:1069A0004FF40071014806F013FE10BD000C0140C9
:1069B0001E2000BF011EA0F10102D0B2FAD1704723
:1069C00010B540F2036007F03FF84FF44073032224
:1069D0001021044806F001FE4FF44071014806F012
:1069E000F5FD10BD000C014010B500224FF4007100
:1069F0000F4806F0EDFD4FF48073032210210C4880
:106A000006F0EBFD01221102094806F0E1FDFFF757
:106A1000CFFF01225102064806F0DAFDFFF7C8FF5A
:106A200000224FF40071024806F0D2FD10BD0000B4
:106A3000000C014070B5054600244FF4807303221A
:106A40004821154806F0C9FD00261AE000224FF43F
:106A50000071114806F0BCFDFFF7AAFF01225102A8
:106A60000D4806F0B5FD6006040E4FF480710A482B
:106A700006F009FE08B1601CC4B2FFF799FF701C54
:106A8000C6B2082EE2DB15B9FFF7AEFF01E0FFF753
:106A900069FF204670BD0000000C014070B505463E
:106AA0004FF4807303221021194806F096FD00224E
:106AB0004FF40071164806F08BFD002424E0C4F169
:106AC000070101208840284028B101221102104806
:106AD00006F07EFD05E000224FF480710C4806F0C0
:106AE00077FDFFF765FF01225102094806F070FDAE
:106AF000FFF75EFF00224FF40071054806F068FDC5
:106B0000FFF756FF601CC4B2082CD8DB70BD000034
:106B1000000C014010B54FF48073032210210F4880
:106B200006F05BFD012211020C4806F051FD012226
:106B300051020A4806F04CFDFFF73AFF00224FF4DD
:106B40008071064806F044FDFFF732FF00224FF443
:106B50000071024806F03CFD10BD0000000C014031
:106B600010B54FF48073032210210F4806F035FD55
:106B700000224FF400710C4806F02AFD00224FF469
:106B80008071094806F024FDFFF712FF012251022F
:106B9000054806F01DFD01221102034806F018FD0C
:106BA000FFF706FF10BD0000000C014010B50024E7
:106BB0004FF4807303224821144806F00EFD012291
:106BC0001102124806F004FDFFF7F2FE0122510205
:106BD0000E4806F0FDFCFFF7EBFE07E0601CC4B2B8
:106BE000FA2C03DDFFF7BCFF012010BD4FF48071CC
:106BF000064806F048FD0028F0D100224FF400714D
:106C0000024806F0E5FC0020EFE70000000C014020
:106C100010B5FFF7D5FE00216B2000F02FF80721FB
:106C2000192000F02BF806211A2000F027F8002187
:106C30001C2000F023F818211B2000F01FF8002072
:106C400010BD70B50446FFF765FFD020FFF726FFA3
:106C5000FFF7ACFF2046FFF721FFFFF7A7FFFFF785
:106C600059FFD120FFF71AFFFFF7A0FF0020FFF721
:106C7000E1FE0546FFF774FF284670BD70B5054676
:106C80000C46FFF747FFD020FFF708FFFFF78EFF06
:106C900018B1FFF765FF012070BD2846FFF7FEFE23
:106CA000FFF784FF2046FFF7F9FEFFF77FFF18B1DB
:106CB000FFF756FF0120EFE7FFF752FF0020EBE759
:106CC00000BFFEE710B504464FF480700749086026
:106CD00001200749087022460321064806F0A3FA5E
:106CE0000321044806F069F8012010BD1008014096
:106CF00004000020000002402DE9F04106460D4648
:106D000000242248006810B90020BDE8F081204826
:106D100040881F490988884215DA1D4880881C4927
:106D20000988401A84B2A54201DA0020EDE718482C
:106D30008068174A1288811822463046FDF714FAF7
:106D40000020134908801248408811490988401AD8
:106D5000A84201DD0020D8E70D4B5B880C4F3F882F
:106D6000DA1B0B4B9B680A4F3F88D9193019FDF786
:106D7000FBF90748408806490988401A204484B234
:106D800003484088024908802046BEE7E80000200A
:106D9000DC000020704770472DE9F041B2B00025BB
:106DA000002476480068017A74480068C07901EBD5
:106DB00000201FFA80F871480068817A6F480068E7
:106DC000407A01EB002087B26C480068007810B16F
:106DD0006B48007800E000202146621CD4B20DF818
:106DE000010003222046611CCCB20DF8002063484C
:106DF000006882782046611CCCB20DF800205F4804
:106E00000068C2782046611CCCB20DF800205B48B7
:106E1000006802792046611CCCB20DF8002057486A
:106E2000006842792046611CCCB20DF8002053481E
:106E3000006882792046611CCCB20DF800204F48D2
:106E40000068C2792046611CCCB20DF800204B4886
:106E50000068027A2146601CC4B20DF80120474840
:106E60000068427A2046611CCCB20DF800204348ED
:106E70000068827A2046611CCCB20DF80020012FF8
:106E800001D1282500E00025012F12DD002607E0B2
:106E900000222046611CCCB20DF80020701CC6B246
:106EA000502EF5DB21466846FFF70CFD32B0BDE8F9
:106EB000F081B8F1050F5FDC052F5DDA002655E0A3
:106EC000E91C304A8818FDF745FF2146621CD4B200
:106ED0000DF80100A91C2B4A8818FDF73BFF21463D
:106EE000621CD4B20DF80100691C264A8818FDF70F
:106EF00031FF2146621CD4B20DF801002149681807
:106F0000FDF728FF2146621CD4B20DF80100E91CF0
:106F10001C4A54328818FDF71DFF2146621CD4B26A
:106F20000DF80100A91C174A54328818FDF712FF0A
:106F30002146621CD4B20DF80100691C114A54327A
:106F40008818FDF707FF2146621CD4B20DF8010036
:106F50000C4954316818FDF7FDFE2146621CD4B27D
:106F60000DF80100281DC5B2701CC6B20A2EA7DBA1
:106F700021466846FFF7A6FC00BF97E704050020FE
:106F80003C0000202334000870470000012804D092
:106F9000022807D0032812D10AE001210C4A5170BF
:106FA000918012E012210A4A5170B42191800CE0C4
:106FB0006021074A51704FF47071918005E01221F1
:106FC000034A5170B421918000BF00BF7047000098
:106FD000281000201949096821B118490968491E7B
:106FE000164A1160002026E000EB8001144A12F8D6
:106FF000211001291ED100EB800102EB810189687B
:1070000061B100EB800102EB81018968491E00EB50
:1070100080020B4B03EB820291600BE0012100EB3D
:107020008002074B03EB82025170002100EB8002CB
:1070300003F82210401C0628D6D37047C400002055
:107040008C13002010B51448006840F0010012496C
:10705000086008464068114908400F4948600846E2
:1070600000680F4908400C4908600846006820F491
:1070700080200860084640680A4908400649486080
:107080000846006806490840034908604FF41F009D
:10709000886006F05FFD10BD001002400C00FFE8A4
:1070A000FFFFF6FEFFFF00F710B501210F4806F0C5
:1070B0007DFF012803D101210C4806F073FF0B4826
:1070C00006F066FF0021094806F0F2FE012107489C
:1070D00006F0E4FF0020064908700321054805F08A
:1070E00053FE4FF480700449086010BD0008004052
:1070F00004000020000002401408014010B50421E3
:107100000F4807F05AF8012819D10D4807F02EF85A
:1071100004210C4806F09AF80B498988081A0A4994
:107120004880084600884988884208D00748807807
:1071300007490B5C002207490420FDF74DFF10BDF5
:107140000038014000000240DC0000200500002063
:1071500064E200081974000810B540F2026006F0FD
:1071600073FC4FF4807303221021044806F035FAB3
:107170004FF4807001491431086010BD00080140CF
:1071800070B505460C4616460EB9002070BD206845
:1071900008B1A08808B90020F8E7A06808B1A08964
:1071A00008B90020F2E724480021016041608160B5
:1071B0000020214908804880A08888802068886055
:1071C0001E480021016041601C49A0684860A089F8
:1071D000088000201A4908701A49485D00221146AB
:1071E00006F06AFA184931F8150006F02DFC174927
:1071F00031F8150006F028FC154951F825301549DD
:1072000051F825000122182106F0E7F9124951F83A
:107210002530104951F825000122042106F0DDF93E
:10722000FFF79AFF707800F0ADF83146284600F07D
:1072300015F80120AAE70000DC000020080000206B
:107240000400002038000020340000201800002036
:107250001C0000202C0000202400002070B50446F3
:107260000D463A4E204604EBD0714910A4EB410183
:10727000CCB2374850F82460364800210180817034
:10728000E87834494870287808700846847068782F
:10729000314A52F82010304606F020FFA878012825
:1072A00004D002280DD003281FD115E04FF48051DF
:1072B000304606F0CEFF4FF4C061304606F0A9FF1D
:1072C0001CE04FF48051304606F0C3FF4FF480615C
:1072D000304606F09EFF11E00021304606F0B9FF6F
:1072E0000021304606F095FF08E00021304606F008
:1072F000B0FF0021304606F08CFF00BF00BF002128
:10730000304606F096FF0021304606F06DFF002162
:10731000304606F061FF0421304606F082FF082166
:10732000304606F08EFF304606F035FF0621304627
:1073300006F036FF4FF44171304606F05DFF402104
:10734000304606F018FF012070BD000000380140F3
:1073500010000020050000207CE20008014619B161
:10736000086808B1486808B900207047044A0868EE
:10737000106048685060C868D0600120F5E70000E0
:10738000E80000201FB5044640F2027006F05CFBE6
:10739000194806F08FFD684606F094FE174800680D
:1073A0001749B0FBF1F0401E80B2ADF8000000209C
:1073B000ADF80200ADF80400124830F81400029055
:1073C0000020ADF80C0069460B4806F0F7FD0122DD
:1073D00000211E2006F070F90121074806F05EFE2C
:1073E0000121054806F0DEFD034806F0D1FD00212D
:1073F000014806F05DFD1FBD0008004000000020B0
:10740000A08601006CE2000800BFFEE710B504464C
:10741000FDF7D0FE012010BD10B50446FFF78AF934
:10742000002010BD2DE9F04104460E4617461D46CA
:107430000D4908193A463146FCF796FE0B48FDF710
:1074400089FC10B90020BDE8F0814FF48062064944
:107450000648FDF785FC08B90020F4E70DB100F0FF
:1074600007F80120EFE70000C40900200130000800
:107470001CB54D48FDF771FCFA2803D923214A4871
:10748000FDF7D6FC484844388078552812D0482269
:10749000464945484338FDF763FC00214448FDF761
:1074A000C7FC00214248401EFDF7C2FC23213E4894
:1074B000FDF7BEFC4FF480623E493B484338FDF780
:1074C00039FC9DF801009DF8001040EA01203A497E
:1074D000A1F8640000208866002409E01DF804007B
:1074E0003549896E00EB012033498866601CC4B2BF
:1074F000042CF3DB2F48C078012803DB2D48C0782B
:10750000072802DD03202B49C8702A48007901288A
:1075100003DB28480079032802DD03202549087190
:10752000FF20264908702348C07848702148007918
:10753000887020488079224908700878FFF726FD76
:107540001C48C0791C4981F84400084690F8440062
:1075500001280BDD084690F844004FF47A7100FBD7
:1075600001F3002217490320FDF736FD11480830CA
:10757000FDF712FE1249C1F85C030E480C30FDF70E
:107580000BFE0F49C1F860030A48007C0A4981F8E4
:107590004500084640680988401A0749886001206C
:1075A000094908701CBD000044300008C3E200080F
:1075B00022340008C4090020540F0020A00000203D
:1075C000281000200D740008E80F00209EB0002550
:1075D0000024002606F090F906F02AFC05F038FC9D
:1075E000FFF746FF3048FDF7B5FB054617E02E498B
:1075F000491C01EB8400FDF7B0FB13A921F816002C
:107600002949553101EB8400FDF7A7FB82B23046D2
:10761000711CCEB209A921F81020601CC4B2AC4282
:10762000E5DB2A4609A913A804F046FD1F4801908E
:107630004FF4C870ADF808001D4803904FF4C870AF
:10764000ADF810001B4805904FF4C87006901A481A
:10765000C0781A4948701A480078087016480079AE
:1076600088700A4601A90020FFF78AFD01A8FDF7EE
:10767000B9FA05A8FFF772FEFFF7CAFA1048FDF73E
:1076800029FBFDF7F7FB642300220E491046FDF7A6
:10769000A3FC4FF47A7300220B490220FDF79CFCF7
:1076A00001E0FDF763FCFCE722340008140500202C
:1076B000A406002034080020C4090020BF000020D8
:1076C000A0000020A1780008CD7600082DE9F04F39
:1076D00089B03B20FFF734F907903D20FFF730F9E0
:1076E00006903F20FFF72CF905904320FFF728F97B
:1076F00004904520FFF724F903904720FFF720F975
:10770000029056480068FCF7AAFF81460498FCF7EF
:10771000A6FF82464946FCF752FD0446FCF7F8FFF7
:10772000074600224E4BFCF72BFF0546FDF703F8FA
:107730004C4908604C480068FCF791FF814603986B
:10774000FCF78DFF82464946FCF739FD0446FCF7FD
:10775000DFFF07460022424BFCF712FF0546FCF70D
:10776000EAFF4249086042480068FCF778FF81461A
:107770000298FCF774FF82464946FCF720FD044658
:10778000FCF7C6FF07460022354BFCF7F9FE05461D
:10779000FCF7D1FF37490860374A07991268881803
:1077A000FCF76BFF0022354BCDE90001FCF7E8FE4A
:1077B000824605F0D9F98046314A324BFCF76EFE1D
:1077C000064600224FF08043FCF768FE0446002284
:1077D0002D4BFCF7BCFD2D4A03C22D4A06991268B9
:1077E0008818FCF74AFF80460022244BFCF7C8FEAD
:1077F000CDE9000105F0B8F90646214A214BFCF716
:107800004DFE824600224FF08043FCF747FE0446BF
:1078100000221D4BFCF79BFD1E4A03C21E4A059920
:1078200012688818FCF729FF80460022134BFCF7EA
:10783000A7FE824605F098F90646114A114BFCF75F
:107840002DFE044600224FF08043FCF727FE134A2A
:1078500003C2012009B0BDE8F08F000094000020B1
:107860000000A0406000002098000020640000207C
:107870009C00002068000020880000200000D0400C
:10788000A79196CADBA54C400080564070000020AE
:107890008C00002078000020900000208000002054
:1078A00010B5044610480088401C0F4908800F4856
:1078B0000078401C0D4908700D48FDF74EFA801CF9
:1078C0000A490978884204D8002008490870FDF761
:1078D0003DF805F06BFE07488078074908700846B8
:1078E000FDF7F8F9012010BDBC000020BE0000200B
:1078F00044300008C4090020A000002001B586B073
:1079000000200590FE48007818B90020059004F08A
:10791000CABBFB480078012814D1FA48018D0698AB
:10792000401A0290FCF79BFE0390F748006801465E
:1079300002900398FCF79BFC0490FCF7BCFE80B21D
:107940000590E4E7EE480078022862D1EF484188CC
:107950000698814223DBED480188069881421EDAB1
:10796000EB4800880190FCF783FE0390E74801880C
:107970000698401A0090FCF772FE0190E2484068B9
:10798000014600900198FCF772FC02900399FCF705
:1079900016FC0490FCF78FFE80B20590B7E7DB4839
:1079A0004188069881421EDAD94840880190FCF748
:1079B0005FFE0390D54841880698401A0090FCF776
:1079C0004EFE0190D0484068014600900198FCF7B7
:1079D0004EFC02900399FCF7F2FB0490FCF76BFE5F
:1079E00080B2059093E7C9480188069881428EDBF2
:1079F0000698FCF73DFE0390C348006801460290DC
:107A00000398FCF734FC0490FCF755FE80B2059017
:107A10007DE7BB480078032875D1BC4841880698AB
:107A2000814223DBB9480188069881421EDAB848B2
:107A300000880190FCF71CFE0390B448018806986A
:107A4000401A0090FCF70BFE0190AF4840680146D9
:107A500000900198FCF70BFC02900399FCF7AFFB38
:107A60000490FCF728FE80B2059050E7A748818873
:107A70000698814223DBA5484188069881421EDA98
:107A8000A34840880190FCF7F3FD03909F4841888C
:107A90000698401A0090FCF7E2FD01909A48806831
:107AA000014600900198FCF7E2FB02900399FCF775
:107AB00086FB0490FCF7FFFD80B2059027E7934812
:107AC0008188069881421FDA914880880190FCF7EE
:107AD000CFFD03908D4881880698401A0090FCF7EE
:107AE000BEFD019088488068014600900198FCF72F
:107AF000BEFB02900399FCF762FB0490FCF7DBFDF0
:107B000080B2059003E715E080480188069881421D
:107B1000ABDB0698FCF7ACFD03907B4800680146A0
:107B200002900398FCF7A3FB0490FCF7C4FD80B21D
:107B30000590ECE67248007804287AD173484188B1
:107B40000698814223DB71480188069881421EDA3B
:107B50006F4800880190FCF78BFD03906B4801880B
:107B60000698401A0090FCF77AFD0190664840683C
:107B7000014600900198FCF77AFB02900399FCF70C
:107B80001EFB0490FCF797FD80B20590BFE65F48AE
:107B900081880698814223DB5C48418806988142AF
:107BA0001EDA5B4840880190FCF762FD039057485D
:107BB00041880698401A0090FCF751FD0190524808
:107BC0008068014600900198FCF751FB02900399F0
:107BD000FCF7F5FA0490FCF76EFD80B2059096E68E
:107BE0004A48C1880698814224DB48488188069823
:107BF00081421FDA464880880190FCF739FD0390E6
:107C0000424881880698401A0090FCF728FD0190B0
:107C10003D48C068014600900198FCF728FB02909F
:107C20000399FCF7CCFA0490FCF745FD80B205906F
:107C30006DE639E03548C188069881421EDA34483D
:107C4000C0880190FCF714FD03903048C188069865
:107C5000401A0090FCF703FD01902B48C0680146D4
:107C600000900198FCF703FB02900399FCF7A7FA38
:107C70000490FCF720FD80B2059048E62348018877
:107C800006988142ABDB0698FCF7F2FC03901E4895
:107C90000068014602900398FCF7E9FA0490FCF7AB
:107CA0000AFD80B2059032E61548007805287DD19E
:107CB00016484188069881422EDB144801880698B0
:107CC000814229DA124800880190FCF7D1FC039028
:107CD0000E4801880698401A0090FCF7C0FC0190FD
:107CE00009484068014600900198FCF7C0FA0290EC
:107CF0000399FCF764FA0490FCF7DDFC80B209E01C
:107D0000DA0000203C14002068140020B814002081
:107D1000E01400200590FAE5F74881880698814232
:107D200023DBF5484188069881421EDAF3484088F3
:107D30000190FCF79DFC0390EF4841880698401A9B
:107D40000090FCF78CFC0190ED48806801460090A3
:107D50000198FCF78CFA02900399FCF730FA049032
:107D6000FCF7A9FC80B20590D1E5E348C1880698EC
:107D7000814225DBE04881880698814220DADF488D
:107D800080880190FCF774FC0390DB48818806989A
:107D9000401A0090FCF763FC0190D948C068014686
:107DA00000900198FCF763FA029000E06BE0039901
:107DB000FCF705FA0490FCF77EFC80B20590A6E57E
:107DC000CD4801890698814223DBCB48C1880698BB
:107DD00081421EDAC948C0880190FCF749FC039033
:107DE000C548C1880698401A0090FCF738FC0190FD
:107DF000C3480069014600900198FCF738FA0290E8
:107E00000399FCF7DCF90490FCF755FC80B205906F
:107E10007DE5B9480189069881421EDAB748008994
:107E20000190FCF725FC0390B34801890698401A9D
:107E30000090FCF714FC0190B148006901460090E5
:107E40000198FCF714FA02900399FCF7B8F9049032
:107E5000FCF731FC80B2059059E5A74801880698E7
:107E60008142ACDB0698FCF703FC0390A448006851
:107E7000014602900398FCF7FAF90490FCF71BFC0A
:107E800080B2059043E59F48007806287AD19A4849
:107E900041880698814223DB9748018806988142F1
:107EA0001EDA964800880190FCF7E2FB03909248A6
:107EB00001880698401A0090FCF7D1FB0190904889
:107EC0004068014600900198FCF7D1F902900399AF
:107ED000FCF775F90490FCF7EEFB80B2059016E50F
:107EE000854881880698814223DB8348418806982B
:107EF00081421EDA814840880190FCF7B9FB03906B
:107F00007D4841880698401A0090FCF7A8FB019034
:107F10007B488068014600900198FCF7A8F9029020
:107F20000399FCF74CF90490FCF7C5FB80B205906F
:107F3000EDE47148C1880698814224DB6E4881884F
:107F4000069881421FDA6D4880880190FCF790FB0B
:107F50000390694881880698401A0090FCF77FFBDF
:107F600001906748C068014600900198FCF77FF9CE
:107F700002900399FCF723F90490FCF79CFB80B274
:107F80000590C4E48BE05C4801890698814223DBBC
:107F90005948C188069881421EDA5848C088019025
:107FA000FCF766FB03905448C1880698401A00907D
:107FB000FCF755FB0190524800690146009001987A
:107FC000FCF755F902900399FCF7F9F80490FCF7D7
:107FD00072FB80B205909AE4474841890698814235
:107FE00023DB45480189069881421EDA434800890F
:107FF0000190FCF73DFB03903F4801890698401A29
:108000000090FCF72CFB01903D4840690146009030
:108010000198FCF72CF902900399FCF7D0F8049032
:10802000FCF749FB80B2059071E43348418906981A
:1080300081421EDA314840890190FCF719FB039018
:108040002D4841890698401A0090FCF708FB0190E2
:108050002B484069014600900198FCF708F902900E
:108060000399FCF7ACF80490FCF725FB80B205906F
:108070004DE42148018806988142ACDB0698FCF764
:10808000F7FA03901E480068014602900398FCF737
:10809000EEF80490FCF70FFB80B2059037E4194826
:1080A000007807287ED114484188069881422BDB4E
:1080B000114801880698814226DA1048008801900C
:1080C000FCF7D6FA03900C4801880698401A0090F5
:1080D000FCF7C5FA01900A484068014600900198F3
:1080E000FCF7C5F802900399FCF769F80490FCF7D7
:1080F000E2FA80B205900AE4B8140020E0140020EF
:1081000068140020DA000020FE4881880698814229
:1081100023DBFC484188069881421EDAFA484088F1
:108120000190FCF7A5FA0390F64841880698401A9A
:108130000090FCF794FA0190F448806801460090A2
:108140000198FCF794F802900399FCF738F8049032
:10815000FCF7B1FA80B2059020E4EA48C18806989D
:10816000814225DBE74881880698814220DAE6488B
:1081700080880190FCF77CFA0390E2488188069899
:10818000401A0090FCF76BFA0190E048C068014685
:1081900000900198FCF76BF802900399FCF70FF838
:1081A000049000E0B9E0FCF786FA80B2059019E48B
:1081B000D44801890698814223DBD248C1880698B9
:1081C00081421EDAD048C0880190FCF751FA039032
:1081D000CC48C1880698401A0090FCF740FA0190FC
:1081E000CA480069014600900198FCF740F80290E7
:1081F0000399FBF7E4FF0490FCF75DFA80B2059069
:1082000006E4C04841890698814223DBBD480189C4
:10821000069881421EDABC4800890190FCF728FAD2
:108220000390B84801890698401A0090FCF717FAA5
:108230000190B6484069014600900198FCF717F894
:1082400002900399FBF7BBFF0490FCF734FA80B26D
:1082500005900AE4AB4881890698814223DBA9484E
:108260004189069881421EDAA74840890190FCF7AF
:10827000FFF90390A34841890698401A0090FCF743
:10828000EEF90190A1488069014600900198FBF742
:10829000EEFF02900399FBF792FF0490FCF70BFAB4
:1082A00080B205900AE497488189069881421EDAD7
:1082B000954880890190FCF7DBF90390914881890A
:1082C0000698401A0090FCF7CAF901908F4880691F
:1082D000014600900198FBF7CAFF02900399FBF753
:1082E0006EFF0490FCF7E7F980B205900AE4854838
:1082F000018806988142ACDB0698FCF7B9F9039037
:1083000082480068014602900398FBF7B0FF049092
:10831000FCF7D1F980B205900BE47D48007808287D
:108320007AD1784841880698814223DB75480188D4
:10833000069881421EDA744800880190FCF798F98B
:108340000390704801880698401A0090FCF787F95E
:1083500001906E484068014600900198FBF787FF46
:1083600002900399FBF72BFF0490FCF7A4F980B26D
:1083700005900BE4634881880698814223DB6148BD
:108380004188069881421EDA5F4840880190FCF7D8
:108390006FF903905B4841880698401A0090FCF7FB
:1083A0005EF9019059488068014600900198FBF7FA
:1083B0005EFF02900399FBF702FF0490FCF77BF944
:1083C00080B205900BE44F48C1880698814224DBB7
:1083D0004C488188069881421FDA4B48808801907A
:1083E000FCF746F90390474881880698401A0090A8
:1083F000FCF735F901904548C068014600900198A6
:10840000FBF735FF02900399FBF7D9FE0490FCF7C8
:1084100052F980B205900BE4E7E03A4801890698EA
:10842000814223DB3748C188069881421EDA3648EC
:10843000C0880190FCF71CF903903248C188069867
:10844000401A0090FCF70BF9019030480069014692
:1084500000900198FBF70BFF02900399FBF7AFFE2A
:108460000490FCF728F980B2059006E4254841897C
:108470000698814223DB23480189069881421EDA4F
:10848000214800890190FCF7F3F803901D48018909
:108490000698401A0090FCF7E2F801901B484069EA
:1084A000014600900198FBF7E2FE02900399FBF76A
:1084B00086FE0490FCF7FFF880B205902BE411488B
:1084C0008189069881422DDB0E48418906988142B8
:1084D00028DA0D4840890190FCF7CAF80390094852
:1084E00041890698401A0090FCF7B9F801900748B6
:1084F0008069014600900198FBF7B9FE029003994C
:1085000008E00000B8140020E014002068140020E7
:10851000DA000020FBF753FE0490FCF7CCF880B2A1
:10852000059021E4FE48C1890698814223DBFC487E
:108530008189069881421EDAFA4880890190FCF709
:1085400097F80390F64881890698401A0090FCF746
:1085500086F80190F448C069014600900198FBF745
:1085600086FE02900399FBF72AFE0490FCF7A3F81D
:1085700080B2059023E4EA48C189069881421EDA58
:10858000E848C0890190FCF773F80390E448C1897A
:108590000698401A0090FCF762F80190E248C06922
:1085A000014600900198FBF762FE02900399FBF7E9
:1085B00006FE0490FCF77FF880B2059028E4D848C6
:1085C000018806988142ACDB0698FCF751F80390CD
:1085D000D5480068014602900398FBF748FE0490D6
:1085E000FCF769F880B2059012E4D04800780928B9
:1085F0007AD1CB4841880698814223DBC84801885C
:10860000069881421EDAC74800880190FCF730F8CE
:108610000390C34801880698401A0090FCF71FF8A1
:108620000190C1484068014600900198FBF71FFE89
:1086300002900399FBF7C3FD0490FCF73CF880B26D
:10864000059009E4B64881880698814223DBB44846
:108650004188069881421EDAB24840880190FCF7B2
:1086600007F80390AE4841880698401A0090FBF73F
:10867000F6FF0190AC488068014600900198FBF736
:10868000F6FD02900399FBF79AFD0490FCF713F8AE
:1086900080B2059023E4A248C1880698814224DB79
:1086A0009F488188069881421FDA9E488088019001
:1086B000FBF7DEFF03909A4881880698401A0090E5
:1086C000FBF7CDFF01909848C068014600900198E3
:1086D000FBF7CDFD02900399FBF771FD0490FBF7CA
:1086E000EAFF80B2059023E406E18D4801890698EF
:1086F000814223DB8A48C188069881421EDA894874
:10870000C0880190FBF7B4FF03908548C1880698A4
:10871000401A0090FBF7A3FF0190834800690146CF
:1087200000900198FBF7A3FD02900399FBF747FD2A
:108730000490FBF7C0FF80B2059022E4784841899D
:108740000698814223DB76480189069881421EDA29
:10875000744800890190FBF78BFF039070480189F2
:108760000698401A0090FBF77AFF01906E48406926
:10877000014600900198FBF77AFD02900399FBF700
:108780001EFD0490FBF797FF80B2059023E4644838
:1087900081890698814223DB61484189069881429C
:1087A0001EDA604840890190FBF762FF03905C4845
:1087B00041890698401A0090FBF751FF01905A48F2
:1087C0008069014600900198FBF751FD02900399E2
:1087D000FBF7F5FC0490FBF76EFF80B2059023E4F5
:1087E0004F48C1890698814223DB4D48818906980C
:1087F00081421EDA4B4880890190FBF739FF0390D4
:10880000474881890698401A0090FBF728FF01909D
:108810004548C069014600900198FBF728FD029089
:108820000399FBF7CCFC0490FBF745FF80B2059061
:108830001EE43B48018A0698814223DB3848C189FF
:10884000069881421EDA3748C0890190FBF710FF75
:1088500003903348C1890698401A0090FBF7FFFE49
:1088600001903148006A014600900198FBF7FFFC37
:1088700002900399FBF7A3FC0490FBF71CFF80B266
:1088800005900BE42648018A069881421EDA2548A5
:10889000008A0190FBF7ECFE03902148018A0698BC
:1088A000401A0090FBF7DBFE01901F48006A01466A
:1088B00000900198FBF7DBFC02900399FBF77FFC2B
:1088C0000490FBF7F8FE80B2059014E41448018888
:1088D00006988142ACDB0698FBF7CAFE039012486B
:1088E0000068014602900398FBF7C1FC0490FBF777
:1088F000E2FE80B205902FE40C4800780A287CD173
:1089000007484188069881422CDB05480188069873
:10891000814227DA034800880190FBF7A9FE07E0AF
:10892000B8140020E014002068140020DA000020B1
:108930000390F94801880698401A0090FBF78FFED3
:108940000190F6484068014600900198FBF78FFCC3
:1089500002900399FBF733FC0490FBF7ACFE80B266
:10896000059024E4EC4881880698814223DBEA489C
:108970004188069881421EDAE94840880190FBF759
:1089800077FE0390E44841880698401A0090FBF770
:1089900066FE0190E1488068014600900198FBF76F
:1089A00066FC02900399FBF70AFC0490FBF783FE38
:1089B00080B2059024E4D848C1880698814225DB1E
:1089C000D54881880698814220DAD5488088019070
:1089D000FBF74EFE0390D04881880698401A00901D
:1089E000FBF73DFE0190CD48C0680146009001981C
:1089F000FBF73DFC0290039900E037E1FBF7DFFB5A
:108A00000490FBF758FE80B2059022E4C248018929
:108A10000698814223DBC048C188069881421EDA4D
:108A2000BF48C0880190FBF723FE0390BA48C18875
:108A30000698401A0090FBF712FE0190B7480069B3
:108A4000014600900198FBF712FC02900399FBF796
:108A5000B6FB0490FBF72FFE80B2059022E4AE48EF
:108A600041890698814223DBAB48018906988142FF
:108A70001EDAAB4800890190FBF7FAFD0390A64887
:108A800001890698401A0090FBF7E9FD0190A34880
:108A90004069014600900198FBF7E9FB02900399B9
:108AA000FBF78DFB0490FBF706FE80B205901DE4FA
:108AB000994881890698814223DB97484189069825
:108AC00081421EDA964840890190FBF7D1FD039060
:108AD000914841890698401A0090FBF7C0FD01902B
:108AE0008E488069014600900198FBF7C0FB029018
:108AF0000399FBF764FB0490FBF7DDFD80B2059062
:108B00000AE48548C1890698814223DB824881892D
:108B1000069881421EDA824880890190FBF7A8FD01
:108B200003907D4881890698401A0090FBF797FDD5
:108B300001907A48C069014600900198FBF797FBC5
:108B400002900399FBF73BFB0490FBF7B4FD80B266
:108B500005900EE47048018A0698814223DB6E4836
:108B6000C189069881421EDA6D48C0890190FBF7E1
:108B70007FFD03906848C1890698401A0090FBF772
:108B80006EFD01906548006A014600900198FBF770
:108B90006EFB02900399FBF712FB0490FBF78BFD31
:108BA00080B205900EE45C48418A0698814223DB3E
:108BB0005948018A069881421EDA5948008A019074
:108BC000FBF756FD03905448018A0698401A00901E
:108BD000FBF745FD01905148406A0146009001981D
:108BE000FBF745FB02900399FBF7E9FA0490FBF7CA
:108BF00062FD80B205900EE44748418A06988142A2
:108C00001EDA4748408A0190FBF732FD0390424844
:108C1000418A0698401A0090FBF721FD01903F48D9
:108C2000406A014600900198FBF721FB02900399EE
:108C3000FBF7C5FA0490FBF73EFD80B2059014E403
:108C40003548018806988142ACDB0698FBF710FD99
:108C5000039032480068014602900398FBF707FB37
:108C60000490FBF728FD80B2059027E42D4800789A
:108C70000B287DD1284841880698814223DB26486D
:108C80000188069881421EDA254800880190FBF78A
:108C9000EFFC0390204801880698401A0090FBF7EB
:108CA000DEFC01901D484068014600900198FBF7EA
:108CB000DEFA02900399FBF782FA0490FBF7FBFCC3
:108CC00080B205902DE414488188069881422BDB00
:108CD000114841880698814226DA1148408801905F
:108CE000FBF7C6FC03900C4841880698401A009098
:108CF000FBF7B5FC01900948806801460090019897
:108D0000FBF7B5FA02900399FBF759FA0490FBF7C9
:108D1000D2FC80B2059004E4B8140020681400204E
:108D2000E0140020DA000020FE48C1880698814245
:108D300025DBFC4881880698814220DAFA48808841
:108D40000190FBF795FC0390F64881880698401A3D
:108D50000090FBF784FC0190F448C0680146009045
:108D60000198FBF784FA02900399FBF728FA00E0D8
:108D70005EE10490FBF79FFC80B205901EE4E94899
:108D800001890698814223DBE648C1880698814222
:108D90001EDAE548C0880190FBF76AFC0390E148C1
:108DA000C1880698401A0090FBF759FC0190DF48F3
:108DB0000069014600900198FBF759FA0290039967
:108DC000FBF7FDF90490FBF776FC80B205900BE40D
:108DD000D44841890698814223DBD248018906980C
:108DE00081421EDAD04800890190FBF741FC0390D4
:108DF000CC4801890698401A0090FBF730FC01909E
:108E0000CA484069014600900198FBF730FA029089
:108E10000399FBF7D4F90490FBF74DFC80B2059061
:108E20000FE4C04881890698814223DBBD4841890F
:108E3000069881421EDABC4840890190FBF718FC75
:108E40000390B84841890698401A0090FBF707FC48
:108E50000190B6488069014600900198FBF707FA37
:108E600002900399FBF7ABF90490FBF724FC80B266
:108E700005900FE4AB48C1890698814223DBA948DD
:108E80008189069881421EDAA74880890190FBF704
:108E9000EFFB0390A34881890698401A0090FBF7E6
:108EA000DEFB0190A148C069014600900198FBF7E4
:108EB000DEF902900399FBF782F90490FBF7FBFBC4
:108EC00080B205900FE49748018A0698814223DB1F
:108ED0009448C189069881421EDA9348C08901905E
:108EE000FBF7C6FB03908F48C1890698401A009093
:108EF000FBF7B5FB01908D48006A01460090019890
:108F0000FBF7B5F902900399FBF759F90490FBF7C9
:108F1000D2FB80B2059010E48248418A06988142D3
:108F200023DB8048018A069881421EDA7E48008A47
:108F30000190FBF79DFB03907A48018A0698401A3E
:108F40000090FBF78CFB01907848406A0146009046
:108F50000198FBF78CF902900399FBF730F9049024
:108F6000FBF7A9FB80B2059010E46E48818A069851
:108F7000814223DB6B48418A069881421EDA6A48A7
:108F8000408A0190FBF774FB03906648418A06987B
:108F9000401A0090FBF763FB01906448806A014629
:108FA00000900198FBF763F902900399FBF707F92A
:108FB0000490FBF780FB80B2059010E45948818A49
:108FC000069881421EDA5848808A0190FBF750FBD0
:108FD00003905448818A0698401A0090FBF73FFBA3
:108FE00001905248806A014600900198FBF73FF9D2
:108FF00002900399FBF7E3F80490FBF75CFB80B267
:10900000059015E44748018806988142ACDB069834
:10901000FBF72EFB03904548006801460290039839
:10902000FBF725F90490FBF746FB80B2059028E496
:109030003F4800780C287DD13A4841880698814203
:1090400023DB38480188069881421EDA36480088BA
:109050000190FBF70DFB0390324801880698401AF7
:109060000090FBF7FCFA0190304840680146009000
:109070000198FBF7FCF802900399FBF7A0F8049025
:10908000FBF719FB80B205901FE4264881880698FB
:10909000814223DB23484188069881421EDA224818
:1090A00040880190FBF7E4FA03901E484188069837
:1090B000401A0090FBF7D3FA01901C4880680146E3
:1090C00000900198FBF7D3F802900399FBF777F82B
:1090D0000490FBF7F0FA80B205900CE41148C188C7
:1090E000069881422DDB0F4881880698814228DA54
:1090F0000D4880880190FBF7BBFA039009488188EE
:109100000698401A0090FBF7AAFA01900748C06839
:10911000014600900198FBF7AAF802900399FBF72B
:109120004EF808E0B8140020E01400206814002075
:10913000DA00002087E10490FBF7BDFA80B20590C9
:109140000FE4FE4801890698814223DBFB48C18871
:10915000069881421EDAFA48C0880190FBF788FA27
:109160000390F648C1880698401A0090FBF777FAFA
:109170000190F4480069014600900198FBF777F8E8
:1091800002900399FBF71BF80490FBF794FA80B266
:1091900005900FE4E94841890698814223DBE748BE
:1091A0000189069881421EDAE54800890190FBF7A3
:1091B0005FFA0390E14801890698401A0090FBF796
:1091C0004EFA0190DF484069014600900198FBF794
:1091D0004EF802900399FAF7F2FF0490FBF76BFA4E
:1091E00080B2059011E4D54881890698814223DB3D
:1091F000D2484189069881421EDAD14840890190BF
:10920000FBF736FA0390CD4841890698401A009042
:10921000FBF725FA0190CB48806901460090019840
:10922000FBF725F802900399FAF7C9FF0490FBF7C2
:1092300042FA80B2059011E4C048C1890698814283
:1092400023DBBE488189069881421EDABC488089AA
:109250000190FBF70DFA0390B84881890698401AEF
:109260000090FBF7FCF90190B648C06901460090F8
:109270000198FAF7FCFF02900399FAF7A0FF049017
:10928000FBF719FA80B2059011E4AC48018A069800
:10929000814223DBA948C189069881421EDAA84889
:1092A000C0890190FBF7E4F90390A448C1890698AE
:1092B000401A0090FBF7D3F90190A248006A0146DA
:1092C00000900198FAF7D3FF02900399FAF777FF1D
:1092D0000490FBF7F0F980B2059011E49748418AB9
:1092E0000698814223DB9548018A069881421EDA5E
:1092F0009348008A0190FBF7BBF903908F48018ADD
:109300000698401A0090FBF7AAF901908D48406A30
:10931000014600900198FAF7AAFF02900399FAF724
:109320004EFF0490FBF7C7F980B2059011E4834823
:10933000818A0698814223DB8048418A06988142CF
:109340001EDA7F48408A0190FBF792F903907B4830
:10935000418A0698401A0090FBF781F901907948FC
:10936000806A014600900198FAF781FF0290039904
:10937000FAF725FF0490FBF79EF980B2059011E4FF
:109380006E48C18A0698814223DB6C48818A069820
:1093900081421EDA6A48808A0190FBF769F90390DE
:1093A0006648818A0698401A0090FBF758F90190A8
:1093B0006448C06A014600900198FAF758FF02908D
:1093C0000399FAF7FCFE0490FBF775F980B205905B
:1093D00011E45A48C18A069881421EDA5848C08A68
:1093E0000190FBF745F903905448C18A0698401A4A
:1093F0000090FBF734F901905248C06A0146009092
:109400000198FAF734FF02900399FAF7D8FE049016
:10941000FBF751F980B2059011E44848018806989D
:109420008142ACDB0698FBF723F9039045480068BE
:10943000014602900398FAF71AFF0490FBF73BF9F4
:1094400080B2059011E4404800780D287ED13B4859
:1094500041880698814223DB38480188069881427A
:109460001EDA374800880190FBF702F90390334871
:1094700001880698401A0090FBF7F1F801903148F6
:109480004068014600900198FAF7F1FE02900399B6
:10949000FAF795FE0490FBF70EF980B2059011E4FF
:1094A000264881880698814223DB24484188069813
:1094B00081421EDA224840880190FBF7D9F80390D8
:1094C0001E4841880698401A0090FBF7C8F80190A2
:1094D0001C488068014600900198FAF7C8FE029087
:1094E0000399FAF76CFE0490FBF7E5F880B205905B
:1094F00011E41248C188069881422DDB0F4881880B
:109500000698814228DA0E4880880190FBF7B0F86F
:1095100003900A4881880698401A0090FBF79FF84C
:1095200001900848C068014600900198FAF79FFE34
:1095300002900399FAF743FE049008E0B814002063
:10954000E014002068140020DA000020AFE1FBF7EF
:10955000B2F880B2059011E4FE4801890698814274
:1095600023DBFC48C188069881421EDAFA48C0888D
:109570000190FBF77DF80390F648C1880698401AE1
:109580000090FBF76CF80190F448006901460090E8
:109590000198FAF76CFE02900399FAF710FE049016
:1095A000FBF789F880B2059011E4EA4841890698F2
:1095B000814223DBE7480189069881421EDAE648AA
:1095C00000890190FBF754F80390E248018906985E
:1095D000401A0090FBF743F80190E04840690146CB
:1095E00000900198FAF743FE02900399FAF7E7FD1D
:1095F0000490FBF760F880B2059011E4D5488189AA
:109600000698814223DBD3484189069881421EDABD
:10961000D14840890190FBF72BF80390CD48418950
:109620000698401A0090FBF71AF80190CB48806921
:10963000014600900198FAF71AFE02900399FAF792
:10964000BEFD0490FBF737F880B2059011E4C148E5
:10965000C1890698814223DBBE48818906988142F0
:109660001EDABD4880890190FBF702F80390B948E3
:1096700081890698401A0090FAF7F1FF0190B748E7
:10968000C069014600900198FAF7F1FD0290039934
:10969000FAF795FD0490FBF70EF880B2059011E4FF
:1096A000AC48018A0698814223DBAA48C189069802
:1096B00081421EDAA848C0890190FAF7D9FF0390C9
:1096C000A448C1890698401A0090FAF7C8FF019093
:1096D000A248006A014600900198FAF7C8FD02907E
:1096E0000399FAF76CFD0490FAF7E5FF80B2059054
:1096F00011E49848418A0698814223DB9548018A03
:10970000069881421EDA9448008A0190FAF7B0FF69
:1097100003909048018A0698401A0090FAF79FFF3C
:1097200001908E48406A014600900198FAF79FFD2B
:1097300002900399FAF743FD0490FAF7BCFF80B258
:10974000059011E48348818A0698814223DB814891
:10975000418A069881421EDA7F48408A0190FAF7D2
:1097600087FF03907B48418A0698401A0090FAF7D9
:1097700076FF01907948806A014600900198FAF7D7
:1097800076FD02900399FAF71AFD0490FAF793FF19
:1097900080B2059011E46F48C18A0698814223DBAC
:1097A0006C48818A069881421EDA6B48808A019053
:1097B000FAF75EFF03906748818A0698401A009086
:1097C000FAF74DFF01906548C06A01460090019884
:1097D000FAF74DFD02900399FAF7F1FC0490FAF7BD
:1097E0006AFF80B205900CE45A48018B06988142CA
:1097F00023DB5848C18A069881421EDA5648C08A3F
:109800000190FAF735FF03905248C18A0698401A32
:109810000090FAF724FF01905048006B0146009039
:109820000198FAF724FD02900399FAF7C8FC049016
:10983000FAF741FF80B2059026E44648018B06986E
:1098400081421EDA4448008B0190FAF711FF039021
:109850004048018B0698401A0090FAF700FF0190EB
:109860003E48006B014600900198FAF700FD029017
:109870000399FAF7A4FC0490FAF71DFF80B2059053
:109880002BE43448018806988142ACDB0698FAF74D
:10989000EFFE039031480068014602900398FAF702
:1098A000E6FC0490FAF707FF80B2059015E42C4817
:1098B00000780E287DD1274841880698814223DB15
:1098C00024480188069881421EDA234800880190C6
:1098D000FAF7CEFE03901F4801880698401A0090C0
:1098E000FAF7BDFE01901D484068014600900198BE
:1098F000FAF7BDFC02900399FAF761FC0490FAF7BD
:10990000DAFE80B205901BE41248818806988142F5
:109910002DDB104841880698814228DA0E4840889D
:109920000190FAF7A5FE03900A4841880698401A6C
:109930000090FAF794FE0190084880680146009074
:109940000198FAF794FC02900399FAF738FC049016
:1099500008E00000B8140020E01400206814002083
:10996000DA000020FAF7A7FE80B2059011E4FE4865
:10997000C1880698814225DBFB4881880698814290
:1099800020DAFA4880880190FAF772FE0390F648D0
:1099900081880698401A0090FAF761FE0190F44819
:1099A000C068014600900198FAF761FC02900399A3
:1099B00000E0E2E1FAF703FC0490FAF77CFE80B2E3
:1099C00005900FE4E84801890698814223DBE648C8
:1099D000C188069881421EDAE448C0880190FAF7EF
:1099E00047FE0390E048C1880698401A0090FAF7B5
:1099F00036FE0190DE480069014600900198FAF7B2
:109A000036FC02900399FAF7DAFB0490FAF753FE5A
:109A100080B205900FE4D44841890698814223DB47
:109A2000D1480189069881421EDAD0480089019008
:109A3000FAF71EFE0390CC4801890698401A009060
:109A4000FAF70DFE0190CA4840690146009001985E
:109A5000FAF70DFC02900399FAF7B1FB0490FAF7BC
:109A60002AFE80B205900FE4BF48818906988142A2
:109A700023DBBD484189069881421EDABB484089F4
:109A80000190FAF7F5FD0390B74841890698401A0E
:109A90000090FAF7E4FD0190B54880690146009016
:109AA0000198FAF7E4FB02900399FAF788FB049017
:109AB000FAF701FE80B205900FE4AB48C189069821
:109AC000814223DBA8488189069881421EDAA74893
:109AD00080890190FAF7CCFD0390A348818906980C
