:020000040800F2
:1000000048490020D9010008E10100086F64000898
:10001000E5010008E7010008E90100080000000010
:10002000000000000000000000000000EB010008DC
:10003000ED01000800000000F7630008D30200088B
:10004000F3010008F3010008F301000891780008AB
:10005000F3010008F3010008F3010008F3010008B0
:10006000F3010008F3010008F3010008F3010008A0
:10007000F3010008F3010008F3010008F301000890
:10008000F3010008F3010008F3010008F301000880
:10009000F3010008F3010008F3010008F301000870
:1000A000F3010008F3010008F3010008F301000860
:1000B000F3010008F3010008B1320008F301000861
:1000C000F3010008F3010008F3010008F301000840
:1000D000F3010008EF300008F73000081D31000878
:1000E000F3010008F3010008F301000800F002F832
:1000F00000F062F80AA090E8000C82448344AAF160
:100100000107DA4501D100F057F8AFF2090EBAE85D
:100110000F0013F0010F18BFFB1A43F0010318473B
:1001200004960000249600000A444FF0000C10F8DA
:10013000013B13F0070408BF10F8014B1D1108BF65
:1001400010F8015B641E05D010F8016B641E01F805
:10015000016BF9D113F0080F1EBF10F8014BAD1C55
:100160000C1B09D16D1E58BF01F801CBFAD505E073
:1001700014F8016B01F8016B6D1EF9D59142D6D3CD
:10018000704700000023002400250026103A28BFF5
:1001900078C1FBD8520728BF30C148BF0B607047F9
:1001A000642908F0DD82632908F0ED8300207047A0
:1001B0001FB51FBD10B510BD08F0F1FB1146FFF7CC
:1001C000F7FF04F0B3FD08F00FFC03B4FFF7F2FFF4
:1001D00003BC08F017FC00000948804709480047A5
:1001E000FEE7FEE7FEE7FEE7FEE7FEE7FEE7FEE7E7
:1001F000FEE7FEE704480549054A064B7047000044
:1002000039080008ED000008484300204849002054
:10021000484500204845002010B500F091F9002025
:1002200010BD30B585B0684600F087FC4FF47A7297
:100230000198B0FBF2F1B1F1807F00D31DE021F015
:100240007F40401E4FF0E022506150170F220028DF
:1002500007DA13071D0E0A4B00F00F04241F1D556B
:1002600003E013071C0E074B1C5400BF00204FF087
:10027000E02290610720106100BF05B030BD000092
:1002800018ED00E000E400E00146481EB0F1807F78
:1002900001D301207047481E4FF0E0225061FF203B
:1002A000104A107000204FF0E0229061072010618A
:1002B0000020EFE710B500F0E6FA0B4800684FF4B5
:1002C0007A71B0FBF1F42046FFF7DEFF04F0E8FCA2
:1002D00010BD10B504F0A8FD04F0A7FC04F0B1FDBA
:1002E00010BD000023ED00E02C00002008B5012126
:1002F000042000F08FFC4FF48070ADF80000102057
:100300008DF8030003208DF802006946C04801F013
:10031000DDFF4FF48071BE4802F087F808BD22E08F
:100320000A2005F02AFDBB480068012806D04FF4DA
:100330008071B74802F05DF8012805D1B648007811
:10034000401CB549087002E00020B3490870B2486B
:1003500000780A2807DB4FF48071AD4802F065F899
:100360000020AC490860DBE78EB000200C900D90B7
:1003700007F062FF08F061F906F0F4FE07F029FAD1
:100380004FF08070A5490860042200210CA806F0F7
:1003900045FF9DF83000A249086008460068000249
:1003A00008609DF83100096808439D4908600846C7
:1003B0000068000208609DF8320009680843984907
:1003C000086008460068000208609DF8330009686C
:1003D0000843934908600846006808B9052008608A
:1003E000002008F047F88F49087097E08E48807821
:1003F0008E49097888427DD008F07BF887480068EC
:10040000A0F57A7086490968884274D38848407894
:10041000012803D12B208DF82C0002E02D208DF82F
:100420002C008348C078012803D12B208DF82D00A3
:1004300002E02D208DF82D007D484079012803D160
:100440002B208DF82E0002E02D208DF82E0078480C
:1004500000799DF82E10764A92789DF82D30CDE9DE
:100460000632CDE90810724800789DF82C1040F64D
:10047000FF736D4A9278CDE90223CDE904106A48F2
:10048000407869490978CDE900106749CB798A79C4
:100490006849694C2468081968A108F0EDF86649B4
:1004A00009680844644908600846006840F2B631AB
:1004B00088422CD96048008882B2594801685D485A
:1004C00006F044FF564800685B49096808445449EF
:1004D000086008460068000E8DF830000846006885
:1004E000000C8DF8310008460088000A8DF83200B3
:1004F000084601E00FE00AE000788DF8330004229E
:1005000000210CA806F022FF00204B490860464855
:10051000807846490870322005F02FFC66E704E039
:1005200002F0D4FB052005F028FCF9E710B50446DD
:10053000FFF7DCFE07F0DFFDC82005F01EFC10BD54
:100540001FB5FFF76EFE4FF47A7002F0B5FF05F0AD
:10055000B5FF06F05CF8142003214FF40072404B05
:10056000CDE90032CDE9021000233E4A3EA14048C9
:1005700005F014FB14200421CA013E4BCDE90032E2
:10058000CDE9021000233C4A3CA13E4805F006FBA1
:10059000142005214FF400723B4BCDE90032CDE928
:1005A00002100023394A3AA13B4805F0F7FA14201B
:1005B00005214FF40072394BCDE90032CDE902102C
:1005C0000023374A37A1394805F0E8FA324805F0E8
:1005D00020FB322005F0D1FB2A4805F01AFB244805
:1005E00005F017FB314805F014FB012004B010BDE5
:1005F00070B504460D46E1B22D4800F0ABFC00BFDB
:1006000080212B4800F014FD0028F9D0204670BD51
:1006100000080140100000202800002018000020E1
:1006200020000020160000200E3800201C000020B2
:1006300044010020940B0020240000202564256440
:100640002D25643A25643A256420256420256325F8
:1006500064202563256420256325640A00000000CA
:100660002C0200202D0500087461736B310000001E
:10067000B4010020A40400201F0500087461736BFE
:10068000320000002C0400201C0700206903000831
:100690007461736B33000000A406002094090020ED
:1006A0001F0300087461736B340000001C090020F4
:1006B0000038014031490143314A1160704770B53B
:1006C000002100230F22C47804B32D4C246804F4C5
:1006D000E064C4F5E064210AC1F10403CA4044782F
:1006E00004FA03F18478144021430901254C06786B
:1006F000A155047804F01F050124AC4005786D1164
:10070000AD0005F1E025C5F8004109E0047804F0EA
:100710001F050124AC401C4D0678761145F8264093
:1007200070BD1A4A0A400243154B1B1F1A607047DE
:1007300039B1134A121D12680243114B1B1D1A6076
:1007400006E00F4A121D126882430D4B1B1D1A60F2
:100750007047042808D14FF0E021096941F00401F5
:100760004FF0E022116107E04FF0E021096921F02C
:1007700004014FF0E0221161704700000000FA050B
:100780000CED00E000E400E080E100E080FFFF1FEE
:100790000CB50020019000905E48006840F4803065
:1007A0005C49086000BF5B48006800F400300090BE
:1007B0000198401C0190009818B90198B0F5A06FFD
:1007C000F1D15448006800F4003010B101200090CD
:1007D00001E0002000900098012828D14E480068D0
:1007E00040F010004C4908600846006820F0030003
:1007F0000860084600680860464840684549486007
:1008000008464068486008464068486008464068B6
:1008100020F0030048600846406840F0010048604E
:1008200000BF3C48406800F00C000428F9D10CBD22
:1008300010B5FFF7ADFF10BD10B53648006840F0A9
:10084000010034490860084640683449084031498D
:10085000486008460068324908402E49086008464A
:10086000006820F4802008600846406820F4FE00FC
:1008700048604FF41F008860FFF7DAFF4FF0006018
:100880002849086010BD10B5002100200022214B2E
:100890005B6803F00C0121B1042906D0082928D196
:1008A00007E0214B214C236027E01F4B1F4C2360A6
:1008B00023E0184B5B6803F47010164B5B6803F47D
:1008C0008032022303EB904022B9194B4343174C6B
:1008D00023600DE00F4B5B6803F4003323B1144B2E
:1008E0004343124C236003E00F4B43430F4C236000
:1008F00003E00D4B0D4C236000BF00BF054B5B6850
:10090000C3F303130B4CE15C084B1B68CB40074C53
:10091000236010BD00100240002002400000FFF8DC
:10092000FFFFF6FE08ED00E000127A002C00002028
:1009300000093D0030000020DF48006840F0010061
:10094000DD49086008464068DC490840DA494860EB
:1009500008460068DA490840D74908600846006838
:1009600020F4802008600846406820F4FE004860BB
:100970004FF41F0088607047CF49096821F4803127
:10098000CD4A11601146096821F480211160B0F54B
:10099000803F03D0B0F5802F0ED106E0C64909682C
:1009A00041F48031C44A116007E0C349096841F449
:1009B000A021C14A116000E000BF00BF704710B520
:1009C00001460022002300204A11012A02D1BA4C1C
:1009D000236806E0022A02D1B74C236A01E0B64C34
:1009E000636A01F01F02012494401C400CB10120F5
:1009F00000E0002010BD38B5002000900024002544
:100A000000BF3120FFF7DBFF05460098401C009037
:100A10000098B0F5A06F01D0002DF2D03120FFF783
:100A2000CEFF08B1012400E00024204638BD014675
:100A30000020A14A106820F0F80040EAC1001060D0
:100A40007047A04908607047024600209A4B5868DA
:100A500020F47C1042EA01031843974B586070471A
:100A600098490866704701460020934A506820F074
:100A700003000843506070478F48406800F00C0046
:100A80007047014600208C4A506820F0F00008436F
:100A90005060704701460020874A506820F4E060AB
:100AA00008435060704701460020834A506820F494
:100AB000605040EAC1005060704729B17E4A527AC6
:100AC00002437D4B5A7204E07B4A527A82437A4B4E
:100AD0005A7270477B49D831086070470146002040
:100AE000754A506820F44040084350607047002128
:100AF000714A20321170704A82F82010012802D009
:100B000004280AD104E001216B4A2032117005E06B
:100B10000521694A2032117000E000BF00BF704714
:100B20006949086070476449096A0143624A116271
:100B30007047654944390860704730B5002100228C
:100B4000002400235C4D6D6805F00C0121B10429DF
:100B500005D0082923D105E05C4D056022E05B4DFE
:100B600005601FE0544D6D6805F47012524D6D68BC
:100B700005F48034022505EB92421CB9544D5543CF
:100B800005600BE04C4D6D6805F400351DB1504D0E
:100B90005543056002E04D4D5543056002E04B4D65
:100BA000056000BF00BF444D6D6805F0F001090904
:100BB000484D6B5C0568DD4045603F4D6D6805F450
:100BC000E061090A434D6B5C4568DD4085603A4D44
:100BD0006D6805F46051C90A3E4D6B5C4568DD40A7
:100BE000C560354D6D6805F44041890B3A4D6B5C2D
:100BF000C568B5FBF3F5056130BD29B12E4A5269D0
:100C000002432D4B5A6104E02B4A526982432A4B1E
:100C10005A61704729B1284A92690243264B9A616A
:100C200004E0254A92698243234B9A61704729B1B7
:100C3000214AD2690243204BDA6104E01E4AD2699C
:100C400082431D4BDA61704729B11B4AD2680243C7
:100C5000194BDA6004E0184AD2688243164BDA6016
:100C6000704729B1144A12690243134B1A6104E018
:100C7000114A12698243104B1A6170471249403978
:100C8000086070470F49C86470470B49C8717047C6
:100C90000948406A40F08070074948627047014641
:100CA0000020054A92680A400AB1012000E00020B5
:100CB0007047014988727047001002400000FFF839
:100CC000FFFFF6FE000042428004424200127A001A
:100CD00000093D00400000205000002010B50446EF
:100CE000FB48844209D101218803FFF7ADFF0021B1
:100CF0004FF48040FFF7A8FF32E0F648844209D164
:100D000001214804FFF7ADFF00214FF40030FFF749
:100D1000A8FF25E0F048844209D101218804FFF7AB
:100D2000A0FF00214FF48020FFF79BFF18E0EB4865
:100D3000844209D10121C804FFF793FF00214FF439
:100D40000020FFF78EFF0BE0E548844208D1012127
:100D50000805FFF786FF00214FF48010FFF781FFA1
:100D600010BD2DE9F04786B005460E460024A24688
:100D700000BFA1460027B08900B100BF2F462C8AD2
:100D80004CF6FF700440F08804432C82AC894EF688
:100D9000F3100440B0883189084371890843044343
:100DA000AC81AC8A4FF6FF400440B0890443AC826A
:100DB00001A8FFF7C2FEC648874202D1DDF810A0A5
:100DC00001E0DDF80CA0A88900F4004040B10AEB76
:100DD000CA0000EB0A1031684900B0FBF1F807E0E7
:100DE0000AEBCA0000EB0A1031688900B0FBF1F889
:100DF0006420B8FBF0F004012009642101FB108994
:100E0000A88900F4004040B1322000EBC900B0FBDB
:100E1000F1F000F00700044308E0322000EB091075
:100E20006421B0FBF1F000F00F0004432C8106B008
:100E3000BDE8F0874FF41651016000218180C18028
:100E400001810C21418100218181704710B502464A
:100E50000020108A4FF2FF0318400B884C88234370
:100E60008C882343CC8823431843108210BD002173
:100E7000018041808180C180704721B1828942F424
:100E80000052828104E082894DF6FF731A4082810C
:100E90007047F0B50346002400260025002040F6E8
:100EA0006A17B94200D100BF1846C1F3421401F0DD
:100EB0001F06012707FA06F5012C01D10C3004E0CA
:100EC000022C01D1103000E014301AB107682F4312
:100ED000076002E00768AF430760F0BD1AB1838A7C
:100EE0000B43838202E0838A8B4383827047028AAA
:100EF0004FF6F0731A400282028A0A430282704758
:100F000082894FF2FF731A40828182890A4382816B
:100F1000704721B1828942F00202828104E0828915
:100F20004FF6FD731A4082817047028A4FF6DF73D5
:100F30001A400282028A0A430282704721B1028A61
:100F400042F48042028204E0028A4BF6FF731A40A8
:100F500002827047C1F30802828070470146888888
:100F6000C0F308007047818941F001018181704719
:100F7000028BD2B20283028B42EA012202837047C3
:100F8000028B02F47F420283028B0A430283704782
:100F900021B1828A42F02002828204E0828A4FF6E6
:100FA000DF731A408282704721B1828A42F01002B8
:100FB000828204E0828A4FF6EF731A408282704781
:100FC00021B1828A42F00802828204E0828A4FF6CE
:100FD000F7731A408282704721B1828942F400423D
:100FE000828103E08289C2F30E028281704721B1BF
:100FF000828A42F40062828204E0828A4FF2FF73A6
:101000001A4082827047828A4FF6FB731A408282AE
:10101000828A0A438282704721B1828A42F00202A8
:10102000828204E0828A4FF6FD731A408282704702
:1010300002460020B1F5007F00D100BF13880B40AD
:101040000BB1012000E00020704701F40072B2F5FE
:10105000007F00D100BFCA430280704770B50246CE
:10106000002400230025002040F66A16B14200D17A
:1010700000BFC1F3421501F01F03012606FA03F376
:10108000012D02D19689334006E0022D02D1168A45
:10109000334001E0968A33400C12012606FA04F42C
:1010A0001688344013B10CB1012000E0002070BD5F
:1010B00010B50022002340F66A14A14200D100BFFF
:1010C0000A1201249440A3B2DC43048010BD000046
:1010D000003801400044004000480040004C0040FF
:1010E0000050004010B50446FE48844208D101215A
:1010F000C014FFF7A9FD0021E014FFF7A5FDC4E02F
:10110000B4F1804F08D101210846FFF7AAFD002164
:101110000120FFF7A6FDB8E0F348844208D1012181
:101120000220FFF79EFD00210220FFF79AFDACE0B0
:10113000EE48844208D101210420FFF792FD0021EE
:101140000420FFF78EFDA0E0E948844208D1012188
:101150000820FFF786FD00210820FFF782FD94E0BC
:10116000E448844208D101211020FFF77AFD0021D4
:101170001020FFF776FD88E0DF48844208D1012186
:101180002020FFF76EFD00212020FFF76AFD7CE0A4
:10119000DA48844208D101214014FFF755FD0021AF
:1011A0006014FFF751FD70E0D548844209D1012158
:1011B000C804FFF749FD00214FF40020FFF744FD6C
:1011C00063E0D048844209D101210805FFF73CFDC6
:1011D00000214FF48010FFF737FD56E0CA488442E3
:1011E00009D101214805FFF72FFD00214FF4001020
:1011F000FFF72AFD49E0C548844208D1012140207B
:10120000FFF72FFD00214020FFF72BFD3DE0C048F8
:10121000844208D101218020FFF723FD0021802096
:10122000FFF71FFD31E0BB48844208D10121801542
:10123000FFF717FD0021A015FFF713FD25E0B648C5
:10124000844209D101210804FFF7FEFC00214FF47C
:101250008030FFF7F9FC18E0B048844209D1012141
:101260004804FFF7F1FC00214FF40030FFF7ECFCDD
:101270000BE0AB48844208D101218804FFF7E4FC6D
:1012800000214FF48020FFF7DFFC10BD0022028810
:10129000944B98420ED0994B98420BD0B0F1804FAE
:1012A00008D0914B984205D0904B984202D0904B79
:1012B000984204D14FF68F731A404B881A438D4BD6
:1012C000984207D08C4B984204D04FF6FF431A4007
:1012D000CB881A4302808B8883850B880385814BDA
:1012E00098420BD0854B984208D08B4B984205D042
:1012F0008A4B984202D08A4B984201D10B7A0386DE
:1013000001238382704770B5002400220023058CDE
:101310004FF6FE7635400584028C8388048B4FF6A9
:101320008F752C40B51E2C400D882C43751E2A400D
:101330000D892A434D882A436A4DA8420BD06F4D30
:10134000A84208D0744DA84205D0744DA84202D0DE
:10135000734DA84213D14FF6F7752A404D892A43A1
:101360004FF6FB752A408D882A434FF6FF652B40C8
:101370004FF6FF552B408D892B43CD892B4383801E
:101380000483CD888586028470BD70B50024002258
:101390000023058C4FF6EF7635400584028C838858
:1013A000048B48F6FF752C404FF6FF452C400D8806
:1013B0004FF6FF7606EA05252C434FF6DF752A40E7
:1013C0000D8906EA05152A434D8806EA05152A43C4
:1013D000444DA84202D0494DA8421DD14FF67F7519
:1013E0002A404D894FF6FF7606EA05152A434FF647
:1013F000BF752A408D8806EA05152A434FF6FF354A
:101400002B404FF2FF752B408D8906EA85052B4353
:10141000CD8906EA85052B4383800483CD88058723
:10142000028470BD70B5002400220023058C4FF6A5
:10143000FF6635400584028C8388848B4FF68F7558
:101440002C404FF6FC752C400D882C434FF6FF5571
:101450002A400D894FF6FF7606EA05252A434D8876
:1014600006EA05252A431F4DA84202D0234DA84273
:101470001DD14FF2FF752A404D894FF6FF7606EADF
:1014800005252A434FF6FF352A408D8806EA0525B3
:101490002A434EF6FF752B404DF6FF752B408D8984
:1014A00006EA05152B43CD8906EA05152B438380F3
:1014B0008483CD888587028470BD70B500220023A7
:1014C0000024058C4EF6FF7635400584038C848815
:1014D000828B48F6FF752A404FF6FF452A400D885B
:1014E00020E00000002C0140000400400008004003
:1014F000000C004000100040001400400034014087
:10150000004C0140005001400054014000180040D0
:10151000001C004000200040004001400044014009
:10152000004801404FF6FF7606EA05252A434DF6AE
:10153000FF752B400D8906EA05352B434D8806EAD9
:1015400005352B43FA4DA84202D0FA4DA84208D1E6
:101550004BF6FF752C408D894FF6FF7606EA851510
:101560002C4384808283CD88A0F84050038470BDD2
:10157000828B4FF2FF331A408283828B4FF6FF73C8
:1015800003EA01231A4382837047F0B50C461546DF
:10159000002200210026078C4EF6FF7C07EA0C078C
:1015A0000784828B018C4FF6FF7707EA043640F6FA
:1015B000FF473A404FF6FF7707EA05273A434FF6D1
:1015C000FF7707EA03373A43D94FB8420ED0D94FD5
:1015D000B8420BD0B0F1804F08D0D74FB84205D0F9
:1015E000D64FB84202D0D64FB84206D14DF6FF775B
:1015F000394046F48057394305E047F6FF573940F4
:1016000044F48057394382830184F0BD828B4FF6C6
:10161000F3731A408283828B0A4382837047F0B54A
:101620000C461546002200210026078C4FF6FF6C61
:1016300007EA0C070784828B018C4FF6FF7707EAD5
:1016400004264FF60C773A404FF6FF7707EA031768
:101650002F433A43B64FB8420ED0B64FB8420BD0E4
:10166000B0F1804F08D0B44FB84205D0B34FB84264
:1016700002D0B34FB84206D14FF6FF57394046F477
:101680008077394305E04FF2FF57394044F48077C3
:10169000394382830184F0BD028B4FF2FF331A403D
:1016A0000283028B4FF6FF7303EA01231A4302837E
:1016B0007047F0B50C461546002200210026078C25
:1016C0004FF6EF7C07EA0C070784028B018C4FF67C
:1016D000FF7707EA041640F6FF473A404FF6FF77D8
:1016E00007EA03373A434FF6FF7707EA05273A43FD
:1016F0008F4FB8420ED08F4FB8420BD0B0F1804F11
:1017000008D08D4FB84205D08C4FB84202D08C4FD4
:10171000B84206D14FF6DF77394046F0100739431B
:1017200005E04FF65F77394044F0100739430283F4
:101730000184F0BD028B4FF6F3731A400283028BD3
:101740000A4302837047F0B50C461546002200217B
:10175000068C4FF6FE773E400684028B018C4FF6D6
:101760000C7632407E1C06EA03162E433243704E3E
:10177000B0420ED06F4EB0420BD0B0F1804F08D0C7
:101780006D4EB04205D06D4EB04202D06C4EB042AC
:1017900006D14FF6FD76314044F00106314305E0B5
:1017A0004FF6F576314044F001063143028301845F
:1017B000F0BD70B505460C465D4885420ED05D48CB
:1017C00085420BD0B5F1804F08D05B48854205D0EB
:1017D0005A48854202D05A48854200D100E000BFF5
:1017E000208850B92389A28861882846FFF7ABFF7B
:1017F000E1882846FFF79EFF25E0208804280AD1CB
:101800002389A28861882846FFF753FFE18828468C
:10181000FFF742FF17E0208808280AD12389A28811
:1018200061882846FFF7FBFEE1882846FFF7EEFEB9
:1018300009E02389A28861882846FFF7A6FEE1888F
:101840002846FFF795FE70BD2DE9F04105460C4690
:1018500000260127608808B9022600E00026A0883B
:10186000012801D1022700E001272088A0B923899F
:10187000A28861882846FFF766FFE1882846FFF7BF
:1018800059FF23893A4631462846FFF712FFE1887F
:101890002846FFF701FF13E02389A28861882846C4
:1018A000FFF707FFE1882846FFF7F6FE23893A464F
:1018B00031462846FFF747FFE1882846FFF73AFF01
:1018C000BDE8F0810A884B881A438B881A43CB887D
:1018D0001A430B891A434B891A438B891A43A0F880
:1018E000442070474FF6FF71818000210180C18044
:1018F0004180017270470021018041808180C18058
:10190000018141818181C181704700210180418035
:10191000012181800021C180018170470021018067
:1019200041808180C18001814181818170470000B7
:10193000002C014000340140000400400008004039
:10194000000C004021B1028842F00102028004E054
:1019500002884FF6FE731A400280704731B1B0F82A
:10196000442042F40042A0F8442005E0B0F84420AE
:10197000C2F30E02A0F8442070471AB183890B43CA
:10198000838102E083898B43838170478182704722
:1019900041EA0203A0F8483070471AB183890B432B
:1019A000838102E083898B438381704701894FF6ED
:1019B000F8721140018170470A46002101894FF6F3
:1019C0008F73194011430181704730B504460D46AD
:1019D00029462046FFF7F0FF208940F007002081CC
:1019E00030BD2DE9F04104460D4616461F46602DD8
:1019F00006D13B46012231462046FFF75AFE05E05C
:101A00003B46012231462046FFF79DFE29462046EF
:101A1000FFF7D2FF208940F007002081BDE8F08168
:101A200030B50C4600210189C9B24FF6FF7505EAB1
:101A30000325154325432943018130BD2DE9F0419C
:101A400005460E4617469846002443463A46314618
:101A50002846FFF7E5FF2C894FF6F870044044F064
:101A600007044FF68F70044044F070042C81BDE8E9
:101A7000F081F0B504460D4616461F463B463246F9
:101A800029462046FFF7CCFF208940F48040208182
:101A9000F0BD0185828270470A46002101884FF619
:101AA0008F731940114301807047F0B50C461546FD
:101AB0001E460021002200230189028B038C4FF671
:101AC000F877394021434FF6FC473A4040F201177E
:101AD0003A434FF6DD773B404FF6FF7707EA0617AC
:101AE0002F433B43018102830384F0BD0A4600215A
:101AF000018B4FF68F7319401143018370470A46DB
:101B00000021018B48F6FF7319404FF6FF7303EA7B
:101B100002231943018370470A460021818B4FF647
:101B20008F7319401143818370470A460021818BCE
:101B300048F6FF7319404FF6FF7303EA0223194377
:101B40008183704721B1028842F08002028004E064
:101B500002884FF67F731A400280704721B1828855
:101B600042F00402828004E082884FF6FB731A4040
:101B70008280704721B1828842F00802828004E0AE
:101B800082884FF6F7731A408280704721B18288AD
:101B900042F00102828004E082884FF6FE731A4010
:101BA000828070470A460021018B4FF6F773194077
:101BB0001143018370470A460021018B4FF2FF73E6
:101BC00019404FF6FF7303EA02231943018370475C
:101BD0000A460021818B4FF6F77319401143818328
:101BE00070470A460021818B4FF2FF7319404FF670
:101BF000FF7303EA02231943818370470A460021D9
:101C0000018B4FF6FB7319401143018370470A465D
:101C10000021018B4FF6FF3319404FF6FF7303EAA3
:101C200002231943018370470A460021818B4FF636
:101C3000FB7319401143818370470A460021818B51
:101C40004FF6FF3319404FF6FF7303EA022319439F
:101C5000818370470A460021018B4FF67F7319403C
:101C60001143018370470A460021018BC1F30E0125
:101C70004FF6FF7303EA02231943018370470A46B4
:101C80000021818B4FF67F73194011438183704788
:101C90000A460021818BC1F30E014FF6FF7303EA60
:101CA00002231943818370470A460021018C4FF6B5
:101CB000FD7319401143018470470A460021018CCD
:101CC0004FF6F77319401143018470470A4600210B
:101CD000018C4FF6DF7319404FF6FF7303EA0213CE
:101CE0001943018470470A460021018C4FF67F7327
:101CF00019404FF6FF7303EA02131943018470473A
:101D00000A460021018C4FF6FF5319404FF6FF732E
:101D100003EA02231943018470470A460021018C1B
:101D20004FF2FF7319404FF6FF7303EA0223194382
:101D3000018470470A460021018C4DF6FF7319405B
:101D40004FF6FF7303EA023319430184704730B53D
:101D5000002301248C40A3B2048C9C430484048C93
:101D600002FA01F5ADB22C43048430BD30B5002336
:101D700004248C40A3B2048C9C430484048C02FA97
:101D800001F5ADB22C43048430BD70B5034600208C
:101D900000241846183001258D40ACB21D8CA54397
:101DA0001D8409B1082909D100EB6100056825F0FF
:101DB000700505600568154305600EE00D1FC5F34D
:101DC0004E052844056825F4E045056005684FF692
:101DD000FF7606EA02263543056070BD21B1028810
:101DE00042F00202028004E002884FF6FD731A40BE
:101DF0000280704721B1028842F00402028004E0B0
:101E000002884FF6FB731A400280704721B1828826
:101E100042F08002828004E082884FF67F731A408D
:101E20008280704702884FF6F7731A40028002885A
:101E30000A430280704782884FF68F731A4082806F
:101E400082880A438280704702894FF6F8731A40ED
:101E5000028102890A430281704702894FF67F732B
:101E60001A40028102890A430281704781847047C7
:101E700081857047818670470187704781877047E9
:101E8000A0F84010704702884FF6FF431A400280C6
:101E900002880A43028070470146888E70470146D7
:101EA000088F70470146888F70470146B1F840009F
:101EB00070470146888C70470146088D704702467E
:101EC0000020138A0B400BB1012000E00020704776
:101ED000CA430282704730B5024600200023002426
:101EE000158A05EA0103958905EA010413B10CB1CD
:101EF000012000E0002030BDCA430282704700008C
:101F000010B50446BE48844208D101218014FEF772
:101F10009BFE0021A014FEF797FE16E0B94884420C
:101F200008D101210014FEF79CFE00212014FEF7C9
:101F300098FE0AE0B448844207D10121C013FEF79D
:101F400090FE0021E013FEF78CFE10BD10B50022BC
:101F5000028802F441520B884C8823438C88234327
:101F6000CC8823430C8923434C8923438C89234306
:101F7000CC8923431A430280838B4FF2FF742340A2
:101F800083830B8A038210BD2DE9F04F85B005468F
:101F90000C464FF0000902274FF000084FF0010BEC
:101FA0000026B246A88B4FF240010840A8830220C9
:101FB0002884B5F81C90A068022801D100BF38E041
:101FC000A08810B94FF0010B01E04FF0020B8D48D3
:101FD000854200D100E000BF6846FEF7AEFDDDF8A7
:101FE00000A0E088B0F5007F0AD14FEA1A2000EB8C
:101FF00080004000A168B0FBF1F0401D86B20BE00C
:102000004FEA4B10BAFBF0F000EB80004000A168F3
:10201000B0FBF1F0401D86B20A20B6FBF0F606F0E8
:102020000108A6EB0800C0F34F074FF6FF7000EA67
:102030000828022F01DBFF2F02DD02274FF00008E6
:10204000E08840EA080038432884A088A189084332
:10205000618808432188084340F4006040EA090988
:10206000A5F81C9005B0BDE8F08F002101804180EB
:102070008180C180018141818181C18107210182EB
:1020800070470021018041808180C18002218160F0
:1020900000218181704721B1028842F04002028014
:1020A00004E002884FF6BF731A400280704721B1E6
:1020B000828B42F48062828304E0828B4FF6FF338E
:1020C0001A408283704730B5002400230C1101258B
:1020D000A540ABB21AB185881D43858002E0858892
:1020E0009D43858030BD1AB183880B43838002E015
:1020F00083888B438380704781817047014688893C
:1021000070474FF6FF62914204D0028842F4807219
:10211000028004E002884FF6FF631A400280704795
:1021200021B1828842F00402828004E082884FF666
:10213000FB731A408280704702884FF2FF731A4087
:10214000028002880A4302807047018841F480516E
:102150000180704721B1028842F40052028004E0FD
:1021600002884DF6FF731A40028070470246002035
:10217000012901D0108B00E0908A70470146088A3F
:102180007047B1F5804F04D1028842F4804202804A
:1021900004E002884BF6FF731A4002807047024643
:1021A000002013890B400BB1012000E00020704794
:1021B000CA4302817047F0B5024600200024002384
:1021C000002501F00F070126BE40B4B20B11012615
:1021D0009E40B3B2968806EA03051689264016B1DA
:1021E0000DB1012000E00020F0BD10B5002201F08B
:1021F0000F040123A3409AB2D343038110BD000012
:102200000030014000380040003C004010B504465A
:10221000CC48844208D101210420FEF715FD00219D
:102220000420FEF711FD46E0C748844208D1012191
:102230000820FEF709FD00210820FEF705FD3AE021
:10224000C248844208D101211020FEF7FDFC002184
:102250001020FEF7F9FC2EE0BD48844208D1012190
:102260002020FEF7F1FC00212020FEF7EDFC22E00B
:10227000B848844208D101214020FEF7E5FC002146
:102280004020FEF7E1FC16E0B348844208D101216A
:102290008020FEF7D9FC00218020FEF7D5FC0AE063
:1022A000AE48844207D101218015FEF7CDFC002104
:1022B000A015FEF7C9FC10BD10B501210846FEF7B8
:1022C000C3FC00210120FEF7BFFC10BD2DE9F04149
:1022D000024600250026002000230024002791F854
:1022E00003C00CF00F0591F803C00CF0100CBCF10A
:1022F000000F03D091F802C04CEA050591F800C028
:10230000BCF1000F31D0146800202BE04FF0010C1D
:102310000CFA00F3B1F800C00CEA03069E4220D18B
:1023200083004FF00F0C0CFA03F7BC4305FA03FCD3
:102330004CEA040491F803C0BCF1280F06D14FF019
:10234000010C0CFA00FCC2F814C00AE091F803C0BA
:10235000BCF1480F05D14FF0010C0CFA00FCC2F89B
:1023600010C0401C0828D1D31460B1F800C0BCF1E3
:10237000FF0F34DD546800202EE000F1080C4FF010
:10238000010808FA0CF3B1F800C00CEA03069E42FB
:1023900021D183004FF00F0C0CFA03F7BC4305FA70
:1023A00003FC4CEA040491F803C0BCF1280F05D1EA
:1023B00000F1080C08FA0CF8C2F8148091F803C078
:1023C000BCF1480F07D100F1080C4FF0010808FAE2
:1023D0000CF8C2F81080401C0828CED35460BDE829
:1023E000F0814FF6FF710180022181700421C170DC
:1023F00070470246002093680B400BB1012000E0BB
:10240000002070470146886880B27047024600206D
:10241000D3680B400BB1012000E00020704701465B
:10242000C86880B2704701617047416170470AB166
:10243000016100E041617047C16070474FF4803234
:102440000A438261816182618269826970470246C2
:102450000020434B18684FF68073184040EA021082
:1024600008433F4B186070473E49C8617047F0B55C
:102470000A46002300240021002500F00046B6F1A2
:10248000004F02D1364EF16901E0354E7168C0F35C
:10249000034583B200F44016B6F5401F08D121F081
:1024A00070612F4E766826F070662D4F7E6012E0C8
:1024B00000F48016B6F5801F06D1032606FA05F44F
:1024C000A14341F0706106E0460D360103FA06F6BD
:1024D000B14341F0706122B1460D360103FA06F6B0
:1024E000314300F00046B6F1004F02D11C4EF161BD
:1024F00001E01B4E7160F0BD30B500228B071C0F50
:102500000F2303FA04F2164B08338C1053F82430CF
:102510009343134C08348D1044F8253023468C1017
:1025200053F824308C07240F00FA04F423430C4C96
:1025300008348D1044F8253030BD0A49DC3108607C
:102540007047000000080140000C014000100140ED
:102550000014014000180140001C0140002001400F
:10256000000001400000204210B50446FA488442B1
:1025700008D101214015FEF767FB00216015FEF729
:1025800063FB17E0F548844208D101210015FEF7EE
:102590005BFB00212015FEF757FB0BE0F04884425F
:1025A00008D10121C803FEF74FFB00214FF4004082
:1025B000FEF74AFB10BD30B50246002000235068EC
:1025C000E84C20400D790C6844EA05242043506013
:1025D0009068E54C2040D1E902542C434D7944EAFF
:1025E000450420439060D06A20F470000C7C641E87
:1025F000E4B2234340EA0350D06230BD00210160C1
:10260000017141718160C16001210174704721B184
:10261000826842F00102826003E0826822F00102D7
:102620008260704721B1826842F48072826003E068
:10263000826822F480728260704710B50023CBB2AA
:102640001AB144681C43446002E044689C434460FF
:1026500010BD816841F0080181607047014600208B
:102660008A6802F008020AB1012000E000207047E9
:10267000816841F0040181607047014600208A684A
:1026800002F004020AB1012000E00020704721B1ED
:10269000826842F4A002826003E0826822F4A00211
:1026A00082607047014600208A6802F480020AB105
:1026B000012000E00020704710B50A4600210023E9
:1026C000416821F46041531E41EA4331416010BD2D
:1026D00021B1426842F40062426003E0426822F4A1
:1026E000006242607047F0B504460D4600200021AC
:1026F000092D11DDE068A5F10A0606EB460707265D
:1027000006FA07F18843A5F10A0606EB460603FA26
:1027100006F10843E0600CE0206905EB4507072659
:1027200006FA07F1884305EB450603FA06F108436C
:102730002061072A0FDA606B561E06EB86071F26FC
:1027400006FA07F18843561E06EB860605FA06F1DF
:102750000843606322E00D2A0FDA206BD61F06EBD8
:1027600086071F2606FA07F18843D61F06EB860662
:1027700005FA06F10843206310E0E06AA2F10D06B5
:1027800006EB86071F2606FA07F18843A2F10D061D
:1027900006EB860605FA06F10843E062F0BD21B1BA
:1027A000826842F48012826003E0826822F4801220
:1027B000826070470146C86C80B2704766484C30F2
:1027C0000068704721B1426842F48062426003E0D1
:1027D000426822F480624260704721B1426842F44C
:1027E0008052426003E0426822F4805242607047A7
:1027F0000A460021816821F4E0411143816070475D
:1028000021B1826842F40042826003E0826822F4CF
:1028100000428260704721B1826842F402128260F5
:1028200003E0826822F402128260704701460020B1
:102830008A6802F400120AB1012000E0002070470B
:10284000F0B504461546002000220026092911DDB6
:10285000E068A1F10A0707EB470C072707FA0CF21B
:102860009043A1F10A0707EB470703FA07F2104369
:10287000E0600CE0206901EB410C072707FA0CF23D
:10288000904301EB410703FA07F210432061A06B6C
:10289000C0F30156EF1C06F1010CA7EB0C0707EB88
:1028A000870C1F2707FA0CF29043EF1C06F1010C6E
:1028B000A7EB0C0707EB870701FA07F21043A063A9
:1028C000F0BD10B50A4600210023816B21F44011B0
:1028D000531E41EA0351816310BD08B500230093E4
:1028E0000090009B0B440093009B1A6008BD08B544
:1028F000024600200090009201F12800009B18443D
:1029000000900098006880B208BD0A460021416826
:10291000164B194011434160704741628262704713
:102920000A460021416821F01F01114341607047B0
:1029300040B109490831096841F40001064A0832EA
:10294000116007E004490831096821F40001024AD6
:102950000832116070470000002401400028014047
:10296000003C0140FFFEF0FFFDF7F1FFFFFD3FFFE0
:102970000246002013680B400BB1012000E000204C
:102980007047CA430260704770B5024600200023BA
:1029900000240B125568CEB205EA060415681D40E6
:1029A00015B10CB1012000E0002070BD00220A1218
:1029B000D34303607047000029B1504A1288024394
:1029C0004E4B1A8004E04D4A128882434B4B1A80CA
:1029D00070474A48001D008840F010004749091D13
:1029E000088070474548001D00884FF6EF71084089
:1029F0004249091D08807047002140481C30018869
:102A0000001F008841EA0040704700B50246FFF70A
:102A1000E0FF100C394918310880091D0A80FFF7C2
:102A2000E1FF00BD00B50246FFF7D3FFC2F303404C
:102A3000324908310880091D0A80FFF7D3FF00BD25
:102A400000B50246FFF7C5FF100C2C492031088065
:102A5000091D0A80FFF7C6FF00BD0020274910317D
:102A600009880907080B254914310988084370476C
:102A700000BF2248001D008800F020000028F8D088
:102A800070471E48001D00884FF6F77108401B492B
:102A9000091D088000BF1948001D008800F00800CB
:102AA0000028F8D0704701460020144A121D1288F1
:102AB0000A400AB1012000E0002070470F49091DBB
:102AC000098881430D4A121D11807047014600207C
:102AD0000A4A121D12880A40D0B2084A12880A40D7
:102AE00012B108B1012000E0002070470349091D20
:102AF00009888143014A121D118070470028004057
:102B000010B501210807FEF7ACF800214FF0805006
:102B1000FEF7A7F810BD2A490862704728490861E6
:102B2000704701460020274A106820F0E000084363
:102B3000106070472249A0310860704710B5024606
:102B40000020204B186820F00300104318601E4B33
:102B50001B6843F004031C4C2360012901D130BFE2
:102B600000E020BF184B1B6823F00403164C2360C1
:102B700010BD1448006840F004001249086008467F
:102B8000006840F0020008600F48006840F0040050
:102B90000D49086000BF00BF30BF704701460020EC
:102BA000084A52680A400AB1012000E0002070473C
:102BB0000449096841EA8001024A11607047000037
:102BC00000000E420070004010ED00E010B5012042
:102BD000FEF754F80020FEF751F810BD2A490860AE
:102BE00070472949091F08607047274984310860E8
:102BF000704701460020254A10884FF67F4210405A
:102C00000843224A10807047014600201F4A10885E
:102C10004FF68072104008431C4A1080704708B578
:102C200000220092194A2C3A0092009A0244009223
:102C3000009A116008BD08B50146002000901348B5
:102C40002C3800900098084400900098008808BD37
:102C50000D489C300068C0B270470C4808300088AE
:102C600040F0010009490831088070470648A0304B
:102C70000068C0B2704705480830008840F0020084
:102C8000024908310880704704860D422C6C0040D0
:102C90007047704710B5FFF7FCFFFFF7F9FF10BD55
:102CA0007047704710B5FFF7FCFFFFF7F9FF10BD45
:102CB00058B1017D19B1012900D105E000BF012102
:102CC00002780E4B995400BF00BF704770B50024C6
:102CD00010E00A48005D58B100200849085540F24C
:102CE00013106043064901EB8005284600F0EAFC1A
:102CF000601CC4B2032CECDB70BD0000540000204B
:102D0000E416002010B50446607A012804D0022899
:102D100009D0032815D10DE0002240F22551F848D2
:102D2000FEF7B7F80EE0002240F22551F548FEF715
:102D3000B0F807E0002240F22551F348FEF7A9F869
:102D400000E000BF00BF10BD10B50446607A012846
:102D500004D0022809D0032815D10DE0002240F24A
:102D60002661E748FEF795F80EE0002240F2266162
:102D7000E448FEF78EF807E0002240F22661E248C0
:102D8000FEF787F800E000BF00BF10BD70B5DF4D53
:102D9000002409E02846FFF7D7FF2846FFF7B2FFD7
:102DA00005F24C45601CC4B2032CF3DB70BD2DE969
:102DB000F04788B004460E4617469846DDE9109A5B
:102DC000002C72D06672E76084F8109084F811804D
:102DD00084F812A001A8FEF72DF80197B8F1080FAA
:102DE00003D0B8F1090F09D103E00020ADF80800C5
:102DF00005E04FF48050ADF8080000E000BF00BFD0
:102E0000B9F1000F10D0B9F1010F03D0B9F1020FE1
:102E10000ED104E04FF4C060ADF80C0009E04FF4AF
:102E20008060ADF80C0004E00020ADF80C0000E07C
:102E300000BF00BFBAF1010F03D0BAF1020F09D1F0
:102E400003E00020ADF80A0005E04FF40050ADF8B3
:102E50000A0000E000BF00BF012E04D0022E25D0E2
:102E6000032E69D146E0AA48806940F00400A849D1
:102E70008861A848006820F47F60A6490860084679
:102E8000006840F496600860A148806940F4804082
:102E90009F4988619A4D25208DF81C0000208DF8EF
:102EA0001D0003208DF81E0047E078E098488069F7
:102EB00040F00400964988619648001F006820F49D
:102EC0007F409449091F08600846006840F4964016
:102ED00008608F48C06940F480208D49C861894DE1
:102EE00026208DF81C0001208DF81D0003208DF890
:102EF0001E0022E08648806940F00800844988610D
:102F00008548006820F47F408349086008460068CF
:102F100040F4964008607E48C06940F480207C49B7
:102F2000C861794D27208DF81C0002208DF81D0006
:102F300003208DF81E0000E000BF00BF05A8FDF7CC
:102F400096FF0020ADF81400ADF816004FF40070A5
:102F5000ADF818000020ADF81A0005A92846FDF7C5
:102F600075FF01A92846FDF7FCFE012240F225511C
:102F70002846FDF78EFF012240F226612846FDF724
:102F800088FF01212846FDF778FF4FF4A060FDF788
:102F900091FB01208DF81F0007A8FDF790FB08B0FA
:102FA000BDE8F08770B5594C00262EE0607A012804
:102FB00027D120215248FEF73BF801280ED1504876
:102FC000FDF7CCFFC5B220214D48FEF73EF8E06A80
:102FD000401CE0622946204600F05FFB4021484843
:102FE000FEF726F801280BD1D4F83801401CC4F8AC
:102FF0003801204600F06FFB40214148FEF725F8DC
:1030000005E004F24C44701CC6B2032ECEDB00BFB8
:1030100070BD70B53D4C00262EE0607A022827D1A5
:1030200020213848FEF704F801280ED13548FDF775
:1030300095FFC5B220213348FEF707F8E06A401C2F
:10304000E0622946204600F028FB40212D48FDF78C
:10305000EFFF01280BD1D4F83801401CC4F8380127
:10306000204600F038FB40212648FDF7EEFF05E042
:1030700004F24C44701CC6B2032ECEDB00BF70BD00
:1030800070B5224C00262EE0607A032827D120213B
:103090001D48FDF7CDFF01280ED11B48FDF75EFF4F
:1030A000C5B220211848FDF7D0FFE06A401CE0625D
:1030B0002946204600F0F1FA40211348FDF7B8FFF9
:1030C00001280BD1D4F83801401CC4F8380120463F
:1030D00000F001FB40210C48FDF7B7FF05E004F2CA
:1030E0004C44701CC6B2032ECEDB00BF70BD10B5C1
:1030F000FFF758FF10BD10B5FFF78BFF10BD0000A4
:10310000003801400044004000480040E416002020
:103110000010024004080140040C014010B5FFF704
:10312000AFFF10BD70B504460D466848006828B171
:103130004FF480716648FFF75CF920B94FF4807155
:103140006348FFF770F9607A012804D0022807D09D
:1031500003280FD109E029465E48FDF7FBFE0AE08F
:1031600029465D48FDF7F6FE05E029465B48FDF778
:10317000F1FE00E000BF00BF70BD10B50446607AEC
:10318000012804D0022809D0032815D10DE001221E
:1031900040F226614F48FDF77CFE0EE0012240F22E
:1031A00026614D48FDF775FE07E0012240F22661D9
:1031B0004A48FDF76EFE00E000BF00BF10BD10B52D
:1031C0000446607A012804D0022809D0032815D1CA
:1031D0000DE0012240F225513E48FDF75AFE0EE077
:1031E000012240F225513C48FDF753FE07E0012241
:1031F00040F225513948FDF74CFE00E000BF00BF0A
:1032000010BD1FB501210420FDF711FD34480088D1
:10321000ADF808004820ADF804000020ADF80A0021
:10322000ADF8060001A92F48FEF730F801212D481E
:10323000FEF788FC4FF4A060FDF73CFA1E208DF8E5
:10324000000003208DF801008DF8020001208DF8A8
:1032500003006846FDF733FA01212248FEF74CFED1
:10326000012211461F48FEF788FB01211D48FEF789
:1032700069FB00F057FB1FBD10B500211948FEF790
:1032800061FB00211748FEF7F1FD002201211548DE
:10329000FEF773FB01211348FEF72EFE10BD10B59B
:1032A00011480068401C1049086000F04BFB10BD3D
:1032B00010B501210B48FEF70EFE28B10121094887
:1032C000FEF71AFEFFF7EBFF10BD00001000002014
:1032D0000008014000380140004400400048004020
:1032E00068000020000800406C00002002464FF4F7
:1032F0007A600880002070474FF47A63138070472B
:1033000002464FF47A600880002070470246D2B22D
:1033100040F261239A4206DC00230B80644B1B6859
:1033200033F8120003E04FF47A630B8000207047FB
:1033300002464FF47A600880002070470246D2B2FD
:1033400040F261239A4206DC00230B80594B1B6834
:1033500033F8120003E04FF47A630B8000207047CB
:1033600002464FF47A60088000207047F8B50446A2
:103370000D461646E4B240F26220844271DA002023
:1033800030804C48006820F81450EFB228128DF8B5
:1033900000008DF80170A4F1300018286ED2DFE82B
:1033A00000F00C12181E1F252B2C2D6D6D6D6D2E2F
:1033B0006D343B42484E545A61673A460121A02081
:1033C00003F009FE5EE03A460221A02003F003FE6E
:1033D00058E03A460421A02003F0FDFD52E051E000
:1033E0003A460521A02003F0F6FD4BE03A460621BF
:1033F000A02003F0F0FD45E044E043E042E03A461F
:103400006421A02003F0E7FD3CE06B46022250213E
:10341000A02003F058FE35E06B4602225421A02084
:1034200003F051FE2EE03A465621A02003F0D3FDD2
:1034300028E03A465221A02003F0CDFD22E03A4692
:103440005821A02003F0C7FD1CE03A465A21A020D5
:1034500003F0C1FD16E03A465C21A02003F0BBFD5D
:1034600010E010E03A465E21A02003F0B4FD09E030
:103470003A466021A02003F0AEFD03E04FF47A60ED
:10348000308000BF02E04FF47A603080F8BD4FF426
:103490007A631380704730B50546039C0020208076
:1034A00030BD70B5DDE904540026268070BD0000F3
:1034B0005C0000205800002070B50646FD490E80D3
:1034C000FD4C002518E02570012020720020207599
:1034D0000120E0740020208604F1380060630120A0
:1034E00060700020606001202077204600F0A1FE7F
:1034F00004F24C44681CC5B2032DE4DB0020EF4904
:103500000870FFF7C7FBFFF77CFE70BD10B5FFF733
:10351000B3FEFFF7C7FB10BD00B14172704700B1A9
:1035200041707047B8B129B1012902D10123037557
:1035300003E000BF0023037500BF00BF22B1012AD2
:1035400005D10123C37405E00023C37402E0002306
:10355000C37400BF00BF704700B10172704700B173
:10356000816270472DE9FC5F06468A4617469846F9
:10357000DDE90CB9D1480078032842DACF48007859
:1035800040F213114843CC4901EB800439462046F0
:10359000FFF7E5FF31462046FFF7DEFF4246514682
:1035A0002046FFF7BFFF20461199FFF7B8FF5946A5
:1035B0002046FFF7B1FFDDE90F01CDE900014A46E2
:1035C000594620460E9BFFF7F2FB207D012801D1D2
:1035D00000202077B748008800EB800000EB8000D7
:1035E0004000B0FBF9F085B2012D00DC02252583F7
:1035F0006583B2480078401CB04908702046BDE899
:10360000FC9F0020FBE7018B4183704700B5024619
:103610000B461046FFF7F7FF107D012800D1107709
:10362000108EFF2809DAD06A401CD062516B481C0A
:1036300050630B70108E401C108600BD2DE9F041C8
:1036400004460D46E06A401CE0623A2D04D104F1C4
:103650003800606300202086208EFF2806DA616B28
:10366000481C60630D70208E401C20860A2D12D1EC
:1036700004F13907384600F0A7F90646207AB0422F
:1036800000D01EB92046FFF713FB04E004F1380018
:10369000606300202086BDE8F08170B504460D46C9
:1036A000E07C38B101280AD105F07F012046FFF700
:1036B000C5FF05E029462046FFF7A8FF00E000BF50
:1036C00000BF70BD10B5044624B1207D10B920465E
:1036D00001F08CFA10BD70B50446B4F83C01002826
:1036E00018DD04F59C74A088401EA0802068401C52
:1036F0002060A168481CA060A4F59C740D78294640
:103700002046FFF70FFD207D01280DD100202077F6
:10371000208609E004F5A270C4F840012046FFF7B6
:1037200013FB2046FFF74BFD70BD10B5044604F5B2
:10373000A270C4F840012046FFF7CDFF2046FFF7F6
:10374000E1FA2046FFF719FD10BD2DE9F0410446CE
:1037500004F13806258E04F2432705F0010078B302
:103760000B2D2EDD30783A282BD1A81E305C0D2889
:1037700027D1681E305C0A2823D1E81E85B2761C4A
:103780000020A4F842030CE0304600F01DF907F8D1
:10379000010BB61CA81E85B2B4F84203401CA4F865
:1037A0004203022DF0DCB4F84203801EA4F8420369
:1037B000304600F009F9A4F844030120BDE8F08187
:1037C000FFE70020FAE72DE9F047054605F55276B8
:1037D00005F5A2743A2004F8010B16F8010B2146F6
:1037E00000F0D6F8044616F8010B214600F0D0F898
:1037F0000446052795F848940BE016F8010B21467E
:1038000000F0C6F80446B81C87B2A9F101001FFAFF
:1038100080F9B9F1000FF0DC3946284600F019F9BB
:1038200080462146404600F0B3F804460D2004F8D7
:10383000010B0A2004F8010B381D87B2A5F84A8451
:10384000A5F83C712846FFF770FFBDE8F08730B55A
:10385000024602F13801148E042C33DBFF2C2FDCDE
:1038600002F2432311F8010B03F8010B601E84B22E
:1038700011F8010B03F8010B601E84B20020A2F8BE
:1038800042030AE011F8010B03F8010BB2F84203FE
:10389000401CA2F84203601E84B2022CF2DC11F834
:1038A000015B087805EB002085B2A2F844530120A3
:1038B00030BD000068000020E416002070000020E9
:1038C0000020F5E70020F3E72DE9F0470446002744
:1038D00004F5A27504F5527894F84804801C00F0B1
:1038E000FF0909E018F8010B05F8010B781C87B2F5
:1038F000A9F1010000F0FF09B9F1000FF2DC204648
:1039000000F0E9F8064605F8016B30122870B81C83
:1039100087B2A4F84A64A4F83C712046FFF705FF7B
:10392000BDE8F08700B5194A002308E0D07C10B943
:103930001046FFF768FE02F24C42581CC3B2032B3C
:10394000F4DB00BD70B5114C00251BE0E07CA8B98C
:10395000207F012810D1608B00280FDD608B401E76
:103960006083608B50B9207D012801D10020207731
:103970002046FFF79DF901E0208B608304F24C4460
:10398000681CC5B2032DE1DB70BD0000E416002009
:1039900003461A09092A04DC02F1300001F8010B80
:1039A00003E002F1370001F8010B03F00F02092ACE
:1039B00004DC02F1300001F8010B03E002F13700F2
:1039C00001F8010B0846704710B5034619785B1CD7
:1039D0001A78392903DCA1F13004E0B208E0462965
:1039E00003DCA1F13704E0B202E0A1F15704E0B238
:1039F0000407200E392A04DCA2F130040444E0B2AA
:103A00000AE0462A04DCA2F137040444E0B203E0F1
:103A1000A2F157040444E0B210BDF0B50446218E73
:103A2000481F00EBD071C1F34F0704F139060025A0
:103A300005E03046FFF7C8FF2844C5B2B61C381E63
:103A4000A7F101018FB2F4DCE843401CC5B228465F
:103A5000F0BD2DE9F04105460E46701E00EBD07119
:103A6000C1F34F0805F24517002405E03846FFF77B
:103A7000ABFF2044C4B2BF1CB8F10000A8F10101A3
:103A80001FFA81F8F2DCE043401CC4B22046BDE8D6
:103A9000F081F0B5014601F24325B1F84263B61C4E
:103AA000B4B24FF6FF7011E0661EB4B215F8016BA8
:103AB0007040082200BF00F00103401013B14AF229
:103AC00001067040561EF2B2002AF4DC002CEBDC3A
:103AD000A1F84603F0BDF0B5014601F55275B1F805
:103AE0004864B61CB4B24FF6FF7011E0661EB4B263
:103AF00015F8016B7040082200BF00F00103401070
:103B000013B14AF201067040561EF2B2002AF4DCEC
:103B1000002CEBDCF0BD0000428C521C428490F87B
:103B2000432280F848234FF41172125C42F0800364
:103B300040F249321354521C11540122A0F8482477
:103B400070472DE9FC5F04464FF00009B4F84203CA
:103B5000042802D00020BDE8FC9F40F24620015D11
:103B6000401E005D01EB002087B24FF41270015D32
:103B7000401E005D01EB002086B24CF250308742BF
:103B80000FDA0EB17D2E08DD40F29310E0820321A2
:103B90002046FFF7C1FF0120DDE770064FEA1068FD
:103BA0000EE00EB1FF2E08DC4FF4CA70E082032154
:103BB0002046FFF7B1FF0120CDE7B0064FEA1068BD
:103BC00008F10100A4F8480404F5527594F8430282
:103BD00005F8010B4FF41170005D05F8010B05F8B5
:103BE000018B64E04CF25030874218DAF8B2E328D7
:103BF00015D1FE4800784044A4F848042D1D4FF02C
:103C0000010908E0F94810F8090005F8010B09F16D
:103C1000010000F0FF09B9F1090FF3DB43E04CF2BA
:103C20005030874218DAF8B2E02815D1F048007811
:103C30004044A4F848042D1D4FF0010908E0EC4869
:103C400010F8090005F8010B09F1010000F0FF0967
:103C5000B9F1060FF3DB26E001A93846FFF768FB50
:103C60000090BDF8040018B1B0F57A6F10D110E0E3
:103C7000EB464FF0000A07E01BF8010B05F8010BBB
:103C80000AF1010000F0FF0ABAF1040FF4D309E0D1
:103C900000BF4FF4C970E08202212046FFF73CFFCD
:103CA000012058E700BF781C87B2701E86B2002E34
:103CB00098DC0020E08201204DE72DE9F04F87B02D
:103CC000044640F24520005D06900698072802DB76
:103CD0000698F5280ADD40F63500E08203212046EB
:103CE000FFF71AFF012007B0BDE8F08F40F2462031
:103CF000005D05904FF41270015D401E005D01EB08
:103D000000201FFA80FA40F24A20015D401E005D4B
:103D100001EB00201FFA80FB4FF41370015D401E81
:103D2000005D01EB002085B204F24D2605980628BF
:103D30004AD1002745E016F8011B4FF47F4000EA06
:103D40000120029016F8010B02990843029004A981
:103D50000298EBB23A46CDE9000159465046FFF7CA
:103D6000A0FBBDF8100038B1A0F6A17040B1012849
:103D70000FD0022816D116E06068401C60601BE07E
:103D800040F63600E08202212046FFF7C5FE012002
:103D9000A9E740F63700E08202212046FFF7BCFE8B
:103DA0000120A0E700BF40F63800E0820221204653
:103DB000FFF7B2FE012096E700BF781C87B2681EAD
:103DC00085B2002DB7DC06E040F63900E082022122
:103DD0002046FFF7A1FE4FF41370015D401E005D09
:103DE00001EB002085B204F2432804F55279092042
:103DF00000EB4500C0B20390002705E018F8010B66
:103E000009F8010B781C87B203988742F6DB002083
:103E1000E082012067E72DE9FE4F044640F245208D
:103E200010F804A0BAF1070F02DBBAF1F50F09DDB3
:103E300040F2D170E08203212046FFF76DFE0120A1
:103E4000BDE8FE8F94F846B24FF41270015D401E3B
:103E5000005D01EB00201FFA80F940F24A20015D6D
:103E6000401E005D01EB002080B202904FF4137001
:103E7000015D401E005D01EB002086B204F5527525
:103E800094F8430205F8010B4FF41170005D05F83A
:103E9000010BBBF1060F54D1032000EB4600A4F840
:103EA000480494F84804401E05F8010B94F84804AF
:103EB000801E05F8010B062005F8010B4FF00008E5
:103EC0003CE001A8F3B24246009048460299FFF751
:103ED000E2FA0746BDF8040038B1A0F6A17050B16F
:103EE000012811D0022818D118E0381205F8010B6A
:103EF00005F8017B1BE040F2D270E08202212046EF
:103F0000FFF70AFE01209BE740F2D370E082022116
:103F10002046FFF701FE012092E700BF40F2D47077
:103F2000E08202212046FFF7F7FD012088E700BF6D
:103F300008F101001FFA80F8701E86B2002EC0DC66
:103F400008E040F2D570E08202212046FFF7E4FD50
:103F5000012075E70020E082012071E72DE9FE4F86
:103F6000044640F24620015D401E005D01EB00204A
:103F700087B24FF41270015D401E005D01EB00201E
:103F800086B24CF2503087420FDA0EB17D2E09DD39
:103F900040F24460E08203212046FFF7BDFD01208E
:103FA000BDE8FE8F4FF002090DE00EB13E2E08DD98
:103FB00040F24560E08203212046FFF7ADFD01207D
:103FC000EEE74FF0040904F2492515F8018BB4F827
:103FD0004203401F40450DD040F24160E082032182
:103FE0002046FFF799FD0120DAE70000519500080F
:103FF0002E95000898FBF6F0484508D040F2426044
:10400000E08204212046FFF787FD0120C8E741E058
:104010004CF2503087420FDA15F8011B080201906C
:1040200015F8011B0198084480B2019002AA384695
:104030000199FFF79BF913E0EB464FF0000A07E008
:1040400015F8010B0BF8010B0AF1010000F0FF0A53
:10405000BAF1040FF4D302AA38460099FFF717FA11
:10406000BDF8080018B1B0F57A6F08D108E06068B3
:10407000401C6060781C87B2701E86B209E000BFE9
:1040800040F24360E08202212046FFF745FD012017
:1040900086E700BF002EBBDC0420A4F8480494F897
:1040A000430284F848034FF41170015D40F2493037
:1040B000015540F24520015D40F24A30015540F281
:1040C0004620015D40F24B30015540F24720015D32
:1040D0004FF4537001554FF41270015D40F24D30B2
:1040E000015501205CE72DE9F84F0446607801286E
:1040F0007DD1B4F84203062802DA0020BDE8F88F2B
:1041000040F24620015D401E005D01EB00201FFAD9
:1041100080F84FF41270015D401E005D01EB00203D
:1041200086B240F24920075D701EC11700EB517145
:10413000C910491CB94240D1B4F84223791D8A42C2
:104140003BD100254FF0070934E0E91705EB517129
:10415000C910A5EBC10139B94846411C01F0FF095E
:1041600004F2432111F800A00AF0010010B14FF051
:10417000010B01E04FF0000B08EB050188B26A4625
:104180005946FFF7B9F8BDF8000018B1B0F57A6FDD
:1041900001D101E009E000BF40F2DD50E0820221E0
:1041A0002046FFF7B9FC0120A8E700BF4FEA6A0AE2
:1041B000681C85B2B542C8DB08E040F2DE50E08200
:1041C00004212046FFF7A8FC012097E70420A4F86B
:1041D000480494F8430284F848034FF41170015DD9
:1041E00040F24930015540F24520015D00E017E002
:1041F00040F24A30015540F24620015D40F24B301A
:10420000015540F24720015D4FF4537001554FF4C2
:104210001270015D40F24D3001550020E08206E051
:1042200040F2DF50E08204212046FFF775FC0120B8
:1042300064E70021C183018441848184C184704783
:1042400070B50446B4F84203042801D0002070BDC4
:1042500040F24620015D401E005D01EB002085B26A
:1042600094F8430284F848034FF41170015D40F262
:104270004930015540F24520015D40F24A30015578
:1042800040F24620015D40F24B3001550C2D2DD0FF
:1042900005DC5DB10A2D18D00B2D57D11BE00D2D7B
:1042A00030D00E2D3AD00F2D50D143E040F24720B0
:1042B000015D4FF4537001554FF41270015D40F2EF
:1042C0004D3001550020E08248E02046FFF7B1FF65
:1042D0000020E08242E0E08B010A4FF45370015568
:1042E000A17F401C01550020E08237E0208C010AAC
:1042F0004FF45370015594F82010401C01550020D4
:10430000E0822BE0608C010A4FF45370015594F861
:104310002210401C01550020E0821FE0A08C010A01
:104320004FF45370015594F82410401C015500209F
:10433000E08213E0E08C010A4FF45370015594F8C9
:104340002610401C01550020E08207E040F2213099
:10435000E08204212046FFF7DFFB00BF00BF012001
:1043600075E72DE9FC5F0446B4F84203042802D047
:104370000020BDE8FC9FB4F84203A4F8480440F2D2
:104380004620015D401E005D01EB002087B24CF22B
:10439000503087420EDA4FF41270015D401E005D0E
:1043A00001EB00201FFA80FB01AA59463846FEF7B0
:1043B000DDFF11E004F24725EA46002605E015F886
:1043C000010B0AF8010B701CC6B2042EF7D301AA28
:1043D00038460099FFF75BF8BDF8040018B1B0F556
:1043E0007A6F04D104E06068401C606008E000BFA0
:1043F00040F25920E08202212046FFF78DFB00BFEA
:1044000000BF0420A4F8480494F8430284F8480349
:104410004FF41170015D40F24930015504F2452519
:1044200004F24A384CF25030874202DA4FF0040965
:1044300001E04FF00609002605E015F8010B08F829
:10444000010B701CC6B24E45F7DB0020E082012054
:104450008FE72DE9F84F0446B4F84203042802DD43
:104460000020BDE8F88F40F24620015D401E005D4F
:1044700001EB002085B24FF41270015D401E005D1B
:1044800001EB00201FFA80FA6078012825D1BAF1EB
:10449000000F02D14FF0000901E04FF001096A4618
:1044A00049462846FEF728FF082D0DD2DFE805F023
:1044B0000405060708090A0B0EE00DE00CE00BE00E
:1044C0000AE009E008E007E040F2F510E08202218E
:1044D0002046FFF721FB00BF06E04FF4FB70E082AF
:1044E00004212046FFF718FB0420A4F8480494F8A0
:1044F000430284F848034FF41170015D40F24930E3
:10450000015504F2452604F24A374FF0000807E04F
:1045100016F8010B07F8010B08F1010000F0FF0885
:10452000B8F1040FF4DB0020E082012099E72DE9C7
:10453000FC5F0546B5F84203042802D00020BDE820
:10454000FC9F40F24620415D401E405D01EB002093
:104550001FFA80F84FF41270415D401E405D01EB80
:10456000002086B24CF2503080450FDA0EB17D2E1D
:1045700008DD40F29310E88203212846FFF7CCFAC9
:104580000120DCE770064FEA10690EE00EB13E2E06
:1045900008DD4FF4CA70E88203212846FFF7BCFA11
:1045A0000120CCE7B0064FEA106909F10100A5F837
:1045B000480405F5527495F8430204F8010B4FF4D2
:1045C0001170405D04F8010B04F8019B55E04CF2BA
:1045D0005030804524DA01A94046FEF797FE074691
:1045E000BDF8040028B10A2809D0B0F57A6F0CD1C3
:1045F0000CE0380A04F8010B04F8017B0FE0380ADC
:1046000004F8010B04F8017B09E000BF40F29110AF
:10461000E88202212846FFF77FFA01208FE726E093
:1046200001A94046FEF784FE0090BDF8040018B1D1
:10463000B0F57A6F10D110E0EB464FF0000A07E0BA
:104640001BF8010B04F8010B0AF1010000F0FF0A4E
:10465000BAF1040FF4D309E000BF4FF4C970E88247
:1046600002212846FFF758FA012068E700BF08F149
:1046700001001FFA80F8701E86B2002EA7DC002011
:10468000E88201205BE72DE9FC5F0446B4F84203B1
:10469000042802D00020BDE8FC9F40F24620015DC6
:1046A000401E005D01EB002087B24FF41270015DE7
:1046B000401E005D01EB002086B24CF25030874274
:1046C0000FDA0EB17D2E08DD40F22F10E0820321BB
:1046D0002046FFF721FA0120DDE770064FEA106857
:1046E0000EE00EB13E2E08DD4FF49870E0820321FB
:1046F0002046FFF711FA0120CDE7B0064FEA106817
:1047000008F10100A4F8480404F5527594F8430236
:1047100005F8010B4FF41170005D05F8010B05F869
:10472000018B4CE04CF2503087421DDA01A938462B
:10473000FEF704FE8146BDF8040018B1B0F57A6FAB
:1047400007D107E04FEA192005F8010B05F8019B96
:1047500009E000BF40F22D10E08202212046FFF761
:10476000DBF9012097E726E001A93846FEF7F8FDBE
:104770000090BDF8040018B1B0F57A6F10D110E0C8
:10478000EB464FF0000A07E01BF8010B05F8010BA0
:104790000AF1010000F0FF0ABAF1040FF4D309E0B6
:1047A00000BF4FF49770E08202212046FFF7B4F972
:1047B000012070E700BF781C87B2701E86B2002E01
:1047C000B0DC0020E082012065E72DE9F84F0446C7
:1047D000B4F84203042802D00020BDE8F88F40F26C
:1047E0004620015D401E005D01EB00201FFA80F9AC
:1047F0004FF41270015D401E005D01EB002087B296
:1048000017B1B7F5FA6F07DDC920E0820321204612
:10481000FFF782F90120E0E7781EC11700EB517124
:10482000C910491C1FFA81F808F10100A4F84804D6
:1048300004F55275002604E0002005F8010B701CF9
:1048400086B208F103008642F6DB4FF0010B00262A
:1048500004F5527594F8430205F8010B4FF41170FA
:10486000005D05F8010B05F8018B32E0694648460A
:10487000FEF746FD8246BDF8000018B1B0F57A6F2C
:104880001DD11DE0BAF1010F03D1287840EA0B00D9
:10489000287009F101001FFA80F9701C86B2F11727
:1048A00006EB5171C910A6EBC10119B94FF0010B0C
:1048B0006D1C03E04FEA4B604FEA106B08E000BF4D
:1048C000CA20E08202212046FFF726F9012084E772
:1048D00000BFBE42CADB0020E08201207DE72DE957
:1048E000F84F0446B4F84203042802D00020BDE883
:1048F000F88F40F24620015D401E005D01EB002074
:104900001FFA80F94FF41270015D401E005D01EB4B
:10491000002087B217B1B7F5FA6F07DD6520E08296
:1049200003212046FFF7F8F80120E0E7781EC117C1
:1049300000EB5171C910491C1FFA81F808F1010000
:10494000A4F8480404F55275002604E0002005F898
:10495000010B701C86B208F103008642F6DB4FF0B3
:10496000010B002604F5527594F8430205F8010B7B
:104970004FF41170005D05F8010B05F8018B32E072
:1049800069464846FEF7B2FC8246BDF8000018B101
:10499000B0F57A6F1DD11DE0BAF1010F03D128786F
:1049A00040EA0B00287009F101001FFA80F9701C21
:1049B00086B2F11706EB5171C910A6EBC10119B906
:1049C0004FF0010B6D1C03E04FEA4B604FEA106B98
:1049D00008E000BF6620E08202212046FFF79CF835
:1049E000012084E700BFBE42CADB0020E082012034
:1049F0007DE770B5054695F84302297A884203D0D1
:104A000095F84302002875D1A88C401CA8844FF467
:104A10001170405D08283DD007DC07286ED2DFE822
:104A200000F06D11161B20252F0014284BD004DC3C
:104A30000F2834D0102861D13BE0152848D02B280E
:104A40005CD14FE02846FFF74AFF04465EE0284667
:104A5000FFF7BBFE044659E02846FFF714FE044664
:104A600054E02846FFF763FD04464FE068780128CC
:104A700004D12846FFF7EDFC044600E0002445E0A1
:104A80006878012804D12846FFF76BFC044600E053
:104A900000243BE02846FFF7D3FB044636E0687865
:104AA000012804D12846FFF71EFB044600E000243D
:104AB0002CE06878012804D12846FFF74FFA044615
:104AC00000E0002422E02846FFF7A5F904461DE097
:104AD0006878012804D12846FFF7EFF8044600E083
:104AE000002413E06878012806D12846FFF729F84A
:104AF000044602E00BE001E0002407E00120E88228
:104B000001212846FFF708F8012400BF00BF95F8EF
:104B1000430208B9002070BD2046FCE72DE9F041B2
:104B20000446E08B401CE083208E042821DB2046D5
:104B3000FEF78DFE0746012F1BD12046FEF7A9FF89
:104B40000546B4F84403A84206D0208C401C2084BB
:104B5000E08C401CE0840CE02046FFF74AFF06464C
:104B6000012E03D12046FEF7AFFE02E0E08C401C90
:104B7000E0840020208604F138006063BDE8F08105
:104B80002DE9F0410446E08B401CE083208E0B2889
:104B900025DB2046FEF7D9FD0746012F1CD1204614
:104BA000FEF73BFF0546B4F84403A84206D0208C2C
:104BB000401C2084E08C401CE08410E02046FFF77D
:104BC00018FF0646012E03D12046FEF7FCFD06E045
:104BD000E08C401CE08402E0E08C401CE08400207B
:104BE000208604F138006063BDE8F08110B504460A
:104BF00054B1E07C012802D12046FFF7C1FFE07CE0
:104C000010B92046FFF78AFF10BD000070471F480B
:104C10000068704770B5044601F0D6FB05461B4896
:104C20000460284601F0D4FB70BD10B51748006839
:104C3000401C1649086000F0CBFF0446206C401E63
:104C40002064206C18B9E06B206401F021F801F0B9
:104C500022FA10BD0146002902DA4FF0FF3014E0BD
:104C60004FF47A7291FBF2F24FF47A7302FB03F085
:104C70001A4691FBF2F302FB13124FF47A735A4374
:104C800002F2E73292FBF3F2104470477400002006
:104C900000207047002070470020704700207047B8
:104CA00010B5254C02E020688047241D234884422B
:104CB000F9D310BD10B5214C02E020688047241DB7
:104CC0001F488442F9D310BD10B50446FFF7F2FF28
:104CD000FBF7A2FA10BD7FB51A4C14200221CA01BD
:104CE000194BCDE90032CDE902100023AFF22702C3
:104CF00016A1204600F052FF0546204600F089FF2D
:104D00007FBD10B501F060FBFBF7D4FA00F086FC24
:104D100001F001FA00F0D0FDFFF7DDFF01F007FA26
:104D200000F059F800F0E2FD002010BD10B5FFF7CB
:104D3000E8FF002010BD0000189700081C9700082D
:104D400020970008C8240020C82300206D61696EE8
:104D50000000000070B534E001F036FB054600F0BD
:104D60004FF830B32A480068A0F1140404F114008D
:104D7000D0E900215160D0E900121160406000606C
:104D800000BF00F044FE206F10B12046216F88471D
:104D9000204600F056FD012808D1204600F03BFDDA
:104DA00000F043FE284601F013FB70BD00F03DFE0D
:104DB00003E0284601F00CFBF7E7284601F008FB6A
:104DC00000BF00F01DF80028C6D100BFEDE701E0EC
:104DD000FFF7C0FFFCE71FB52020072180220D4B05
:104DE000CDE90032CDE9021000230B4A0BA10D489A
:104DF00000F0D4FE0B4800F00CFF1FBD09487047BF
:104E000003490868884201D0012070470020FCE770
:104E1000D0000020B8250020CF4D00087469646CD4
:104E2000650000004025002010B501F0CDFA0446D1
:104E30000C480078401C0B490870204601F0C8FA65
:104E400010BD10B501F0C0FA044606480078401EB7
:104E500004490870204601F0BBFA10BD01480078F3
:104E6000704700007800002010B5FFF7F7FF10B181
:104E7000F748006810BD00F0ABFE044614B9F448D2
:104E80000068F7E7206BF5E770B50446FFF7E6FF2B
:104E900010B1EF48046070BD00F09AFE054615B9E8
:104EA000EB480460F7E72C6300BFF4E710B5FFF7A9
:104EB000D5FF08B1E64810BD00F08AFE044614B1E3
:104EC00004F13000F7E7E248F5E7F0B50C46054697
:104ED000E6B2042A15D300F0030797B9014646EA63
:104EE000062343EA034304E008C108C108C108C11E
:104EF000103A102AF8D201E008C1121F042AFBD28E
:104F00000D4601E005F8016B171EA2F10102F9D16F
:104F1000F0BD2DE9F0410F46164604463D463346A6
:104F2000102B28D305F0030C04F003084CEA080CFE
:104F3000BCF1000F1FD121462A4610E052F804CBE5
:104F400041F804CB52F804CB41F804CB52F804CB1F
:104F500041F804CB52F804CB41F804CB103B102BA2
:104F6000ECD204E052F804CB41F804CB1B1F042B15
:104F7000F8D20C46154603E015F801CB04F801CB36
:104F8000B3F1000CA3F10103F6D1BDE8F08170B5D7
:104F90000C46014623468B4210D29D188D420DD9F6
:104FA0001144134405E05D1E2B462E784D1E294604
:104FB0002E70151EA2F10102F5D108E003E013F8EE
:104FC000015B01F8015B151EA2F10102F7D170BD72
:104FD000F0B5034600201C460D4608E026782F78E1
:104FE000F61B301E00D004E0641C6D1C521E002A0B
:104FF000F4D800BFF0BD01460A4600E0521C10780C
:105000000028FBD1501A7047F0B506460F463846C7
:10501000FFF7F1FF05460DB93046F0BD3046FFF70A
:10502000EAFF044609E0641E2A4639463046FFF787
:10503000CFFF08B93046F0E7761CAC42F3DA002027
:10504000EBE730B503460C4600BF13F8011B14F81C
:10505000012B412902DB5A2900DC2031412A02DBE5
:105060005A2A00DC2032914201D10029EDD1881A60
:1050700030BD70B50346A2B118460C4600BF14F807
:10508000016B00F8016B3EB902E0002500F8015BFE
:10509000551E2A1EF9D102E0551E2A1EEFD100BF6F
:1050A00000BF184670BD30B5034600200BE011F874
:1050B000015B1C78641B64B2201E02D113F8015BF3
:1050C00005B902E0521E002AF1D100BF30BD0246F0
:1050D00001E0521C491C107818B110780B789842E6
:1050E000F7D010780B78C01A704702460B4611466D
:1050F00000E0491C087810B1881A9842F9D3881A40
:10510000704770472DE9F04F86B00D469C46DDE9AB
:10511000106401960F9B04F04008B8F1000F02D014
:10512000DFF8308101E0DFF83081CDF8008004F055
:105130001008B8F1000F01D024F0010404F00108B8
:10514000B8F1000F02D04FF0300801E04FF0200816
:10515000C246002704F00208B8F1000F11D0002A5F
:1051600002DA2D2752420CE004F00408B8F1000FD7
:1051700001D02B2705E004F00808B8F1000F00D09B
:105180002027002142B94FF0300B8846491C0DF111
:10519000080909F808B01DE01AE0E146B9F10A0F64
:1051A00008D14FF00A0BB2FBFBFE0BFB1E28B2FB33
:1051B000FBF202E002F00F08120900BFDDF80090D8
:1051C00019F808B08846491C0DF1080909F808B01B
:1051D000002AE2D1B14200DD0E469B1B04F011080B
:1051E000B8F1000F10D117B1002B00DD5B1E06E0F7
:1051F000A84203D24FF0200880F80080401CB3F191
:105200000008A3F10103F3DC27B1A84200D2077024
:105210005B1E401C04F01008B8F1000F0AD104E036
:10522000A84201D280F800A0401CB3F10008A3F10D
:105230000103F5DC06E0A84203D24FF0300880F805
:105240000080401CB046761E8845F4DC0FE000006C
:105250007C0000207C9600086B960008A84205D2CE
:105260000DF1080818F8018080F80080401CB1F1A9
:105270000008A1F1010104DDDDF80480B8F1000FA0
:10528000ECD106E0A84203D24FF0200880F800805D
:10529000401CB3F10008A3F10103F3DC06B0BDE844
:1052A000F08F0146002009E00B685A1C0A601A784A
:1052B00000EB800302EB4302A2F130000A6812788F
:1052C000303A0A2AF0D370472DE9FF4F89B0804663
:1052D00044460A9808EB0006464504D24FF0FF36D4
:1052E000A6EB08000A906FE10B980078252806D0FD
:1052F000B44202D20B9800782070641C61E1002552
:1053000026E00B98401C0B900B9800782D2802D1BA
:1053100045F010051CE00B9800782B2802D145F0D1
:10532000040515E00B980078202802D145F0080507
:105330000EE00B980078232802D145F0200507E005
:105340000B980078302802D145F0010500E000E01C
:10535000D7E700BF4FF0FF370B98007830380A28A6
:1053600004D20BA8FFF79DFF07460EE00B980078CC
:105370002A280AD10B98401C0B900C9880C80C90DE
:10538000002F02DA7F4245F010054FF0FF390B98ED
:1053900000782E281CD10B98401C0B900B9800789D
:1053A00030380A2804D20BA8FFF77BFF81460AE0B9
:1053B0000B9800782A2806D10B98401C0B900C986B
:1053C00050F8049B0C90B9F1000F01DA4FF000097E
:1053D000002004900B980078682803D00B98007880
:1053E0006C2805D10B98007804900B98401C0B900A
:1053F0000A2005900B9800786F2875D00CDC632884
:1054000013D004DC252870D058286FD18DE0642893
:105410006DD06928F9D18FE070286AD0732825D023
:10542000752878D07828F0D182E005F0100040B9D6
:1054300004E0B44201D220202070641C781E071EB4
:10544000F7DC0C9810F8041B0C90C8B20790B4421B
:1054500001D207982070641C04E0B44201D22020DD
:105460002070641C781E071EF7DCAAE00C98006808
:1054700006900C98001D0C90069808B99EA0069006
:105480000698FFF7B8FD8346B9F1000F02DDCB4562
:1054900000DDCB4605F0100048B904E0B44201D26B
:1054A00020202070641C38467F1E5845F6DC002002
:1054B00008900BE0B44202D2069800782070641C79
:1054C0000698401C06900898401C0890089858457B
:1054D000F0DB04E0B44201D220202070641C384686
:1054E0007F1E5845F6DC6CE01CE015E028E022E069
:1054F000FFE7781C10B9082745F00105CDE90079D0
:1055000002950C9804C8102331460C902046FFF7F2
:10551000F9FD044655E012E0B44201D22520207086
:10552000641C4EE0082005901DE045F0400500BFDA
:105530001020059017E000BF45F0020500BF12E003
:10554000B44201D225202070641C0B98007830B141
:10555000B44202D20B9800782070641C02E00B98D1
:10556000401E0B902DE000BF04986C2807D10C98CA
:1055700050F804AB0C9005F00200B8B116E00498A6
:1055800068280BD10C9830F8041B1FFA81FA0C9094
:1055900005F0020050B10FFA8AFA07E00C9850F8B3
:1055A00004AB0C9005F0020000B100BFCDE900791A
:1055B0000295524631462046059BFFF7A3FD04465F
:1055C00000BF0B98401C0B900B98007800287FF4CC
:1055D0008BAE0A9838B1B44202D20020207002E0AB
:1055E000002006F8010CA4EB08000DB0BDE8F08F18
:1055F0000FB438B505A800907F214148009B049A5C
:10560000FFF762FE04467F2C00D97F243C48FFF759
:1056100078FD0020009038BC5DF814FB08B539A077
:10562000FFF7E6FF3AA0FFF7E3FF42A003230122C2
:105630001946009042A0FFF7DBFF49A0FFF7D8FF13
:1056400008BD0FB4F8B504460D4609A800902946D8
:105650002046009B089AFFF737FE06460020009080
:105660003046F8BC5DF814FB37B505460C462246BB
:105670004FF0FF312846029BFFF726FE3EBD0FB4D8
:1056800038B5044606A800902046009A0599FFF711
:10569000EBFF054600200090284638BC5DF814FB5F
:1056A00010B5044604B910BD2046FFF72AFD00BF1F
:1056B000F9E7014609B900207047C8B220B1C8B265
:1056C000324A105C401CF7E701F47F4028B12F48B4
:1056D000C1F30722805C0930EEE701F47F0028B1B6
:1056E0002A48C1F30742805C1130E5E7274800EB08
:1056F000116000781930DFE7284E554C4C29000026
:10570000382600200A205C207C202F0A00000000A0
:105710002D205254202D20202020205468726561B5
:1057200064204F7065726174696E67205379737479
:10573000656D0A004A616E20203620323032310019
:10574000202F207C205C202020202025642E256412
:105750002E2564206275696C642025730A000000A0
:105760002032303036202D203230313920436F70D6
:105770007972696768742062792072742D74687216
:10578000656164207465616D0A0000006B95000816
:105790007047024600210AE0464800EB01100078FD
:1057A000904203D1434800EB01107047491C042983
:1057B000F2DB0020F9E72DE9F04704460D4690465C
:1057C00000262846FFF7E5FF074600F020F97E682F
:1057D00002E0A6F10C003668381D8642F9D100F0CF
:1057E00024F945F080002072082241462046FFF748
:1057F00040FC00F0E9FD8146381D04F10C0102680F
:10580000516002680A600160486000BF484600F0CD
:10581000DFFDBDE8F08770B504460020207200F07F
:10582000D3FD054604F10C00D0E900215160D0E918
:10583000001211604060006000BF284600F0C8FD03
:1058400070BD0146087A00F0800008B10120704761
:105850000020FCE70146087A20F0800070472DE91F
:10586000F04104460D464FF00008002600270CB119
:105870000C2D02DD0020BDE8F08100F0C8F81FB952
:105880002846FFF786FF07467E680CE0A6F10C0865
:10589000082221464046FFF706FC18B900F0C5F87B
:1058A0004046E8E73668381D8642EFD100F0BDF883
:1058B0000020E0E78000002010B500206D4908803E
:1058C000002405E06C4901EBC40000F0D0F8641C32
:1058D000082CF7DB07206949087000206849086038
:1058E00068490860684800F0C2F810BD70B56548A6
:1058F0000068FFF7DEFE451E5F4850F83500A0F156
:1059000014045F48046004F11C0000F092FD70BDB7
:105910002DE9F04100F058FD07465648008838BB95
:1059200058480068FFF7C5FE461E534850F8360039
:10593000A0F1140452480068844218D04F490E70F8
:105940004F48056804605148007850B904F11C01C3
:1059500005F11C0000F03FFD384600F039FDBDE8C0
:10596000F08104F11C0105F11C0000F034FD00BFC2
:10597000384600F02DFD00BFF1E770B5044600F099
:1059800023FD054614F8340F20F00F0040F001000D
:1059900020706278343C384B03EBC20004F11401F0
:1059A0004268116042684A604160086000BF354942
:1059B000A06B0968084333490860284600F008FDD9
:1059C00070BD70B5044600F0FFFC054604F11400FC
:1059D000D0E900215160D0E9001211604060006000
:1059E00000BF94F83510244A02EBC10001688142DF
:1059F00001D1012100E0002129B12248A16B0068FA
:105A0000884320490860284600F0E2FC70BD10B5CC
:105A100000F0DAFC044617480088401C00B2154923
:105A20000880204600F0D4FC10BD10B500F0CCFC7E
:105A3000044610480088401E00B20E4908800846FF
:105A4000B0F9000000280ADC00200880204600F0A1
:105A5000BFFC0B48006828B1FFF75AFF02E0204660
:105A600000F0B6FC10BD0348008880B2704740606B
:105A700000607047C0000020B8260020C800002049
:105A8000C4000020CC000020D000002078000020BE
:105A90000268516002680A60016048607047D0E99E
:105AA00000215160D0E90012116040600060704731
:105AB00070B5E648046800F087FC05462046FFF70D
:105AC00080FF042084F8340004F1440000F028FA38
:105AD0002046FFF7B6FE012805D1206F18B92046F1
