:020000040800F2
:10300000D0330020FDC4000819C500081BC5000806
:103010001DC500081DC500081DC500081DC5000808
:103020001DC500081DC500081DC500081DC50008F8
:103030001DC500081DC50008F3B000080FA000085A
:10304000A19B0008AB9B0008B59B0008BF9B000834
:10305000C99B0008D39B0008DD9B0008E79B000884
:10306000F19B0008FB9B0008059C00080F9C0008D2
:10307000199C0008239C00082D9C0008379C000820
:10308000419C00084B9C0008559C00085F9C000870
:10309000699C0008739C00087D9C0008879C0008C0
:1030A000919C00089B9C0008A59C000829790008B9
:1030B000AF9C000829790008B99C00081FC50008CA
:1030C000BFF34F8FDFF82408DFF824180860BFF340
:1030D0004F8F00BFFDE7007870474078704738B5E4
:1030E00004000D002000FFF7F6FF002809D0DFF8EC
:1030F00004088079002804D12900C9B2200002F018
:1031000095FC31BD80B5DFF8EC279279002A02D119
:10311000C9B202F08BFC01BD80B50121DFF8D827D0
:103120001170DFF8D817DFF8D0271278895C51F0DA
:103130008001DFF8C827DFF8C0371B78D154DFF8EB
:10314000B8170978491CDFF8B0271170DFF8AC1701
:10315000DFF8A42712788854DFF89C070078401C19
:10316000DFF894170870DFF890070178DFF88C0714
:10317000FFF7B5FF01BDF8B50020DFF8840705793A
:103180004FF48071DFF87807407901FB0505DFF81F
:1031900070078078DFF85C170978401A00280AD099
:1031A000DFF85C0786784FF48071DFF85407C07849
:1031B00001FB060604E0DFF84807C67816F5E2468C
:1031C0000020DFF834170870DFF82C070778781C28
:1031D000DFF824170870DFF82807FFF77CFF0028C6
:1031E00003D0DFF81007007800E00020DFF80C17AC
:1031F000FFB2C8550320DFF80417DFF8FC26127869
:103200008854DFF8F4060078401CDFF8EC160870EC
:103210002800C0B24000DFF8E416DFF8DC261278A0
:103220008854DFF8D4060078401CDFF8CC1608700C
:10323000310089B247F23010091A202908D2310032
:1032400089B2280080B2411847F25110814228DB30
:10325000300080B247F2601188421AD0310089B242
:1032600047F27010091A042908D2310089B22800E7
:1032700080B2411847F2751081420ADB300080B2FB
:1032800047F27811884204D0300080B2B0F5E34FA5
:1032900003D1280080B2002803D10220FFF73CFFB1
:1032A00076E1002719E0200080B24A1ED2B2D20097
:1032B0001041DFF84826DFF840361B78D054DFF89D
:1032C00038060078401CDFF830261070491E0800D0
:1032D000C0B20028E7D1761C7F1C3800C0B229009C
:1032E00080B289B2884280F04C81300080B247F2CF
:1032F0003011401A6BD0401E6DD0401E6FD0401E62
:1033000071D0401E71D0401E73D0401E75D0401E3B
:1033100077D0401E00F08080401E00F08880401E64
:1033200000F08780401E00F08680401E00F08580FF
:10333000401E00F08480401E00F08680401E00F099
:103340008580401E00F08680401E00F08780401E71
:1033500000F08880401E00F08980401E00F08A80C6
:10336000401E00F08B80401E00F08C80401E00F05C
:103370008D80401E00F08E80401E00F08F80401E29
:1033800000F08E80401E00F08D80401E00F08C808A
:10339000401E00F08B80401E00F08A80401E00F02E
:1033A0008980113800F08880103800F08980401E34
:1033B00000F08A80401E00F08B80401E00F08A8062
:1033C000401F00F08980083800F09280D7E0DFF8D5
:1033D00024050478D3E0DFF81C054478CFE0DFF85B
:1033E00014050479CBE00024C9E0DFF8180504795E
:1033F000C5E0DFF810054478C1E0DFF8080504787F
:10340000BDE0DFF804050068DFF8001502F05AFBA4
:1034100002F0C4FB0400B2E0DFF8EC044068DFF81F
:10342000EC1402F0CDFB02F0B9FB0400A7E000248D
:10343000A5E00024A3E00024A1E000249FE0DFF841
:10344000D00490F82C409AE0002498E0DFF8C00403
:10345000848A94E0DFF8B804048B90E0DFF8B004CD
:10346000448B8CE0DFF8A804C48A88E0DFF8A0046D
:10347000848B84E0DFF89804C48B80E0DFF890044C
:10348000048C7CE0DFF88804448C78E0DFF880046A
:10349000848C74E0DFF87804C48C70E000246EE063
:1034A00000246CE000246AE0002468E0002466E068
:1034B000002464E0002462E0DFF8480484785EE0E1
:1034C000DFF8500404885AE0DFF84C04047856E032
:1034D000002454E0002452E06B46022240F23E41B8
:1034E000A02002F017FE684602F013FF040046E039
:1034F000DFF80C04C1794FF48072DFF80404007A1D
:1035000002FB0101DFF8F803447A4FF48072DFF820
:10351000F003807A02FB0404080080B206280FDA68
:10352000200080B205280BDA200080B289B28842E0
:1035300006D2DFF8CC038079ADB2B0EB450F03D0F3
:103540000320FFF7E9FD23E0DFF8D0335022A4B2D7
:103550005020444314F58864210089B2A02002F071
:10356000D9FD0B22DFF89813DFF89043200002F01A
:10357000DFFE5B21DFF88403FFF7B1FD08E00221E5
:10358000A5E6DFF874030178DFF87003FFF7A7FD05
:10359000F1BDF8B50020DFF8680305794FF48071BC
:1035A000DFF85C03407901FB0505DFF85403807800
:1035B000DFF840130978401A00280AD0DFF84003EA
:1035C00086784FF48071DFF83803C07801FB060677
:1035D00004E0DFF82C03C67816F5E2460020DFF899
:1035E00018130870DFF810030778781CDFF8081349
:1035F0000870DFF80C03FFF76EFD002803D0DFF83A
:10360000F402007800E00020DFF8F012FFB2C855A5
:103610000420DFF8E812DFF8E02212788854B64878
:103620000078401CB44908702800C0B24000B3497B
:10363000B14A12788854B0480078401CAE490870EE
:10364000300080B2B0F5E2400B2808D2310089B2D8
:10365000280080B2411847F20D1081422FDB310063
:1036600089B247F20C10091A012908D2310089B237
:10367000280080B2411847F20F1081421FDB310051
:1036800089B247F20E10091A012914D2310089B209
:10369000280080B2411847F2111081420BDA28004D
:1036A00080B2002807D015F0010116F00100014397
:1036B000C9B2002903D00220FFF72EFD54E00021FB
:1036C00014E0501EC0B2C0002300C3408B488A4F94
:1036D0003F78C35588480078401C874B1870521EAD
:1036E0001000C0B20028ECD1B61C891C0800C0B282
:1036F0002A0080B292B2904231D2300080B24FF4B0
:10370000E242801A0ED0801E14D0801E15D0801E7A
:1037100016D0801E17D0801E18D0801E19D0801E93
:1037200019D01AE07A4890F82C007D4A147814EBEE
:10373000002412E07B4804780FE0734884680CE0B2
:103740007148C46809E07848048806E077484488EE
:1037500003E0002401E00024FFE70422C0E76648FC
:1037600001786648FFF7BBFCF1BD38B50020DFF8F3
:10377000800C80785F490978401A00280AD0DFF869
:10378000700C84784FF48071DFF8640CC07801FB12
:10379000040404E0DFF8580CC47814F5E244002077
:1037A0005549087054480578681C53490870DFF87B
:1037B000400CFFF790FC002802D04E48007800E053
:1037C00000204E49EDB2485505204C494A4A12782E
:1037D000885449480078401C47490870210089B244
:1037E00047F25010091A052903D30220FFF794FC71
:1037F0007AE0200080B247F25311884207D0414856
:10380000C078002803D10420FFF786FC6CE0DFF8C5
:10381000E00B0079FF2804D1DFF8D40B40790028B1
:103820000DD0DFF8CC0B0079002804D1DFF8C00BF5
:103830004079002803D00320FFF76EFC54E0A4B2C7
:1038400047F25010241A08D0641E07D0641E20D0FE
:10385000641E1FD0641E2FD041E040E0DFF8900BC3
:103860000079FF2814D1DFF8880B407900280FD1A8
:10387000DFF8800B0078401CDFF87C1B0870DFF855
:10388000783B01220021A02002F072FC02F078FEB9
:1038900025E024E0DFF8580B0079FF2808D1DFF895
:1038A000500B4079002803D101201649C87002E06E
:1038B00000201449C87012E0DFF8340B0079FF28AB
:1038C0000DD1DFF82C0B4079002808D101201449D4
:1038D000087000200E49086000200D4988800621EC
:1038E000DFF80C0BFFF7FBFB31BD00000400FA050D
:1038F0000CED00E0082B0020B92B0020D41A00208A
:10390000D41D0020002B0020C82A00200000C8423F
:10391000082A0020B42B0020BA2B0020DF1A002038
:10392000B62B0020B72B0020902B00201C2B002052
:103930002DE9F84195B00020002000270026012045
:10394000DFF8B81AC870DFF8A80A04794FF480715C
:10395000DFF89C0A407901FB0404DFF8940A8078C0
:10396000DFF89C1A0978401A00280AD0DFF8800A8C
:1039700085784FF48071DFF8780AC07801FB05057F
:1039800004E0DFF86C0AC57815F5E2450020DFF8A1
:10399000741A0870DFF86C0A90F8008018F10100C2
:1039A000DFF8601A0870DFF8480AFFF794FB002878
:1039B00003D0DFF84C0A007800E00020DFF8481A56
:1039C0005FFA88F801F808001020DFF83C1ADFF8E9
:1039D000342A12788854DFF82C0A0078401CDFF86B
:1039E000241A08702000C0B24000DFF81C1ADFF86B
:1039F000142A12788854DFF80C0A0078401CDFF88B
:103A0000041A0870290089B247F23010091A2029D7
:103A100008D2290089B2200080B2411847F2511023
:103A200081421EDB280080B247F26011884214D028
:103A3000290089B247F27010091A042908D2290016
:103A400089B2200080B2411847F27510814204DB30
:103A5000280080B2B0F5E34F0BD1200080B20028DF
:103A600007D0200080B24000DFF8841989798842AD
:103A700004D00220FFF750FB00F0B6BC5FF0000856
:103A800003E0FFE76D1C18F101084046C0B22100B9
:103A900080B289B2884280F09484280080B247F2D4
:103AA0003011401A6ED0401E00F08480401E00F09D
:103AB000AC80401E00F0D080401E00F0CF80401E41
:103AC00000F0F280401E00F01581401E00F03881A9
:103AD000401E00F07181401E00F0AA81401E00F0DF
:103AE000A981401E00F0A881401E00F0A781401E61
:103AF00000F0A681401E00F0C281401E00F0C1818E
:103B0000401E00F0E181401E00F00182401E00F0E6
:103B10002182401E00F04F82401E00F06F82401E46
:103B200000F08F82401E00F0AF82401E00F0CF8276
:103B3000401E00F0ED82401E00F00B83401E00F09E
:103B40000A83401E00F00983401E00F00883401ED7
:103B500000F00783401E00F00683401E00F005833E
:103B6000113800F00483103800F02183401E00F06B
:103B70003583401E00F05F83401E83D00D3800F077
:103B80005B837EE7DFF868083844C1794FF48072C0
:103B9000DFF85C083844007A02FB0101DFF86008B6
:103BA0000170DFF85C3801220121A02002F0E0FA68
:103BB000BF1C67E7DFF838083844C1794FF48072DA
:103BC000DFF82C083844007A02FB0101DFF83008E6
:103BD0004170DFF82C084078002803D10120DFF87D
:103BE00020184870DFF818084078082803DB072001
:103BF000DFF80C184870DFF8C03A01220221A0203B
:103C000002F0B6FA0126BF1C3CE7DFF8E4073844AF
:103C1000C1794FF48072DFF8D8073844007A02FB8C
:103C20000101DFF8DC070171DFF8D4070079002813
:103C300004D0DFF8CC074078042803DB0320DFF84A
:103C4000C0170871DFF8743A01220321A02002F0A6
:103C50008FFA0126BF1C15E7BF1C13E7DFF890079A
:103C60003844C1794FF48072DFF884073844007A11
:103C700002FB0101DFF884070171DFF8800700799A
:103C8000012808D0DFF874070079022803D001204A
:103C9000DFF868170871DFF8283A01220421A02014
:103CA00002F066FABF1CEDE6DFF844073844C1793C
:103CB0004FF48072DFF838073844007A02FB0101C4
:103CC000DFF838074170DFF834074078002804D067
:103CD000DFF828074078042803DB0220DFF81C17F0
:103CE0004870DFF8E03901220521A02002F040FAF7
:103CF000BF1CC7E6DFF8F8063844C1794FF480727C
:103D0000DFF8EC063844007A02FB0101DFF8EC062C
:103D10000170DFF8E8060078002804D0DFF8DC0640
:103D20000078052803DB0120DFF8D0160870DFF8E3
:103D3000CC3601220621A02002F01AFABF1CA1E60F
:103D4000DFF8AC063844C0794FF48072DFF8A01673
:103D50003944097A02FB001002F022FF0022DFF84A
:103D6000683902F02FFF03F051F8DFF8601908609E
:103D7000DFF858090068DFF8581903F07BF807D31B
:103D8000DFF848090068DFF84C1903F085F804D81B
:103D90005FF07E50DFF83419086004226946DFF8CE
:103DA0002C09006802F09BFA6B4604223121A02006
:103DB00002F0DEF9BF1C65E6DFF834063844C0794E
:103DC0004FF48072DFF828163944097A02FB00109C
:103DD00002F0E6FE0022DFF8003903F06FF803F08E
:103DE00015F8DFF8E8184860DFF8E0084068DFF809
:103DF000EC1803F03FF807D3DFF8D0084068DFF88D
:103E0000E01803F049F804D8DFF8D808DFF8BC1848
:103E1000486004226946DFF8B408406802F05FFA9F
:103E20006B4604223521A02002F0A2F9BF1C29E62E
:103E3000BF1C27E6BF1C25E6BF1C23E6BF1C21E6EE
:103E4000DFF8AC053844C1790022DFF8A405384416
:103E5000007A02FB0101C9B2080080B24FF6FF727E
:103E600090420AD0DFF8540B80F82C10DFF8503B5A
:103E700001226321A02002F07BF9BF1C02E6BF1CD7
:103E800000E6DFF86C053844C1794FF48072DFF842
:103E900060053844007A02FB0101080080B24FF649
:103EA000FF7290420ED0DFF8140B81826946DFF872
:103EB0000C0B808A02F022FA6B4602224F21A020CE
:103EC00002F056F9BF1CDDE5DFF824053844C1795E
:103ED0004FF48072DFF818053844007A02FB0101C4
:103EE000080080B24FF6FF7290420ED0DFF8CC0A85
:103EF00001836946DFF8C40A008B02F0FFF96B46C4
:103F000002225321A02002F033F9BF1CBAE5DFF8EA
:103F1000E0043844C1794FF48072DFF8D4043844A7
:103F2000007A02FB0101080080B24FF6FF72904256
:103F30000ED0DFF8880A41836946DFF8800A408B9B
:103F400002F0DCF96B4602225521A02002F010F9A4
:103F5000BF1C97E5DFF898043844C1794FF48072AC
:103F6000DFF88C043844007A02FB0101080080B2BB
:103F70004FF6FF7290421CD0DFF8400AC182DFF892
:103F80003C0AC08A012808D0DFF8300AC08A02281B
:103F900003D00220DFF8241AC8826946DFF81C0A21
:103FA000C08A02F0ABF96B4602225121A02002F038
:103FB000DFF8BF1C66E5DFF838043844C1794FF4F8
:103FC0008072DFF82C043844007A02FB01010800FB
:103FD00080B24FF6FF7290420ED0DFF8E009818385
:103FE0006946DFF8D809808B02F088F96B46022217
:103FF0005721A02002F0BCF8BF1C43E5DFF8F00316
:104000003844C1794FF48072DFF8E4033844007A11
:1040100002FB0101080080B24FF6FF7290420ED001
:10402000DFF89809C1836946DFF89009C08B02F078
:1040300065F96B4602225921A02002F099F8BF1CB5
:1040400020E5DFF8AC033844C1794FF48072DFF823
:10405000A0033844007A02FB0101080080B24FF649
:10406000FF7290420ED0DFF8540901846946DFF8F0
:104070004C09008C02F042F96B4602225B21A02021
:1040800002F076F8BF1CFDE4DFF864033844C17920
:104090004FF48072DFF858033844007A02FB0101C4
:1040A000080080B24FF6FF7290420ED0DFF80C0984
:1040B00041846946DFF80409408C02F01FF96B4621
:1040C00002225D21A02002F053F8BF1CDAE4C848A8
:1040D0003844C1794FF48072C5483844007A02FBF5
:1040E0000101080080B24FF6FF7290420ED0DFF857
:1040F000CC0881846946DFF8C408808C02F0FEF8A1
:104100006B4602225F21A02002F032F8BF1CB9E406
:10411000B7483844C1794FF48072B5483844007AC2
:1041200002FB0101080080B24FF6FF7290420ED0F0
:10413000DFF88808C1846946DFF88008C08C02F087
:10414000DDF86B4602226121A02002F011F8BF1CAD
:1041500098E4BF1C96E4BF1C94E4BF1C92E4BF1C0F
:1041600090E4BF1C8EE4BF1C8CE4BF1C8AE4A04812
:104170003844C1794FF480729D483844007A02FB7C
:1041800001019E4881709D488078002806D09B4898
:104190008078012802D0012098498870DFF8F03A31
:1041A00001220721A02001F0E3FFBF1C6AE4904830
:1041B0003844C1794FF480728D483844007A02FB4C
:1041C0000101DFF8D00A0180DFF8CC0A008803F093
:1041D0001AF9DFF8C81A0860BF1C53E48448384451
:1041E000C1794FF4807282483844007A02FB0101A1
:1041F000DFF8AC0A0170DFF8A80A0078012812D1B4
:10420000DFF8A00A0078411CDFF8982A1170C0B2CC
:10421000042808DB0020DFF88C1A08701420DFF86F
:104220009C17088506E0754841785A204143DFF81D
:104230008C07018526E425E4DFF86C0A02F069F8B2
:104240000600DFF8680A02F064F80500300080B26A
:1042500006280DDA280080B2052809DA2800310086
:1042600080B289B2884203D2A4B2A41F252C03D302
:104270000320FEF751FFB7E000242AE0DFF8301AF0
:104280002A0092B22820424301EB0207A0465FFABF
:1042900088F857482100C9B200EBC1000B3002F08A
:1042A00012F847F82800DFF80C1A2A0092B22820EA
:1042B000424301EB0207A0465FFA88F84C48210010
:1042C000C9B200EBC1000F3001F0FDFF47F8280034
:1042D000641C2000C0B20A2838DA45482100C9B25F
:1042E00000EBC1000B3001F0EEFF10F1010F0AD01E
:1042F0003F482100C9B200EBC1000F3001F0E3FFDD
:1043000010F1010FBAD121001CE0DFF8A4292B0025
:104310009BB22820434302EB03000A00D2B25FF0B5
:10432000FF3340F82230DFF88C292B009BB2282085
:10433000434302EB03000A00D2B25FF0FF3340F8C0
:104340002230491C0800C0B20A28DEDB280080B2F7
:1043500000280BD16946300080B201F0CFFF6B46D8
:10436000022240F23E41A02001F0E9FE2000C0B24E
:10437000C200DFF8441901AE300003F075F92000E7
:10438000C0B20A280CDA2000C0B2D0F10A00C10085
:10439000FF2201A8E4B200EBC404200003F0B0F94E
:1043A00001AB5022ADB25020454315F58865290078
:1043B00089B2A02001F0C3FE0B210D48FEF78FFE4D
:1043C00012E000200D49C87006210948FEF787FE5B
:1043D000F6B2012E08D1DFF8E40800780028FAD1FF
:1043E0000020074803F0C0F916B0BDE8F0810000D6
:1043F000D41D0020F4C1000874280020002B0020E8
:10440000082B0020B92B0020D41A0020F8B500207A
:104410000020DFF8AC0804794FF48071DFF8A008C1
:10442000407901FB0404DFF898088078DFF89418DD
:104430000978401A00280AD0DFF8840885784FF4FC
:104440008071DFF87C08C07801FB050504E0DFF827
:104450007008C57815F5E2450020DFF86C18087083
:10446000DFF864080678701CDFF85C180870DFF865
:104470005008FEF730FE002803D0DFF84808007827
:1044800000E00020DFF84418F6B288552620DFF857
:104490003C18DFF8342812788854DFF82C080078AC
:1044A000401CDFF8241808702000C0B24000DFF87C
:1044B0001C18DFF8142812788854DFF80C080078EC
:1044C000401CDFF804180870280080B2B0F5E34003
:1044D0000F2808D2290089B2200080B2411847F283
:1044E000911081423FDB290089B247F29010091AEE
:1044F0000F2908D2290089B2200080B2411847F262
:10450000A11081422FDB290089B247F2A010091ABD
:104510000F2908D2290089B2200080B2411847F241
:10452000B11081421FDB290089B247F2B010091A8D
:104530000F2908D2290089B2200080B2411847F221
:10454000C11081420FDB290089B247F2C010091A5D
:104550000F2914D2290089B2200080B2411847F2F5
:10456000D11081420BDA200080B2002807D014F06D
:10457000010115F001000143C9B2002903D0022056
:10458000FEF7CAFD96E0002117E003005B1EDBB2D8
:10459000DB001600DE40DFF83437DFF82C773F7899
:1045A000DE55DFF824371B785B1CDFF81C6733709F
:1045B000401E0028E9D1AD1C891C200080B2814238
:1045C00071DA280080B24FF4E342801A4ED0801E88
:1045D0004ED0801E4ED0801E4ED0801E4ED0801EEB
:1045E0004ED0801E4ED0801E4ED0801E4ED0801EDB
:1045F0004CD0801E4AD0801E48D0801E46D0801EDF
:1046000044D0801E42D0801E40D0801E40D0801EEC
:104610003ED0801E3CD0801E3AD0801E38D0801EF6
:1046200036D0801E34D0801E32D0801E32D0801E04
:1046300030D0801E2ED0801E2CD0801E2AD0801E0E
:1046400028D0801E26D0801E24D0801E24D0801E1C
:1046500022D0801E20D0801E1ED0801E1CD0801E26
:104660001AD0801E18D0801E16D018E0002214E048
:10467000002212E0002210E000220EE000220CE0F6
:1046800000220AE0002208E0002206E0002204E006
:10469000002202E0002200E00022042089E702203C
:1046A000FEF73AFD06E0DFF820060178DFF81C0689
:1046B000FEF715FDF1BD0000092B00200C2B00209A
:1046C000042B0020012B002000005940C82A0020A4
:1046D0000AD7233C01000040000059C00000C8C2B6
:1046E0000100C8420000C842F8B5002400200020A4
:1046F0000120DFF8081CC870DFF8C40505794FF405
:104700008071DFF8BC05407901FB0505DFF8B005D5
:104710008078DFF8B0150978401A00280AD0DFF851
:10472000A00586784FF48071DFF89405C07801FB0E
:10473000060604E0DFF88805C67816F5E246002094
:10474000DFF884150870DFF880050778781CDFF83B
:1047500078150870DFF86805FEF7BDFC002803D067
:10476000DFF86005007800E00020DFF86015FFB298
:10477000C8552720DFF85415DFF84C2512788854E7
:10478000DFF844050078401CDFF83C15087028006D
:10479000C0B24000DFF83415DFF82C2512788854B9
:1047A000DFF824050078401CDFF81C150870E807C6
:1047B0000DD4280080B2002809D0F00707D42800C3
:1047C00080B24000DFF8F8148979884203D00220D3
:1047D000FEF7A2FCF1E0300080B2B0F5E3400F2814
:1047E00008D2310089B2280080B2411847F29110F6
:1047F000814243DB310089B247F29010091A0F2938
:1048000008D2310089B2280080B2411847F2A110C5
:10481000814233DB310089B247F2A010091A0F2917
:1048200008D2310089B2280080B2411847F2B11095
:10483000814223DB310089B247F2B010091A0F29F7
:1048400008D2310089B2280080B2411847F2C11065
:10485000814213DB310089B247F2C010091A0F29D7
:1048600008D2310089B2280080B2411847F2D11035
:10487000814203DB0220FEF74FFC9EE0DFF87C0A5A
:10488000C07800281FD1310089B247F29010091A70
:104890000F2918D3310089B247F2A010091A0F2945
:1048A00011D3310089B247F2B010091A0F290AD387
:1048B000310089B247F2C010091A0F2903D304202E
:1048C000FEF72AFC79E0002004E0241D00E0241D0E
:1048D000B61C801C290089B288426ADA310089B28C
:1048E0004FF4E342891A4ED0891E4ED0891E4ED015
:1048F000891E4ED0891E4ED0891E4ED0891E4ED0A4
:10490000891E4ED0891E4ED0891E4CD0891E4AD099
:10491000891E48D0891E46D0891E44D0891E42D0A7
:10492000891E40D0891E40D0891E3ED0891E3CD0B1
:10493000891E3AD0891E38D0891E36D0891E34D0BF
:10494000891E32D0891E32D0891E30D0891E2ED0C9
:10495000891E2CD0891E2AD0891E28D0891E26D0D7
:10496000891E24D0891EB2D0891EB0D0891EAED037
:10497000891EACD0891EAAD0891EA8D0891EA6D0B7
:10498000891EA4D0A1E7241DA2E7241DA0E7241DB1
:104990009EE7241D9CE7241D9AE7241D98E7241D0B
:1049A00096E7241D94E7241D92E7241D90E7241D1B
:1049B0008EE70621C248FEF792FBF1BD082A0020CF
:1049C000342A0020F8B586B0002468460021002271
:1049D000C0E9001204A800210022C0E9001202A8C8
:1049E00000210022C0E9001200200020B548007814
:1049F000B3498978884208D0B14885784FF48071EE
:104A0000AF48C07801FB050503E0AD48C57815F552
:104A1000E245AB4806794FF48071A948407901FB23
:104A200006060020A8490870A7480778781CA64900
:104A30000870A348FEF74FFB002802D0A148007879
:104A400000E00020A149FFB2C8552A209F499E4A94
:104A5000127888549C480078401C9B4908709848FC
:104A600080789A49984A1278885497480078401C70
:104A7000954908709248C0789449934A12788854AE
:104A800091480078401C904908708D4800798F4902
:104A90008D4A127888548C480078401C8A490870E6
:104AA000874840798949884A12788854864800782E
:104AB000401C85490870290089B247F2E010091AA4
:104AC00006290CD2290089B2300080B2411847F281
:104AD000E710814203DA300080B2002803D10220BF
:104AE000FEF71AFBD1E0DFF81408C078002803D1E4
:104AF0000420FEF711FBC8E07148807969462A005E
:104B000092B21144DFF8D42B88546846290089B248
:104B10000844DFF8C81B405C8DF81000002123E03A
:104B200002A80A00D2B2825C04A80B00DBB2C05C0F
:104B30008218521C02A80B00DBB2184442706A466D
:104B40002B009BB20800C0B2C31802EB0300DFF8D1
:104B5000902B5B4B02AF8C465FFA8CFC67447F78EE
:104B60003B449B798354491C0800C0B2320092B286
:104B7000521E9042D4DB002722E051482044831D7E
:104B80009DF80020521C92B24FF42071A02001F039
:104B9000D6FA9DF80000401C04190FE04848204454
:104BA000831D9DF80520521C92B24FF47071A02015
:104BB00001F0C5FA9DF80500401C04196D1C7F1C0E
:104BC0003800C0B2310080B289B2884258D2280081
:104BD00080B247F2E011401ACFD0401E08D0401EEC
:104BE00017D0401E26D0401E35D0401ED6D043E000
:104BF00033482044831D9DF80120521C92B24FF48B
:104C00003071A02001F09BFA9DF80100401C0419AE
:104C1000D4E72B482044831D9DF80220521C92B2F9
:104C20004FF44071A02001F08AFA9DF80200401C68
:104C30000419C3E722482044831D9DF80320521C19
:104C400092B24FF45071A02001F079FA9DF8030060
:104C5000401C0419B2E71A482044831D9DF8042023
:104C6000521C92B24FF46071A02001F068FA9DF8D6
:104C70000400401C0419A1E70220FEF74DFA04E0ED
:104C8000114801780E48FEF72AFA07B0F0BD00007F
:104C9000022B0020B42B00208E2B00201C2B002088
:104CA000BA2B0020BB2B0020DB1D0020DD1D0020C7
:104CB000D41F00209C200020DF1D0020C72B0020D7
:104CC000D41D0020082B0020B92B0020D41A00206E
:104CD0002DE9F843002000200020002000200020C3
:104CE00000200020DFF8FC090078DFF8FC19897843
:104CF00088420AD0DFF8F00985784FF48071DFF838
:104D0000E809C07801FB050504E0DFF8DC09C57897
:104D100015F5E245DFF8D00904794FF48071DFF82A
:104D2000C809407901FB04040020DFF8C0190870AD
:104D3000DFF8B8090678701CDFF8B0190870DFF8E2
:104D4000A809FEF7C8F9002803D0DFF89809007811
:104D500000E00020DFF8A815F6B288552B20DFF818
:104D6000A015DFF8882912788854DFF880090078C8
:104D7000401CDFF878190870DFF86C090079DFF85B
:104D80008015DFF8682912788854DFF86009007808
:104D9000401CDFF858190870DFF84C094079DFF83B
:104DA0006015DFF8482912788854DFF84009007848
:104DB000401CDFF838190870290089B247F2E0106A
:104DC000091A06290CD2290089B2200080B24118A4
:104DD00047F2E710814203DA200080B2002803D1B5
:104DE0000220FEF799F986E2002621E01EE0DFF8B6
:104DF000FC0890F8009019F10100DFF8F018087035
:104E00004146C9B201F2C13189B2A02001F0DCF8FB
:104E1000DFF8EC145FFA89F901F8090018F10108CC
:104E200040463900C0B2C9B28842E0D36D1C761C3E
:104E30003000C0B2210080B289B2884280F0558231
:104E4000280080B247F2E011401A0ED0401E75D003
:104E5000401E00F0D980401E00F03A81401E00F054
:104E60009B81401E00F0FC81C0E7E020DFF8901439
:104E7000DFF8782812788854DFF870080078401C32
:104E8000DFF8681808704FF42071A02001F09CF83A
:104E900007003800C0B2002803D03800C0B2332861
:104EA0001CDB0120DFF85814DFF840281278885402
:104EB000DFF838080078401CDFF830180870002050
:104EC000DFF83C14DFF8242812788854DFF81C0837
:104ED0000078401CDFF8141808702EE0DFF820047A
:104EE000DFF8081809784754DFF800080078401CFC
:104EF000DFF8F81708705FF0000818E0DFF8EC073B
:104F000090F8009019F10100DFF8E01708704146B1
:104F1000C9B201F2812189B2A02001F055F8DFF871
:104F2000E0135FFA89F901F8090018F10108404619
:104F30003900C0B2C9B28842E0D377E7E120DFF898
:104F4000C013DFF8A82712788854DFF8A00700788C
:104F5000401CDFF8981708704FF43071A02001F062
:104F600033F807003800C0B2002803D03800C0B2C0
:104F700033281BDB0120DFF88813DFF87027127855
:104F80008854DFF868070078401CDFF86017087065
:104F90000020DB49DFF8542712788854DFF84C07EB
:104FA0000078401CDFF8441708702CE0D448DFF884
:104FB0003C1709784754DFF834070078401CDFF8C5
:104FC0002C1708705FF0000817E0DFF8200790F852
:104FD000009019F10100DFF8141708704146C9B2BA
:104FE00001F2C12189B2A02000F0EEFFC4495FFAAE
:104FF00089F901F8090018F1010840463900C0B2EA
:10500000C9B28842E1D311E7E220BD49DFF8DC26CE
:1050100012788854DFF8D4060078401CDFF8CC16EC
:1050200008704FF44071A02000F0CEFF0700380058
:10503000C0B2002803D03800C0B233281ADB0120E8
:10504000AF49DFF8A82612788854DFF8A006007868
:10505000401CDFF8981608700020A949DFF88C265C
:1050600012788854DFF884060078401CDFF87C163C
:1050700008702CE0A248DFF8741609784754DFF86E
:105080006C060078401CDFF8641608705FF00008BA
:1050900017E0DFF8580690F8009019F10100DFF8EA
:1050A0004C1608704146C9B201F2013189B2A02004
:1050B00000F08AFF92495FFA89F901F8090018F1B6
:1050C000010840463900C0B2C9B28842E1D3ADE61A
:1050D000E3208B49DFF8142612788854DFF80C0699
:1050E0000078401CDFF8041608704FF45071A020BF
:1050F00000F06AFF07003800C0B2002803D0380073
:10510000C0B233281ADB01207D49DFF8E025127890
:105110008854DFF8D8050078401CDFF8D0150870F7
:1051200000207749DFF8C42512788854DFF8BC05E1
:105130000078401CDFF8B41508702CE07048DFF8E8
:10514000AC1509784754DFF8A4050078401CDFF857
:105150009C1508705FF0000817E0DFF8900590F8E4
:10516000009019F10100DFF8841508704146C9B2BA
:1051700001F2413189B2A02000F026FF60495FFAB8
:1051800089F901F8090018F1010840463900C0B258
:10519000C9B28842E1D349E6E4205949DFF84C25F9
:1051A00012788854DFF844050078401CDFF83C157D
:1051B00008704FF46071A02000F006FF070038006F
:1051C000C0B2002803D03800C0B233281ADB012057
:1051D0004B49DFF8182512788854DFF8100500785D
:1051E000401CDFF80815087000204549DFF8FC2452
:1051F00012788854DFF8F4040078401CDFF8EC14CF
:1052000008702CE03E48DFF8E41409784754DFF8D2
:10521000DC040078401CDFF8D41408705FF000084C
:1052200017E0DFF8C80490F8009019F10100DFF8EA
:10523000BC1408704146C9B201F2813189B2A02084
:1052400000F0C2FE2E495FFA89F901F8090018F151
:10525000010840463900C0B2C9B28842E1D3E5E551
:10526000E5202749DFF8842412788854DFF87C048D
:105270000078401CDFF8741408704FF47071A0209F
:1052800000F0A2FE07003800C0B2002803D03800AA
:10529000C0B233281ADB01201949DFF850241278F4
:1052A0008854DFF848040078401CDFF84014087088
:1052B00000201349DFF8342412788854DFF82C04D6
:1052C0000078401CDFF824140870AFE50C48DFF8C4
:1052D0001C1409784754DFF814040078401CDFF8E8
:1052E0000C1408705FF000089AE5DFF800040178FC
:1052F0000348FDF7F4FEBDE8F1830000002B002019
:10530000D41A002070B500200020DFF8DC03857877
:105310004FF48071DFF8D003C07801FB0505DFF89A
:10532000C80304794FF48071DFF8BC03407901FBB6
:1053300004040020DFF8B4130870DFF8B003067827
:10534000701CDFF8A8130870DFF89C03FDF7C3FE9C
:10535000002803D0DFF88C03007800E00020DFF89D
:105360009013F6B288554120DFF88413DFF87C23D0
:1053700012788854DFF874030078401CDFF86C134F
:105380000870DFF864038078DFF86413DFF85C23CB
:1053900012788854DFF854030078401CDFF84C136F
:1053A0000870DFF84403C078DFF84413DFF83C23CB
:1053B00012788854DFF834030078401CDFF82C138F
:1053C0000870DFF824030079DFF82413DFF81C23CA
:1053D00012788854DFF814030078401CDFF80C13AF
:1053E0000870DFF804034079DFF80413DFF8FC22CB
:1053F00012788854DFF8F4020078401CDFF8EC12D1
:105400000870ADB2012D02D1A4B2002C00D035E05D
:105410000120DFF8E012C8700C2240F2FF71A020DA
:1054200000F027FE40F2FF71A02000F0CDFD0C2817
:1054300015D10020AE49AD4A12788854AB480078A7
:10544000401CAA490870A9480178A948FDF747FE01
:10545000A94800780028FBD1FDF732FE0EE00120BC
:10546000A349A24A12788854A0480078401C9F495A
:1054700008709E4801789E48FDF731FE70BD1CB54E
:1054800000208DF800006946974800F091FA022844
:105490006BD09DF80000002867D09348FDF71BFEF5
:1054A00090490978C0B2814204D08F48FDF713FEBD
:1054B00000285AD18C48FDF710FE032810D004288C
:1054C00011D0052812D0102813D0262814D0272850
:1054D00015D02A2816D02B2817D0412818D01AE02A
:1054E000FDF749FE41E0FEF754F83EE0FEF73DF9D6
:1054F0003BE0FEF71DFA38E0FEF788FF35E0FFF7E6
:10550000F3F832E0FFF75EFA2FE0FFF7E1FB2CE063
:10551000FFF7F8FE29E0002074490870734804780A
:10552000601C724908707048FDF7D5FD7049E4B2FF
:1055300008556E480478601C6C4908706A48FDF78D
:10554000CCFD50F080006A49E4B20855012068495A
:10555000664A1278885465480078401C6349087090
:10556000624801786248FDF7BAFD13BD10B500200E
:1055700000205E4908705B4800785D495B4A1278FC
:1055800088545A480078401C5849087004205849EB
:10559000564A1278885455480078401C5349087080
:1055A00018205349514A1278885450480078401CBA
:1055B0004E4908705148007800210FE0D1F10302F4
:1055C000D2B2D2000300D340494A484C2478135544
:1055D000464A1278521C454B1A70491C0A00D2B236
:1055E000042AEBDB4648007800210FE0D1F10302EA
:1055F000D2B2D2000300D3403D4A3C4C247813552C
:105600003A4A1278521C394B1A70491C0A00D2B21D
:10561000042AEBDB002000210FE0D1F10302D2B21B
:10562000D2000300D340324A304C247813552F4A1D
:105630001278521C2D4B1A70491C0A00D2B2042A4F
:10564000EBDB002000210FE0D1F10302D2B2D20047
:105650000300D340264A254C24781355234A127858
:10566000521C224B1A70491C0A00D2B2042AEBDBEE
:105670002448008800210FE0D1F10302D2B2D20009
:105680000300D3401A4A194C24781355174A12784C
:10569000521C164B1A70491C0A00D2B2042AEBDBCA
:1056A0001948408800210FE0D1F10302D2B2D200A4
:1056B0000300D3400E4A0D4C247813550B4A127840
:1056C000521C0A4B1A70491C0A00D2B2042AEBDBA6
:1056D000064801780648FDF715FD10BD208EFFFF36
:1056E000218EFFFF082B0020D41D0020B92B0020A5
:1056F000D41A0020002B0020C72B0020B62B00203E
:10570000B72B00208E2B00201C2B00200200D2B2D1
:10571000102392FBF3F21300DBB20A2B02DA3032D1
:105720000A7001E037320A70C0B2102290FBF2F327
:1057300002FB13000200D2B20A2A02DA30304870AB
:1057400001E0373048707047010000220878412896
:1057500003DA08783038821809E00878612803DA1B
:1057600008783738821802E0087857388218D2B2A1
:1057700010014A78412A03DA49783039081809E0DB
:105780004A78612A03DA49783739081802E04978FB
:1057900057390818C0B27047F8B504000800C0B205
:1057A000022290FBF2F302FB1300012801D100203A
:1057B00019E0C9B2022091FBF0F50027002607E0AE
:1057C0003000C0B204EB4000FFF7BEFFC719761CE3
:1057D00030002900C0B2C9B28842F1D3FFB2FF4302
:1057E0007F1C3800C0B2F2BDF8B5040015000800F7
:1057F000C0B2022290FBF2F302FB1300012801D198
:10580000002017E0C9B2022091FBF0F7002609E062
:105810003000C0B204EB4000FFF796FF3100C9B280
:105820006854761C30003900C0B2C9B28842EFD348
:105830003800C0B2F2BD2DE9F041040088461500E1
:105840005FFA88F85FEA4806002709E03800C0B22E
:1058500005EB40013800C0B2205CFFF757FF7F1C0A
:1058600038004146C0B2C9B28842EFD33000C0B25E
:10587000BDE8F08180B58B490978002903D0022961
:1058800052D020D364E00100C9B23A2903D10021EB
:10589000854A117006E00100C9B20D2902D101212B
:1058A000804A11708149804A127888547E48007875
:1058B000401C7D4908707C480078FF2802D10220F6
:1058C0007849087047E00100C9B23A290FD1002198
:1058D000754A11700021734A11707449724A127826
:1058E000885471480078401C6F4908701BE0010023
:1058F000C9B20A2914D102216A4A11706B496A4A55
:105900001278885468480078401C67490870012064
:10591000674908706A460021664802F0D9FB02E038
:1059200002206049087016E00100C9B23A290ED180
:1059300000215D4A117000215A4A11705B495A4A90
:105940001278885458480078401C5749087002E083
:1059500002205449087001BD10B4002211E0130068
:10596000DBB2C35C3A3B072B17D31300DBB2C35C3B
:10597000473B1A2B12D31300DBB2C35C672B0EDA42
:10598000521C13000C00DBB2E4B2A34207D2130096
:10599000DBB2C35C302BE2DA01E000E0FFE7D2B219
:1059A000C9B28A4201D1012000E0002010BC70473A
:1059B00070B504000D00002C01D1002035E03C48FA
:1059C0000078002803D038480078002801D1002052
:1059D0002BE000203649087033480078C11EC9B258
:1059E0003548FFF7B9FF002801D101201DE02E48FE
:1059F0000078411FC9B23048FFF7CEFE06002B48A1
:105A0000294909780844001FFFF79EFEF6B2864236
:105A100001D0022009E0220023480078411FC9B2CA
:105A20002548FFF7E1FE2870032070BD10B50A007D
:105A3000D2B2002A01D0002801D1002030E00A00B3
:105A4000D2B25200521DB2F5807F01DB002027E068
:105A50003A221A4B1A700124194AC9B2FFF7EBFE19
:105A60000419611EC9B21648FFF796FE13492200B9
:105A7000D2B21144C0B2FFF749FEA41C0D200F4959
:105A80002200D2B28854641C0A200C492200D2B2EF
:105A90008854641CE4B22100084802F035F8C0B212
:105AA00010BD0000D0000020BC2B0020D41D002021
:105AB000C92B0020EC220020D51D0020D41B002083
:105AC000D51B0020FF2212EAD05C1DBF12EAD15381
:105AD000944593422BE09C44D30780EA01021A408C
:105AE00043EA002043EA0121A1FB0030C04238BF55
:105AF00040007CF17F010BDBFE294ADA5B0842EAB9
:105B0000C15153EA006373F1004C51EB1020704710
:105B1000D1F1080CDCF120012FDB5B0810FA01F158
:105B20000B4320FA0CF073F100415041704794454B
:105B30001CBF02EAD153934280EA010202F0004204
:105B40001DD0400019D0490017D05BB9634514D06F
:105B50000902B1FA81F39940BCEB030CC00140F09B
:105B60000040C1E70002B0FA80FC10FA0CF0B3EB81
:105B70000C0CC90141F00041B6E71000704740002D
:105B80000AD0490008D010F1807F94BF11F1807FC6
:105B900002E042F0FF407047D043704700180CD23B
:105BA000010E7F3909D4D1F11F015DBFC00140F062
:105BB0000040C8406FF000007047002070470A00A6
:105BC00090EA010F42F1368681F00041431A4FF00E
:105BD00000423EBF5340C01AC91800BFD3095FEA54
:105BE000D05C13EB400F34BFB3EB410F40E07CEBD4
:105BF000D1530CD342EA012122D8D1EB402009D362
:105C0000400A28BF5FEA500140EBCC507047401A71
:105C100015D04002B0FA80F2521C9040400A4FEA80
:105C20003C23B3EB026384BF00EB730007E040F456
:105C300000001A16DB07C2F10102D040184370477A
:105C4000182BFCDC31FA03F202FA03F3591A38BFBD
:105C500042F00102D2EB40203CBF4000ACF1010C0D
:105C60005FEACC5CC20572F100414CEB50207047FA
:105C700013EB400F0FD2C94209D0ACEBD153022B2A
:105C800003DB4902172BDDDD70479143401AC04208
:105C9000D5D10020704713EB410FD0D36FF0000037
:105CA0007047640041F64C5148430100481E0029EA
:105CB000FBD17047C1000800411E0028FBD170478E
:105CC000E0B501215FF4802002F0F0FEC0200090DA
:105CD00001208DF8040003208DF8050001208DF8C7
:105CE000060001208DF807006946DFF8D80402F0AD
:105CF00047FF4021DFF8CC0402F09DFF8021DFF850
:105D0000C40402F098FF07BD80B5DFF8B80400684E
:105D100050F48040DFF8AC140860DFF8AC04008871
:105D2000DFF8A4140880DFF8A404006850F4882089
:105D3000DFF8981408608021DFF8880402F07BFF08
:105D40004021DFF8800402F076FF4FF40071DFF8A5
:105D5000800402F070FF0420FFF7ACFF4FF40071E5
:105D6000DFF86C0402F06AFF8021DFF8580402F0CB
:105D700065FF0420FFF79EFF4021DFF8480402F092
:105D80005DFF01BD80B5DFF83C04006850F4804041
:105D9000DFF830140860DFF830040088DFF82814DA
:105DA0000880DFF82804006850F48820DFF81C140D
:105DB00008604021DFF80C0402F040FF8021DFF88A
:105DC000040402F03BFF0420FFF774FF4021DFF8DA
:105DD000F40302F030FF8021DFF8E80302F02BFF2C
:105DE0000420FFF767FF01BD10B50024DFF8D403DE
:105DF000006830F44040DFF8CC1308608021DFF801
:105E0000C40302F018FF0120FFF754FF4021DFF820
:105E1000B40302F010FF0120FFF74CFF8021DFF8F0
:105E2000A40302F0FEFE002808D0641C2000C0B2CB
:105E3000FB28F3DBFFF7A6FF012005E04021DFF898
:105E4000840302F0FBFE002010BD80B54021DFF886
:105E5000740302F0F3FEDFF86C03006850F4804036
:105E6000DFF860130860DFF860030088DFF858137C
:105E70000880DFF85803006850F48820DFF84C13DE
:105E800008608021CF4802F0D9FE0220FFF712FF00
:105E90004021CC4802F0CFFE0220FFF70BFF40214B
:105EA000C84802F0CBFE01BD80B54021C54802F0D4
:105EB000C5FEC448006850F48040C2490860C2482A
:105EC0000088C1490880C148006850F48820BF4953
:105ED00008608021BB4802F0AEFE0220FFF7EAFE18
:105EE0004021B84802F0A7FE0220FFF7E3FE402160
:105EF000B44802F0A3FE01BD38B50400B148006803
:105F000050F48040AF490860AF480088AE4908802F
:105F1000AE48006850F48820AC4908604021A94888
:105F200002F08CFE002519E02200D2B2D2098021B5
:105F3000A44802F085FE64000220FFF7BBFE40216A
:105F4000A04802F078FE0220FFF7B4FE40219D48F1
:105F500002F074FE0220FFF7ADFE6D1C2800C0B2F7
:105F60000828E1DB31BD70B50400002695480068C3
:105F700030F4404093490860002516E040219148E4
:105F800002F05CFE0220FFF795FE40218D4802F0F2
:105F900052FE760080218B4802F043FE002800D09C
:105FA000761C0120FFF786FE6D1C2800C0B2082871
:105FB000E4DBE4B2002C02D1FFF776FF01E0FFF74B
:105FC00044FF3000C0B270BD38B505000C000020A1
:105FD00002F06CFE7F490978491C7E4A117002F07C
:105FE00069FE0020FFF790FEADB2200080B24FF4B2
:105FF000807190FBF1F015EB40052800C0B2FFF76F
:106000007BFFFFF7F1FEA4B24FF4807094FBF0F138
:1060100000FB11442000C0B2FFF76EFFFFF7E4FE63
:10602000FFF772FEA120FFF767FFFFF7DDFE0020FC
:10603000FFF799FF0400FFF7A5FE02F037FE654960
:106040000978491E634A11706249097800290BD109
:1060500061490988002904D002F02CFE03F03AFAC5
:1060600004E002F027FE01E002F024FE2000C0B2AE
:1060700032BD70B506000C001500002002F016FEBF
:1060800054490978491C534A117002F013FEFFF776
:106090003BFEB6B2200080B24FF4807190FBF1F06D
:1060A00016EB40063000C0B2FFF726FFFFF79CFE5C
:1060B000A4B24FF4807094FBF0F100FB1144200077
:1060C000C0B2FFF719FFFFF78FFE2800C0B2FFF73D
:1060D00013FFFFF789FEFFF755FE0220FFF7E2FDF1
:1060E00002F0E4FD3B490978491E3A4A11703949EA
:1060F000097800290BD138490988002904D002F019
:10610000D9FD03F0E7F904E002F0D4FD01E002F06C
:10611000D1FD70BDF8B504000D0016001F0009E0A8
:10612000290089B2200080B2FFF74EFF6D1C387045
:106130007F1C761E300080B20028F1D1F1BDF8B589
:1061400004000D0016001F002448C078002809D163
:106150000DE03A78290089B2200080B2FFF789FF6C
:106160006D1C7F1C3000461E80B20028F1D1F1BDAD
:10617000F8B504000D0016001F001848C07800286C
:1061800019D11DE03A78290089B2200080B2FFF7CA
:1061900070FF3A7815F5807189B2200080B2FFF760
:1061A00068FF3A7815F5007189B2200080B2FFF7D8
:1061B00060FF6D1C7F1C3000461E80B20028E1D1BC
:1061C000F1BD000000040048040400480804004831
:1061D00000080048C22B0020922B0020002B00203A
:1061E000F0B4002416E000EB4506768830F8157010
:1061F000BE4209D230F8156000EB45077F8820F8D1
:10620000157000EB45077E806D1C0E1B761EB54297
:10621000E9D3641C9C4201D20025F6E7002417E074
:1062200030F8156000EB450737F8027CBE420BD210
:1062300000EB450636F8026C30F8157000EB450CA3
:106240002CF8027C20F815606D1EAC42E8D3641C6B
:10625000944202D2CD1A6D1EF7E7F0BC704770B4BD
:1062600000259C188C4201D300200CE0160003E0AE
:1062700030F816406519761CCC1AA642F8D3891A54
:10628000C91AB5FBF1F070BC7047F8B504000D00F9
:1062900016001F003B00320029002000FFF7A0FF7E
:1062A0003B00320029002000FFF7D9FFF2BD0100BA
:1062B000087800024A78101800028A781018000244
:1062C000C978081870470100087800024A78101849
:1062D00000028A7810180002C9780818704730B494
:1062E000002307E0D3F10304E4B2E4000500E54035
:1062F000CD545B1C9342F5DB30BC704781B0ADF8E8
:1063000000009DF8010008709DF80000487001B081
:10631000704781B00021ADF8001041788DF8001071
:1063200000788DF80100BDF8000001B07047110041
:1063300062B38B0708D0521E11F8013B00F8013BF5
:1063400000F024808B07F6D1830740F0208000BF47
:10635000103A07D330B4B1E83810103AA0E838103A
:10636000F9D230BC530724BFB1E80810A0E80810E8
:1063700044BF51F8043B40F8043BD20724BF31F836
:10638000022B20F8022B44BF0B7803707047121FBA
:1063900017D35B0009D151F8043B20F8023B1B0CDA
:1063A000121F20F8023BF6D20BE051F8043B00F834
:1063B000013B1B0A20F8023B1B0C121F00F8013B9B
:1063C000F3D238BF121D521E24BF11F8013B00F852
:1063D000013BF8D87047280080B5FFF771FC01BD7C
:1063E00070B5002000200020002000251AE0DFF812
:1063F0002407405DDFF820174855DFF81C0700EB45
:1064000005030122290089B2A020FFF7B1FE08E0B0
:10641000DFF80407425D15F5007189B2A020FFF78F
:1064200028FE6D1C642D46D2002415F5807189B2BA
:10643000A020FFF7C9FD060015F5007189B2A02064
:10644000FFF7C2FDDFF8D016495D3200D2B29142AB
:1064500001D054F00104DFF8C016495D0200D2B249
:10646000914201D054F002043100C9B2C0B281425D
:1064700001D054F00404002CD3D0032C06D0052CFA
:106480000FD0062CC4D0072CB1D0CAE7DFF888069D
:106490004655DFF88406425D0021A020FFF7E9FDA4
:1064A000BFE7DFF87406425D15F5807189B2A02060
:1064B000FFF7DFFDB5E770BD70B588B000200020A4
:1064C00008244FF45071A020FFF77EFD050028003E
:1064D000C0B2002809D02800C0B2152805DA28006B
:1064E0002100C0B2C9B2884215D00120DFF82C16B5
:1064F000C8702200D2B24FF45071A020FFF7B9FD4E
:10650000DFF81C36E4B2220092B240F24131A02002
:10651000FFF715FE32E000260CE03100C9B201F2AF
:10652000413189B2A020FFF74FFD69463200D2B257
:106530008854761C30002900C0B2C9B28842ECD31E
:106540002200D2B2DFF8D815684603F07BF80028A5
:1065500014D00120DFF8C415C8702200D2B24FF465
:106560005071A020FFF785FDDFF8B435E4B22200BA
:1065700092B240F24131A020FFF7E1FD08B070BDBA
:10658000F8B56B460422FB21A020FFF7C3FD0021D4
:10659000A020FFF719FDDFF87C150978C0B2814211
:1065A0000FD19DF8000011280BD19DF8010034286F
:1065B00007D19DF80200562803D19DF803007B28DF
:1065C0002CD00120DFF85415C870DFF8483564225C
:1065D0000021A020FFF7CCFD11208DF80000342011
:1065E0008DF8010056208DF802007B208DF8030005
:1065F00000240BE068462100C9B2425C2100C9B208
:10660000FB3189B2A020FFF734FD641C2000C0B22A
:106610000428EFDB0020DFF80415C870DFF8F83439
:1066200064220021A020FFF775FDFFF7D9FEFFF7D8
:1066300043FFDFF8E4044078DFF8E8140870DFF87F
:10664000D8048078DFF8DC144870DFF8CC04C07818
:10665000DFF8D0140871DFF8C0048079DFF8BC14CB
:106660000870DFF8B4044079DFF8B0144870DFF840
:10667000AC0441785A204143DFF8AC040185DFF8CF
:106680009804C079DFF894148870DFF88C040079DE
:10669000DFF888140871DFF88004007ADFF88C14C2
:1066A0000870DFF88C04FFF702FEDFF8881408603A
:1066B000DFF88404FFF7FBFDDFF878144860DFF8AB
:1066C0007C04FFF726FEDFF860148882DFF8700490
:1066D000FFF71FFEDFF85014C882DFF86804FFF7E9
:1066E00018FEDFF844140883DFF85C04FFF711FE9E
:1066F000DFF834144883DFF85404FFF70AFEDFF8AC
:1067000028148883DFF84804FFF703FEDFF8181425
:10671000C883DFF84004FFF7FCFDDFF80C140884A1
:10672000DFF83404FFF7F5FDDFF8FC134884DFF8E9
:10673000E80390F86300DFF8F01381F82C00DFF82D
:106740001C04FFF7E6FDDFF8E0138884DFF810048F
:10675000FFF7DFFDDFF8D013C884DFF8083401222B
:1067600040F23E41A020FFF7D5FCDFF8FC330122C8
:1067700040F23F41A020FFF7CDFCDFF8AC03408D95
:10678000002804D0DFF8A003408D062829DB002173
:1067900021E0DFF8D8330C00E4B22820444303EBB7
:1067A00004001300DBB25FF0FF3440F82340DFF851
:1067B000C0330C00E4B22820444303EB0400130070
:1067C000DBB25FF0FF3440F82340521C1000C0B22F
:1067D0000A28DEDB491C0800C0B2052871DA002255
:1067E000F4E700242EE0DFF884132200D2B2282040
:1067F000424301EB02062F00FFB2DFF878032900C5
:10680000C9B200EBC100FFF75EFD46F82700DFF8D4
:1068100060132200D2B22820424301EB02062F006F
:10682000FFB2DFF850032900C9B200EBC100001D20
:10683000FFF749FD46F827006D1C2800C0B20A2862
:10684000D1DB641C2000C0B2B749498D80B28842B8
:106850000ED2DFF8203350222100C9B2502041432C
:1068600011F5886189B2A020FFF754FC0025E4E708
:10687000AD48418D1FE0BD4B0C00E4B228204443DD
:1068800003EB04001300DBB25FF0FF3440F8234059
:10689000B74B0C00E4B22820444303EB0400130080
:1068A000DBB25FF0FF3440F82340521C1000C0B24E
:1068B0000A28E0DB491C0800C0B2052801DA0022E2
:1068C000F4E7002127E094480A00D2B200EB42002E
:1068D000407AA94A0B00DBB222F81300A6480A004E
:1068E000D2B230F812000002A34A0B00DBB222F849
:1068F0001300A1480A00D2B230F8122086480B00DB
:10690000DBB200EB4300807A82189B480B00DBB2BD
:1069100020F81320491C0800C0B20A28D3DB00214C
:1069200027E07D480A00D2B200EB4200407F934A44
:106930000B00DBB222F8130090480A00D2B230F804
:10694000120000028D4A0B00DBB222F813008B48C4
:106950000A00D2B230F812206F480B00DBB200EB15
:106960004300807F821885480B00DBB220F813209B
:10697000491C0800C0B20A28D3DB674890F83900E8
:106980007F4908807E48008800027D4908807C4855
:106990000188614890F83A004118794801805E48C2
:1069A00090F83D0000025C4991F83E10081880B252
:1069B00002F07CFE734908607248006802F084FEB1
:1069C0000022714B00F0FEF800F020FA6D490860DB
:1069D000514890F83B006D4908704F4890F83C00D2
:1069E0006B4908704C4890F83F0000024A4991F802
:1069F0004010081880B202F059FE664908606548E8
:106A0000006802F061FE00225F4B00F0DBF800F04E
:106A1000FDF960490860404890F841005E490880EF
:106A20005D48008800025C4908805B4801883A485C
:106A300090F84200411858480180374890F84300C8
:106A4000554948805448408800025349488052487C
:106A50004188314890F8440041184F4841802E4801
:106A600090F845004C4988804B48808800024A498C
:106A7000888049488188284890F84600411846484F
:106A80008180254890F847004349C8804248C08823
:106A900000024149C8804048C1881F4890F848001A
:106AA00041183D48C1801C4890F849003A49088186
:106AB0003948008900023849088137480189164859
:106AC00090F84A00411834480181134890F84B006F
:106AD000314948813048408900022F4948812E4879
:106AE00041890D4890F84C0041182B4841810A48D3
:106AF00090F84D002949088028480088000227495D
:106B0000088026480188044890F84E004118234820
:106B10000180F1BDF4C1000874280020002B002082
:106B2000E4C40008082B0020082A0020B82B00200D
:106B3000A5280020C82A0020A9280020C32800205A
:106B4000C5280020C7280020C9280020CB28002005
:106B5000CD280020CF280020D1280020D3280020D5
:106B6000D5280020332A0020322A0020D41F0020FC
:106B70009C20002078290020A02A0020B42A002090
:106B80008A2B0020182B002000005940B72B002032
:106B9000B62B0020142B0020E82A00208C2B00208C
:106BA000C11768B14840401AB0FA80F29040D21C38
:106BB000C907C2F5846241EA025202EBD0214005C6
:106BC00070470400F0B540F2FF7581EA030C0CF049
:106BD000004C15EA11541DBF15EA1357AC42AF42E1
:106BE000E5E0BC41C1F31301C3F31303801A9941DB
:106BF00043F4801304D2641E400049418018594177
:106C0000C90241EA5051B1FBF3F603FB1611A2FB96
:106C10000675D7EBC020A94102D2761E80185941D3
:106C2000C90241EA5051B1FBF3FE03FB1E11A2FB66
:106C30000E75D7EBC020A94103D2AEF1010E80182A
:106C40005941890241EA9051760546EA8E2EB1FB00
:106C5000F3F603FB1611A2FB0675D7EB8020A941C2
:106C600002D2761E80185941C90241EA50514EEABB
:106C7000060EB1FBF3F603FB1611A2FB0675D7EB6C
:106C8000C020A94102D2761E80185941C90241EAAA
:106C90005051B1FBF3F703FB1711A2FB0735D3EB00
:106CA000C020A94167F100070CBF004247F001076F
:106CB00066F3D5274FEA1E31B80814F5806412DD5B
:106CC000BD0775F1004250EB0E5051EB045111F528
:106CD000801F5CBF41EA0C01F0BD4CF07F6141F0C8
:106CE000E0410020F0BDBD076D0840EA0E5041F4C0
:106CF0008011D4F10104B4F120060ADAC4F12006AF
:106D00000200E04001FA06F3E1401843B2401543A7
:106D10000EE0342C13DCC6F1200445EA40056D0872
:106D200020FA06F2154321FA06F0A1400D43002196
:106D300075F1004250F1000051EB0C01F0BD002054
:106D40005FEA0C01F0BDCFB992185B41B3FA83F74B
:106D500004BFB2FA82F6BF190B3FB7F120062FBF6E
:106D600002FA06F3BB40C7F1200622FA06F638BF46
:106D70003343BA401CB1E419641E33E77F4231F05B
:106D80000041B1FA81F404BFB0FA80F6A4190B3CBB
:106D9000B4F120062FBF00FA06F1A140C4F120068D
:106DA00020FA06F638BF3143A0403C1B1AE7AC423C
:106DB0001ABF05EA1357AF4212E050EA41061CBF62
:106DC00052EA4306BFE750EA4107304661461CBF1E
:106DD00041EA0551F0BD52EA430C08BFC143F0BD82
:106DE00000204FF4001616EB410F98BF16EB430F2F
:106DF00008BF16EB410F24BFC14305E016EB430F5C
:106E00000CBF61464CEA0551F0BD200001F0004284
:106E10008B1AA3F16051B1F5801F0ADBB1F17F6FCE
:106E20001FD242EAC102C10071F1004142EB507031
:106E300070470B15C3F10903212B10D2890241EAD7
:106E4000905180020128494141F0004121FA03F0AC
:106E5000C3F12003994071F1004150417047100087
:106E600070476FF0000013EB103F5CBF000E42EA6A
:106E7000C05070474FF0807C1CEB400F94BF1CEB60
:106E8000410F05E040EA010C1CEB0C0F01D28842D7
:106E9000704718BF814270474FF0807C1CEB400F59
:106EA00094BF1CEB410F05E040EA010C1CEB0C0FFA
:106EB00001D28142704718BF8842704770B44FF0CA
:106EC000004591EA030F42F123846B40841A71EB71
:106ED000030604D26E40001BB141121973414FF4F6
:106EE000001C1CEB410F34BF7CEB430682E00C0D11
:106EF000A4EB1356362E7BDC012E45EAC32341DC7E
:106F000043EA525312BFD20292025B08240545EABB
:106F1000C12141EA5051D2EBC020994125D407D17B
:106F2000B0FA80F610FA06F162D00020203608E0B0
:106F3000B1FA81F6B140C6F1200220FA02F2114303
:106F4000B0404FEAF474B4EB465434F001064FEA13
:106F500074040AD8D6F50016760D04F00044F0400B
:106F600061FA06F25040F1404840C00A40EA415000
:106F700021F0004128BF5FEA500550F1000044EBCA
:106F8000D12135E0DB0A45EAC121C90AB6F1200565
:106F90000EDD42EA0242120CC5F1200603FA06F6A3
:106FA000EB4042EA06056D42984161F100010DE0B7
:106FB00062FA06F5F240554063FA06FC82EA0C02DA
:106FC000F3405A406D42904161EB030111F4801F80
:106FD00005D1641E620502D06D004041494121F493
:106FE0008011430875F1004350F1000041EB04515A
:106FF00070BC70471CEB410F15D223F0004352EADE
:1070000043060BD04FEA4C0CBCEB410F04D80C0DDF
:10701000661E342EB7DDEBE7801A994150EA41062F
:1070200008BF0021E4E708BF1CEB430F28BF6FF047
:107030000001DDE780B50020DFF8E0150880DFF80B
:10704000DC3526228C21A020FFF779F80020DFF81C
:10705000D01508800020DFF8CC1508800020DFF86C
:10706000C81508800020DFF8C41508800020DFF86C
:10707000C01508800020DFF8BC1508800020DFF86C
:10708000B815088001BD80B5DFF8903526228C2127
:10709000A020FFF73FF80120DFF8A0154880DFF8B7
:1070A0007C050088072804DADFF8700500880028CE
:1070B00001D1FFF7BFFF01BDFEB50024002500266A
:1070C000DFF858251288521CDFF850351A80DFF897
:1070D0004C251288052A03DB0522DFF840351A808B
:1070E000002342E0DFF834759C461FFA8CFC062230
:1070F00002FB0CFC07EB0C02178ADFF820C59E464A
:107100001FFA8EFE062202FB0EFE0CEB0E025781CA
:10711000DFF808759C461FFA8CFC062202FB0CFC6B
:1071200007EB0C02D789DFF8F4C49E461FFA8EFEE7
:10713000062202FB0EFE0CEB0E021781DFF8DC7458
:107140009C461FFA8CFC062202FB0CFC07EB0C028F
:10715000578ADFF8C8C49E461FFA8EFE062202FB3D
:107160000EFE0CEB0E0297815B1C1A0092B2042AF1
:10717000B8DBCDE90001BDF80200DFF8A0144884B7
:10718000BDF80000DFF894140884BDF80400DFF8AF
:107190008C148884002730E0DFF880143A0092B223
:1071A00052420620424301EB0200408C02F07EFA7C
:1071B0002100FEF705FD0400DFF860143A0092B2EA
:1071C00052420620424301EB0200008C02F06EFAAC
:1071D0002900FEF7F5FC0500DFF840143A0092B2F2
:1071E00052420620424301EB0200808C02F05EFA1C
:1071F0003100FEF7E5FC06007F1C3800DFF81C14A8
:10720000098880B28842C7D3DFF81004008802F0F2
:107210004DFA0100200002F0E5FA5FF07C51FEF724
:10722000CFFC02F05DFBDFF8F4138880DFF8EC039D
:10723000008802F03BFA0100280002F0D3FA5FF068
:107240007C51FEF7BDFC02F04BFBDFF8D013488009
:10725000DFF8C803008802F029FA0100300002F0CC
:10726000C1FA5FF07C51FEF7ABFC02F039FBDFF8AE
:10727000AC13C880F7BD70B4002328E0220092B29E
:1072800000EB420252882500ADB230F81550AA42F8
:1072900011D2220092B230F812202500ADB200EBDC
:1072A00045056D882600B6B220F816502500ADB20F
:1072B00000EB45056A80641C2500ADB20E00B6B235
:1072C000761E1A0092B2B61AB542D7DB5B1C1A00C2
:1072D00092B20C00A4B2641EA24201DA0024EBE7D1
:1072E00089B2022291FBF2F130F8110070BC7047B4
:1072F00070B50024002122E0DFF8443303EB4203A1
:107300005B88DFF83C5335F81250AB4211D2DFF8FE
:10731000303333F81230DFF8285305EB42056D881F
:10732000DFF81C6326F81250DFF8145305EB420512
:107330006B80521CD1F11D039A42DDDB491C1D29D3
:1073400001DA0022F6E7DFF8F81208801E2008E0D4
:10735000BB4901EB400131F8021CB94A22F8101078
:10736000401E0128F4DA022509E0B54830F815007E
:1073700002F09CF92100FEF723FC04006D1C1C2D7B
:10738000F3DB2000AF4902F02DFA01005FF07C50E2
:10739000FEF716FC02F0A4FA80B270BD38B50024E6
:1073A00000210BE0A84A0B009BB202EB430252887B
:1073B000A54B0D00ADB223F81520491C0A0092B26E
:1073C000092AEFDBA049488200250BE09E482900EE
:1073D00089B230F8110002F069F92100FEF7F0FBE4
:1073E00004006D1C280080B20A28EFDB20009749BA
:1073F00002F0F8F901005FF07C50FEF7E1FB02F0CB
:107400006FFA80B232BD7CB5040091480088FFF766
:10741000C5FF8F49088081480088002800F08F80D0
:107420008B4800881528C0F28A80200080B2FFF7C0
:107430005FFF884908808748008880490880854820
:10744000008802F033F901000D007448808802F0D2
:107450002DF906007148C08802F028F97E49FEF730
:1074600031FB3100FEF7ACFB2900FFF703FD4AD2E8
:107470007848008879496C4A128821F812006A48D5
:107480000088401C6849088067480088B42828D1D3
:10749000002065490880B4217048FFF7ECFE61497F
:1074A00008805F48008800281BD05E480088ADF83F
:1074B00000005B480088ADF802005A48018858482F
:1074C0000088091AADF80410DDE90001FFF7F4FDAA
:1074D000524B26228C21A020FEF731FE002050497D
:1074E00008805C4801884D488088091A53484180CB
:1074F0005248408840F25921884220DB4FF41670F0
:107500004E4948801BE0534800885549474A128835
:1075100021F8120045480088401C4449088043482F
:107520000088B42808D1002040490880B4214C4884
:10753000FFF7A1FE3A4908800120404948803748BA
:107540000088002867D1424800881F2860DB20009F
:1075500080B2FFF7CDFE3F4908803E48008837499A
:1075600008803348008864280CDA3A4800883D498E
:107570002F4A128821F812002D480088401C2C49FF
:10758000088048E02B480088002809D1642135484C
:10759000FFF771FE274908800020254908803AE05E
:1075A00064213048FFF767FE23490880214800889E
:1075B00021490988401A02F0A8F9ADF8040000201A
:1075C0001B490880BDF80400C92824DB1A4800883C
:1075D00018490988884208D217480088ADF8020087
:1075E00014480088ADF8000007E012480088ADF8A4
:1075F000020011480088ADF80000DDE90001FFF746
:107600005BFD064B26228C21A020FEF798FD02E0B0
:107610000020074908800948006876BD602A0020DC
:10762000AE2B0020B02B0020AA2B0020AC2B00207A
:10763000A42B0020A62B0020A82B0020842B0020A8
:10764000C82900200000D041882A002000002041E5
:10765000B42B0020B22B0020CDCCCC3EC415002092
:107660002C1700206421002081423ABF5318984211
:10767000FEF75EBE8018990707D0521E24BF13F88C
:10768000011D00F8011DF6D8704781071BD1103A83
:1076900007D330B433E93210103A20E93210F9D26E
:1076A00030BC1032121F24BF53F8041D40F8041DD3
:1076B000F8D838BF121D521E24BF13F8011D00F860
:1076C000011DF8D87047121FF3D3C10709D153F831
:1076D000041D121F20F8041D4FEA31414180F6D2EB
:1076E000E7E753F8041D121F00F8041D4FEA31218B
:1076F000A0F801104FEA3141C170F2D2D9E7200061
:1077000062F30F2262F31F42401810F0030308D007
:10771000C91A1FD3DB0748BF00F8012D28BF20F886
:10772000022D130030B414461546103928BF20E945
:107730003C00FAD8490728BF20E90C0048BF40F8B0
:10774000042D890028BF20F8022D48BF00F8012D24
:1077500030BC7047C91818BF00F8012DCB0728BFEF
:1077600000F8012D7047100010B588B0040000200B
:10777000DFF8FC1308700020DFF8F8130870002011
:10778000DFF8F41308700020DFF8F0130870002011
:10779000DFF8EC1308700022DFF8E813DFF8E803E5
:1077A00002F067F90022DFF8E413DFF8DC0302F0EF
:1077B00060F90021DFF8D00302F046F902F0B6F9D3
:1077C00001215FF4003001F071F901214FF4804094
:1077D00001F07CF9DFF8B00302F09CF801220921E6
:1077E0005FF0904001F034FA01220A215FF09040EE
:1077F00001F02EFA4FF4C060009003208DF80500D0
:1078000002208DF8040000208DF8060001208DF87C
:10781000070069465FF0904001F0B2F94FF48070C4
:10782000009003208DF8050001208DF80400002051
:107830008DF8060001208DF8070069465FF0904042
:1078400001F09EF9607801280AD025D303280FD0D3
:107850000AD3052814D00FD3072819D014D31BE05E
:107860004FF41660029017E04FF49650029013E028
:107870004FF4165002900FE04FF4964002900BE048
:107880004FF41640029007E04FF46140029003E08D
:107890005FF4E1300290FFE7002004902079012896
:1078A00004D016D303280FD007D312E04FF4C060E2
:1078B00005904FF4805003900BE04FF480600590EA
:1078C0004FF48050039004E00020059000200390C6
:1078D000FFE7002007900C20069002A9DFF8A8021D
:1078E00002F051F84FF480715FF0904001F0A6F97A
:1078F0000FF235011B2002F039F90122DFF88C125A
:10790000DFF8840202F0B5F80121DFF87C0202F012
:107910009BF8DFF87C028078002802D1607800F0C4
:10792000B2F808B010BD000080B501F075FA9549B5
:10793000954802F0C9F8002825D09249924802F0F3
:10794000EDF88E4800788E49097888420ED30020E1
:107950008B49087000228B498B4802F08AF84FF45B
:1079600080715FF0904001F069F90CE0894883492B
:107970000978415C89B2844802F073F87F48007846
:10798000401C7E49087081497F4802F09DF800281C
:107990003AD07D4802F069F87D498978002930D1D4
:1079A00074490978012902D10021734A1170724982
:1079B0000978FF2908D078496F4A127888546E48B0
:1079C0000078401C6C49087000206A49087001204A
:1079D0006749087000220121704802F05FFA002117
:1079E0006E4802F03CFA00216C4802F036FA0121A0
:1079F0006A4802F034FA01220121684802F04EFA86
:107A000002E0C0B2FDF736FF65495F4802F053F867
:107A1000002803D062495C4802F080F801F00EFAB9
:107A200001BD80B501F0F8F901215C4802F042FA8D
:107A3000002825D00121594802F04EFA4C48007820
:107A4000012814D100204A490870012049490870D2
:107A500000220121514802F021FA00214F4802F092
:107A6000FEF96A4600214F4800F032FB08E0002290
:107A700001214A4802F012FA0021484802F0EFF9C9
:107A800001F0DCF901BD1FB504000121202001F047
:107A90002DF8424802F032F90021404802F0DFF9A7
:107AA00002F052F80020ADF808000020ADF8020006
:107AB0002000C0B2032803DB40F2D560019006E04D
:107AC00041F65730E4B2641C90FBF4F001900020C2
:107AD000ADF800006946314802F08FF901212F48C6
:107AE00002F0FAF93049122002F040F80022012198
:107AF0002A4802F0D3F90021284802F0B0F9002109
:107B0000264802F0AAF91FBD10B50C000021002C78
:107B100001D0002801D1002028E019490978002966
:107B200001D0002022E0B4F5807F00D3FF240021A3
:107B300003E0425C174B5A54491CA142F9D34FF45D
:107B400080715FF0904001F076F81248017889B2B8
:107B50000D4801F086FF01200849087008480470AC
:107B600001220849084801F084FF200010BD0000F0
:107B7000C82B0020C92B0020C52B0020C62B0020BD
:107B8000C72B002006010600003801400501050052
:107B9000002B0020D41E0020D41D00200014004023
:107BA00000030300EC220020237A00082DE9F34FA4
:107BB00083B09846DDF858900021DFF86415097805
:107BC000002904D047F24A10A9F80000F3E00400AD
:107BD000002C04D147F2AD10A9F80000EBE00292AE
:107BE0000298002804D147F24F10A9F80000E2E003
:107BF0000F9D002D04D146F62F60A9F80000DAE0B1
:107C0000DDF844B0DFF858050068834504D246F635
:107C10003060A9F80000CEE0DDF840A0DA4504D3DA
:107C200046F63160A9F80000C5E00E9E3000C0B2F3
:107C3000102804D346F27320A9F80000BBE03000FE
:107C4000C0B2002808D1DFF88805844204D046F28B
:107C50007320A9F80000AEE03000C0B20F2808D1B0
:107C6000DFF87005844204D046F27320A9F80000C2
:107C7000A1E0159F200000F0B1FA0020A9F8000053
:107C8000F8070AD5B80708D52900002003E000222C
:107C90000A60091D401C5845F9D3DDF84C9005EBEE
:107CA0008A0A380080B20190CDF800B053462A000D
:107CB0004146029802F047F90299A162C4F82C806B
:107CC0000499216284F837602060C4F808A0C4F8E1
:107CD0005490B9F1000F04D1DFF8FC040068A065EE
:107CE00001E0C4F85890149860606562C4F838B038
:107CF000A787002106E000200A00D2B204EB82022E
:107D0000D067491C0800C0B20028F4D0129989B28B
:107D100014F1640002F029FA200002F0F9F800F0F2
:107D2000C5FFDFF804140978491CDFF8FC23117043
:107D300000F0C0FF94F8370002F092FA200001F042
:107D400039FB200000F0F2F9DFF8AC050088401C98
:107D5000DFF8A4150880DFF8A405007801281DD0FD
:107D600000F0A4FFDFF8C0130978491EDFF8B8233C
:107D70001170DFF8B413097800290CD1DFF8301442
:107D80000988002904D000F095FF01F0A3FB04E06E
:107D900000F090FF01E000F08DFF0CE000F086FFA6
:107DA000DFF884130978491EDFF87C23117000F096
:107DB00081FF01F0A3F805B0BDE8F08F38B50400ED
:107DC0000D000020DFF858030078002803D047F2A8
:107DD0004E1028805CE0DFF8FC03844203D147F2B8
:107DE0004C10288054E0DFF8E803844203D147F2C6
:107DF0004D1028804CE0002C06D100F057FFDFF832
:107E000024130C6800F056FF00F050FFDFF8181341
:107E10000978491CDFF81023117000F04BFF94F82B
:107E2000360000280BD0022838D033D3042830D0B5
:107E300034D3062832D02DD307282FD044E0200099
:107E400001F00EFB14F1640002F06DF9200002F065
:107E500068F8200000F086F9DFF89C040088401ED6
:107E6000DFF894140880200000F0B8F9FF2084F8AF
:107E7000360000F01BFFDFF8B0120978491EDFF86A
:107E8000A822117000F016FF0020288001F036F8BB
:107E900031BDD7E7200002F020FBD3E7200002F03D
:107EA0001CFB94F83400002808D0401E07D0401E68
:107EB00004D0401E032802D9001F04D103E0200093
:107EC00001F085F9FFE7BDE700F0F0FEDFF858129A
:107ED0000978491EDFF850221170DFF84C1209783A
:107EE00000290CD1DFF818140988002904D000F00B
:107EF000E1FE01F0EFFA04E000F0DCFE01E000F04A
:107F0000D9FE46F62D602880C2E7F8B506000F00BE
:107F100014001D00002082480078002804D046F29A
:107F2000AE1028800020D2E0380080B2002802D0B5
:107F3000B0F5004F45D1002C01D00020206000F0AA
:107F4000B5FEDFF8D4180968496C00293ED0DFF887
:107F5000C8180968496C491EDFF8BC2812685164CA
:107F6000DFF8B41809684E6C002C04D0DFF8A818AC
:107F70000968096C2160DFF8A0180968096C49429A
:107F8000DFF894281268C2F8A410DFF88C1809688A
:107F9000D1F8A810DFF880281268D2F8A420914206
:107FA00009D2DFF874180968D1F8A410DFF868283E
:107FB0001268C2F8A81000F07DFE00202880300072
:107FC00085E045F625602880002080E0390406D54C
:107FD00000F070FE46F2B0102880002077E0524991
:107FE0000978002906D000F065FE46F66350288027
:107FF00000206CE04C490978491C4B4A117000F094
:1080000059FE330007220021002001F023F800F080
:108010004DFE45490978491E434A117000F04AFE59
:1080200000F06CFF00F042FEDFF8EC17096891F8F1
:108030003510002904D001292CD0032935D03CE08B
:10804000002C24D0DFF8D0170968096C2160DFF814
:10805000C8170968096C4942DFF8BC271268C2F8E2
:10806000A410DFF8B4170968D1F8A810DFF8A82722
:108070001268D2F8A420914209D2DFF89C1709684F
:10808000D1F8A410DFF890271268C2F8A8100021D8
:10809000298015E0002C04D0DFF87C170968096CF2
:1080A000216046F2A91129800AE0002C01D00021AC
:1080B000216047F2D921298002E046F62E6129800D
:1080C000DFF8541709684C6C00F0F4FD2000F2BD95
:1080D0001FB513000A0092B2002A02D0B2F5004F79
:1080E00009D100220E4C2478002C09D189B200F06D
:1080F00045FA04B010BD45F6256018800020F8E769
:10810000039302920021019100210091002300229B
:108110000100DFF80C0702F0EDFA0020E9E70000AB
:10812000BD2B00207C2B0020C22B00200021C0F89A
:10813000B410DFF8F0160968002903D10021C0F857
:10814000B81009E0DFF8DC160968C0F8B810DFF8ED
:10815000D4160968C1F8B400DFF8C8160860704783
:108160005CC50008D0F8B420D0F8B810002A0BD1B4
:10817000DFF8B0261160002902D00022C1F8B42037
:108180000021C0F8B81012E0002906D10021C2F881
:10819000B8100021C0F8B41009E0C2F8B810C1F856
:1081A000B4200021C0F8B8100021C0F8B410704706
:1081B000922B00200021DFF86C26116000214E4A2E
:1081C00011800021DFF860261160002101807047D6
:1081D0002C2500206C240020642B002010B5040006
:1081E000002020600020A060002060600020E0608F
:1081F00000202061002060610020A0610020E0617B
:10820000DFF828062062002060620020A0620020C3
:10821000E062002020630020E0870020206400202E
:10822000E0650020A4F86000002114F1640001F072
:108230009CFF002060670020A0670020C4F8800039
:108240000020A4F888000020C4F88400002106E083
:1082500000200A00D2B204EB8202D067491C080059
:10826000C0B20028F4D0002060640020C4F8A4004C
:108270000020C4F8A8000020A063002084F88A0031
:108280000020C4F8B0000020C4F8AC000020A08793
:108290005FF00040A0640020E06400202065002022
:1082A00060650020A0650020A4F88C000020A4F8E0
:1082B0008E000020C4F890000020C4F89400002034
:1082C000C4F898000020C4F89C00002084F8340012
:1082D000002084F83500002084F83600102084F84F
:1082E00037000020C4F8B4000020C4F8B800A2A0F1
:1082F000C4F8BC0010BD0000A22B0020BE2B002043
:10830000922B00202DE9FC4104000F0090461E0036
:10831000002000F0CBFCDFF804150978491CDFF8D9
:10832000FC24117000F0C6FC002C02D1DFF8E80438
:108330000468099D08980021298094F836100029C6
:108340000BD0022932D008D3042906D02ED3062917
:108350002CD002D3072929D06DE00195009033007D
:108360009BB2424692B2390014F1640001F007FF5B
:1083700000F09CFCDFF8A4140978491EDFF89C2467
:108380001170DFF89814097800290CD1DFF8A014D7
:108390000988002904D000F08DFC01F09BF804E06E
:1083A00000F088FC01E000F085FC64E094F83410F3
:1083B000022917D1009043469BB23A0021000020C9
:1083C00000F03EFF00F072FCDFF850140978491EFF
:1083D000DFF84824117000F06DFC30042AD400F05E
:1083E0008DFD27E00195009033009BB2424692B28A
:1083F000390014F1640001F0C2FE00F057FCDFF810
:108400001C140978491EDFF814241170DFF80C14CD
:10841000097800290CD1DFF818140988002904D044
:1084200000F048FC01F056F804E000F043FC01E0E5
:1084300000F040FC1FE000F039FCDFF8E0130978A1
:10844000491EDFF8D8231170DFF8D013097800290E
:108450000CD1DFF8DC130988002904D000F02AFCD5
:1084600001F038F804E000F025FC01E000F022FC07
:1084700046F62D602880BDE8F38138B504000D0074
:10848000002000F013FC0021298094F83610002908
:10849000032908D9091F0ED0491E30D0491E3DD0EE
:1084A000491E4AD058E000F005FC47F253102880DE
:1084B00000F024FD31BDDFF864130978491CDFF8B2
:1084C0005C23117000F0F6FB94F88A00401E84F8DB
:1084D0008A0094F88A00002805D1002084F836002C
:1084E000200001F0A1F800F0E1FBDFF8301309787B
:1084F000491EDFF82823117000F0DCFBD8E794F860
:108500008A10491E84F88A1094F88A10002902D132
:10851000012184F8361000F0CDFBC9E794F88A10E9
:10852000491E84F88A1094F88A10002902D1022189
:1085300084F8361000F0BEFBBAE794F88A10491EA2
:1085400084F88A1094F88A10002902D1032184F853
:10855000361000F0AFFBABE700F0ACFB46F62D6049
:108560002880A7E780B5AC48006801F0E3FC6946C5
:108570000020FFF723FC01BD20000000F8B5040037
:108580000E0017001D00002000F090FBA3490978A1
:10859000491CA24A117000F08DFB002C01D19E48AD
:1085A000046827640020288094F8360000280BD047
:1085B000022849D008D3042806D045D3062843D042
:1085C00002D3072840D099E0606C10F1010F1DD153
:1085D00000F06CFB91490978491E904A11708F494F
:1085E000097800290BD192490988002904D000F0AC
:1085F00061FB00F06FFF04E000F05CFB01E000F0C5
:1086000059FB46F6C5502880002095E0606C401C60
:108610006064646C00F04AFB80490978491E7F4A17
:1086200011707E49097800290BD1814909880029F8
:1086300004D000F03FFB00F04DFF04E000F03AFBF7
:1086400001E000F037FB76E094F83400072815D1FC
:108650000097002300222100002000F0F1FD646C4F
:1086600000F024FB6D490978491E6C4A117000F036
:1086700021FB300441D400F041FC3EE0606C10F17D
:10868000010F1DD100F012FB64490978491E634AAD
:1086900011706249097800290BD1654909880029C0
:1086A00004D000F007FB00F015FF04E000F002FB2F
:1086B00001E000F0FFFA46F6C550288000203BE0BC
:1086C000606C401C6064646C00F0F0FA53490978F7
:1086D000491E524A11705149097800290BD1544959
:1086E0000988002904D000F0E5FA00F0F3FE04E068
:1086F00000F0E0FA01E000F0DDFA1CE000F0D6FA4C
:1087000046490978491E454A1170444909780029AB
:108710000BD147490988002904D000F0CBFA00F0BA
:10872000D9FE04E000F0C6FA01E000F0C3FA46F614
:108730002D60288000242000F2BD000038B5040020
:108740000D00002000F0B2FA002C01D132490C6873
:10875000314909688C4209D130490978002905D08E
:1087600000F0A8FA46F6635028802AE0002129800C
:1087700094F83610002909D0491E23D0491E2AD06A
:10878000491E31D0491E032937D93EE023490978D3
:10879000491C224A117000F08DFA042084F836003A
:1087A000012084F88A00200000F05AFE00F07EFAD2
:1087B0001A490978491E194A117000F07BFA00F035
:1087C0009DFB31BD052184F83610012184F88A1003
:1087D00000F070FAF3E7062184F83610012184F8DE
:1087E0008A1000F067FAEAE7072184F836100121C1
:1087F00084F88A1000F05EFAE1E794F88A10491CC8
:1088000084F88A1000F056FAD9E700F053FA46F6D9
:108810002D602880D5E700007C2B0020C22B002093
:1088200054534947702B00206C2B002010C50008C2
:10883000922B0020421A3CBF801A89184FF0004C3E
:10884000C0F3C752FF2A24D0C1F3C75313B3D21ABF
:10885000D2F1190327DD4CEA01214CFA03F321EA96
:108860000303D140C20D4CEA0020401834BF20EA77
:108870000C004CEA5000D20553EA006373EB0C0C79
:1088800052EB1020420012F1807F38BF7047C00DBC
:10889000C0057047490212BF9A4200EB5120F8E729
:1088A000D2F11703D9D570470022DFF8A022126851
:1088B00022F07F42C0B251EA00611143DFF88C021E
:1088C00001607047DFF88412096831F48041DFF8F5
:1088D0007C221160DFF874120A6881B20A43DFF863
:1088E0006C120A60DFF86C12096831F48071DFF8ED
:1088F00064221160DFF85C12096851EA1041DFF868
:108900005402016070470021002100210021002154
:108910000022DFF83812096811F00C01002906D096
:10892000042908D008290AD00C2928D02BE0DFF828
:10893000281201602AE0DFF82012016026E0DFF84B
:108940000C120A6812F47012DFF80012096811F4B0
:10895000C031920C921C002903D1DFF800124A4367
:108960000BE0DFF8EC11096811F00F01491CDFF88A
:10897000E831B3FBF1F102FB01F2026006E0DFF83F
:10898000E011016002E0DFF8D0110160DFF8BC11F6
:10899000096811F0F0010909DFF8C831595C036872
:1089A000CB4043606949096811F4E061090ADFF8C6
:1089B000B431595C4368CB40836066490968C90596
:1089C00003D4DFF8A411C1600AE0604909684904D2
:1089D00003D481684908C16002E081688908C160E8
:1089E0005C490968490603D448F21201016102E0BA
:1089F0004FF40041016157490968C90602D456493C
:108A0000416101E0016841615249096811F0030FB9
:108A100002D1816881611AE04E49096811F00301B1
:108A2000012902D10168816111E04A49096811F008
:108A30000301022903D14FF40041816107E0454958
:108A4000096811F00301032901D1434981614149BA
:108A5000096811F4403F02D18168C1611DE03D49C0
:108A6000096811F44031B1F5803F02D10168C1615C
:108A700013E03849096811F44031B1F5003F03D1E2
:108A80004FF40041C16108E03249096811F44031F6
:108A9000B1F5403F01D13049C1612E49096809064D
:108AA00002D42F49016200E002627047C9B2002976
:108AB00005D02E49096808432C49086005E02B4978
:108AC000096831EA0000294908607047C9B20029E5
:108AD00005D02749096808432549086005E024496D
