:020000040800F2
:10800000283B0020458100084D8100088BEC0008CA
:1080100051810008538100085581000800000000CC
:108020000000000000000000000000005781000870
:10803000598100080000000013EC0008D7C00008B8
:108040005F8100085F8100085F8100087F090108E7
:108050005F8100085F8100085F8100085F81000880
:108060005F8100085F8100085F8100085F81000870
:108070005F8100085F8100085F8100085F81000860
:108080005F8100085F8100085F8100085F81000850
:108090005F8100085F8100085F8100085F81000840
:1080A0005F8100085F8100085F8100085F81000830
:1080B0005F8100082D1001085F8100085F810008C2
:1080C0005F8100085F8100085F8100085F81000810
:1080D0005F8100083DC000085F8100085F810008E3
:1080E0005F8100085F8100085F8100085F810008F0
:1080F0005F8100085F8100085F8100085F810008E0
:108100005F8100085F8100085F8100085F810008CF
:108110005F8100085F8100085F8100085F810008BF
:108120005F8100085F8100085F8100085F810008AF
:10813000DFF80CD009F0E2FC0048004707C5000852
:10814000283B00200648804706480047FEE7FEE738
:10815000FEE7FEE7FEE7FEE7FEE7FEE7FEE7FEE7F7
:1081600047820008318100080CB500200190009082
:108170008348006840F480308149086000BF80482F
:10818000006800F4003000900198401C01900098B5
:1081900018B90198B0F5A06FF1D17948006800F4E2
:1081A000003010B10120009001E000200090009804
:1081B000012843D17348006840F0100071490860FD
:1081C0000846006820F0030008600846006840F098
:1081D000010008606A48406869494860084640688C
:1081E00048600846406840F480604860084640683F
:1081F00020F47C1048600846406840F488104860CD
:108200000846006840F08070086000BF5C48006865
:1082100000F000700028F9D05948406820F00300B1
:10822000574948600846406840F00200486000BF77
:108230005348406800F00C000828F9D10CBD10B577
:10824000FFF792FF10BD10B54D48006840F00100E7
:108250004B490860084640684B4908404849486017
:1082600008460068494908404549086008460068D2
:1082700020F4802008600846406820F4FE00486032
:108280004FF41F008860FFF7DAFF4148414908605A
:108290003B48006840F001003949086008464068E2
:1082A00048600846406840F420104860084640682E
:1082B00048600846006840F08070086000BF3048A1
:1082C000006800F000700028F9D02D48406820F0C8
:1082D00003002B4948600846406840F002004860AF
:1082E00000BF2748406800F00C000828F9D110BDF5
:1082F00010B5002100200022214B5B6803F00C0127
:1083000021B1042906D0082928D107E0224B234CAB
:10831000236027E0204B214C236023E0184B5B684F
:1083200003F47010164B5B6803F48032022303EBF6
:10833000904022B91A4B4343184C23600DE0104B78
:108340005B6803F4003323B1154B4343134C2360A4
:1083500003E0114B4343114C236003E00E4B0F4CE1
:10836000236000BF00BF064B5B68C3F303130D4CD3
:10837000E15C0A4B1B68CB40084C236010BD000039
:1083800000100240002002400000FFF8FFFFF6FE50
:108390000080000808ED00E000127A0000000020D4
:1083A00000093D000400002031490143314A1160B9
:1083B000704770B5002100230F22C47804B32D4C00
:1083C000246804F4E064C4F5E064210AC1F1040304
:1083D000CA40447804FA03F1847814402143090127
:1083E000254C0678A155047804F01F050124AC4003
:1083F00005786D11AD0005F1E025C5F8004109E0F3
:10840000047804F01F050124AC401C4D0678761159
:1084100045F8264070BD1A4A0A400243154B1B1FFF
:108420001A60704739B1134A121D12680243114B8A
:108430001B1D1A6006E00F4A121D126882430D4B85
:108440001B1D1A607047042808D14FF0E02109690C
:1084500041F004014FF0E022116107E04FF0E0210C
:10846000096921F004014FF0E0221161704700001A
:108470000000FA050CED00E000E400E080E100E01F
:1084800080FFFF1F10B50446FA48844208D101213D
:10849000401501F025FA0021601501F021FA17E0DE
:1084A000F548844208D10121001501F019FA002194
:1084B000201501F015FA0BE0F048844208D10121A3
:1084C000C80301F00DFA00214FF4004001F008FA52
:1084D00010BD30B50246002000235068E84C204013
:1084E0000D790C6844EA0524204350609068E54CFF
:1084F0002040D1E902542C434D7944EA45042043FD
:108500009060D06A20F470000C7C641EE4B22343B7
:1085100040EA0350D06230BD002101600171417119
:108520008160C16001210174704721B1826842F00D
:108530000102826003E0826822F0010282607047DB
:1085400021B1826842F48072826003E0826822F482
:1085500080728260704710B50023CBB21AB14468B4
:108560001C43446002E044689C43446010BD816841
:1085700041F0080181607047014600208A6802F0DE
:1085800008020AB1012000E000207047816841F034
:10859000040181607047014600208A6802F00402ED
:1085A0000AB1012000E00020704721B1826842F446
:1085B000A002826003E0826822F4A0028260704719
:1085C000014600208A6802F480020AB1012000E01E
:1085D0000020704710B50A4600210023416821F4AD
:1085E0006041531E41EA4331416010BD21B14268F0
:1085F00042F40062426003E0426822F4006242609A
:108600007047F0B504460D4600200021092D11DD0C
:10861000E068A5F10A0606EB4607072606FA07F109
:108620008843A5F10A0606EB460603FA06F108435D
:10863000E0600CE0206905EB4507072606FA07F124
:10864000884305EB450603FA06F108432061072A33
:108650000FDA606B561E06EB86071F2606FA07F137
:108660008843561E06EB860605FA06F1084360634A
:1086700022E00D2A0FDA206BD61F06EB86071F2695
:1086800006FA07F18843D61F06EB860605FA06F1BF
:108690000843206310E0E06AA2F10D0606EB8607AE
:1086A0001F2606FA07F18843A2F10D0606EB86069F
:1086B00005FA06F10843E062F0BD21B1826842F498
:1086C0008012826003E0826822F480128260704728
:1086D0000146C86C80B2704766484C3000687047ED
:1086E00021B1426842F48062426003E0426822F4B1
:1086F00080624260704721B1426842F48052426019
:1087000003E0426822F48052426070470A4600212A
:10871000816821F4E04111438160704721B1826892
:1087200042F40042826003E0826822F400428260E8
:10873000704721B1826842F40212826003E08268CD
:1087400022F4021282607047014600208A6802F417
:1087500000120AB1012000E000207047F0B5044685
:108760001546002000220026092911DDE068A1F14C
:108770000A0707EB470C072707FA0CF29043A1F111
:108780000A0707EB470703FA07F21043E0600CE023
:10879000206901EB410C072707FA0CF2904301EB2B
:1087A000410703FA07F210432061A06BC0F30156A2
:1087B000EF1C06F1010CA7EB0C0707EB870C1F273A
:1087C00007FA0CF29043EF1C06F1010CA7EB0C0723
:1087D00007EB870701FA07F21043A063F0BD10B55D
:1087E0000A4600210023816B21F44011531E41EA07
:1087F0000351816310BD08B5002300930090009BD6
:108800000B440093009B1A6008BD08B50246002087
:108810000090009201F12800009B184400900098FD
:10882000006880B208BD0A4600214168164B194015
:108830001143416070474162826270470A460021DD
:10884000416821F01F0111434160704740B109495F
:108850000831096841F40001064A0832116007E056
:1088600004490831096821F40001024A0832116004
:10887000704700000024014000280140003C0140F6
:10888000FFFEF0FFFDF7F1FFFFFD3FFF0246002076
:1088900013680B400BB1012000E000207047CA4371
:1088A0000260704770B502460020002300240B12BE
:1088B0005568CEB205EA060415681D4015B10CB125
:1088C000012000E0002070BD00220A12D3430360A3
:1088D0007047000010B5012001F01CF8002001F0E5
:1088E00019F810BD2A49086070472949091F086016
:1088F0007047274984310860704701460020254AA7
:1089000010884FF67F4210400843224A108070477B
:10891000014600201F4A10884FF68072104008431D
:108920001C4A1080704708B500220092194A2C3A60
:108930000092009A02440092009A116008BD08B5A6
:1089400001460020009013482C38009000980844FD
:1089500000900098008808BD0D489C300068C0B2A7
:1089600070470C480830008840F001000949083180
:10897000088070470648A0300068C0B270470548BC
:108980000830008840F00200024908310880704732
:1089900004860D422C6C004001684FF6FE721140B7
:1089A00001600021016041608160C1608D498842A1
:1089B00008D18C490839496841F00F01894A083AC1
:1089C00051608AE087491431884208D185490839C5
:1089D000496841F0F001834A083A51607DE08149DD
:1089E0002831884208D17F490839496841F47061CB
:1089F0007C4A083A516070E07A493C31884208D19B
:108A000078490839496841F47041764A083A51601A
:108A100063E074495031884208D172490839496885
:108A200041F470216F4A083A516056E06D49643153
:108A3000884208D16B490839496841F47001694A94
:108A4000083A516049E067497831884208D1654960
:108A50000839496841F07061624A083A51603CE067
:108A60006149884206D1011F096841F00F01021FC8
:108A7000116032E05C491431884208D15A49091F1B
:108A8000096841F0F001584A121F116025E056496B
:108A90002831884208D15449091F096841F470619E
:108AA000514A121F116018E04F493C31884208D1E9
:108AB0004D49091F096841F470414B4A121F11606A
:108AC0000BE049495031884207D14749091F0968DD
:108AD00041F47021444A121F1160704710B5002202
:108AE000026847F6F0739A430C6A8B6823430C695B
:108AF00023434C6923438C692343CC6923434C6A49
:108B000023438C6A23431A430260CB6843600B689B
:108B100083604B68C36010BD0021016041608160CB
:108B2000C160016141618161C16101624162816233
:108B3000704721B1026842F00102026004E002685D
:108B40004FF6FE731A40026070471AB103680B4378
:108B5000036002E003688B43036070474160704725
:108B60000146486880B2704701460020002201F0AB
:108B700080531BB11C4B083B1A6802E0194B083BA1
:108B80001A6802EA01030BB1012000E000207047DF
:108B900000F0805119B11449091F086002E0114921
:108BA00008394860704701460020002201F08053D8
:108BB0001BB10D4B083B1A6802E00A4B083B1A68D0
:108BC00002EA01030BB1012000E00020704700F031
:108BD000805119B10449091F086002E001490839B0
:108BE0004860704708000240080402400146002027
:108BF000FE4A106800F03800084310607047FB49D7
:108C0000096821F00801F94A116011460968014319
:108C100011607047F549096821F01001F34A1160AD
:108C200011460968014311607047F148EF494860F7
:108C3000F04848607047EE48EC494860ED484860AD
:108C40007047EA48006940F08000E84908617047D1
:108C5000E648006940F08000E4490861704704205C
:108C6000E249C96801F0010109B101200EE0DF49C4
:108C7000C96801F0040109B1022007E0DB49C968B5
:108C800001F0100109B1032000E00420704700B595
:108C900002460423FFF7E3FF034603E0FFF7DFFF8D
:108CA0000346521E012B01D1002AF7D102B9052338
:108CB000184600BD30B5044604254FF43020FFF7B8
:108CC000E6FF0546042D17D1C848006940F00200B0
:108CD000C649086108464461006940F040000861E7
:108CE0004FF43020FFF7D3FF0546C048006941F636
:108CF000FD710840BD490861284630BD10B5042407
:108D00004FF43020FFF7C3FF0446042C16D1B748B8
:108D1000006940F00400B54908610846006940F068
:108D2000400008614FF43020FFF7B1FF0446AF4820
:108D3000006941F6FB710840AC490861204610BD4E
:108D400000B502460423FFF78AFF034603E0FFF75E
:108D500086FF0346521E012B01D1002AF7D102B92A
:108D60000523184600BD10B504244FF43020FFF74A
:108D7000E7FF0446042C16D19C48006940F004002B
:108D80009A4908610846006940F0400008614FF4C4
:108D90003020FFF7D5FF04469448006941F6FB7187
:108DA000084092490861204610BD00208F49C969DA
:108DB00001F0020109B1012000E00020704730B548
:108DC000A5250424FFF7F1FF00B100254FF4302062
:108DD000FFF75DFF0446042C3AD18548834988603B
:108DE000844888600846006940F020000861084611
:108DF000006940F0400008614FF43020FFF747FF62
:108E00000446042C1BD17948006941F6DF71084003
:108E1000764908610846006940F01000086176480C
:108E20000580E002FFF733FF0446052C10D06F48A1
:108E3000006941F6EF7108406C49086108E0052CB3
:108E400006D06A48006941F6EF7108406749086139
:108E5000204630BD78B506460C460425002000901B
:108E6000E802FFF714FF0546042D24D15F4800698E
:108E700040F001005D4908613480E802FFF707FF18
:108E80000546042D10D1B01C0090200C00990880DC
:108E9000E802FFF7FCFE05465448006941F6FE7102
:108EA00008405249086106E05048006941F6FE71E9
:108EB00008404E490861284678BD70B504460D4605
:108EC0000426F002FFF7E3FE0646042E11D14748C0
:108ED000006940F00100454908612580F002FFF774
:108EE000D6FE06464148006941F6FE7108403F49FA
:108EF0000861304670BD70B505460E460424E00298
:108F0000FFF7C5FE0446042C17D13948374988605D
:108F1000384888600846006940F0100008612E80DB
:108F2000E002FFF7B4FE0446052C06D02F48006986
:108F300041F6EF7108402D490861204670BD2DE9CA
:108F4000F04304464FF6FF763746B046B146042557
:108F5000E443E6B2C4F30727C4F307484FEA1469B1
:108F6000E802FFF794FE0546042D49D120481F4929
:108F70008860204888600846006940F01000086159
:108F8000FF2E06D01C4808300680E802FFF77FFE5F
:108F90000546042D08D1FF2F06D017480A30078058
:108FA000E802FFF774FE0546042D0AD1B8F1FF0F61
:108FB00007D011480C30A0F80080E802FFF767FEE8
:108FC0000546042D0AD1B9F1FF0F07D00A480E302B
:108FD000A0F80090E802FFF75AFE0546052D0FD0D5
:108FE0000248006941F6EF71084007E000200240A6
:108FF00023016745AB89EFCD00F8FF1F6649086183
:109000002846BDE8F08330B5054604244FF43020EF
:10901000FFF73DFE0446042C41D160485E4988605C
:109020005F4888600846006940F0200008610846F3
:10903000006940F0400008614FF43020FFF727FE40
:109040000446042C22D15448006941F6DF710840DF
:10905000514908610846006940F0100008611DB1DF
:1090600000205049088002E0A5204E4908804FF4B6
:109070003020FFF70CFE0446052C10D0464800694E
:1090800041F6EF7108404449086108E0052C06D01C
:109090004148006941F6DF7108403F4908612046B8
:1090A00030BDF0B505460E46174604243B483A4904
:1090B00088603B488860E002FFF7E9FD0446042C25
:1090C00019D13548006940F010003349086147F074
:1090D000F800304328433349891C0880E002FFF739
:1090E000D6FD0446052C06D02B48006941F6EF71E9
:1090F0000840294908612046F0BD2748C06980081A
:1091000070472548006A704700202349096801F02C
:10911000200109B1012000E00020704729B11E4A5A
:10912000126902431C4B1A6104E01B4A1269824314
:10913000194B1A61704701460020012908D1164ACF
:10914000D26902F001020AB1012008E0002006E025
:10915000114AD2680A400AB1012000E0002070479D
:109160000D49C860704704200B49C96801F001012E
:1091700009B101200EE00849C96801F0040109B1F4
:10918000022007E00449C96801F0100109B1032079
:1091900000E00420704700000020024023016745E2
:1091A000AB89EFCD00F8FF1F10B50446CC488442D0
:1091B00008D10121042000F093FB0021042000F0DD
:1091C0008FFB46E0C748844208D10121082000F007
:1091D00087FB0021082000F083FB3AE0C24884426C
:1091E00008D10121102000F07BFB0021102000F0AD
:1091F00077FB2EE0BD48844208D10121202000F0F9
:109200006FFB0021202000F06BFB22E0B848844275
:1092100008D10121402000F063FB0021402000F034
:109220005FFB16E0B348844208D10121802000F0A2
:1092300057FB0021802000F053FB0AE0AE48844237
:1092400007D10121801500F04BFB0021A01500F093
:1092500047FB10BD10B50121084600F041FB00217D
:10926000012000F03DFB10BD2DE9F0410246002534
:109270000026002000230024002791F803C00CF0F2
:109280000F0591F803C00CF0100CBCF1000F03D0D7
:1092900091F802C04CEA050591F800C0BCF1000F3E
:1092A00031D0146800202BE04FF0010C0CFA00F3D1
:1092B000B1F800C00CEA03069E4220D183004FF0B3
:1092C0000F0C0CFA03F7BC4305FA03FC4CEA040448
:1092D00091F803C0BCF1280F06D14FF0010C0CFA35
:1092E00000FCC2F814C00AE091F803C0BCF1480FBA
:1092F00005D14FF0010C0CFA00FCC2F810C0401C64
:109300000828D1D31460B1F800C0BCF1FF0F34DDE0
:10931000546800202EE000F1080C4FF0010808FA14
:109320000CF3B1F800C00CEA03069E4221D1830081
:109330004FF00F0C0CFA03F7BC4305FA03FC4CEAA0
:10934000040491F803C0BCF1280F05D100F1080C0A
:1093500008FA0CF8C2F8148091F803C0BCF1480F69
:1093600007D100F1080C4FF0010808FA0CF8C2F818
:109370001080401C0828CED35460BDE8F0814FF621
:10938000FF710180022181700421C1707047024683
:10939000002093680B400BB1012000E000207047D3
:1093A0000146886880B2704702460020D3680B40AF
:1093B0000BB1012000E0002070470146C86880B270
:1093C000704701617047416170470AB1016100E077
:1093D00041617047C16070474FF480320A43826137
:1093E0008161826182698269704702460020434B35
:1093F00018684FF68073184040EA021008433F4B4C
:10940000186070473E49C8617047F0B50A460023AE
:1094100000240021002500F00046B6F1004F02D1E3
:10942000364EF16901E0354E7168C0F3034583B2F1
:1094300000F44016B6F5401F08D121F070612F4EA0
:10944000766826F070662D4F7E6012E000F480167C
:10945000B6F5801F06D1032606FA05F4A14341F0B4
:10946000706106E0460D360103FA06F6B14341F09D
:10947000706122B1460D360103FA06F6314300F061
:109480000046B6F1004F02D11C4EF16101E01B4EC7
:109490007160F0BD30B500228B071C0F0F2303FA5B
:1094A00004F2164B08338C1053F824309343134CBA
:1094B00008348D1044F8253023468C1053F824309E
:1094C0008C07240F00FA04F423430C4C08348D104D
:1094D00044F8253030BD0A49DC310860704700008F
:1094E00000080140000C0140001001400014014040
:1094F00000180140001C0140002001400000014014
:109500000000204210B50121080700F0F6F9002103
:109510004FF0805000F0F1F910BD2A490862704701
:1095200028490861704701460020274A106820F04A
:10953000E0000843106070472249A031086070477E
:1095400010B502460020204B186820F0030010439D
:1095500018601E4B1B6843F004031C4C2360012958
:1095600001D130BF00E020BF184B1B6823F004037B
:10957000164C236010BD1448006840F004001249E6
:1095800008600846006840F0020008600F48006864
:1095900040F004000D49086000BF00BF30BF7047B5
:1095A00001460020084A52680A400AB1012000E042
:1095B000002070470449096841EA8001024A1160AD
:1095C0007047000000000E420070004010ED00E007
:1095D000DF48006840F00100DD4908600846406847
:1095E000DC490840DA49486008460068DA49084022
:1095F000D74908600846006820F4802008600846C3
:10960000406820F4FE0048604FF41F0088607047F7
:10961000CF49096821F48031CD4A116011460968AB
:1096200021F480211160B0F5803F03D0B0F5802F88
:109630000ED106E0C649096841F48031C44A116080
:1096400007E0C349096841F4A021C14A116000E064
:1096500000BF00BF704710B5014600220023002064
:109660004A11012A02D1BA4C236806E0022A02D12B
:10967000B74C236A01E0B64C636A01F01F02012473
:1096800094401C400CB1012000E0002010BD38B512
:10969000002000900024002500BF3120FFF7DBFFF1
:1096A00005460098401C00900098B0F5A06F01D0CE
:1096B000002DF2D03120FFF7CEFF08B1012400E0E9
:1096C0000024204638BD01460020A14A106820F041
:1096D000F80040EAC10010607047A0490860704778
:1096E000024600209A4B586820F47C1042EA01039D
:1096F0001843974B58607047984908667047014671
:109700000020934A506820F00300084350607047DF
:109710008F48406800F00C007047014600208C4ADA
:10972000506820F0F0000843506070470146002068
:10973000874A506820F4E060084350607047014653
:109740000020834A506820F4605040EAC100506015
:10975000704729B17E4A527A02437D4B5A7204E027
:109760007B4A527A82437A4B5A7270477B49D8318E
:109770000860704701460020754A506820F4404058
:109780000843506070470021714A20321170704ABE
:1097900082F82010012802D004280AD104E0012117
:1097A0006B4A2032117005E00521694A20321170A0
:1097B00000E000BF00BF7047694908607047644916
:1097C000096A0143624A1162704765494439086079
:1097D000704730B500210022002400235C4D6D68E5
:1097E00005F00C0121B1042905D0082923D105E099
:1097F0005C4D056022E05B4D05601FE0544D6D68D7
:1098000005F47012524D6D6805F48034022505EBA5
:1098100092421CB9544D554305600BE04C4D6D68A8
:1098200005F400351DB1504D5543056002E04D4D26
:109830005543056002E04B4D056000BF00BF444D3D
:109840006D6805F0F0010909484D6B5C0568DD4065
:1098500045603F4D6D6805F4E061090A434D6B5C5E
:109860004568DD4085603A4D6D6805F46051C90A70
:109870003E4D6B5C4568DD40C560354D6D6805F457
:109880004041890B3A4D6B5CC568B5FBF3F505614A
:1098900030BD29B12E4A526902432D4B5A6104E072
:1098A0002B4A526982432A4B5A61704729B1284A90
:1098B00092690243264B9A6104E0254A92698243E9
:1098C000234B9A61704729B1214AD2690243204B48
:1098D000DA6104E01E4AD26982431D4BDA617047A7
:1098E00029B11B4AD2680243194BDA6004E0184AD6
:1098F000D2688243164BDA60704729B1144A126964
:109900000243134B1A6104E0114A12698243104B5F
:109910001A61704712494039086070470F49C8649E
:1099200070470B49C87170470948406A40F0807021
:1099300007494862704701460020054A92680A407C
:109940000AB1012000E00020704701498872704789
:10995000001002400000FFF8FFFFF6FE0000424248
:109960008004424200127A0000093D0014000020E9
:109970002400002029B1504A128802434E4B1A801D
:1099800004E04D4A128882434B4B1A8070474A4884
:10999000001D008840F010004749091D08807047ED
:1099A0004548001D00884FF6EF7108404249091DE7
:1099B00008807047002140481C300188001F008843
:1099C00041EA0040704700B50246FFF7E0FF100C87
:1099D000394918310880091D0A80FFF7E1FF00BDF1
:1099E00000B50246FFF7D3FFC2F303403249083106
:1099F0000880091D0A80FFF7D3FF00BD00B50246AD
:109A0000FFF7C5FF100C2C4920310880091D0A8082
:109A1000FFF7C6FF00BD002027491031098809075C
:109A2000080B2549143109880843704700BF2248B4
:109A3000001D008800F020000028F8D070471E4864
:109A4000001D00884FF6F77108401B49091D08806A
:109A500000BF1948001D008800F008000028F8D059
:109A6000704701460020144A121D12880A400AB1AC
:109A7000012000E0002070470F49091D098881433B
:109A80000D4A121D11807047014600200A4A121D1E
:109A900012880A40D0B2084A12880A4012B108B1AE
:109AA000012000E0002070470349091D0988814317
:109AB000014A121D118070470028004010B504466D
:109AC000BE48844208D101218014FFF709FF00211C
:109AD000A014FFF705FF16E0B948844208D1012120
:109AE0000014FFF70AFF00212014FFF706FF0AE029
:109AF000B448844207D10121C013FFF7FEFE0021C4
:109B0000E013FFF7FAFE10BD10B50022028802F440
:109B100041520B884C8823438C882343CC882343B1
:109B20000C8923434C8923438C892343CC892343C9
:109B30001A430280838B4FF2FF74234083830B8A86
:109B4000038210BD2DE9F04F85B005460C464FF05D
:109B5000000902274FF000084FF0010B0026B24623
:109B6000A88B4FF240010840A88302202884B5F852
:109B70001C90A068022801D100BF38E0A08810B96D
:109B80004FF0010B01E04FF0020B8D48854200D1F0
:109B900000E000BF6846FFF71CFEDDF800A0E0888B
:109BA000B0F5007F0AD14FEA1A2000EB8000400098
:109BB000A168B0FBF1F0401D86B20BE04FEA4B10FC
:109BC000BAFBF0F000EB80004000A168B0FBF1F0C0
:109BD000401D86B20A20B6FBF0F606F00108A6EB9F
:109BE0000800C0F34F074FF6FF7000EA0828022F65
:109BF00001DBFF2F02DD02274FF00008E08840EA7A
:109C0000080038432884A088A18908436188084354
:109C10002188084340F4006040EA0909A5F81C9037
:109C200005B0BDE8F08F0021018041808180C180B6
:109C3000018141818181C181072101827047002119
:109C4000018041808180C180022181600021818169
:109C5000704721B1028842F04002028004E002888D
:109C60004FF6BF731A400280704721B1828B42F4D5
:109C70008062828304E0828B4FF6FF331A40828336
:109C8000704730B5002400230C110125A540ABB26C
:109C90001AB185881D43858002E085889D438580B3
:109CA00030BD1AB183880B43838002E083888B43E5
:109CB00083807047818170470146888970474FF6DD
:109CC000FF62914204D0028842F48072028004E074
:109CD00002884FF6FF631A400280704721B18288E4
:109CE00042F00402828004E082884FF6FB731A403F
:109CF0008280704702884FF2FF731A400280028808
:109D00000A4302807047018841F480510180704706
:109D100021B1028842F40052028004E002884DF62C
:109D2000FF731A400280704702460020012901D0CB
:109D3000108B00E0908A70470146088A7047B1F5A1
:109D4000804F04D1028842F48042028004E00288FD
:109D50004BF6FF731A4002807047024600201389B9
:109D60000B400BB1012000E000207047CA43028184
:109D70007047F0B50246002000240023002501F0C2
:109D80000F070126BE40B4B20B1101269E40B3B2AC
:109D9000968806EA03051689264016B10DB1012002
:109DA00000E00020F0BD10B5002201F00F040123F7
:109DB000A3409AB2D343038110BD0000003001409C
:109DC00000380040003C004010B50446FE48844284
:109DD00008D10121C014FFF783FD0021E014FFF733
:109DE0007FFDC4E0B4F1804F08D101210846FFF7A0
:109DF00084FD00210120FFF780FDB8E0F348844294
:109E000008D101210220FFF778FD00210220FFF791
:109E100074FDACE0EE48844208D101210420FFF734
:109E20006CFD00210420FFF768FDA0E0E9488442B2
:109E300008D101210820FFF760FD00210820FFF76D
:109E40005CFD94E0E448844208D101211020FFF732
:109E500054FD00211020FFF750FD88E0DF488442C8
:109E600008D101212020FFF748FD00212020FFF725
:109E700044FD7CE0DA48844208D101214014FFF718
:109E80002FFD00216014FFF72BFD70E0D5488442C0
:109E900009D10121C804FFF723FD00214FF4002060
:109EA000FFF71EFD63E0D048844209D10121080577
:109EB000FFF716FD00214FF48010FFF711FD56E06B
:109EC000CA48844209D101214805FFF709FD002154
:109ED0004FF40010FFF704FD49E0C548844208D163
:109EE00001214020FFF709FD00214020FFF705FD7B
:109EF0003DE0C048844208D101218020FFF7FDFCED
:109F000000218020FFF7F9FC31E0BB48844208D1F2
:109F100001218015FFF7F1FC0021A015FFF7EDFCF2
:109F200025E0B648844209D101210804FFF7D8FC96
:109F300000214FF48030FFF7D3FC18E0B048844292
:109F400009D101214804FFF7CBFC00214FF4003078
:109F5000FFF7C6FC0BE0AB48844208D1012188041E
:109F6000FFF7BEFC00214FF48020FFF7B9FC10BDC5
:109F700000220288944B98420ED0994B98420BD005
:109F8000B0F1804F08D0914B984205D0904B984249
:109F900002D0904B984204D14FF68F731A404B88F1
:109FA0001A438D4B984207D08C4B984204D04FF601
:109FB000FF431A40CB881A4302808B8883850B8825
:109FC0000385814B98420BD0854B984208D08B4B30
:109FD000984205D08A4B984202D08A4B984201D1D0
:109FE0000B7A038601238382704770B50024002218
:109FF0000023058C4FF6FE7635400584028C83885D
:10A00000048B4FF68F752C40B51E2C400D882C43C9
:10A01000751E2A400D892A434D882A436A4DA8425D
:10A020000BD06F4DA84208D0744DA84205D0744D96
:10A03000A84202D0734DA84213D14FF6F7752A40BB
:10A040004D892A434FF6FB752A408D882A434FF6E7
:10A05000FF652B404FF6FF552B408D892B43CD8953
:10A060002B4383800483CD888586028470BD70B5C0
:10A07000002400220023058C4FF6EF76354005843E
:10A08000028C8388048B48F6FF752C404FF6FF4501
:10A090002C400D884FF6FF7606EA05252C434FF637
:10A0A000DF752A400D8906EA05152A434D8806EA20
:10A0B00005152A43444DA84202D0494DA8421DD15E
:10A0C0004FF67F752A404D894FF6FF7606EA051553
:10A0D0002A434FF6BF752A408D8806EA05152A43A4
:10A0E0004FF6FF352B404FF2FF752B408D8906EA66
:10A0F00085052B43CD8906EA85052B4383800483A0
:10A10000CD880587028470BD70B50024002200232D
:10A11000058C4FF6FF6635400584028C8388848B5E
:10A120004FF68F752C404FF6FC752C400D882C4354
:10A130004FF6FF552A400D894FF6FF7606EA0525B2
:10A140002A434D8806EA05252A431F4DA84202D01E
:10A15000234DA8421DD14FF2FF752A404D894FF67D
:10A16000FF7606EA05252A434FF6FF352A408D88FB
:10A1700006EA05252A434EF6FF752B404DF6FF757E
:10A180002B408D8906EA05152B43CD8906EA051576
:10A190002B4383808483CD888587028470BD70B50E
:10A1A000002200230024058C4EF6FF7635400584FE
:10A1B000038C8488828B48F6FF752A404FF6FF4552
:10A1C0002A400D8820E00000002C014000040040DF
:10A1D00000080040000C0040001000400014004047
:10A1E00000340140004C0140005001400054014047
:10A1F00000180040001C00400020004000400140CA
:10A2000000440140004801404FF6FF7606EA05256C
:10A210002A434DF6FF752B400D8906EA05352B4381
:10A220004D8806EA05352B43FA4DA84202D0FA4D77
:10A23000A84208D14BF6FF752C408D894FF6FF766A
:10A2400006EA85152C4384808283CD88A0F840508F
:10A25000038470BD828B4FF2FF331A408283828B5E
:10A260004FF6FF7303EA01231A4382837047F0B568
:10A270000C461546002200210026078C4EF6FF7C76
:10A2800007EA0C070784828B018C4FF6FF7707EAF9
:10A29000043640F6FF473A404FF6FF7707EA0527B6
:10A2A0003A434FF6FF7707EA03373A43D94FB842AC
:10A2B0000ED0D94FB8420BD0B0F1804F08D0D74F55
:10A2C000B84205D0D64FB84202D0D64FB84206D1D8
:10A2D0004DF6FF77394046F48057394305E047F69D
:10A2E000FF57394044F48057394382830184F0BDDD
:10A2F000828B4FF6F3731A408283828B0A438283E8
:10A300007047F0B50C461546002200210026078C48
:10A310004FF6FF6C07EA0C070784828B018C4FF61F
:10A32000FF7707EA04264FF60C773A404FF6FF779F
:10A3300007EA03172F433A43B64FB8420ED0B64F41
:10A34000B8420BD0B0F1804F08D0B44FB84205D01E
:10A35000B34FB84202D0B34FB84206D14FF6FF57C1
:10A36000394046F48077394305E04FF2FF573940D2
:10A3700044F48077394382830184F0BD028B4FF22D
:10A38000FF331A400283028B4FF6FF7303EA012367
:10A390001A4302837047F0B50C461546002200218F
:10A3A0000026078C4FF6EF7C07EA0C070784028B28
:10A3B000018C4FF6FF7707EA041640F6FF473A4054
:10A3C0004FF6FF7707EA03373A434FF6FF7707EA7E
:10A3D00005273A438F4FB8420ED08F4FB8420BD06B
:10A3E000B0F1804F08D08D4FB84205D08C4FB842A5
:10A3F00002D08C4FB84206D14FF6DF77394046F095
:10A400001007394305E04FF65F77394044F01007F5
:10A41000394302830184F0BD028B4FF6F3731A4077
:10A420000283028B0A4302837047F0B50C4615463F
:10A4300000220021068C4FF6FE773E400684028BF8
:10A44000018C4FF60C7632407E1C06EA03162E4332
:10A450003243704EB0420ED06F4EB0420BD0B0F1CE
:10A46000804F08D06D4EB04205D06D4EB04202D044
:10A470006C4EB04206D14FF6FD76314044F00106F5
:10A48000314305E04FF6F576314044F001063143A3
:10A4900002830184F0BD70B505460C465D488542D7
:10A4A0000ED05D4885420BD0B5F1804F08D05B4897
:10A4B000854205D05A48854202D05A48854200D18B
:10A4C00000E000BF208850B92389A288618828460F
:10A4D000FFF7ABFFE1882846FFF79EFF25E02088C5
:10A4E00004280AD12389A28861882846FFF753FFF0
:10A4F000E1882846FFF742FF17E0208808280AD1A4
:10A500002389A28861882846FFF7FBFEE188284658
:10A51000FFF7EEFE09E02389A28861882846FFF74D
:10A52000A6FEE1882846FFF795FE70BD2DE9F041B3
:10A5300005460C4600260127608808B9022600E07F
:10A540000026A088012801D1022700E001272088E9
:10A55000A0B92389A28861882846FFF766FFE188B1
:10A560002846FFF759FF23893A4631462846FFF728
:10A5700012FFE1882846FFF701FF13E02389A28834
:10A5800061882846FFF707FFE1882846FFF7F6FEB7
:10A5900023893A4631462846FFF747FFE188284697
:10A5A000FFF73AFFBDE8F0810A884B881A438B8891
:10A5B0001A43CB881A430B891A434B891A438B8958
:10A5C0001A43A0F8442070474FF6FF7181800021A4
:10A5D0000180C1804180017270470021018041806B
:10A5E0008180C180018141818181C18170470021C9
:10A5F00001804180012181800021C180018170475B
:10A600000021018041808180C1800181418181815F
:10A6100070470000002C014000340140000400405D
:10A6200000080040000C004021B1028842F0010205
:10A63000028004E002884FF6FE731A4002807047E1
:10A6400031B1B0F8442042F40042A0F8442005E0C3
:10A65000B0F84420C2F30E02A0F8442070471AB1AB
:10A6600083890B43838102E083898B438381704715
:10A670008182704741EA0203A0F8483070471AB15E
:10A6800083890B43838102E083898B4383817047F5
:10A6900001894FF6F8721140018170470A46002186
:10A6A00001894FF68F73194011430181704730B50E
:10A6B00004460D4629462046FFF7F0FF208940F06A
:10A6C0000700208130BD2DE9F04104460D461646B5
:10A6D0001F46602D06D13B46012231462046FFF73A
:10A6E0005AFE05E03B46012231462046FFF79DFE1B
:10A6F00029462046FFF7D2FF208940F0070020813D
:10A70000BDE8F08130B50C4600210189C9B24FF691
:10A71000FF7505EA0325154325432943018130BD13
:10A720002DE9F04105460E4617469846002443465B
:10A730003A4631462846FFF7E5FF2C894FF6F87078
:10A74000044044F007044FF68F70044044F0700456
:10A750002C81BDE8F081F0B504460D4616461F4633
:10A760003B46324629462046FFF7CCFF208940F47D
:10A7700080402081F0BD0185828270470A46002119
:10A7800001884FF68F731940114301807047F0B56F
:10A790000C4615461E460021002200230189028B2B
:10A7A000038C4FF6F877394021434FF6FC473A4087
:10A7B00040F201173A434FF6DD773B404FF6FF7703
:10A7C00007EA06172F433B43018102830384F0BD50
:10A7D0000A460021018B4FF68F7319401143018304
:10A7E00070470A460021018B48F6FF7319404FF667
:10A7F000FF7303EA02231943018370470A460021CD
:10A80000818B4FF68F7319401143818370470A463D
:10A810000021818B48F6FF7319404FF6FF7303EA5E
:10A82000022319438183704721B1028842F08002DC
:10A83000028004E002884FF67F731A40028070475E
:10A8400021B1828842F00402828004E082884FF6BF
:10A85000FB731A408280704721B1828842F008025F
:10A86000828004E082884FF6F7731A408280704736
:10A8700021B1828842F00102828004E082884FF692
:10A88000FE731A40828070470A460021018B4FF602
:10A89000F77319401143018370470A460021018B69
:10A8A0004FF2FF7319404FF6FF7303EA0223194377
:10A8B000018370470A460021818B4FF6F7731940D8
:10A8C0001143818370470A460021818B4FF2FF7349
:10A8D00019404FF6FF7303EA02231943818370473F
:10A8E0000A460021018B4FF6FB7319401143018387
:10A8F00070470A460021018B4FF6FF3319404FF68F
:10A90000FF7303EA02231943018370470A460021BB
:10A91000818B4FF6FB7319401143818370470A46C0
:10A920000021818B4FF6FF3319404FF6FF7303EA86
:10A9300002231943818370470A460021018B4FF699
:10A940007F7319401143018370470A460021018B30
:10A95000C1F30E014FF6FF7303EA0223194301838B
:10A9600070470A460021818B4FF67F7319401143CF
:10A97000818370470A460021818BC1F30E014FF697
:10A98000FF7303EA02231943818370470A460021BB
:10A99000018C4FF6FD7319401143018470470A463C
:10A9A0000021018C4FF6F773194011430184704761
:10A9B0000A460021018C4FF6DF7319404FF6FF73F2
:10A9C00003EA02131943018470470A460021018CEF
:10A9D0004FF67F7319404FF6FF7303EA02131943D2
:10A9E000018470470A460021018C4FF6FF5319403D
:10A9F0004FF6FF7303EA02231943018470470A46A6
:10AA00000021018C4FF2FF7319404FF6FF7303EAE8
:10AA100002231943018470470A460021018C4DF638
:10AA2000FF7319404FF6FF7303EA023319430184A1
:10AA3000704730B5002301248C40A3B2048C9C43A2
:10AA40000484048C02FA01F5ADB22C43048430BDB9
:10AA500030B5002304248C40A3B2048C9C430484AE
:10AA6000048C02FA01F5ADB22C43048430BD70B5FC
:10AA70000346002000241846183001258D40ACB252
:10AA80001D8CA5431D8409B1082909D100EB610083
:10AA9000056825F0700505600568154305600EE042
:10AAA0000D1FC5F34E052844056825F4E0450560F3
:10AAB00005684FF6FF7606EA02263543056070BD4D
:10AAC00021B1028842F00202028004E002884FF6BF
:10AAD000FD731A400280704721B1028842F00402DF
:10AAE000028004E002884FF6FB731A400280704730
:10AAF00021B1828842F08002828004E082884FF691
:10AB00007F731A408280704702884FF6F7731A40AD
:10AB1000028002880A430280704782884FF68F7352
:10AB20001A40828082880A438280704702894FF6E9
:10AB3000F8731A40028102890A4302817047028930
:10AB40004FF67F731A40028102890A4302817047DF
:10AB5000818470478185704781867047018770477F
:10AB600081877047A0F84010704702884FF6FF4376
:10AB70001A40028002880A43028070470146888E8C
:10AB800070470146088F70470146888F704701461D
:10AB9000B1F8400070470146888C70470146088D27
:10ABA000704702460020138A0B400BB1012000E0E1
:10ABB00000207047CA430282704730B50246002029
:10ABC00000230024158A05EA0103958905EA01049A
:10ABD00013B10CB1012000E0002030BDCA43028255
:10ABE0007047000010B50446FB48844209D101219A
:10ABF0008803FEF775FE00214FF48040FEF770FEDB
:10AC000032E0F648844209D101214804FEF775FE7E
:10AC100000214FF40030FEF770FE25E0F04884423A
:10AC200009D101218804FEF768FE00214FF480203D
:10AC3000FEF763FE18E0EB48844209D10121C80405
:10AC4000FEF75BFE00214FF40020FEF756FE0BE0FE
:10AC5000E548844208D101210805FEF74EFE002197
:10AC60004FF48010FEF749FE10BD2DE9F04786B085
:10AC700005460E460024A24600BFA1460027B08923
:10AC800000B100BF2F462C8A4CF6FF700440F088BC
:10AC900004432C82AC894EF6F3100440B08831890D
:10ACA0000843718908430443AC81AC8A4FF6FF40E6
:10ACB0000440B0890443AC8201A8FEF78AFDC6486F
:10ACC000874202D1DDF810A001E0DDF80CA0A889D0
:10ACD00000F4004040B10AEBCA0000EB0A103168F2
:10ACE0004900B0FBF1F807E00AEBCA0000EB0A10DC
:10ACF00031688900B0FBF1F86420B8FBF0F0040182
:10AD00002009642101FB1089A88900F4004040B1AA
:10AD1000322000EBC900B0FBF1F000F00700044363
:10AD200008E0322000EB09106421B0FBF1F000F0E4
:10AD30000F0004432C8106B0BDE8F0874FF4165194
:10AD4000016000218180C18001810C2141810021AD
:10AD50008181704710B502460020108A4FF2FF0330
:10AD600018400B884C8823438C882343CC8823438A
:10AD70001843108210BD0021018041808180C18074
:10AD8000704721B1828942F40052828104E08289B5
:10AD90004DF6FF731A4082817047F0B503460024D8
:10ADA00000260025002040F66A17B94200D100BFF6
:10ADB0001846C1F3421401F01F06012707FA06F5F1
:10ADC000012C01D10C3004E0022C01D1103000E044
:10ADD00014301AB107682F43076002E00768AF43D9
:10ADE0000760F0BD1AB1838A0B43838202E0838A35
:10ADF0008B4383827047028A4FF6F0731A400282B7
:10AE0000028A0A430282704782894FF2FF731A4016
:10AE1000828182890A438281704721B1828942F00E
:10AE20000202828104E082894FF6FD731A4082811A
:10AE30007047028A4FF6DF731A400282028A0A4381
:10AE40000282704721B1028A42F48042028204E009
:10AE5000028A4BF6FF731A4002827047C1F3080260
:10AE60008280704701468888C0F308007047818956
:10AE700041F0010181817047028BD2B20283028BC3
:10AE800042EA012202837047028B02F47F4202836E
:10AE9000028B0A430283704721B1828A42F020026A
:10AEA000828204E0828A4FF6DF731A408282704702
:10AEB00021B1828A42F01002828204E0828A4FF637
:10AEC000EF731A408282704721B1828A42F00802F1
:10AED000828204E0828A4FF6F7731A4082827047BA
:10AEE00021B1828942F40042828103E08289C2F367
:10AEF0000E028281704721B1828A42F4006282820E
:10AF000004E0828A4FF2FF731A4082827047828A7D
:10AF10004FF6FB731A408282828A0A43828270470C
:10AF200021B1828A42F00202828204E0828A4FF6D4
:10AF3000FD731A408282704702460020B1F5007FFF
:10AF400000D100BF13880B400BB1012000E00020AE
:10AF5000704701F40072B2F5007F00D100BFCA4310
:10AF60000280704770B502460024002300250020AF
:10AF700040F66A16B14200D100BFC1F3421501F09C
:10AF80001F03012606FA03F3012D02D196893340EF
:10AF900006E0022D02D1168A334001E0968A334042
:10AFA0000C12012606FA04F41688344013B10CB1D1
:10AFB000012000E0002070BD10B50022002340F603
:10AFC0006A14A14200D100BF0A1201249440A3B226
:10AFD000DC43048010BD0000003801400044004004
:10AFE00000480040004C0040005000402DE9F04F68
:10AFF00095B081460025002404260020149050219D
:10B00000684606F02EF9FD4800781A2802DB002079
:10B01000FA490870FA480078142826DA0020F9491D
:10B020000860F7480078401CF5490870F648F34975
:10B03000097840F8219000250AE02846691CCDB225
:10B04000F14951F82000EF4909680844ED490860CA
:10B05000EA4800788542F0DDE8480078401CE7497E
:10B060000870484615B0BDE8F08FE748E349097815
:10B0700040F82190E14804780078401CDF490870CE
:10B0800000250BE0E04850F824004DF82500002C86
:10B0900000DC1A24601EC4B2681CC5B2142DF1DB9A
:10B0A00000251CE0002414E05DF82410601C5DF80D
:10B0B000200081420BD95DF824001490601C5DF8DB
:10B0C00020004DF82400611C14984DF82100601CEC
:10B0D000C4B2C5F11400A042E6DC681CC5B2142D50
:10B0E000E0DB0020C7490860012E32D1DDE9020112
:10B0F00008440499084405990844069908440799A6
:10B10000084408990844099908440A9908440B9985
:10B1100008440C9908440D9908440E9908440F9965
:10B1200008441099084411990844B649096808442C
:10B13000B44908600846006806F01CFB82460022FD
:10B14000B24B06F089FA074606F06DFBAD49086080
:10B15000B1E0022E2AD1DDE9040108440699084431
:10B160000799084408990844099908440A99084429
:10B170000B9908440C9908440D9908440E99084409
:10B180000F9908449F49096808449E490860084689
:10B19000006806F0EFFA074600229D4B06F05CFAC5
:10B1A000824606F040FB9749086084E0032E22D1D6
:10B1B000DDE90601084408990844099908440A99F8
:10B1C00008440B9908440C9908440D9908448D498A
:10B1D000096808448B4908600846006806F0CAFA06
:10B1E000074600228B4B06F037FA824606F01BFB1F
:10B1F000844908605FE0062E20D108990E98084423
:10B20000099908440A9908440B9908440C99084480
:10B210000D9908447B49096808447A490860084642
:10B22000006806F0A7FA074600227B4B06F014FAE6
:10B23000824606F0F8FA734908603CE0072E20D1F8
:10B24000DDE90601084408990844099908440A9967
:10B2500008440B990844059908446A490968084458
:10B26000684908600846006806F084FA074600222C
:10B27000694B06F0F1F9824606F0D5FA614908609B
:10B2800019E0DDE9080108440A9908440B990844CB
:10B290005C49096808445B4908600846006806F094
:10B2A00069FA074600225D4B06F0D6F9824606F0A1
:10B2B000BAFA5449086053480068D3E68EB00020BB
:10B2C0000D900C900024814605F013FC05F08CFED7
:10B2D00005F050FF04220021514805F066FC50485B
:10B2E000047824024078044324024D4880780443C3
:10B2F00024024B48C07804431CB14A480068844289
:10B3000000D905244648002101603FE146480088F5
:10B31000FFF76CFE45490880454881780D988142C9
:10B3200068D040480068A0F57A70A04263D34048D6
:10B3300041780C9881425FD03D4840783C4909787B
:10B34000CDE900103A49CB798A793A4901EB0900F5
:10B3500039A107F0CDFE48441FFA80F9354901EBC9
:10B36000090038490A8838A107F0C2FE48441FFA8C
:10B3700080F92F4840780C9035493648006805F030
:10B38000E2FF0B9006F01CFA85B2314932480068A2
:10B3900005F0D9FF0B9006F013FA86B22C492F481E
:10B3A000006805F0D0FF0B9006F00AFA87B22C492E
:10B3B00003C906F038FA00F0FF082A4903C906F06D
:10B3C00032FA00F0FF0A284903C906F02CFA00F00F
:10B3D000FF0B1648CDE90387CDE9056500881449C0
:10B3E000CDE901BA00908A78124901EB09000E49B3
:10B3F0000B883BE0BDE0B9E03FE000009400002096
:10B4000095000020900000208C09002000003040B2
:10B41000000028400000204000001C4000001040B8
:10B420008C010020540000207401002050000020F6
:10B43000E41D00208C05002025642D25642D256445
:10B440003A25640072010020543D25640A00000082
:10B450000000C842700000206C000020680000203E
:10B46000880000208000002078000020F9A107F06B
:10B470003FFE48441FFA80F955E0FD48006806F099
:10B48000EBF907460022FB4B06F074F8054606F080
:10B49000CAF91FFA80FAF848006806F0DDF9074695
:10B4A0000022F44B06F066F8054606F0BCF91FFAD8
:10B4B00080FBF248006806F0CFF907460022ED4B0A
:10B4C00006F058F8054606F0AEF980B2EC490B904C
:10B4D00003C906F0A8F9C0B2EA490A9003C906F008
:10B4E000A2F9C0B2E849099003C906F09CF9C0B2BC
:10B4F0000890DDE90A01CDE905BACDE90301E34A87
:10B500001288DDE90810CDE900210290E0498A782F
:10B51000E04901EB0900E0490B88CEA107F0E8FD06
:10B5200048441FFA80F940F2B63081451EDD03F031
:10B5300059FB4A462146D74805F0CFFB4FF48061BE
:10B54000D44805F08EFE4C44200ED2490870200CE1
:10B550004870200A8870CC7004220021CD4805F084
:10B56000BCFB002003F042FB4FF00009C848807884
:10B570000D90C648008805F069FDC448008806F0B3
:10B580004BFBC6490880C82003F015F9BEE604F05D
:10B5900004FD04F0F6FFC24805F0F7FCC14908605D
:10B5A000BF48001D05F0F1FCBF490860BC480830E9
:10B5B00005F0EBFCBD490860B7E03B2004F052FE0B
:10B5C000BB4908803D2004F04DFEBA4908803F2069
:10B5D00004F048FEB8490880432004F043FEB74910
:10B5E0000880452004F03EFEB5490880472004F05D
:10B5F00039FEB4490880B448006806F09CF88146DA
:10B60000AE48B0F9000006F096F88246494605F0CB
:10B6100042FE044606F020F907460022AB4B06F036
:10B620001BF8054606F05CF994490860A8480068D4
:10B6300006F081F88146A248B0F9000006F07BF8D8
:10B640008246494605F027FE044606F005F90746FE
:10B6500000229E4B06F000F8054606F041F98649A7
:10B6600008609C48006806F066F881469548B0F985
:10B67000000006F060F88246494605F00CFE0446DC
:10B6800006F0EAF807460022904B05F0E5FF054674
:10B6900006F026F9764908608549B1F90010814A1B
:10B6A0001268881806F055F8804600228A4B05F08B
:10B6B000D3FF064607F04AFF0446884A884B05F048
:10B6C00059FF714A03C27B49B1F90010764A1268EA
:10B6D000881806F03EF8064600227F4B05F0BCFFB6
:10B6E000044607F033FF80467C4A7D4B05F042FF5D
:10B6F000644A03C27049B1F900106C4A1268881894
:10B7000006F027F880460022734B05F0A5FF064699
:10B7100007F01CFF0446714A714B05F02BFF584A95
:10B7200003C24FF47A7003F046F846E71CB50025D3
:10B7300005F0C6F84FF480716A48FDF744FE63E1F6
:10B7400000216948006800F0F1FF0546002DF6D1A0
:10B75000042266A1674805F08FFD10B9654804F022
:10B760003DFB0A2264A1634805F086FD002860D1F4
:10B770004FF480715B48FDF724FE62A002F0E6F909
:10B780004FF4E13000F054FD41F2883003F013F83B
:10B7900003F028FA052400206349086004220021F0
:10B7A000624805F002FA614800785F49086008467F
:10B7B0000068000208605D484078096808435A49FB
:10B7C00008600846006800020860584880780968E8
:10B7D000084355490860084600680002086053485D
:10B7E000C07809680843504908604FF480614F48A9
:10B7F00005F037FD0DE04FF4806221464B4805F01F
:10B80000D4F94FF480624949494800F08BFD04F5B2
:10B81000806448480068844203D2434800688442F8
:10B82000E9D34FF4165000F003FD002003F0DEF9D9
:10B8300000BF082240A12F4805F01EFD002808D1B6
:10B8400000244FF480712748FDF7BBFD03F0CAF9CF
:10B8500078E0B6E025642025642025642025642056
:10B8600025642025642025642025642025640A00A1
:10B8700070000020000059406C000020680000208B
:10B880008800002080000020780000205000002068
:10B89000E41D00208C0500207401002072010020AE
:10B8A00001E80108380000203C0000204000002092
:10B8B0005C0000205E00002060000020620000208C
:10B8C0006400002066000020440000200000A0402A
:10B8D000480000204C0000200000D040A79196CAEC
:10B8E000DBA54C4000080140340000204842545180
:10B8F00000000000F4190020726561643235713176
:10B90000323800003573BAF3CAFDBEDDCAE4B3F6BF
:10B91000B4AEBFDAB2A8CCD8C2CAD0DEB8C4B3C9FC
:10B920003131353230300A00580000208C010020BF
:10B9300000380140540000207265616436303530B3
:10B9400000000000F8A002F001F9FB4805F0AEFA93
:10B9500004B22146F9A002F0F9F8F748001D05F0FD
:10B96000A5FA04B22146F7A002F0F0F8F248083038
:10B9700005F09CFA04B22146F4A002F0E7F8F5A025
:10B9800002F0E4F8EC480C3005F090FA04B22146DD
:10B99000EAA002F0DBF8E848103005F087FA04B2BC
:10B9A0002146E8A002F0D2F8E348143005F07EFA10
:10B9B00004B22146E5A002F0C9F8002003F016F910
:10B9C00000BF0F22E6A1EA4805F056FC98B9002016
:10B9D000009001900A208DF804000522002168469D
:10B9E00005F07BF94FF48071E248FDF7EAFCE2A034
:10B9F00002F0ACF800BF4FF48071DE48FDF7E3FCC5
:10BA0000C821DB4805F02DFC9AE61CB503F030FB9D
:10BA100000221146DDA000F069FEDF4908600846FB
:10BA2000006808B900201CBD4FF47A7002F0C3FE14
:10BA3000142005214FF400730022CDE90010D749EE
:10BA4000D7A002F003FED84908600846006820B17C
:10BA50000846006802F0C1FD02E04FF0FF30E2E767
:10BA6000142005214FF400730022CDE90010CF49C6
:10BA7000CFA002F0EBFDD04908600846006820B175
:10BA80000846006802F0A9FD02E04FF0FF30CAE767
:10BA9000142005214FF400730022CDE90010C7499E
:10BAA000C7A002F0D3FDC84908600846006820B16D
:10BAB0000846006802F091FD02E04FF0FF30B2E767
:10BAC0000020B0E72DE9FC474FF0000A3B2004F0CE
:10BAD000C9FBBE4908803D2004F0C4FBBC49088076
:10BAE0003F2004F0BFFBBB4908800020BA49086032
:10BAF000BA490860BA490860B449B1F90010B64AB9
:10BB00001268881805F025FE80460022B54B05F026
:10BB1000A3FD064607F01AFD0446B34AB34B05F0F1
:10BB200029FDB34A03C2AA49B1F90010AB4A126811
:10BB3000881805F00EFE06460022AA4B05F08CFD83
:10BB4000804607F003FD0446A74AA84B05F012FD06
:10BB5000A84A03C29F49B1F90010A14A1268881887
:10BB600005F0F7FD804600229E4B05F075FD064668
:10BB700007F0ECFC04469C4A9C4B05F0FBFC9E4AFB
:10BB800003C200229D4B9A4903C905F091FE1CD2C5
:10BB900000229A4B964903C905F0E6FC8046002234
:10BBA000974B05F0E7FC04460D468B48006805F00E
:10BBB000D0FD064622462B4605F035FCCDE90001B6
:10BBC00005F012FE844908601BE089480CC800207B
:10BBD0008A4905F0C9FC80460022894B05F0CAFC61
:10BBE00004460D467C48006805F0B3FD0646224633
:10BBF0002B4605F0B9FCCDE9000105F0F5FD7649CD
:10BC0000086000227D4B7B4903C905F051FE1CD220
:10BC100000227A4B774903C905F0A6FC06460022AC
:10BC2000774B05F0A7FC04460D466C48006805F00C
:10BC300090FD804622462B4605F0F5FBCDE900013C
:10BC400005F0D2FD654908601BE06A480CC8002079
:10BC50006A4905F089FC06460022694B05F08AFC1A
:10BC600004460D465D48006805F073FD8046224697
:10BC70002B4605F079FCCDE9000105F0B5FD5749EB
:10BC8000086000225D4B5C4903C905F011FE1CD21F
:10BC900000225A4B584903C905F066FC06460022AB
:10BCA000574B05F067FC04460D464D48006805F00B
:10BCB00050FD804622462B4605F0B5FBCDE900013C
:10BCC00005F092FD464908601BE04B480CC8002077
:10BCD0004A4905F049FC80460022494B05F04AFCE0
:10BCE00004460D463E48006805F033FD06462246F0
:10BCF0002B4605F039FCCDE9000105F075FD38490A
:10BD000008603B2004F0AEFA30490880A6E000222B
:10BD10003A4B374903C905F0CBFD74D22E48006871
:10BD20000A302D49086073E0C6BDC3E6D0DED5FDFC
:10BD3000D6B53A0A0000000001E80108783D202548
:10BD400064200000793D2025642000007A3D2025F4
:10BD500064200A00C9BDC6C2D6B53A0A0000000078
:10BD6000656C696D696E61746532357131323800A8
:10BD7000F419002000080140656C696D696E6174FA
:10BD8000653235713132384F4B0D0A00746573746A
:10BD90005F73656D00000000340000202DB70008BF
:10BDA0007573617274000000280000208FB50008D0
:10BDB0006D707536303530002C000020BDB20008A3
:10BDC0007461736B33000000300000205C000020C1
:10BDD0005E00002060000020380000203C000020B1
:10BDE000400000200000D040A79196CADBA54C403F
:10BDF000780000208000002088000020008056404D
:10BE000000C07240FFE77C4800680A387A49086041
:10BE10007A49B1F90010784A1268881805F099FC3F
:10BE200080460022764B05F017FC064607F08EFB95
:10BE30000446744A744B05F09DFB744A03C20AF130
:10BE400001001FFA80FA64209AFBF0F100FB11A0B8
:10BE500020B93B2004F006FA684908804FF06632AA
:10BE60006B4B6A4903C905F023FD06D3694A6A4B47
:10BE7000664903C905F004FD04D244F620608245FA
:10BE8000FFF645AF4FF0000A3D2004F0EBF963499F
:10BE9000088037E00022624B624903C905F008FDC3
:10BEA00005D2614800680A305F49086004E05E48D6
:10BEB00000680A385C4908605849B1F900105A4ACC
:10BEC0001268881805F045FC064600224C4B05F028
:10BED000C3FB044607F03AFB80464A4A4A4B05F04A
:10BEE00049FB504A03C20AF101001FFA80FA64209C
:10BEF0009AFBF0F100FB11A020B93D2004F0B2F94B
:10BF0000464908804FF06632414B464903C905F067
:10BF1000CFFC06D33F4A404B424903C905F0B0FC71
:10BF200003D244F620608245B4DB4FF0000A3F2084
:10BF300004F098F93D49088037E00022384B3C492D
:10BF400003C905F0B5FC05D23A4800680A30394902
:10BF5000086004E0374800680A3836490860334909
:10BF6000B1F90010334A1268881805F0F2FB064652
:10BF70000022234B05F070FB044607F0E7FA8046E9
:10BF8000204A214B05F0F6FA294A03C20AF10100C2
:10BF90001FFA80FA64209AFBF0F100FB11A020B98F
:10BFA0003F2004F05FF9214908804FF06632184BBA
:10BFB0001F4903C905F07CFC06D3164A164B1C49E1
:10BFC00003C905F05DFC03D244F620608245B4DB72
:10BFD00009480168184804F0DBFF13480168164857
:10BFE000001D04F0D5FF134801681348083004F021
:10BFF000CFFFBDE8FC870000380000205C00002077
:10C000000000D040A79196CADBA54C4078000020E4
:10C01000668656409A999999997956405E00002013
:10C0200000805640800000203C000020600000207E
:10C03000880000204000002001E8010810B540F20F
:10C0400024410548FEF78EFF20B100F046F9024872
:10C05000FEF708FF10BD0000003801403848704767
:10C060003848704770B5384800684FF47A72B0FBB2
:10C07000F2F1B1F1807F00D31DE021F07F40401E3E
:10C080004FF0E022506150170F22002807DA130703
:10C090001D0E2E4B00F00F04241F1D5503E0130747
:10C0A0001C0E2B4B1C5400BF00204FF0E02290616F
:10C0B0000720106100BF00F0E0F800F062F800F027
:10C0C000E1F9FFF7CDFF0446FFF7C8FF054621461B
:10C0D00001F0DCFD70BD10B501F012F900F0A3F91C
:10C0E00001F01BF910BD70B50446002502F075F98A
:10C0F0001FE020780A280AD10D211648FEF7AEFE6F
:10C1000000BF80211348FEF717FF0028F9D014F86C
:10C11000011B1048FEF7A2FE04E06D1C0E4885428C
:10C1200000D905E080210B48FEF706FF0028F4D077
:10C1300000BF20780028DCD102F05DF970BD00005E
:10C14000F4090020F41900200000002018ED00E0A0
:10C1500000E400E0003801400087930308B54FF485
:10C16000A060FCF721F925208DF8000001208DF852
:10C1700001008DF802008DF803006846FCF719F9FC
:10C1800008BD00B585B001210420FDF78FFB01211A
:10C190008803FDF78BFB4FF48070ADF81000102082
:10C1A0008DF8130003208DF8120004A99148FDF7C3
:10C1B0005BF84FF40070ADF8100018208DF81300F4
:10C1C00003208DF8120004A98A48FDF74DF84FF4BA
:10C1D0008060ADF8100004208DF8130004A9854894
:10C1E000FDF742F84FF4165000900020ADF804001F
:10C1F000ADF80600ADF80800ADF80C000C20ADF865
:10C200000A0069467C48FEF730FDFFF7A7FF0122D0
:10C2100040F224417848FEF7C0FD012240217648D3
:10C22000FEF7E0FD01217448FEF7ABFD05B000BD4F
:10C230001FB5044600940020ADF80400ADF80600D8
:10C24000ADF80800ADF80C000C20ADF80A00694606
:10C250006948FEF70AFDFFF781FF012240F2244101
:10C260006548FEF79AFD012240216348FEF7BAFDBA
:10C2700001216148FEF785FD1FBD00B58BB001218E
:10C280000846FDF706FB5C48001D00905B480190E6
:10C2900000200290C8200390002004908020059088
:10C2A000002006900790202008904FF440500990FD
:10C2B00000200A9069465248FCF710FC4FF4803089
:10C2C000FCF766FC012208214D48FCF73EFC0121E9
:10C2D0004B48FCF72EFC0BB000BD10B500214848C0
:10C2E000FCF727FC4FF48030FCF752FCC82044498F
:10C2F0005839C86501214248FCF71BFC41480068D9
:10C3000000F055FA10BD70B504460D46294620468A
:10C31000FEF7A4FD00BF80212046FEF70DFE002899
:10C32000F9D070BD2DE9F04107460D4616460024B0
:10C3300005E0295D3846FFF7E6FF601C84B2B44291
:10C34000F7DB00BF40213846FEF7F6FD0028F9D0A4
:10C35000BDE8F08170B506460C46002500BF615D62
:10C360003046FFF7D0FF6D1C605D0028F7D100BF9D
:10C3700040213046FEF7E0FD0028F9D070BD2DE9E0
:10C38000F04105460C46260AE7B231462846FEF73C
:10C3900065FD00BF80212846FEF7CEFD0028F9D0BC
:10C3A00039462846FEF75AFD00BF80212846FEF791
:10C3B000C3FD0028F9D0BDE8F08170B504460D46F4
:10C3C000E1B20D48FEF74AFD00BF80210A48FEF7A2
:10C3D000B3FD0028F9D0204670BD10B5044600BF5B
:10C3E00020210548FEF7A8FD0028F9D00248FEF7F5
:10C3F00039FD10BD0008014000380140F41900204B
:10C400005800024034000020704719480068704707
:10C4100070B5044602F0E6FB054615480460284660
:10C4200002F0E4FB70BD10B511480068401C1049D3
:10C43000086002F0B1F80446A06C401EA064A06C35
:10C4400018B9606CA06402F047F902F06FFB10BDF0
:10C450000146002902DA4FF0FF3008E04FF47A720B
:10C460004A4302F2E7324FF47A7392FBF3F07047DB
:10C47000980000200020704700207047002070477F
:10C480000020704710B5234C02E020688047241D2F
:10C4900021488442F9D310BD10B51F4C02E020683A
:10C4A0008047241D1D488442F9D310BD10B50446B1
:10C4B000FFF7F2FFFFF7A9FA10BD1CB51420022107
:10C4C0000B020022CDE90010AFF21F0114A002F010
:10C4D000BDF80446204602F080F81CBD10B502F0FD
:10C4E00081FBFFF7BFFD01F08CF802F05FFB01F06C
:10C4F000C3FEFFF7E2FF02F065FB00F059F801F020
:10C50000D5FE002010BD10B502F06CFBFFF7E6FF72
:10C51000002010BDA4390108A8390108AC39010870
:10C520006D61696E0000000070B537E002F05AFBE3
:10C53000054600F052F818B32C480068A0F1140426
:10C5400004F11400D0E900215160D0E9001211601B
:10C550004060006000BF01F040FFA06F10B12046B6
:10C56000A16F8847204601F050FE012805D101F057
:10C5700042FF284602F03AFB70BD01F03CFF03E0A9
:10C58000284602F033FBF7E7284602F02FFBA06AAB
:10C5900001F074FC204601F028FE00BF00F01DF8F9
:10C5A0000028C3D100BFE7E701E0FFF7BDFFFCE7CC
:10C5B0001FB520200721C2000D4BCDE90032CDE987
:10C5C000021000230B4A0CA10D4801F0CBFF0C48D0
:10C5D00002F003F81FBD0A48704704490868884202
:10C5E00001D0012070470020FCE700003C01002042
:10C5F0003C1B0020A9C500087469646C650000003C
:10C60000BC1A00204268116042684A6041600860BC
:10C6100070472DE9F04105460C469046204602F051
:10C6200089F8B8F1000F03D0B8F1010F23D105E06C
:10C6300004F114012846FFF7E5FF1CE02E680FE027
:10C64000A6F1140794F8350097F83510884206DAF9
:10C6500004F1140107F11400FFF7D4FF02E036687B
:10C66000AE42EDD100BFAE4204D104F11401284620
:10C67000FFF7C8FF00BF00BF0020BDE8F08170B524
:10C6800005460EE002F0AEFA06462868A0F1140452
:10C690004FF0FF302063204601F081FF304602F06A
:10C6A000A5FA284600F011FE0028EBD0002070BD4E
:10C6B0002DE9F04104460D4616461F462A46012143
:10C6C000204601F042FD204600F007FEA683677277
:10C6D0000020BDE8F08110B5044604F11400FFF716
:10C6E000CEFF204601F04FFD002010BD2DE9F041A6
:10C6F00005460E4617462946012001F051FD044625
:10C7000014B92046BDE8F081204600F0E6FDA6837E
:10C7100067722046F6E710B5044604F11400FFF7EF
:10C72000AEFF204601F061FD002010BD73B5054647
:10C7300002F058FA0646A88B002806DDA88B401E9A
:10C74000A883304602F052FA28E0019828B9304612
:10C7500002F04CFA6FF001007CBD01F01DFF0446B1
:10C76000002020636A7A214605F11400FFF751FF8B
:10C770000198002809DD01AA002104F14C0002F013
:10C78000B9F904F14C0002F026F9304602F02EFA15
:10C7900001F09EFD206B08B1206BDDE70020DBE798
:10C7A00010B5044600212046FFF7C0FF10BD70B54C
:10C7B0000446002502F016FA064604F1140000F0C3
:10C7C00084FD28B904F1140000F08FFD012502E07A
:10C7D000A08B401CA083304602F008FA012D01D145
:10C7E00001F076FD002070BD2DE9F04104460E46B3
:10C7F0001546012E10D12F4602F0F4F9804604F1BF
:10C800001400FFF73CFFA783404602F0EFF901F068
:10C810005FFD0020BDE8F0814FF0FF30FAE770B512
:10C8200004460D4616462A460221204601F08DFC9C
:10C83000204600F052FD0120A08300202062FF204E
:10C84000A0770020E077667270BD10B5044604F151
:10C850001400FFF714FF204601F095FC002010BDE6
:10C8600070B505460E462946022001F099FC0446A3
:10C870000CB9204670BD204600F02FFD0120A0839A
:10C8800000202062FF20A0770020E077667220461B
:10C89000F0E710B5044604F11400FFF7F0FE20465F
:10C8A00001F0A3FC002010BD73B5044601F074FE36
:10C8B000054602F097F9064600202863206AA84240
:10C8C00003D1E07F401CE07749E000BFA08B002847
:10C8D0000ADDA08B401EA083256295F83500A07765
:10C8E000E07F401CE0773AE0019840B96FF001002A
:10C8F0002863304602F07AF96FF001007CBD95F8AC
:10C900003500216A91F83510884205DA05F13502C3
:10C910000221206A01F055FF627A294604F11400D1
:10C92000FFF777FE0198002809DD01AA002105F133
:10C930004C0002F0DFF805F14C0002F04CF83046F4
:10C9400002F054F901F0C4FC286B28B1286B0930BF
:10C9500000B9BBE7286BD1E702F044F90646304640
:10C9600002F044F90020C9E72DE9F0410446002710
:10C9700001F012FE054602F035F90646206AA8428B
:10C9800007D0781E2863304602F030F9781EBDE8E3
:10C99000F081E07F401EE077E07FF8B9A07F216A58
:10C9A00091F83510884205D004F11E020221206A58
:10C9B00001F007FF04F1140000F087FC78B960690A
:10C9C000A0F11405256295F83500A077E07F401CA2
:10C9D000E07704F1140000F088FC012706E0A08B4A
:10C9E000401CA08300202062FF20A077304602F088
:10C9F000FDF8012F01D101F06BFC0020C7E70346D1
:10CA00004FF0FF30704770B504460D4616462A4673
:10CA10000321204601F099FB6672204600F05DFC80
:10CA20000020E06170BD10B5044604F11400FFF76A
:10CA300026FE204601F0A7FB002010BD70B505467C
:10CA40000E462946032001F0ABFB04460CB92046F4
:10CA500070BD6672204600F040FC0020E061204678
:10CA6000F6E710B5044604F11400FFF708FE20466F
:10CA700001F0BBFB002010BD2DE9F04704460F4636
:10CA80001FB94FF0FF30BDE8F0874FF0000802F00B
:10CA9000A9F88246E0693843E06104F1140000F02F
:10CAA00014FC002838D1666932E0A6F114054FF075
:10CAB000FF3995F8400000F0010040B1E86BE169F2
:10CAC0000840E96B884211D14FF000090EE095F85B
:10CAD000400000F0020048B1E86BE169084028B16D
:10CAE000E86BE1690840E8634FF000093668B9F186
:10CAF000000F0DD195F8400000F0040018B1E06976
:10CB0000E96B8843E061284601F049FD4FF00108D8
:10CB100004F114008642C8D1504602F067F8B8F11B
:10CB2000010F01D101F0D4FB0020ACE72DE9FF4754
:10CB300005460E461746DDF8308026B94FF0FF3027
:10CB400004B0BDE8F0874FF0FF3901F025FD044641
:10CB50000020206302F046F8824607F0010030B161
:10CB6000E8693040B0420AD14FF0000907E007F011
:10CB7000020020B1E869304008B14FF00009B9F176
:10CB8000000F0DD1B8F1000F03D0E8693040C8F8AC
:10CB9000000007F0040088B3E869B043E8612DE0C5
:10CBA000039818B96FF00100206327E0E66384F86A
:10CBB00040706A7A214605F11400FFF72AFD0398B8
:10CBC000002809DD03AA002104F14C0001F092FFC6
:10CBD00004F14C0001F0FFFE504602F007F801F0AE
:10CBE00077FB206B08B1206BAAE701F0FBFF8246C0
:10CBF000B8F1000F02D0E06BC8F80000504601F019
:10CC0000F5FF206B9CE72DE9F04104460D461746E1
:10CC1000012D10D101F0E6FF064604F11400FFF7E4
:10CC20002EFD0020E061304601F0E0FF01F050FBF6
:10CC30000020BDE8F0814FF0FF30FAE72DE9F04128
:10CC400004460D4616461F46DDF818802A46042184
:10CC5000204601F07AFA84F80980204600F03DFB76
:10CC6000E661278400206084A084E08404F1280029
:10CC700000F028FB0020BDE8F08110B5044604F167
:10CC80001400FFF7FCFC04F12800FFF7F8FC204635
:10CC900001F079FA002010BD2DE9F04105460E465D
:10CCA00017462946042001F07BFA044614B92046B1
:10CCB000BDE8F0816772204600F00FFB2684218CCE
:10CCC000880001F033F8E061E06920B9204601F006
:10CCD0008CFA0020ECE700206084A084E08404F15A
:10CCE000280000F0EFFA2046E2E710B5044604F110
:10CCF0001400FFF7C4FC04F12800FFF7C0FCE06952
:10CD000001F0BCF8204601F070FA002010BD2DE9BA
:10CD1000F74304460E46002701F03EFC054601F0AD
:10CD200061FF8046608C218C884207D1029828B927
:10CD3000404601F05BFFF81EBDE8FE8339E00020AD
:10CD40002863029828B9404601F050FF6FF00200B6
:10CD5000F2E7627A294604F12800FFF75AFC0298AC
:10CD600000280CDDFFF751FB074602AA002105F160
:10CD70004C0001F0BFFE05F14C0001F02CFE4046D6
:10CD800001F034FF01F0A4FA286B08B1286BD3E757
:10CD900001F028FF8046029800280ADDFFF735FBE6
:10CDA000C71B0298C01B02900298002801DA0020DD
:10CDB0000290608C218C8842C1D0A18CE06940F83F
:10CDC0002160A08C401CA084A08C218C884201DBB7
:10CDD0000020A084608C401C608404F1140000F0EA
:10CDE00074FA50B904F1140000F07FFA404601F0E3
:10CDF000FDFE01F06DFA00209EE7404601F0F6FED0
:10CE0000002099E770B504460D46002229462046C9
:10CE1000FFF77DFF70BD2DE9F74304460E4600275E
:10CE200001F0BAFB054601F0DDFE8046608C38B9A2
:10CE3000029828B9404601F0D9FEB81EBDE8FE832D
:10CE40003AE000202863029830B9404601F0CEFE57
:10CE50006FF001002863F1E7627A294604F11400BB
:10CE6000FFF7D7FB029800280CDDFFF7CEFA074644
:10CE700002AA002105F14C0001F03CFE05F14C0036
:10CE800001F0A9FD404601F0B1FE01F021FA286B46
:10CE900008B1286BD2E701F0A5FE80460298002871
:10CEA0000ADDFFF7B2FAC71B0298C01B0290029876
:10CEB000002801DA00200290608C0028C1D0E18CAB
:10CEC000E06950F821003060E08C401CE084E08C88
:10CED000218C884201DB0020E084608C401E60844D
:10CEE00004F1280000F0F1F950B904F1280000F035
:10CEF000FCF9404601F07AFE01F0EAF900209DE7D6
:10CF0000404601F073FE002098E72DE9F041044609
:10CF10000D461746012D16D101F064FE064604F1B8
:10CF20001400FFF7ACFB04F12800FFF7A8FB00207A
:10CF30006084A084E084304601F058FE01F0C8F916
:10CF40000020BDE8F0814FF0FF30FAE72DE9F05FF7
:10CF500004460F4690469946DDE90AAB3A4605215C
:10CF6000204601F0F2F884F809B0204600F0B5F947
:10CF7000C4F81C8009F1030020F003002084208CF9
:10CF8000001DBAFBF0F060840020A062E062206324
:10CF9000002608E0208C001DE16906FB0015206BCF
:10CFA00028602563761C608CB042F3DC0020A084EE
:10CFB000BDE8F09F10B5044604F11400FFF75FFBD5
:10CFC000204601F0E0F8002010BD10B5044604F141
:10CFD0001400FFF754FBE06900F050FF204601F019
:10CFE00004F9002010BD2DE9F04707468846914618
:10CFF0009A463946052001F0D3F8044614B9204674
:10D00000BDE8F08784F809A0204600F066F908F131
:10D01000030020F003002084A4F82290218C091D35
:10D02000628C01FB02F000F081FEE061E06920B952
:10D030002046FFF7CAFF0020E2E70020A062E0627E
:10D040002063002508E0208C001DE16905FB001627
:10D05000206B306026636D1C608CA842F3DC0020DE
:10D06000A0842046CCE72DE9F04104460F46164641
:10D07000208CB04203D24FF0FF30BDE8F08101F0C8
:10D08000B1FD8046256B2DB9404601F0AFFD6FF034
:10D090000200F2E728682063404601F0A7FD002067
:10D0A000286032463946281D00F09FF901F09AFDAC
:10D0B0008046E06A08B1E06A0560E562A06A00B9EE
:10D0C000A562A08C401CA08404F1140000F0FDF8BF
:10D0D00050B904F1140000F008F9404601F086FD53
:10D0E00001F0F6F80020C8E7404601F07FFD00207F
:10D0F000C3E72DE9F04104460F461646208CB042A6
:10D1000003D24FF0FF30BDE8F08101F06BFD8046A7
:10D11000256B2DB9404601F069FD6FF00200F2E782
:10D1200028682063404601F061FD32463946281DDB
:10D1300000F05BF901F056FD8046A06A2860A56208
:10D14000E06A00B9E562A08C401CA08404F11400E0
:10D1500000F0BBF850B904F1140000F0C6F84046E6
:10D1600001F044FD01F0B4F80020CCE7404601F0A6
:10D170003DFD0020C7E72DE9FF4704460F469046D6
:10D180004FF0000901F008FA054601F02BFD824638
:10D19000A08C48B9039838B9504601F027FD6FF0CC
:10D1A000010004B0BDE8F0873CE00020286303984C
:10D1B00030B9504601F01AFD6FF001002863F0E726
:10D1C000627A294604F11400FFF723FA0398002835
:10D1D0000CDDFFF71AF9814603AA002105F14C0086
:10D1E00001F088FC05F14C0001F0F5FB504601F020
:10D1F000FDFC01F06DF8286B08B1286BD1E701F058
:10D20000F1FC8246039800280CDDFFF7FEF8A0EB46
:10D2100009090398A0EB090003900398002801DA9C
:10D2200000200390A08C0028BFD0A66A3068A062BE
:10D23000E06AB04201D10020E062A08C401EA084D0
:10D24000504601F0D3FC208C404501D2208C00E0F8
:10D2500040460246311D384600F0C7F801F0C2FCD6
:10D260008246206B30602663504601F0BFFC0020F0
:10D2700097E72DE9F04104460E469046012E1ED157
:10D2800001F0B0FC074604F11400FFF7F8F90AE0DA
:10D29000A56A2868A062E06AA84201D10020E06285
:10D2A000206B28602563A06A0028F1D1A08438464D
:10D2B00001F09CFC01F00CF80020BDE8F0814FF07B
:10D2C000FF30FAE740600060704701460868884216
:10D2D00001D1012070470020FCE710B5044604F19D
:10D2E0001400FFF7EFFF002010BD70B50446206862
:10D2F000A0F11405284601F052F9002070BD00008D
:10D3000010B501F06FFC04460C480078401C0B4936
:10D310000870204601F06AFC10BD10B501F062FCF7
:10D32000044606480078401E04490870204601F073
:10D330005DFC10BD01480078704700009C00002093
:10D3400010B5FFF7F7FF10B1FE48006810BD01F0FF
:10D3500023F9044614B9FB480068F7E7206BF5E7AA
:10D3600070B50446FFF7E6FF10B1F648046070BDE3
:10D3700001F012F9054615B9F2480460F7E72C638D
:10D3800000BFF4E710B5FFF7D5FF08B1ED4810BDB9
:10D3900001F002F9044614B104F13000F7E7E9485E
:10D3A000F5E7F0B50C460546E6B2042A15D300F0C1
:10D3B000030797B9014646EA062343EA034304E01C
:10D3C00008C108C108C108C1103A102AF8D201E00A
:10D3D00008C1121F042AFBD20D4601E005F8016BBB
:10D3E000171EA2F10102F9D1F0BD2DE9F0410F465F
:10D3F000164604463D463346102B28D305F0030C51
:10D4000004F003084CEA080CBCF1000F1FD12146C0
:10D410002A4610E052F804CB41F804CB52F804CB72
:10D4200041F804CB52F804CB41F804CB52F804CBBA
:10D4300041F804CB103B102BECD204E052F804CBA3
:10D4400041F804CB1B1F042BF8D20C46154603E011
:10D4500015F801CB04F801CBB3F1000CA3F10103E3
:10D46000F6D1BDE8F08170B50C46014623468B42EB
:10D4700010D29D188D420DD91144134405E05D1E54
:10D480002B462E784D1E29462E70151EA2F1010244
:10D49000F5D108E003E013F8015B01F8015B151E0C
:10D4A000A2F10102F7D170BDF0B5034600201C4681
:10D4B0000D4608E026782F78F61B301E00D004E0D9
:10D4C000641C6D1C521E002AF4D800BFF0BD01463A
:10D4D0000A4600E0521C10780028FBD1501A704711
:10D4E000F0B506460F463846FFF7F1FF05460DB981
:10D4F0003046F0BD3046FFF7EAFF044609E0641EFF
:10D500002A4639463046FFF7CFFF08B93046F0E7E4
:10D51000761CAC42F3DA0020EBE730B503460C464C
:10D5200000BF13F8011B14F8012B412902DB5A2913
:10D5300000DC2031412A02DB5A2A00DC20329142F1
:10D5400001D10029EDD1881A30BD70B50346A2B1D2
:10D5500018460C4600BF14F8016B00F8016B3EB989
:10D5600002E0002500F8015B551E2A1EF9D102E0F9
:10D57000551E2A1EEFD100BF00BF184670BD30B542
:10D58000034600200BE011F8015B1C78641B64B2B9
:10D59000201E02D113F8015B05B902E0521E002AD9
:10D5A000F1D100BF30BD024601E0521C491C107889
:10D5B00018B110780B789842F7D010780B78C01A11
:10D5C000704702460B46114600E0491C087810B12E
:10D5D000881A9842F9D3881A704770B504462046D5
:10D5E000FFF775FF451C284600F0A0FB06460EB964
:10D5F000002070BD2A4621463046FFF7F6FE304631
:10D60000F7E770470146002009E00B685A1C0A60E2
:10D610001A7800EB800302EB4302A2F130000A68A3
:10D620001278303A0A2AF0D370472DE9F04F85B0CE
:10D630000D469C46DDE90F740E9B04F04008B8F1DE
:10D64000000F02D0DFF8008101E0DFF80081CDF8A3
:10D65000008004F01008B8F1000F01D024F001049C
:10D6600004F00108B8F1000F02D04FF0300801E0DB
:10D670004FF02008C246002604F00208B8F1000F5F
:10D6800011D0002A02DA2D2652420CE004F00408E0
:10D69000B8F1000F01D02B2605E004F00808B8F11E
:10D6A000000F00D02026002142B94FF0300B8846F1
:10D6B000491C0DF1040909F808B01DE01AE0E14623
:10D6C000B9F10A0F08D14FF00A0BB2FBFBFE0BFBBE
:10D6D0001E28B2FBFBF202E002F00F08120900BFA5
:10D6E000DDF8009019F808B08846491C0DF10409CE
:10D6F00009F808B0002AE2D1B94200DD0F46DB1B71
:10D7000004F01108B8F1000F10D116B1002B00DDA4
:10D710005B1E06E0A84203D84FF0200880F8008086
:10D72000401CB3F10008A3F10103F3DC26B1A842C9
:10D7300001D806705B1E401C04F01008B8F1000F01
:10D7400010D10AE0A0000020253901081439010891
:10D75000A84201D880F800A0401CB3F10008A3F152
:10D760000103F5DC06E0A84203D84FF0300880F84A
:10D770000080401CB8467F1E8845F4DC08E0A842C3
:10D7800005D80DF1040818F8018080F80080401CCD
:10D79000B1F10008A1F10101F1DC06E0A84203D8D3
:10D7A0004FF0200880F80080401CB3F10008A3F17E
:10D7B0000103F3DC05B0BDE8F08F2DE9FF4F89B020
:10D7C000804644460A984044461E464504D24FF0DF
:10D7D000FF36A6EB08000A906FE10B980078252829
:10D7E00006D0B44202D80B9800782070641C61E126
:10D7F000002526E00B98401C0B900B9800782D28F4
:10D8000002D145F010051CE00B9800782B2802D1BE
:10D8100045F0040515E00B980078202802D145F06A
:10D8200008050EE00B980078232802D145F020056A
:10D8300007E00B980078302802D145F0010500E0A0
:10D8400000E0D7E700BF4FF0FF370B980078303883
:10D850000A2804D20BA8FFF7D5FE07460EE00B9866
:10D8600000782A280AD10B98401C0B900C9880C88D
:10D870000C90002F02DA7F4245F010054FF0FF397F
:10D880000B9800782E281CD10B98401C0B900B98FD
:10D89000007830380A2804D20BA8FFF7B3FE81467F
:10D8A0000AE00B9800782A2806D10B98401C0B90B0
:10D8B0000C9850F8049B0C90B9F1000F01DA4FF06E
:10D8C0000009002004900B980078682803D00B987A
:10D8D00000786C2805D10B98007804900B98401CB8
:10D8E0000B900A2005900B9800786F2875D00CDCFF
:10D8F000632813D004DC252870D058286FD18DE020
:10D9000064286DD06928F9D18FE070286AD0732817
:10D9100025D0752878D07828F0D182E005F0100065
:10D9200040B904E0B44201D820202070641C781E65
:10D93000071EF7DC0C9810F8041B0C90C8B2079077
:10D94000B44201D807982070641C04E0B44201D8A6
:10D9500020202070641C781E071EF7DCAAE00C98BB
:10D96000006806900C98001D0C90069808B9A8A0B5
:10D9700006900698FFF7ABFD8346B9F1000F02DD74
:10D98000CB4500DDCB4605F0100048B904E0B442B9
:10D9900001D820202070641C38467F1E5845F6DCD4
:10D9A000002008900BE0B44202D80698007820705E
:10D9B000641C0698401C06900898401C0890089823
:10D9C0005845F0DB04E0B44201D820202070641CEC
:10D9D00038467F1E5845F6DC6CE01CE015E028E078
:10D9E00022E0FFE7781C10B9082745F00105CDE9D2
:10D9F000007902950C9804C8102331460C902046FB
:10DA0000FFF713FE044655E012E0B44201D825208A
:10DA10002070641C4EE0082005901DE045F0400594
:10DA200000BF1020059017E000BF45F0020500BFC1
:10DA300012E0B44201D825202070641C0B980078B5
:10DA400030B1B44202D80B9800782070641C02E018
:10DA50000B98401E0B902DE000BF04986C2807D156
:10DA60000C9850F804AB0C9005F00200B8B116E029
:10DA7000049868280BD10C9830F8041B1FFA81FA1F
:10DA80000C9005F0020050B10FFA8AFA07E00C98EA
:10DA900050F804AB0C9005F0020000B100BFCDE9D6
:10DAA00000790295524631462046059BFFF7BDFDA1
:10DAB000044600BF0B98401C0B900B980078002880
:10DAC0007FF48BAEB44201D8207001E000203070AA
:10DAD000A4EB08000DB0BDE8F08F0FB4F8B5044614
