:020000040800F2
:1000000090480020A1010008670400085F04000870
:10001000630400085B020008D90400080000000027
:100020000000000000000000000000006B04000859
:100030005F02000800000000690400086D04000869
:10004000BB010008BB010008BB010008BB010008A0
:10005000BB010008BB010008BB010008BB01000890
:10006000BB010008BB010008BB010008BB01000880
:10007000BB010008BB010008BB010008BB01000870
:10008000BB010008BB010008BB010008BB01000860
:10009000BB010008BB010008BB010008BB01000850
:1000A000BB010008BB010008BB010008BB01000840
:1000B000BB010008BB010008BB010008BB01000830
:1000C000BB010008BB010008BB010008BB01000820
:1000D000BB010008BB010008BB010008BB01000810
:1000E000BB010008BB010008BB01000800000000C4
:1000F0000000000000000000000000000000000000
:10010000BB01000800F002F800F03AF80AA090E8FD
:10011000000C82448344AAF10107DA4501D100F0C2
:100120002FF8AFF2090EBAE80F0013F0010F18BF55
:10013000FB1A43F001031847BC070000DC0700006E
:10014000103A24BF78C878C1FAD8520724BF30C803
:1001500030C144BF04680C607047000000230024D5
:1001600000250026103A28BF78C1FBD8520728BFC7
:1001700030C148BF0B6070471FB51FBD10B510BD23
:1001800000F031F81146FFF7F7FF00F00FFB00F029
:100190004FF803B4FFF7F2FF03BC00F057F800007C
:1001A0000948804709480047FEE7FEE7FEE7FEE70B
:1001B000FEE7FEE7FEE7FEE7FEE7FEE70448054947
:1001C000054A064B70470000750400080501000849
:1001D00090080020904800209028002090280020BF
:1001E000704770477047754600F02CF8AE46050022
:1001F0006946534620F00700854618B020B5FFF742
:10020000DDFFBDE820404FF000064FF000074FF043
:1002100000084FF0000B21F00701AC46ACE8C00924
:10022000ACE8C009ACE8C009ACE8C0098D4670472D
:1002300010B50446AFF300802046BDE81040FFF73C
:10024000A8BF0000004870472C0800200149182072
:10025000ABBEFEE726000200704700BFFEE7704716
:1002600070B506460C461546002306E0304600F001
:1002700007F8E054761C581C83B2AB42F6DB70BD25
:1002800001460878704701460868704701460888AB
:10029000704700002DE9FE4F05460E4617463448CC
:1002A00002900020019000908146E80A4FEAC02A9F
:1002B000C5F30A00C0F50068474506D905EB0800FC
:1002C0000090A7EB08001FFA80F94FF40062504637
:1002D0000299FFF7C5FF002407E0315D2819C0F33C
:1002E0000A0202988154601C84B2A7EB0900A04264
:1002F000F3DC00F039FA00F0A7FA40F2053000F024
:100300004DF94FF4417000F049F940F2023000F02D
:1003100045F9284600F0B2F90190002410E09DF85C
:10032000040068B9A34604EBDB725210104B33F89B
:1003300012100AEB040000F041F90190A01C84B2F5
:10034000B4F5006FEBD328783178884202D00020D2
:10035000BDE8FE8FB9F1000F08D006EB08014A4650
:100360000098FFF797FF0020009081460120EFE7FB
:100370002C0000202DE9F84305460E46224F0020B0
:100380000090E80A4FEAC0284FF400623946404620
:10039000FFF766FFC5F30A003E5400F0E5F900F0F0
:1003A00053FA40F2053000F0F9F84FF4417000F0D4
:1003B000F5F840F2023000F0F1F8C5F30A00385CBD
:1003C000FF2802D0284600F059F9002410E09DF8DB
:1003D000000068B9A14604EBD97252100A4B33F8F9
:1003E000121008EB040000F0E9F80090A01C84B2A1
:1003F000B4F5006FEBD32878B04202D00020BDE8FE
:10040000F8830120FBE700002C0000202DE9F843D1
:1004100005460C46260EC4F30747C4F3072804F02C
:10042000FF098DF800908DF801808DF802708DF82D
:100430000360042269462846FFF72CFFBDE8F883D5
:10044000F8B505460C462612E7B28DF800708DF817
:100450000160022269462846FFF71CFFF8BD00BF75
:10046000FEE700BFFEE770477047704710B500F029
:1004700035F810BD10B51448006840F0010012496D
:10048000086008464068114908400F49486008461E
:1004900000680F4908400C4908600846006820F4CD
:1004A00080200860084640680A49084006494860BC
:1004B0000846006806490840034908604FF41F00D9
:1004C000886000F0D9F910BD001002400C00FFE870
:1004D000FFFFF6FEFFFF00F700BFFEE704480068DD
:1004E00020B103480068401E0149086070470000C1
:1004F0002800002000B50346012200BF00F00CF8E0
:1005000002465B1E012A01D1002BF7D1012A00D13E
:100510000422104600BD000000200A49C96801F00D
:10052000010109B101200CE00649C96801F0100180
:1005300009B1032005E00349C96801F0040101B1D4
:10054000022070470020024000B50346012200BF90
:1005500000F00CF802465B1E012A01D1002BF7D1F6
:10056000012A00D10422104600BD000000200A49E3
:10057000C96C01F0010109B101200CE00649C96C08
:1005800001F0100109B1032005E00349C96C01F035
:10059000040101B10220704700200240064A02EB2C
:1005A0009011096800F01F0301229A401143024B89
:1005B00003EB9012116070470020024070B50446B2
:1005C0000D4600262A480088B0F5007F35D229481C
:1005D000844219D24FF47020FFF78CFF0646002E9C
:1005E00043D12548006940F0010023490861258076
:1005F0004FF47020FFF77EFF06461F48006920F089
:1006000001001D49086130E04FF47020FFF79CFFA6
:10061000064656BB1848006D40F0010016490865B3
:1006200025804FF47020FFF78FFF06461248006DBB
:1006300020F001001049086517E04FF47020FFF723
:1006400059FF06468EB90C48006940F001000A497E
:10065000086125804FF47020FFF74CFF06460648DE
:10066000006920F0010004490861304670BD0000B7
:10067000E0F7FF1FFFFF07080020024030B50546E6
:1006800036480088B0F5007F48D9354885421ED2EB
:100690004FF47020FFF72EFF0446002C5BD1314849
:1006A000006940F002002F49086108464561006971
:1006B00040F0400008614FF47020FFF71BFF044634
:1006C0002848006920F002002649086143E04FF401
:1006D0007020FFF739FF0446002C3CD12148006D03
:1006E00040F002001F49086508464565C06900F0F2
:1006F000020008B1084645611A48006D40F040000C
:10070000184908654FF47020FFF71EFF044615488E
:10071000006D20F00200134908651CE04FF47020C2
:10072000FFF7E8FE0446B4B90E48006940F0020045
:100730000C49086108464561006940F040000861C5
:100740004FF47020FFF7D6FE04460648006920F0FB
:10075000020004490861204630BD0000E0F7FF1F99
:10076000FFFF0708002002400C48006900F08000ED
:1007700020B10B48094948600A4848600A48008887
:10078000B0F5007F09D90548006D00F0800020B168
:100790000348024948640348486470470020024007
:1007A00023016745AB89EFCDE0F7FF1FFFF7DCFFC3
:1007B00000F04AF840F20530FFF7F0FE4FF44170C8
:1007C000FFF7ECFE40F20230FFF7E8FE1848FFF7B3
:1007D00055FF55211648FFF7CDFD1548FFF750FD91
:1007E0001449087045F6A5211148401CFFF728FE62
:1007F0000F48401CFFF74AFD0F4908800F490C487D
:10080000C01CFFF703FE0A48C01CFFF73CFD0C4963
:1008100008601E220B490648C01DFFF73BFD1E2243
:1008200008490348C01DFFF71BFD00BFFEE700009D
:1008300000000108000000202000002021436587FF
:1008400024000020010000200848006900F4007026
:1008500020B90748054988600648886000BF0348FA
:10086000006900F400700028F9D0704700200240B1
:1008700023016745AB89EFCD10B500F001F810BD3D
:10088000002000211A4A126842F48032184B1A6084
:1008900000BF401C164A126802F4003119B94FF625
:1008A000FF729042F5D1124A126802F400320AB97E
:1008B00000BFFEE70E4A52680D4B5A601A46526856
:1008C0005A601A46526842F480625A601A46526868
:1008D00022F003025A601A46526842F001025A603E
:1008E00000BF034A526802F00402002AF9D07047A0
:1008F0000010024014090008000000202C00000035
:1009000040010008400900082C0000206448000055
:100910005C01000800010203040506070809101124
:1009200012131415161718192021222324252627FF
:100930002829300000000000000000000000000036
:0400000508000105E9
:00000001FF
