:020000040800F2
:1000000060240020450100087D0500083505000832
:1000100079050008AD010008710700080000000024
:10002000000000000000000000000000AB05000818
:100030000104000800000000A9050008AD05000843
:100040005F0100085F0100085F0100085F01000810
:100050005F0100085F0100085F0100085F01000800
:100060005F0100085F0100085F0100085F010008F0
:100070005F0100085F0100085F0100085F010008E0
:100080005F0100085F0100085F0100085F010008D0
:10009000190600085F0100085F0100085F01000801
:1000A0005F0100085F0100085F0100085F010008B0
:1000B0005F0100085F0100085F0100085F010008A0
:1000C0005F0100085F0100085F0100085F01000890
:1000D0005F0100085F0100085F0100085F01000880
:1000E0005F0100085F0100085F0100085F01000870
:1000F0005F0100085F0100085F0100085F01000860
:100100005F0100085F0100085F0100085F0100084F
:100110005F0100085F0100085F0100085F0100083F
:100120005F0100085F0100085F0100085F0100082F
:10013000DFF80CD000F028F8004800473110000824
:10014000602400200648804706480047FEE7FEE797
:10015000FEE7FEE7FEE7FEE7FEE7FEE7FEE7FEE777
:10016000B50500083101000830B5054600200346FA
:1001700000E05B1C934205D2EC5CC85C201A01D104
:10018000002CF6D130BD0000064C074D06E0E068BB
:1001900040F0010394E8070098471034AC42F6D3CE
:1001A000FFF7CAFF3C1400085C14000800BFFEE71C
:1001B0002DE9F04706468946154600242248066088
:1001C000466000202049487282466FF07F48042034
:1001D000087208208872002D02DC0020BDE8F0873C
:1001E000002406E019F8041017480B300155601C74
:1001F000C4B2AC42F6DB082D09DA2C4605E000213A
:1002000011480B300155601CC4B2082CF7DB0E49B5
:100210000E4800F05FFC824600210C4800F002FD11
:10022000074609E00021094800F0FCFC0746B8F148
:10023000000F01D0A8F10108012F02D0B8F1000F82
:10024000F0D15046CAE7000048000020006400409A
:100250002DE9F04706468946144600251C480660ED
:10026000466000201A49487282466FF07F48042099
:10027000087208468472002C02DC0020BDE8F0877A
:10028000002506E019F8051011480B304155681C8F
:10029000C5B2A542F6DB0E490E4800F01BFC8246B3
:1002A00000210C4800F0BEFC074609E00021094887
:1002B00000F0B8FC0746B8F1000F01D0A8F1010822
:1002C000012F02D0B8F1000FF0D15046D6E7000060
:1002D000480000200064004010B588B0044640F299
:1002E000197000F0F9FF40F2026000F0F5FF4FF4E2
:1002F000805303221821404800F044FE4FF400636D
:10030000032248213C4800F03DFE00221146142003
:1003100000F082FF394800F03DFA00208DF8180007
:100320008DF819008DF81A008DF81B008DF81C004F
:100330008DF81D008DF814008DF8150004208DF83F
:10034000160002208DF81700092C03D10420ADF807
:100350001E002EE0082C03D10820ADF81E0028E076
:10036000062C03D12020ADF81E0022E0052C03D17D
:100370002820ADF81E001CE0042C03D15020ADF85D
:100380001E0016E0032C03D1C820ADF81E0010E0BB
:10039000022C04D14FF4C870ADF81E0009E0012C06
:1003A00004D14FF44870ADF81E0002E01020ADF803
:1003B0001E0005A9114800F085FA0020ADF80A00DA
:1003C000ADF80C000120ADF80E000020ADF80000E3
:1003D000ADF80200ADF80400ADF80600ADF8080075
:1003E00001208DF81000684600F0E4F9022103486E
:1003F00000F0F9FA08B010BD0008014000640040A8
:10040000704770B505460C4600F09AFD40F2053085
:1004100000F0B0FC4FF4417000F0ACFC40F2023050
:1004200000F0A8FCA80A850206E0284600F012FDAC
:1004300005F58065601E84B2002CF6DC70BD70B5D9
:1004400006460C461546002306E0304600F007F845
:10045000E054761C581C83B2AB42F6DB70BD0146FB
:10046000087870472DE9FC5F05460E461746304870
:100470000190002000908146A80A4FEA802AC5F327
:100480000900C0F58068474506D905EB08000090D3
:10049000A7EB08001FFA80F94FF4806250460199DB
:1004A000FFF7CDFF002407E0315D2819C0F30902F2
:1004B00001988154601C84B2A7EB0900A042F3DCD0
:1004C00000F03EFD40F2053000F054FC4FF4417066
:1004D00000F050FC40F2023000F04CFC504600F0BE
:1004E000B9FC00240CE0A34604EBDB725210104B65
:1004F00033F812100AEB040000F04CFCA01C84B28C
:10050000B4F5806FEFD328783178884202D000208C
:10051000BDE8FC9FB9F1000F08D006EB08014A4680
:100520000098FFF79FFF0020009081460120EFE731
:100530005C00002000BFFEE710B54FF0E02000692E
:1005400020F001004FF0E0210861084840680849A8
:10055000086008460068074908600449086880F395
:10056000088800BF03480068804710BD00400008AD
:10057000200000201C00002000BFFEE770470000A4
:1005800010B5002807DA0A07140E054A00F00F0319
:100590001B1FD45403E00A07130E024A135410BD64
:1005A00018ED00E000E400E07047704710B500F07F
:1005B00081FB10BD10B51448006840F001001249DD
:1005C000086008464068114908400F4948600846DD
:1005D00000680F4908400C4908600846006820F48C
:1005E00080200860084640680A490840064948607B
:1005F0000846006806490840034908604FF41F0098
:10060000886000F0EFFE10BD001002400C00FFE813
:10061000FFFFF6FEFFFF00F71FB548A207CA01ABB8
:1006200007C349A000680090484A0021484800F0EC
:10063000DEF948480068B0F1005F0BD343484068DA
:1006400020B1424840684349086003E03F480068E1
:10065000404908603D4840683E490968884206D0E4
:100660003A4800683B490968884200D01FBD08220B
:1006700001A936480B30FFF777FD90B9364800687E
:1006800078B9012201A93548FFF7ECFEFF20344973
:10069000087001203349C87008222E480068FFF70F
:1006A00087FD0422694629480B30FFF75DFD0028CD
:1006B00042D12648C07B28490860084600680002ED
:1006C00008602248007C09680843234908600846FE
:1006D0000068000208601D48407C096808431E4904
:1006E000086008460068000208601848807C0968B5
:1006F0000843194908601A480078A8B108460068FC
:10070000B0F5E03F10D870211748FFF77AFE0220BD
:100710001449C87000200D498872082211490D48FB
:100720000068FFF745FD07E002201049C870082265
:1007300008480068FFF73CFD00BF97E7AA55AA01EB
:1007400055AA55AAFF000000AA55AA0234000020AD
:100750000064004004000020080000200030000871
:10076000000000200C0000200040000814000020C1
:1007700000BFFEE702E008C8121F08C1002AFAD134
:1007800070477047002001E001C1121F002AFBD111
:100790007047000010B504460548844207D140F276
:1007A000194000F0B9FD40F2194000F0A5FD10BD60
:1007B0000064004010B50021837A012202FA03F19F
:1007C0003E4A126842F001023C4B1A603B4A1C321E
:1007D00012688A43394B1C331A60C289DAB9374A26
:1007E0000C3212688A43354B0C331A60C288344B82
:1007F00003EA024243881A434389304C403444F8A8
:10080000332082882E4B03EA024203881A4343892D
:1008100004EBC3035A60C289012A1BD1274A0C3258
:1008200012680A43254B0C331A600288244B03EAF2
:10083000024243881A434389204C403444F8332011
:1008400082881F4B03EA0242C3881A43438904EBA0
:10085000C3035A6082893AB9184A121D12688A4342
:10086000164B1B1D1A6006E0144A121D12680A433B
:10087000124B1B1D1A6002893AB9104A14321268D1
:100880008A430E4B14331A6006E00C4A1432126885
:100890000A430A4B14331A60027C012A06D1074A24
:1008A0001C3212680A43054B1C331A60034A126853
:1008B00022F00102014B1A6010BD000000660040EA
:1008C0000000FFFF70B502464FF6FF73002014686A
:1008D00024F002041460146844F00104146000E081
:1008E0005B1E546804F001040CB9002BF8D1546865
:1008F00004F001040CB9002074E00C784FF040457E
:1009000005EA84744D784FF0407606EA05652C437D
:100910008D784FF4702606EA05452C43CD784FF4C8
:10092000E00606EA05552C434D896D1EC5F3090501
:100930002C43D4610C79012C04D1146844F0800458
:10094000146003E0146824F0800414604C79012CD6
:1009500004D1146844F04004146003E0146824F0E7
:10096000400414608C79012C04D1146844F02004F4
:10097000146003E0146824F020041460CC79012C86
:1009800004D1146844F01004146003E0146824F0E7
:10099000100414600C7A012C04D1146844F008048B
:1009A000146003E0146824F0080414604C7A012CED
:1009B00004D1146844F00404146003E0146824F0C3
:1009C00004041460146824F0010414604FF6FF73EB
:1009D00000E05B1E546804F001040CB1002BF8D158
:1009E00003B1012070BD42690A434261704710B5EE
:1009F00000F5D87303EB01131B6803F004031372B3
:100A0000137A3BB900F5D87303EB01131B685B0D38
:100A1000136006E000F5D87303EB01131B68DB08D5
:100A2000536000F5D87303EB01131B6803F0020356
:100A3000537200F5DA7303EB01131B681B0AD374BE
:100A400000F5DA7303EB01131B6803F00F039372D5
:100A500000F5DC7303EB01131B68D37200F5DC7344
:100A600003EB01131B681C0A147300F5DC7303EB22
:100A700001131B681C0C547300F5DC7303EB0113AA
:100A80001B681C0E947300F5DE7303EB01131B68E7
:100A9000D37300F5DE7303EB01131B681C0A147497
:100AA00000F5DE7303EB01131B681C0C547400F596
:100AB000DE7303EB01131B681C0E947421B9C36829
:100AC00043F02003C36003E0036943F020030361A4
:100AD00010BD000030B502460B460021906800F0C2
:100AE0008060B0F1806F00D110E0906800F000608D
:100AF000B0F1006F01D1012108E0906800F0805052
:100B0000B0F1805F01D1022100E00321032901D16E
:100B1000032030BD02F5C07000EB0110006800F04A
:100B2000010402F5C07000EB01100460187A88B966
:100B300018883B4C04EA40505C7A204302F5C074AC
:100B400004EB01142468204302F5C07404EB011483
:100B5000206013E06FF00704586804EAC0001C7AB4
:100B600020435C7A204302F5C07404EB011424682E
:100B7000204302F5C07404EB0114206002F5C2703A
:100B800000EB0110006820F00F0402F5C27000EBCA
:100B90000110046002F5C27000EB011000689C7A3D
:100BA000204302F5C27404EB01142060987B4FF0DF
:100BB0007F4404EA00605C7B4FF47F0505EA04444F
:100BC00020431C7B2D1205EA04242043DC7A2043B9
:100BD00002F5C47404EB01142060987C2C0404EA30
:100BE00000605C7C2D0205EA044420431C7C2D122D
:100BF00005EA04242043DC7B204302F5C67404EBA1
:100C00000114206002F5C07000EB0110006840F094
:100C1000010402F5C07000EB01100460084678E79B
:100C20000000E0FF30B502460020002321B1012979
:100C300007D002290FD109E09468144D04EA050396
:100C40000BE09468124D04EA050306E09468114D28
:100C500004EA050301E0002300BF00BF53B1A3F184
:100C60008064E41E44B10C4D2C443CB10B4D2C442B
:100C700044B905E0022007E0012005E0012003E07F
:100C8000012001E0002000BF00BF30BD03000004D0
:100C9000000300080000031003FDFFFB0003FDF745
:100CA0000349086000BF024909680029FBD1704769
:100CB0002C0000200448006820B103480068401E52
:100CC00001490860704700002C00002000B5034671
:100CD000012200BF00F00CF802465B1E012A01D180
:100CE000002BF7D1012A00D10422104600BD0000DC
:100CF00000200A49C96801F0010109B101200CE096
:100D00000649C96801F0100109B1032005E0034953
:100D1000C96801F0040101B10220704700200240BF
:100D200000B50346012200BF00F00CF802465B1E2E
:100D3000012A01D1002BF7D1012A00D1042210464B
:100D400000BD000000200A49C96C01F0010109B191
:100D500001200CE00649C96C01F0100109B1032023
:100D600005E00349C96C01F0040101B1022070479C
:100D700000200240064A02EB9011096800F01F03B0
:100D800001229A401143024B03EB9012116070470D
:100D90000020024070B504460D4600262A4800880F
:100DA000B0F5007F35D22948844219D24FF4702023
:100DB000FFF78CFF0646002E43D12548006940F01E
:100DC00001002349086125804FF47020FFF77EFF62
:100DD00006461F48006920F001001D49086130E007
:100DE0004FF47020FFF79CFF064656BB1848006D75
:100DF00040F001001649086525804FF47020FFF788
:100E00008FFF06461248006D20F00100104908656A
:100E100017E04FF47020FFF759FF06468EB90C48D3
:100E2000006940F001000A49086125804FF47020F4
:100E3000FFF74CFF06460648006920F00100044910
:100E40000861304670BD0000E0F7FF1FFFFF070894
:100E50000020024030B5054636480088B0F5007FD6
:100E600048D9354885421ED24FF47020FFF72EFF37
:100E70000446002C5BD13148006940F002002F4944
:100E8000086108464561006940F0400008614FF480
:100E90007020FFF71BFF04462848006920F002007D
:100EA0002649086143E04FF47020FFF739FF0446FC
:100EB000002C3CD12148006D40F002001F4908651C
:100EC00008464565C06900F0020008B10846456162
:100ED0001A48006D40F04000184908654FF4702032
:100EE000FFF71EFF04461548006D20F0020013496D
:100EF00008651CE04FF47020FFF7E8FE0446B4B923
:100F00000E48006940F002000C490861084645613E
:100F1000006940F0400008614FF47020FFF7D6FEF2
:100F200004460648006920F0020004490861204692
:100F300030BD0000E0F7FF1FFFFF07080020024060
:100F40000C48006900F0800020B10B480949486056
:100F50000A4848600A480088B0F5007F09D905486A
:100F6000006D00F0800020B1034802494864034846
:100F7000486470470020024023016745AB89EFCDEC
:100F8000E0F7FF1FF0B5044616460025002201F0E9
:100F90000F0501F0100707B1354300201EE00127BF
:100FA00087401F40C7B122684FEA800C0F2707FA1D
:100FB0000CF7BA43870005FA07F73A43282904D10A
:100FC000012787401F40676105E0482903D10127B9
:100FD00087401F4027612260471CB8B20828DED333
:100FE000082022E0012787401F40E7B16268A0F196
:100FF00008074FEA870C0F2707FA0CF7BA43A0F14E
:101000000807BF0005FA07F73A43282904D101274A
:1010100087401F40676105E0482903D101278740C9
:101020001F4027616260471CB8B21028DAD3F0BDB8
:10103000ADF6080D00246648057866A103C9CDE920
:1010400000016348001F00686449086060485F3819
:1010500000786349087000F0C9F92846FFF73CF9A9
:10106000B4E06420FFF71CFE601C84B258485F386F
:1010700000785B4908701E2C04DB0846007808B92C
:10108000FFF75AFA082269465648FFF76DF848B943
:1010900004205549C870082250480068FFF788F8B6
:1010A000FFF74AFA514800680028D9D04F48006835
:1010B000B0F5E03FD4D888E0082269464948FFF7F8
:1010C00053F8E0B90020484908700420C87008228D
:1010D00042480068FFF76CF8FF2142480B388173E3
:1010E00000208DF80800012202A939485F38FFF777
:1010F000B9F900203D490860FFF71EFA65E039485C
:101100000B38807A002860D0082269463548FFF7FE
:101110002BF8002859D033490B398A7A02A9344B6D
:101120001B68C8182F4900F069F82E480B38807AE0
:101130002F49096808442E49086008460068B0F540
:10114000806F12D309888AB22A4909682A4BC818C5
:1011500002A9FFF787F9274800682549096808446C
:10116000244908600020224908602248006820497C
:10117000096808441D49096888421AD31C48006858
:10118000B0F5806F09D21A4909888AB219490968ED
:10119000194BC81802A9FFF765F900208DF808005F
:1011A000012202A90A485F38FFF75CF900200F49C5
:1011B000086001200C490870012208480068FFF708
:1011C00047F8002007490B39887275E749E70000A6
:1011D0005F300008AA55AA0455AA55AA04000020A9
:1011E000000000203F0000200C000020080000202C
:1011F00024000020280000200040000830B50346ED
:10120000002003E00C5C1C54441CE0B2141EA2F14C
:101210000105EAB2F6D130BD2DE9F04103460D4695
:10122000164600240027A0462448006800F4E06029
:10123000B0F5A06F15D006DCB0F5407F18D0B0F542
:10124000806F19D110E0B0F5C06F06D0B0F5E06F37
:1012500012D100274FF0040815E001274FF00308D2
:1012600011E00227B8460EE003274FF001080AE01C
:1012700004274FF0000806E04FF4A06000F022F8C9
:101280000227B84600BF00BFC7F1040005FA00F40A
:10129000C8F104010F20C84030400443240108482D
:1012A000C45403F01F01012088405911890001F145
:1012B000E021C1F80001BDE8F08100000CED00E084
:1012C00000E400E002490143024A11607047000057
:1012D0000000FA050CED00E0064A02EB90110968E7
:1012E00000F01F0301229A401143024B03EB9012BE
:1012F0001160704700100240064A02EB9011096825
:1013000000F01F0301229A409143024B03EB90121D
:101310001160704700100240064A02EB9011096804
:1013200000F01F0301229A401143024B03EB90127D
:10133000116070470010024000200021264A126808
:1013400042F00102244B1A6000BF401C224A12687E
:1013500002F0020111B9B0F5A06FF6D11E4A126871
:1013600002F002020AB900BFFEE71B4A52681A4B9C
:101370005A601A4652685A601A46526842F48062AD
:101380005A601A465268154B1A40134B5A601A4657
:101390005268134B1A43104B5A601A46126842F0B7
:1013A00080721A6000BF0C4A126802F00072002AB4
:1013B000F9D0094A526822F00302074B5A601A46D4
:1013C000526842F002025A6000BF034A526802F0BB
:1013D0000802002AF9D0704700100240FFFFC3F74F
:1013E0000000040810B5FFF7A7FF10BD10B51248A4
:1013F00000684FF47A71B0FBF1F4601EB0F1807FA9
:1014000001D301200FE0601E4FF0E02148610F2161
:101410004FF0FF30FFF7B4F800204FF0E021886173
:1014200007200861002008B100BFFEE70021481E28
:10143000FFF7A6F810BD0000300000205C14000883
:101440000000002034000000740700089014000819
:10145000340000202C240000840700080000000055
:1014600000000000000000000000000000004F4BE2
:101470000000000000004E4F0000000000000000CF
:1014800000000000000000000000000000A24A046C
:0400000508000131BD
:00000001FF
